{
  "contractName": "Decentra",
  "abi": [
    {
      "inputs": [],
      "stateMutability": "nonpayable",
      "type": "constructor"
    },
    {
      "inputs": [],
      "name": "owner",
      "outputs": [
        {
          "internalType": "address",
          "name": "",
          "type": "address"
        }
      ],
      "stateMutability": "view",
      "type": "function",
      "constant": true
    },
    {
      "inputs": [
        {
          "internalType": "uint256",
          "name": "",
          "type": "uint256"
        }
      ],
      "name": "tweets",
      "outputs": [
        {
          "internalType": "address",
          "name": "tweetOwner",
          "type": "address"
        },
        {
          "internalType": "uint256",
          "name": "t_id",
          "type": "uint256"
        },
        {
          "internalType": "string",
          "name": "username",
          "type": "string"
        },
        {
          "internalType": "string",
          "name": "userAt",
          "type": "string"
        },
        {
          "internalType": "string",
          "name": "date",
          "type": "string"
        },
        {
          "internalType": "string",
          "name": "text",
          "type": "string"
        },
        {
          "internalType": "string",
          "name": "cId",
          "type": "string"
        },
        {
          "internalType": "bool",
          "name": "liked",
          "type": "bool"
        }
      ],
      "stateMutability": "view",
      "type": "function",
      "constant": true
    },
    {
      "inputs": [
        {
          "internalType": "address",
          "name": "",
          "type": "address"
        },
        {
          "internalType": "uint256",
          "name": "",
          "type": "uint256"
        }
      ],
      "name": "userNotifications",
      "outputs": [
        {
          "internalType": "uint256",
          "name": "id",
          "type": "uint256"
        },
        {
          "internalType": "string",
          "name": "text",
          "type": "string"
        },
        {
          "internalType": "string",
          "name": "image",
          "type": "string"
        }
      ],
      "stateMutability": "view",
      "type": "function",
      "constant": true
    },
    {
      "inputs": [
        {
          "internalType": "address",
          "name": "",
          "type": "address"
        },
        {
          "internalType": "uint256",
          "name": "",
          "type": "uint256"
        }
      ],
      "name": "userTweets",
      "outputs": [
        {
          "internalType": "address",
          "name": "tweetOwner",
          "type": "address"
        },
        {
          "internalType": "uint256",
          "name": "t_id",
          "type": "uint256"
        },
        {
          "internalType": "string",
          "name": "username",
          "type": "string"
        },
        {
          "internalType": "string",
          "name": "userAt",
          "type": "string"
        },
        {
          "internalType": "string",
          "name": "date",
          "type": "string"
        },
        {
          "internalType": "string",
          "name": "text",
          "type": "string"
        },
        {
          "internalType": "string",
          "name": "cId",
          "type": "string"
        },
        {
          "internalType": "bool",
          "name": "liked",
          "type": "bool"
        }
      ],
      "stateMutability": "view",
      "type": "function",
      "constant": true
    },
    {
      "inputs": [
        {
          "components": [
            {
              "internalType": "address",
              "name": "userAddress",
              "type": "address"
            },
            {
              "components": [
                {
                  "internalType": "string",
                  "name": "name",
                  "type": "string"
                },
                {
                  "internalType": "string",
                  "name": "avatar",
                  "type": "string"
                },
                {
                  "internalType": "string",
                  "name": "banner",
                  "type": "string"
                },
                {
                  "internalType": "uint256",
                  "name": "age",
                  "type": "uint256"
                },
                {
                  "internalType": "string",
                  "name": "gender",
                  "type": "string"
                },
                {
                  "internalType": "string",
                  "name": "status",
                  "type": "string"
                },
                {
                  "internalType": "string",
                  "name": "country",
                  "type": "string"
                },
                {
                  "internalType": "string",
                  "name": "city",
                  "type": "string"
                }
              ],
              "internalType": "struct Decentra.Profile",
              "name": "profile",
              "type": "tuple"
            },
            {
              "internalType": "string",
              "name": "occupation",
              "type": "string"
            },
            {
              "internalType": "string",
              "name": "date_joined",
              "type": "string"
            },
            {
              "internalType": "uint256",
              "name": "followers",
              "type": "uint256"
            },
            {
              "internalType": "uint256",
              "name": "following",
              "type": "uint256"
            },
            {
              "internalType": "address[]",
              "name": "user_following",
              "type": "address[]"
            },
            {
              "internalType": "address[]",
              "name": "user_followed",
              "type": "address[]"
            }
          ],
          "internalType": "struct Decentra.user",
          "name": "_user",
          "type": "tuple"
        }
      ],
      "name": "createUser",
      "outputs": [],
      "stateMutability": "nonpayable",
      "type": "function"
    },
    {
      "inputs": [
        {
          "components": [
            {
              "internalType": "address",
              "name": "userAddress",
              "type": "address"
            },
            {
              "components": [
                {
                  "internalType": "string",
                  "name": "name",
                  "type": "string"
                },
                {
                  "internalType": "string",
                  "name": "avatar",
                  "type": "string"
                },
                {
                  "internalType": "string",
                  "name": "banner",
                  "type": "string"
                },
                {
                  "internalType": "uint256",
                  "name": "age",
                  "type": "uint256"
                },
                {
                  "internalType": "string",
                  "name": "gender",
                  "type": "string"
                },
                {
                  "internalType": "string",
                  "name": "status",
                  "type": "string"
                },
                {
                  "internalType": "string",
                  "name": "country",
                  "type": "string"
                },
                {
                  "internalType": "string",
                  "name": "city",
                  "type": "string"
                }
              ],
              "internalType": "struct Decentra.Profile",
              "name": "profile",
              "type": "tuple"
            },
            {
              "internalType": "string",
              "name": "occupation",
              "type": "string"
            },
            {
              "internalType": "string",
              "name": "date_joined",
              "type": "string"
            },
            {
              "internalType": "uint256",
              "name": "followers",
              "type": "uint256"
            },
            {
              "internalType": "uint256",
              "name": "following",
              "type": "uint256"
            },
            {
              "internalType": "address[]",
              "name": "user_following",
              "type": "address[]"
            },
            {
              "internalType": "address[]",
              "name": "user_followed",
              "type": "address[]"
            }
          ],
          "internalType": "struct Decentra.user",
          "name": "_user",
          "type": "tuple"
        }
      ],
      "name": "updateUser",
      "outputs": [],
      "stateMutability": "nonpayable",
      "type": "function"
    },
    {
      "inputs": [
        {
          "internalType": "address",
          "name": "userAddress",
          "type": "address"
        }
      ],
      "name": "getUser",
      "outputs": [
        {
          "components": [
            {
              "internalType": "address",
              "name": "userAddress",
              "type": "address"
            },
            {
              "components": [
                {
                  "internalType": "string",
                  "name": "name",
                  "type": "string"
                },
                {
                  "internalType": "string",
                  "name": "avatar",
                  "type": "string"
                },
                {
                  "internalType": "string",
                  "name": "banner",
                  "type": "string"
                },
                {
                  "internalType": "uint256",
                  "name": "age",
                  "type": "uint256"
                },
                {
                  "internalType": "string",
                  "name": "gender",
                  "type": "string"
                },
                {
                  "internalType": "string",
                  "name": "status",
                  "type": "string"
                },
                {
                  "internalType": "string",
                  "name": "country",
                  "type": "string"
                },
                {
                  "internalType": "string",
                  "name": "city",
                  "type": "string"
                }
              ],
              "internalType": "struct Decentra.Profile",
              "name": "profile",
              "type": "tuple"
            },
            {
              "internalType": "string",
              "name": "occupation",
              "type": "string"
            },
            {
              "internalType": "string",
              "name": "date_joined",
              "type": "string"
            },
            {
              "internalType": "uint256",
              "name": "followers",
              "type": "uint256"
            },
            {
              "internalType": "uint256",
              "name": "following",
              "type": "uint256"
            },
            {
              "internalType": "address[]",
              "name": "user_following",
              "type": "address[]"
            },
            {
              "internalType": "address[]",
              "name": "user_followed",
              "type": "address[]"
            }
          ],
          "internalType": "struct Decentra.user",
          "name": "",
          "type": "tuple"
        }
      ],
      "stateMutability": "view",
      "type": "function",
      "constant": true
    },
    {
      "inputs": [],
      "name": "getAllUsers",
      "outputs": [
        {
          "components": [
            {
              "internalType": "address",
              "name": "userAddress",
              "type": "address"
            },
            {
              "components": [
                {
                  "internalType": "string",
                  "name": "name",
                  "type": "string"
                },
                {
                  "internalType": "string",
                  "name": "avatar",
                  "type": "string"
                },
                {
                  "internalType": "string",
                  "name": "banner",
                  "type": "string"
                },
                {
                  "internalType": "uint256",
                  "name": "age",
                  "type": "uint256"
                },
                {
                  "internalType": "string",
                  "name": "gender",
                  "type": "string"
                },
                {
                  "internalType": "string",
                  "name": "status",
                  "type": "string"
                },
                {
                  "internalType": "string",
                  "name": "country",
                  "type": "string"
                },
                {
                  "internalType": "string",
                  "name": "city",
                  "type": "string"
                }
              ],
              "internalType": "struct Decentra.Profile",
              "name": "profile",
              "type": "tuple"
            },
            {
              "internalType": "string",
              "name": "occupation",
              "type": "string"
            },
            {
              "internalType": "string",
              "name": "date_joined",
              "type": "string"
            },
            {
              "internalType": "uint256",
              "name": "followers",
              "type": "uint256"
            },
            {
              "internalType": "uint256",
              "name": "following",
              "type": "uint256"
            },
            {
              "internalType": "address[]",
              "name": "user_following",
              "type": "address[]"
            },
            {
              "internalType": "address[]",
              "name": "user_followed",
              "type": "address[]"
            }
          ],
          "internalType": "struct Decentra.user[]",
          "name": "",
          "type": "tuple[]"
        }
      ],
      "stateMutability": "view",
      "type": "function",
      "constant": true
    },
    {
      "inputs": [
        {
          "internalType": "address",
          "name": "userAddress",
          "type": "address"
        }
      ],
      "name": "follow",
      "outputs": [],
      "stateMutability": "nonpayable",
      "type": "function"
    },
    {
      "inputs": [
        {
          "internalType": "address",
          "name": "userAddress",
          "type": "address"
        }
      ],
      "name": "unfollow",
      "outputs": [],
      "stateMutability": "nonpayable",
      "type": "function"
    },
    {
      "inputs": [
        {
          "internalType": "string",
          "name": "_username",
          "type": "string"
        },
        {
          "internalType": "string",
          "name": "_userAt",
          "type": "string"
        },
        {
          "internalType": "string",
          "name": "_date",
          "type": "string"
        },
        {
          "internalType": "string",
          "name": "_text",
          "type": "string"
        },
        {
          "internalType": "string",
          "name": "_cId",
          "type": "string"
        }
      ],
      "name": "addTweet",
      "outputs": [],
      "stateMutability": "nonpayable",
      "type": "function"
    },
    {
      "inputs": [],
      "name": "getAllTweets",
      "outputs": [
        {
          "components": [
            {
              "internalType": "address",
              "name": "tweetOwner",
              "type": "address"
            },
            {
              "internalType": "uint256",
              "name": "t_id",
              "type": "uint256"
            },
            {
              "internalType": "string",
              "name": "username",
              "type": "string"
            },
            {
              "internalType": "string",
              "name": "userAt",
              "type": "string"
            },
            {
              "internalType": "string",
              "name": "date",
              "type": "string"
            },
            {
              "internalType": "string",
              "name": "text",
              "type": "string"
            },
            {
              "internalType": "string",
              "name": "cId",
              "type": "string"
            },
            {
              "internalType": "bool",
              "name": "liked",
              "type": "bool"
            }
          ],
          "internalType": "struct Decentra.Tweet[]",
          "name": "",
          "type": "tuple[]"
        }
      ],
      "stateMutability": "view",
      "type": "function",
      "constant": true
    },
    {
      "inputs": [
        {
          "internalType": "address",
          "name": "_user",
          "type": "address"
        }
      ],
      "name": "getUserTweets",
      "outputs": [
        {
          "components": [
            {
              "internalType": "address",
              "name": "tweetOwner",
              "type": "address"
            },
            {
              "internalType": "uint256",
              "name": "t_id",
              "type": "uint256"
            },
            {
              "internalType": "string",
              "name": "username",
              "type": "string"
            },
            {
              "internalType": "string",
              "name": "userAt",
              "type": "string"
            },
            {
              "internalType": "string",
              "name": "date",
              "type": "string"
            },
            {
              "internalType": "string",
              "name": "text",
              "type": "string"
            },
            {
              "internalType": "string",
              "name": "cId",
              "type": "string"
            },
            {
              "internalType": "bool",
              "name": "liked",
              "type": "bool"
            }
          ],
          "internalType": "struct Decentra.Tweet[]",
          "name": "",
          "type": "tuple[]"
        }
      ],
      "stateMutability": "view",
      "type": "function",
      "constant": true
    },
    {
      "inputs": [
        {
          "internalType": "uint256",
          "name": "id",
          "type": "uint256"
        }
      ],
      "name": "deleteTweet",
      "outputs": [],
      "stateMutability": "nonpayable",
      "type": "function"
    },
    {
      "inputs": [
        {
          "internalType": "address",
          "name": "_userAddress",
          "type": "address"
        },
        {
          "internalType": "string",
          "name": "_text",
          "type": "string"
        },
        {
          "internalType": "string",
          "name": "_image",
          "type": "string"
        }
      ],
      "name": "addNotification",
      "outputs": [],
      "stateMutability": "nonpayable",
      "type": "function"
    },
    {
      "inputs": [
        {
          "internalType": "address",
          "name": "_userAddress",
          "type": "address"
        }
      ],
      "name": "getUserNotifications",
      "outputs": [
        {
          "components": [
            {
              "internalType": "uint256",
              "name": "id",
              "type": "uint256"
            },
            {
              "internalType": "string",
              "name": "text",
              "type": "string"
            },
            {
              "internalType": "string",
              "name": "image",
              "type": "string"
            }
          ],
          "internalType": "struct Decentra.Notification[]",
          "name": "",
          "type": "tuple[]"
        }
      ],
      "stateMutability": "view",
      "type": "function",
      "constant": true
    }
  ],
  "bytecode": "0x60806040526103e860045534801561001657600080fd5b50336000806101000a81548173ffffffffffffffffffffffffffffffffffffffff021916908373ffffffffffffffffffffffffffffffffffffffff16021790555061564880620000676000396000f3fe608060405234801561001057600080fd5b50600436106101005760003560e01c80635775912a11610097578063b4dd1bfd11610066578063b4dd1bfd146102c6578063dc77fe50146102e2578063e2842d79146102fe578063e8d857b01461031c57610100565b80635775912a1461022c57806357f31358146102485780636f77926b146102785780638da5cb5b146102a857610100565b806338c91910116100d357806338c91910146101a45780634dbf27cc146101d657806353256135146101f257806355abc23b1461021057610100565b8063015a4ead146101055780631dc0d344146101215780632e06f3471461013d5780632f5899d714610174575b600080fd5b61011f600480360381019061011a9190613f7b565b610353565b005b61013b600480360381019061013691906140ee565b6107d2565b005b6101576004803603810190610152919061422b565b610b49565b60405161016b989796959493929190614323565b60405180910390f35b61018e60048036038101906101899190613f7b565b610e83565b60405161019b91906145c9565b60405180910390f35b6101be60048036038101906101b9919061422b565b611277565b6040516101cd939291906145eb565b60405180910390f35b6101f060048036038101906101eb9190613f7b565b6113ce565b005b6101fa6115c7565b60405161020791906145c9565b60405180910390f35b61022a60048036038101906102259190614630565b61197c565b005b610246600480360381019061024191906146bb565b611a52565b005b610262600480360381019061025d9190613f7b565b61236e565b60405161026f9190614801565b60405180910390f35b610292600480360381019061028d9190613f7b565b61253a565b60405161029f9190614a78565b60405180910390f35b6102b0612c5b565b6040516102bd9190614a9a565b60405180910390f35b6102e060048036038101906102db9190614e6b565b612c7f565b005b6102fc60048036038101906102f79190614e6b565b612e98565b005b61030661304e565b6040516103139190615042565b60405180910390f35b610336600480360381019061033191906146bb565b613846565b60405161034a989796959493929190614323565b60405180910390f35b6000600160003373ffffffffffffffffffffffffffffffffffffffff1673ffffffffffffffffffffffffffffffffffffffff168152602001908152602001600020600d0190506000600160008473ffffffffffffffffffffffffffffffffffffffff1673ffffffffffffffffffffffffffffffffffffffff168152602001908152602001600020600e01905060005b82805490508110156105d5578373ffffffffffffffffffffffffffffffffffffffff1683828154811061041857610417615064565b5b9060005260206000200160009054906101000a900473ffffffffffffffffffffffffffffffffffffffff1673ffffffffffffffffffffffffffffffffffffffff16036105c2576001838054905061046f91906150c2565b811461051f57826001848054905061048791906150c2565b8154811061049857610497615064565b5b9060005260206000200160009054906101000a900473ffffffffffffffffffffffffffffffffffffffff168382815481106104d6576104d5615064565b5b9060005260206000200160006101000a81548173ffffffffffffffffffffffffffffffffffffffff021916908373ffffffffffffffffffffffffffffffffffffffff1602179055505b828054806105305761052f6150f6565b5b6001900381819060005260206000200160006101000a81549073ffffffffffffffffffffffffffffffffffffffff02191690559055600160003373ffffffffffffffffffffffffffffffffffffffff1673ffffffffffffffffffffffffffffffffffffffff168152602001908152602001600020600c0160008154809291906105b890615125565b91905055506105d5565b80806105cd9061514e565b9150506103e2565b5060005b81805490508110156107cc573373ffffffffffffffffffffffffffffffffffffffff1682828154811061060f5761060e615064565b5b9060005260206000200160009054906101000a900473ffffffffffffffffffffffffffffffffffffffff1673ffffffffffffffffffffffffffffffffffffffff16036107b9576001828054905061066691906150c2565b811461071657816001838054905061067e91906150c2565b8154811061068f5761068e615064565b5b9060005260206000200160009054906101000a900473ffffffffffffffffffffffffffffffffffffffff168282815481106106cd576106cc615064565b5b9060005260206000200160006101000a81548173ffffffffffffffffffffffffffffffffffffffff021916908373ffffffffffffffffffffffffffffffffffffffff1602179055505b81805480610727576107266150f6565b5b6001900381819060005260206000200160006101000a81549073ffffffffffffffffffffffffffffffffffffffff02191690559055600160008573ffffffffffffffffffffffffffffffffffffffff1673ffffffffffffffffffffffffffffffffffffffff168152602001908152602001600020600b0160008154809291906107af90615125565b91905055506107cc565b80806107c49061514e565b9150506105d9565b50505050565b60006004549050600460008154809291906107ec9061514e565b919050555060056040518061010001604052803373ffffffffffffffffffffffffffffffffffffffff16815260200183815260200188815260200187815260200186815260200185815260200184815260200160001515815250908060018154018082558091505060019003906000526020600020906008020160009091909190915060008201518160000160006101000a81548173ffffffffffffffffffffffffffffffffffffffff021916908373ffffffffffffffffffffffffffffffffffffffff1602179055506020820151816001015560408201518160020190816108d591906153a2565b5060608201518160030190816108eb91906153a2565b50608082015181600401908161090191906153a2565b5060a082015181600501908161091791906153a2565b5060c082015181600601908161092d91906153a2565b5060e08201518160070160006101000a81548160ff02191690831515021790555050506000600660003373ffffffffffffffffffffffffffffffffffffffff1673ffffffffffffffffffffffffffffffffffffffff1681526020019081526020016000209050806040518061010001604052803373ffffffffffffffffffffffffffffffffffffffff16815260200184815260200189815260200188815260200187815260200186815260200185815260200160001515815250908060018154018082558091505060019003906000526020600020906008020160009091909190915060008201518160000160006101000a81548173ffffffffffffffffffffffffffffffffffffffff021916908373ffffffffffffffffffffffffffffffffffffffff160217905550602082015181600101556040820151816002019081610a7691906153a2565b506060820151816003019081610a8c91906153a2565b506080820151816004019081610aa291906153a2565b5060a0820151816005019081610ab891906153a2565b5060c0820151816006019081610ace91906153a2565b5060e08201518160070160006101000a81548160ff021916908315150217905550505080600660003373ffffffffffffffffffffffffffffffffffffffff1673ffffffffffffffffffffffffffffffffffffffff168152602001908152602001600020908054610b3f929190613b73565b5050505050505050565b60066020528160005260406000208181548110610b6557600080fd5b9060005260206000209060080201600091509150508060000160009054906101000a900473ffffffffffffffffffffffffffffffffffffffff1690806001015490806002018054610bb5906151c5565b80601f0160208091040260200160405190810160405280929190818152602001828054610be1906151c5565b8015610c2e5780601f10610c0357610100808354040283529160200191610c2e565b820191906000526020600020905b815481529060010190602001808311610c1157829003601f168201915b505050505090806003018054610c43906151c5565b80601f0160208091040260200160405190810160405280929190818152602001828054610c6f906151c5565b8015610cbc5780601f10610c9157610100808354040283529160200191610cbc565b820191906000526020600020905b815481529060010190602001808311610c9f57829003601f168201915b505050505090806004018054610cd1906151c5565b80601f0160208091040260200160405190810160405280929190818152602001828054610cfd906151c5565b8015610d4a5780601f10610d1f57610100808354040283529160200191610d4a565b820191906000526020600020905b815481529060010190602001808311610d2d57829003601f168201915b505050505090806005018054610d5f906151c5565b80601f0160208091040260200160405190810160405280929190818152602001828054610d8b906151c5565b8015610dd85780601f10610dad57610100808354040283529160200191610dd8565b820191906000526020600020905b815481529060010190602001808311610dbb57829003601f168201915b505050505090806006018054610ded906151c5565b80601f0160208091040260200160405190810160405280929190818152602001828054610e19906151c5565b8015610e665780601f10610e3b57610100808354040283529160200191610e66565b820191906000526020600020905b815481529060010190602001808311610e4957829003601f168201915b5050505050908060070160009054906101000a900460ff16905088565b6060600660008373ffffffffffffffffffffffffffffffffffffffff1673ffffffffffffffffffffffffffffffffffffffff168152602001908152602001600020805480602002602001604051908101604052809291908181526020016000905b8282101561126c5783829060005260206000209060080201604051806101000160405290816000820160009054906101000a900473ffffffffffffffffffffffffffffffffffffffff1673ffffffffffffffffffffffffffffffffffffffff1673ffffffffffffffffffffffffffffffffffffffff16815260200160018201548152602001600282018054610f78906151c5565b80601f0160208091040260200160405190810160405280929190818152602001828054610fa4906151c5565b8015610ff15780601f10610fc657610100808354040283529160200191610ff1565b820191906000526020600020905b815481529060010190602001808311610fd457829003601f168201915b5050505050815260200160038201805461100a906151c5565b80601f0160208091040260200160405190810160405280929190818152602001828054611036906151c5565b80156110835780601f1061105857610100808354040283529160200191611083565b820191906000526020600020905b81548152906001019060200180831161106657829003601f168201915b5050505050815260200160048201805461109c906151c5565b80601f01602080910402602001604051908101604052809291908181526020018280546110c8906151c5565b80156111155780601f106110ea57610100808354040283529160200191611115565b820191906000526020600020905b8154815290600101906020018083116110f857829003601f168201915b5050505050815260200160058201805461112e906151c5565b80601f016020809104026020016040519081016040528092919081815260200182805461115a906151c5565b80156111a75780601f1061117c576101008083540402835291602001916111a7565b820191906000526020600020905b81548152906001019060200180831161118a57829003601f168201915b505050505081526020016006820180546111c0906151c5565b80601f01602080910402602001604051908101604052809291908181526020018280546111ec906151c5565b80156112395780601f1061120e57610100808354040283529160200191611239565b820191906000526020600020905b81548152906001019060200180831161121c57829003601f168201915b505050505081526020016007820160009054906101000a900460ff16151515158152505081526020019060010190610ee4565b505050509050919050565b6003602052816000526040600020818154811061129357600080fd5b9060005260206000209060030201600091509150508060000154908060010180546112bd906151c5565b80601f01602080910402602001604051908101604052809291908181526020018280546112e9906151c5565b80156113365780601f1061130b57610100808354040283529160200191611336565b820191906000526020600020905b81548152906001019060200180831161131957829003601f168201915b50505050509080600201805461134b906151c5565b80601f0160208091040260200160405190810160405280929190818152602001828054611377906151c5565b80156113c45780601f10611399576101008083540402835291602001916113c4565b820191906000526020600020905b8154815290600101906020018083116113a757829003601f168201915b5050505050905083565b600160003373ffffffffffffffffffffffffffffffffffffffff1673ffffffffffffffffffffffffffffffffffffffff168152602001908152602001600020600d01819080600181540180825580915050600190039060005260206000200160009091909190916101000a81548173ffffffffffffffffffffffffffffffffffffffff021916908373ffffffffffffffffffffffffffffffffffffffff160217905550600160003373ffffffffffffffffffffffffffffffffffffffff1673ffffffffffffffffffffffffffffffffffffffff168152602001908152602001600020600c0160008154809291906114c49061514e565b9190505550600160008273ffffffffffffffffffffffffffffffffffffffff1673ffffffffffffffffffffffffffffffffffffffff168152602001908152602001600020600e01339080600181540180825580915050600190039060005260206000200160009091909190916101000a81548173ffffffffffffffffffffffffffffffffffffffff021916908373ffffffffffffffffffffffffffffffffffffffff160217905550600160008273ffffffffffffffffffffffffffffffffffffffff1673ffffffffffffffffffffffffffffffffffffffff168152602001908152602001600020600b0160008154809291906115bf9061514e565b919050555050565b60606005805480602002602001604051908101604052809291908181526020016000905b828210156119735783829060005260206000209060080201604051806101000160405290816000820160009054906101000a900473ffffffffffffffffffffffffffffffffffffffff1673ffffffffffffffffffffffffffffffffffffffff1673ffffffffffffffffffffffffffffffffffffffff1681526020016001820154815260200160028201805461167f906151c5565b80601f01602080910402602001604051908101604052809291908181526020018280546116ab906151c5565b80156116f85780601f106116cd576101008083540402835291602001916116f8565b820191906000526020600020905b8154815290600101906020018083116116db57829003601f168201915b50505050508152602001600382018054611711906151c5565b80601f016020809104026020016040519081016040528092919081815260200182805461173d906151c5565b801561178a5780601f1061175f5761010080835404028352916020019161178a565b820191906000526020600020905b81548152906001019060200180831161176d57829003601f168201915b505050505081526020016004820180546117a3906151c5565b80601f01602080910402602001604051908101604052809291908181526020018280546117cf906151c5565b801561181c5780601f106117f15761010080835404028352916020019161181c565b820191906000526020600020905b8154815290600101906020018083116117ff57829003601f168201915b50505050508152602001600582018054611835906151c5565b80601f0160208091040260200160405190810160405280929190818152602001828054611861906151c5565b80156118ae5780601f10611883576101008083540402835291602001916118ae565b820191906000526020600020905b81548152906001019060200180831161189157829003601f168201915b505050505081526020016006820180546118c7906151c5565b80601f01602080910402602001604051908101604052809291908181526020018280546118f3906151c5565b80156119405780601f1061191557610100808354040283529160200191611940565b820191906000526020600020905b81548152906001019060200180831161192357829003601f168201915b505050505081526020016007820160009054906101000a900460ff161515151581525050815260200190600101906115eb565b50505050905090565b6000600360008573ffffffffffffffffffffffffffffffffffffffff1673ffffffffffffffffffffffffffffffffffffffff16815260200190815260200160002090506000818054905090506000604051806060016040528083815260200186815260200185815250905082819080600181540180825580915050600190039060005260206000209060030201600090919091909150600082015181600001556020820151816001019081611a3191906153a2565b506040820151816002019081611a4791906153a2565b505050505050505050565b6000600660003373ffffffffffffffffffffffffffffffffffffffff1673ffffffffffffffffffffffffffffffffffffffff168152602001908152602001600020905060005b600580549050811015611eb4578260058281548110611aba57611ab9615064565b5b90600052602060002090600802016001015403611ea1573373ffffffffffffffffffffffffffffffffffffffff1660058281548110611afc57611afb615064565b5b906000526020600020906008020160000160009054906101000a900473ffffffffffffffffffffffffffffffffffffffff1673ffffffffffffffffffffffffffffffffffffffff1614611b84576040517f08c379a0000000000000000000000000000000000000000000000000000000008152600401611b7b906154c0565b60405180910390fd5b600160058054905003611c54576005805480611ba357611ba26150f6565b5b6001900381819060005260206000209060080201600080820160006101000a81549073ffffffffffffffffffffffffffffffffffffffff02191690556001820160009055600282016000611bf79190613cd2565b600382016000611c079190613cd2565b600482016000611c179190613cd2565b600582016000611c279190613cd2565b600682016000611c379190613cd2565b6007820160006101000a81549060ff021916905550509055611ea0565b60008190505b6001600580549050611c6c91906150c2565b811015611de0576005600182611c8291906154e0565b81548110611c9357611c92615064565b5b906000526020600020906008020160058281548110611cb557611cb4615064565b5b90600052602060002090600802016000820160009054906101000a900473ffffffffffffffffffffffffffffffffffffffff168160000160006101000a81548173ffffffffffffffffffffffffffffffffffffffff021916908373ffffffffffffffffffffffffffffffffffffffff1602179055506001820154816001015560028201816002019081611d48919061552a565b5060038201816003019081611d5d919061552a565b5060048201816004019081611d72919061552a565b5060058201816005019081611d87919061552a565b5060068201816006019081611d9c919061552a565b506007820160009054906101000a900460ff168160070160006101000a81548160ff0219169083151502179055509050508080611dd89061514e565b915050611c5a565b506005805480611df357611df26150f6565b5b6001900381819060005260206000209060080201600080820160006101000a81549073ffffffffffffffffffffffffffffffffffffffff02191690556001820160009055600282016000611e479190613cd2565b600382016000611e579190613cd2565b600482016000611e679190613cd2565b600582016000611e779190613cd2565b600682016000611e879190613cd2565b6007820160006101000a81549060ff0219169055505090555b5b8080611eac9061514e565b915050611a98565b5060005b81805490508110156123695782828281548110611ed857611ed7615064565b5b90600052602060002090600802016001015403612356573373ffffffffffffffffffffffffffffffffffffffff16828281548110611f1957611f18615064565b5b906000526020600020906008020160000160009054906101000a900473ffffffffffffffffffffffffffffffffffffffff1673ffffffffffffffffffffffffffffffffffffffff1614611fa1576040517f08c379a0000000000000000000000000000000000000000000000000000000008152600401611f98906154c0565b60405180910390fd5b60018280549050036120be5781805480611fbe57611fbd6150f6565b5b6001900381819060005260206000209060080201600080820160006101000a81549073ffffffffffffffffffffffffffffffffffffffff021916905560018201600090556002820160006120129190613cd2565b6003820160006120229190613cd2565b6004820160006120329190613cd2565b6005820160006120429190613cd2565b6006820160006120529190613cd2565b6007820160006101000a81549060ff02191690555050905581600660003373ffffffffffffffffffffffffffffffffffffffff1673ffffffffffffffffffffffffffffffffffffffff1681526020019081526020016000209080546120b8929190613b73565b50612355565b60008190505b600183805490506120d591906150c2565b81101561224757826001826120ea91906154e0565b815481106120fb576120fa615064565b5b906000526020600020906008020183828154811061211c5761211b615064565b5b90600052602060002090600802016000820160009054906101000a900473ffffffffffffffffffffffffffffffffffffffff168160000160006101000a81548173ffffffffffffffffffffffffffffffffffffffff021916908373ffffffffffffffffffffffffffffffffffffffff16021790555060018201548160010155600282018160020190816121af919061552a565b50600382018160030190816121c4919061552a565b50600482018160040190816121d9919061552a565b50600582018160050190816121ee919061552a565b5060068201816006019081612203919061552a565b506007820160009054906101000a900460ff168160070160006101000a81548160ff021916908315150217905550905050808061223f9061514e565b9150506120c4565b5081805480612259576122586150f6565b5b6001900381819060005260206000209060080201600080820160006101000a81549073ffffffffffffffffffffffffffffffffffffffff021916905560018201600090556002820160006122ad9190613cd2565b6003820160006122bd9190613cd2565b6004820160006122cd9190613cd2565b6005820160006122dd9190613cd2565b6006820160006122ed9190613cd2565b6007820160006101000a81549060ff02191690555050905581600660003373ffffffffffffffffffffffffffffffffffffffff1673ffffffffffffffffffffffffffffffffffffffff168152602001908152602001600020908054612353929190613b73565b505b5b80806123619061514e565b915050611eb8565b505050565b6060600360008373ffffffffffffffffffffffffffffffffffffffff1673ffffffffffffffffffffffffffffffffffffffff168152602001908152602001600020805480602002602001604051908101604052809291908181526020016000905b8282101561252f57838290600052602060002090600302016040518060600160405290816000820154815260200160018201805461240c906151c5565b80601f0160208091040260200160405190810160405280929190818152602001828054612438906151c5565b80156124855780601f1061245a57610100808354040283529160200191612485565b820191906000526020600020905b81548152906001019060200180831161246857829003601f168201915b5050505050815260200160028201805461249e906151c5565b80601f01602080910402602001604051908101604052809291908181526020018280546124ca906151c5565b80156125175780601f106124ec57610100808354040283529160200191612517565b820191906000526020600020905b8154815290600101906020018083116124fa57829003601f168201915b505050505081525050815260200190600101906123cf565b505050509050919050565b612542613d12565b600160008373ffffffffffffffffffffffffffffffffffffffff1673ffffffffffffffffffffffffffffffffffffffff168152602001908152602001600020604051806101000160405290816000820160009054906101000a900473ffffffffffffffffffffffffffffffffffffffff1673ffffffffffffffffffffffffffffffffffffffff1673ffffffffffffffffffffffffffffffffffffffff1681526020016001820160405180610100016040529081600082018054612604906151c5565b80601f0160208091040260200160405190810160405280929190818152602001828054612630906151c5565b801561267d5780601f106126525761010080835404028352916020019161267d565b820191906000526020600020905b81548152906001019060200180831161266057829003601f168201915b50505050508152602001600182018054612696906151c5565b80601f01602080910402602001604051908101604052809291908181526020018280546126c2906151c5565b801561270f5780601f106126e45761010080835404028352916020019161270f565b820191906000526020600020905b8154815290600101906020018083116126f257829003601f168201915b50505050508152602001600282018054612728906151c5565b80601f0160208091040260200160405190810160405280929190818152602001828054612754906151c5565b80156127a15780601f10612776576101008083540402835291602001916127a1565b820191906000526020600020905b81548152906001019060200180831161278457829003601f168201915b50505050508152602001600382015481526020016004820180546127c4906151c5565b80601f01602080910402602001604051908101604052809291908181526020018280546127f0906151c5565b801561283d5780601f106128125761010080835404028352916020019161283d565b820191906000526020600020905b81548152906001019060200180831161282057829003601f168201915b50505050508152602001600582018054612856906151c5565b80601f0160208091040260200160405190810160405280929190818152602001828054612882906151c5565b80156128cf5780601f106128a4576101008083540402835291602001916128cf565b820191906000526020600020905b8154815290600101906020018083116128b257829003601f168201915b505050505081526020016006820180546128e8906151c5565b80601f0160208091040260200160405190810160405280929190818152602001828054612914906151c5565b80156129615780601f1061293657610100808354040283529160200191612961565b820191906000526020600020905b81548152906001019060200180831161294457829003601f168201915b5050505050815260200160078201805461297a906151c5565b80601f01602080910402602001604051908101604052809291908181526020018280546129a6906151c5565b80156129f35780601f106129c8576101008083540402835291602001916129f3565b820191906000526020600020905b8154815290600101906020018083116129d657829003601f168201915b5050505050815250508152602001600982018054612a10906151c5565b80601f0160208091040260200160405190810160405280929190818152602001828054612a3c906151c5565b8015612a895780601f10612a5e57610100808354040283529160200191612a89565b820191906000526020600020905b815481529060010190602001808311612a6c57829003601f168201915b50505050508152602001600a82018054612aa2906151c5565b80601f0160208091040260200160405190810160405280929190818152602001828054612ace906151c5565b8015612b1b5780601f10612af057610100808354040283529160200191612b1b565b820191906000526020600020905b815481529060010190602001808311612afe57829003601f168201915b50505050508152602001600b8201548152602001600c8201548152602001600d8201805480602002602001604051908101604052809291908181526020018280548015612bbd57602002820191906000526020600020905b8160009054906101000a900473ffffffffffffffffffffffffffffffffffffffff1673ffffffffffffffffffffffffffffffffffffffff1681526020019060010190808311612b73575b50505050508152602001600e8201805480602002602001604051908101604052809291908181526020018280548015612c4b57602002820191906000526020600020905b8160009054906101000a900473ffffffffffffffffffffffffffffffffffffffff1673ffffffffffffffffffffffffffffffffffffffff1681526020019060010190808311612c01575b5050505050815250509050919050565b60008054906101000a900473ffffffffffffffffffffffffffffffffffffffff1681565b80600160003373ffffffffffffffffffffffffffffffffffffffff1673ffffffffffffffffffffffffffffffffffffffff16815260200190815260200160002060008201518160000160006101000a81548173ffffffffffffffffffffffffffffffffffffffff021916908373ffffffffffffffffffffffffffffffffffffffff1602179055506020820151816001016000820151816000019081612d2491906153a2565b506020820151816001019081612d3a91906153a2565b506040820151816002019081612d5091906153a2565b50606082015181600301556080820151816004019081612d7091906153a2565b5060a0820151816005019081612d8691906153a2565b5060c0820151816006019081612d9c91906153a2565b5060e0820151816007019081612db291906153a2565b5050506040820151816009019081612dca91906153a2565b50606082015181600a019081612de091906153a2565b50608082015181600b015560a082015181600c015560c082015181600d019080519060200190612e11929190613d73565b5060e082015181600e019080519060200190612e2e929190613d73565b509050506002339080600181540180825580915050600190039060005260206000200160009091909190916101000a81548173ffffffffffffffffffffffffffffffffffffffff021916908373ffffffffffffffffffffffffffffffffffffffff16021790555050565b80600160003373ffffffffffffffffffffffffffffffffffffffff1673ffffffffffffffffffffffffffffffffffffffff16815260200190815260200160002060008201518160000160006101000a81548173ffffffffffffffffffffffffffffffffffffffff021916908373ffffffffffffffffffffffffffffffffffffffff1602179055506020820151816001016000820151816000019081612f3d91906153a2565b506020820151816001019081612f5391906153a2565b506040820151816002019081612f6991906153a2565b50606082015181600301556080820151816004019081612f8991906153a2565b5060a0820151816005019081612f9f91906153a2565b5060c0820151816006019081612fb591906153a2565b5060e0820151816007019081612fcb91906153a2565b5050506040820151816009019081612fe391906153a2565b50606082015181600a019081612ff991906153a2565b50608082015181600b015560a082015181600c015560c082015181600d01908051906020019061302a929190613d73565b5060e082015181600e019080519060200190613047929190613d73565b5090505050565b6060600060028054905067ffffffffffffffff81111561307157613070613fc3565b5b6040519080825280602002602001820160405280156130aa57816020015b613097613d12565b81526020019060019003908161308f5790505b50905060005b60028054905081101561383e5760016000600283815481106130d5576130d4615064565b5b9060005260206000200160009054906101000a900473ffffffffffffffffffffffffffffffffffffffff1673ffffffffffffffffffffffffffffffffffffffff1673ffffffffffffffffffffffffffffffffffffffff168152602001908152602001600020604051806101000160405290816000820160009054906101000a900473ffffffffffffffffffffffffffffffffffffffff1673ffffffffffffffffffffffffffffffffffffffff1673ffffffffffffffffffffffffffffffffffffffff16815260200160018201604051806101000160405290816000820180546131bd906151c5565b80601f01602080910402602001604051908101604052809291908181526020018280546131e9906151c5565b80156132365780601f1061320b57610100808354040283529160200191613236565b820191906000526020600020905b81548152906001019060200180831161321957829003601f168201915b5050505050815260200160018201805461324f906151c5565b80601f016020809104026020016040519081016040528092919081815260200182805461327b906151c5565b80156132c85780601f1061329d576101008083540402835291602001916132c8565b820191906000526020600020905b8154815290600101906020018083116132ab57829003601f168201915b505050505081526020016002820180546132e1906151c5565b80601f016020809104026020016040519081016040528092919081815260200182805461330d906151c5565b801561335a5780601f1061332f5761010080835404028352916020019161335a565b820191906000526020600020905b81548152906001019060200180831161333d57829003601f168201915b505050505081526020016003820154815260200160048201805461337d906151c5565b80601f01602080910402602001604051908101604052809291908181526020018280546133a9906151c5565b80156133f65780601f106133cb576101008083540402835291602001916133f6565b820191906000526020600020905b8154815290600101906020018083116133d957829003601f168201915b5050505050815260200160058201805461340f906151c5565b80601f016020809104026020016040519081016040528092919081815260200182805461343b906151c5565b80156134885780601f1061345d57610100808354040283529160200191613488565b820191906000526020600020905b81548152906001019060200180831161346b57829003601f168201915b505050505081526020016006820180546134a1906151c5565b80601f01602080910402602001604051908101604052809291908181526020018280546134cd906151c5565b801561351a5780601f106134ef5761010080835404028352916020019161351a565b820191906000526020600020905b8154815290600101906020018083116134fd57829003601f168201915b50505050508152602001600782018054613533906151c5565b80601f016020809104026020016040519081016040528092919081815260200182805461355f906151c5565b80156135ac5780601f10613581576101008083540402835291602001916135ac565b820191906000526020600020905b81548152906001019060200180831161358f57829003601f168201915b50505050508152505081526020016009820180546135c9906151c5565b80601f01602080910402602001604051908101604052809291908181526020018280546135f5906151c5565b80156136425780601f1061361757610100808354040283529160200191613642565b820191906000526020600020905b81548152906001019060200180831161362557829003601f168201915b50505050508152602001600a8201805461365b906151c5565b80601f0160208091040260200160405190810160405280929190818152602001828054613687906151c5565b80156136d45780601f106136a9576101008083540402835291602001916136d4565b820191906000526020600020905b8154815290600101906020018083116136b757829003601f168201915b50505050508152602001600b8201548152602001600c8201548152602001600d820180548060200260200160405190810160405280929190818152602001828054801561377657602002820191906000526020600020905b8160009054906101000a900473ffffffffffffffffffffffffffffffffffffffff1673ffffffffffffffffffffffffffffffffffffffff168152602001906001019080831161372c575b50505050508152602001600e820180548060200260200160405190810160405280929190818152602001828054801561380457602002820191906000526020600020905b8160009054906101000a900473ffffffffffffffffffffffffffffffffffffffff1673ffffffffffffffffffffffffffffffffffffffff16815260200190600101908083116137ba575b5050505050815250508282815181106138205761381f615064565b5b602002602001018190525080806138369061514e565b9150506130b0565b508091505090565b6005818154811061385657600080fd5b90600052602060002090600802016000915090508060000160009054906101000a900473ffffffffffffffffffffffffffffffffffffffff16908060010154908060020180546138a5906151c5565b80601f01602080910402602001604051908101604052809291908181526020018280546138d1906151c5565b801561391e5780601f106138f35761010080835404028352916020019161391e565b820191906000526020600020905b81548152906001019060200180831161390157829003601f168201915b505050505090806003018054613933906151c5565b80601f016020809104026020016040519081016040528092919081815260200182805461395f906151c5565b80156139ac5780601f10613981576101008083540402835291602001916139ac565b820191906000526020600020905b81548152906001019060200180831161398f57829003601f168201915b5050505050908060040180546139c1906151c5565b80601f01602080910402602001604051908101604052809291908181526020018280546139ed906151c5565b8015613a3a5780601f10613a0f57610100808354040283529160200191613a3a565b820191906000526020600020905b815481529060010190602001808311613a1d57829003601f168201915b505050505090806005018054613a4f906151c5565b80601f0160208091040260200160405190810160405280929190818152602001828054613a7b906151c5565b8015613ac85780601f10613a9d57610100808354040283529160200191613ac8565b820191906000526020600020905b815481529060010190602001808311613aab57829003601f168201915b505050505090806006018054613add906151c5565b80601f0160208091040260200160405190810160405280929190818152602001828054613b09906151c5565b8015613b565780601f10613b2b57610100808354040283529160200191613b56565b820191906000526020600020905b815481529060010190602001808311613b3957829003601f168201915b5050505050908060070160009054906101000a900460ff16905088565b828054828255906000526020600020906008028101928215613cc15760005260206000209160080282015b82811115613cc05782826000820160009054906101000a900473ffffffffffffffffffffffffffffffffffffffff168160000160006101000a81548173ffffffffffffffffffffffffffffffffffffffff021916908373ffffffffffffffffffffffffffffffffffffffff1602179055506001820154816001015560028201816002019081613c2d919061552a565b5060038201816003019081613c42919061552a565b5060048201816004019081613c57919061552a565b5060058201816005019081613c6c919061552a565b5060068201816006019081613c81919061552a565b506007820160009054906101000a900460ff168160070160006101000a81548160ff021916908315150217905550505091600801919060080190613b9e565b5b509050613cce9190613dfd565b5090565b508054613cde906151c5565b6000825580601f10613cf05750613d0f565b601f016020900490600052602060002090810190613d0e9190613ea7565b5b50565b604051806101000160405280600073ffffffffffffffffffffffffffffffffffffffff168152602001613d43613ec4565b81526020016060815260200160608152602001600081526020016000815260200160608152602001606081525090565b828054828255906000526020600020908101928215613dec579160200282015b82811115613deb5782518260006101000a81548173ffffffffffffffffffffffffffffffffffffffff021916908373ffffffffffffffffffffffffffffffffffffffff16021790555091602001919060010190613d93565b5b509050613df99190613ea7565b5090565b5b80821115613ea357600080820160006101000a81549073ffffffffffffffffffffffffffffffffffffffff02191690556001820160009055600282016000613e469190613cd2565b600382016000613e569190613cd2565b600482016000613e669190613cd2565b600582016000613e769190613cd2565b600682016000613e869190613cd2565b6007820160006101000a81549060ff021916905550600801613dfe565b5090565b5b80821115613ec0576000816000905550600101613ea8565b5090565b60405180610100016040528060608152602001606081526020016060815260200160008152602001606081526020016060815260200160608152602001606081525090565b6000604051905090565b600080fd5b600080fd5b600073ffffffffffffffffffffffffffffffffffffffff82169050919050565b6000613f4882613f1d565b9050919050565b613f5881613f3d565b8114613f6357600080fd5b50565b600081359050613f7581613f4f565b92915050565b600060208284031215613f9157613f90613f13565b5b6000613f9f84828501613f66565b91505092915050565b600080fd5b600080fd5b6000601f19601f8301169050919050565b7f4e487b7100000000000000000000000000000000000000000000000000000000600052604160045260246000fd5b613ffb82613fb2565b810181811067ffffffffffffffff8211171561401a57614019613fc3565b5b80604052505050565b600061402d613f09565b90506140398282613ff2565b919050565b600067ffffffffffffffff82111561405957614058613fc3565b5b61406282613fb2565b9050602081019050919050565b82818337600083830152505050565b600061409161408c8461403e565b614023565b9050828152602081018484840111156140ad576140ac613fad565b5b6140b884828561406f565b509392505050565b600082601f8301126140d5576140d4613fa8565b5b81356140e584826020860161407e565b91505092915050565b600080600080600060a0868803121561410a57614109613f13565b5b600086013567ffffffffffffffff81111561412857614127613f18565b5b614134888289016140c0565b955050602086013567ffffffffffffffff81111561415557614154613f18565b5b614161888289016140c0565b945050604086013567ffffffffffffffff81111561418257614181613f18565b5b61418e888289016140c0565b935050606086013567ffffffffffffffff8111156141af576141ae613f18565b5b6141bb888289016140c0565b925050608086013567ffffffffffffffff8111156141dc576141db613f18565b5b6141e8888289016140c0565b9150509295509295909350565b6000819050919050565b614208816141f5565b811461421357600080fd5b50565b600081359050614225816141ff565b92915050565b6000806040838503121561424257614241613f13565b5b600061425085828601613f66565b925050602061426185828601614216565b9150509250929050565b61427481613f3d565b82525050565b614283816141f5565b82525050565b600081519050919050565b600082825260208201905092915050565b60005b838110156142c35780820151818401526020810190506142a8565b60008484015250505050565b60006142da82614289565b6142e48185614294565b93506142f48185602086016142a5565b6142fd81613fb2565b840191505092915050565b60008115159050919050565b61431d81614308565b82525050565b600061010082019050614339600083018b61426b565b614346602083018a61427a565b818103604083015261435881896142cf565b9050818103606083015261436c81886142cf565b9050818103608083015261438081876142cf565b905081810360a083015261439481866142cf565b905081810360c08301526143a881856142cf565b90506143b760e0830184614314565b9998505050505050505050565b600081519050919050565b600082825260208201905092915050565b6000819050602082019050919050565b6143f981613f3d565b82525050565b614408816141f5565b82525050565b600082825260208201905092915050565b600061442a82614289565b614434818561440e565b93506144448185602086016142a5565b61444d81613fb2565b840191505092915050565b61446181614308565b82525050565b60006101008301600083015161448060008601826143f0565b50602083015161449360208601826143ff565b50604083015184820360408601526144ab828261441f565b915050606083015184820360608601526144c5828261441f565b915050608083015184820360808601526144df828261441f565b91505060a083015184820360a08601526144f9828261441f565b91505060c083015184820360c0860152614513828261441f565b91505060e083015161452860e0860182614458565b508091505092915050565b600061453f8383614467565b905092915050565b6000602082019050919050565b600061455f826143c4565b61456981856143cf565b93508360208202850161457b856143e0565b8060005b858110156145b757848403895281516145988582614533565b94506145a383614547565b925060208a0199505060018101905061457f565b50829750879550505050505092915050565b600060208201905081810360008301526145e38184614554565b905092915050565b6000606082019050614600600083018661427a565b818103602083015261461281856142cf565b9050818103604083015261462681846142cf565b9050949350505050565b60008060006060848603121561464957614648613f13565b5b600061465786828701613f66565b935050602084013567ffffffffffffffff81111561467857614677613f18565b5b614684868287016140c0565b925050604084013567ffffffffffffffff8111156146a5576146a4613f18565b5b6146b1868287016140c0565b9150509250925092565b6000602082840312156146d1576146d0613f13565b5b60006146df84828501614216565b91505092915050565b600081519050919050565b600082825260208201905092915050565b6000819050602082019050919050565b600060608301600083015161472c60008601826143ff565b5060208301518482036020860152614744828261441f565b9150506040830151848203604086015261475e828261441f565b9150508091505092915050565b60006147778383614714565b905092915050565b6000602082019050919050565b6000614797826146e8565b6147a181856146f3565b9350836020820285016147b385614704565b8060005b858110156147ef57848403895281516147d0858261476b565b94506147db8361477f565b925060208a019950506001810190506147b7565b50829750879550505050505092915050565b6000602082019050818103600083015261481b818461478c565b905092915050565b6000610100830160008301518482036000860152614841828261441f565b9150506020830151848203602086015261485b828261441f565b91505060408301518482036040860152614875828261441f565b915050606083015161488a60608601826143ff565b50608083015184820360808601526148a2828261441f565b91505060a083015184820360a08601526148bc828261441f565b91505060c083015184820360c08601526148d6828261441f565b91505060e083015184820360e08601526148f0828261441f565b9150508091505092915050565b600081519050919050565b600082825260208201905092915050565b6000819050602082019050919050565b600061493583836143f0565b60208301905092915050565b6000602082019050919050565b6000614959826148fd565b6149638185614908565b935061496e83614919565b8060005b8381101561499f5781516149868882614929565b975061499183614941565b925050600181019050614972565b5085935050505092915050565b6000610100830160008301516149c560008601826143f0565b50602083015184820360208601526149dd8282614823565b915050604083015184820360408601526149f7828261441f565b91505060608301518482036060860152614a11828261441f565b9150506080830151614a2660808601826143ff565b5060a0830151614a3960a08601826143ff565b5060c083015184820360c0860152614a51828261494e565b91505060e083015184820360e0860152614a6b828261494e565b9150508091505092915050565b60006020820190508181036000830152614a9281846149ac565b905092915050565b6000602082019050614aaf600083018461426b565b92915050565b600080fd5b600080fd5b60006101008284031215614ad657614ad5614ab5565b5b614ae1610100614023565b9050600082013567ffffffffffffffff811115614b0157614b00614aba565b5b614b0d848285016140c0565b600083015250602082013567ffffffffffffffff811115614b3157614b30614aba565b5b614b3d848285016140c0565b602083015250604082013567ffffffffffffffff811115614b6157614b60614aba565b5b614b6d848285016140c0565b6040830152506060614b8184828501614216565b606083015250608082013567ffffffffffffffff811115614ba557614ba4614aba565b5b614bb1848285016140c0565b60808301525060a082013567ffffffffffffffff811115614bd557614bd4614aba565b5b614be1848285016140c0565b60a08301525060c082013567ffffffffffffffff811115614c0557614c04614aba565b5b614c11848285016140c0565b60c08301525060e082013567ffffffffffffffff811115614c3557614c34614aba565b5b614c41848285016140c0565b60e08301525092915050565b600067ffffffffffffffff821115614c6857614c67613fc3565b5b602082029050602081019050919050565b600080fd5b6000614c91614c8c84614c4d565b614023565b90508083825260208201905060208402830185811115614cb457614cb3614c79565b5b835b81811015614cdd5780614cc98882613f66565b845260208401935050602081019050614cb6565b5050509392505050565b600082601f830112614cfc57614cfb613fa8565b5b8135614d0c848260208601614c7e565b91505092915050565b60006101008284031215614d2c57614d2b614ab5565b5b614d37610100614023565b90506000614d4784828501613f66565b600083015250602082013567ffffffffffffffff811115614d6b57614d6a614aba565b5b614d7784828501614abf565b602083015250604082013567ffffffffffffffff811115614d9b57614d9a614aba565b5b614da7848285016140c0565b604083015250606082013567ffffffffffffffff811115614dcb57614dca614aba565b5b614dd7848285016140c0565b6060830152506080614deb84828501614216565b60808301525060a0614dff84828501614216565b60a08301525060c082013567ffffffffffffffff811115614e2357614e22614aba565b5b614e2f84828501614ce7565b60c08301525060e082013567ffffffffffffffff811115614e5357614e52614aba565b5b614e5f84828501614ce7565b60e08301525092915050565b600060208284031215614e8157614e80613f13565b5b600082013567ffffffffffffffff811115614e9f57614e9e613f18565b5b614eab84828501614d15565b91505092915050565b600081519050919050565b600082825260208201905092915050565b6000819050602082019050919050565b600061010083016000830151614ef960008601826143f0565b5060208301518482036020860152614f118282614823565b91505060408301518482036040860152614f2b828261441f565b91505060608301518482036060860152614f45828261441f565b9150506080830151614f5a60808601826143ff565b5060a0830151614f6d60a08601826143ff565b5060c083015184820360c0860152614f85828261494e565b91505060e083015184820360e0860152614f9f828261494e565b9150508091505092915050565b6000614fb88383614ee0565b905092915050565b6000602082019050919050565b6000614fd882614eb4565b614fe28185614ebf565b935083602082028501614ff485614ed0565b8060005b8581101561503057848403895281516150118582614fac565b945061501c83614fc0565b925060208a01995050600181019050614ff8565b50829750879550505050505092915050565b6000602082019050818103600083015261505c8184614fcd565b905092915050565b7f4e487b7100000000000000000000000000000000000000000000000000000000600052603260045260246000fd5b7f4e487b7100000000000000000000000000000000000000000000000000000000600052601160045260246000fd5b60006150cd826141f5565b91506150d8836141f5565b92508282039050818111156150f0576150ef615093565b5b92915050565b7f4e487b7100000000000000000000000000000000000000000000000000000000600052603160045260246000fd5b6000615130826141f5565b91506000820361514357615142615093565b5b600182039050919050565b6000615159826141f5565b91507fffffffffffffffffffffffffffffffffffffffffffffffffffffffffffffffff820361518b5761518a615093565b5b600182019050919050565b7f4e487b7100000000000000000000000000000000000000000000000000000000600052602260045260246000fd5b600060028204905060018216806151dd57607f821691505b6020821081036151f0576151ef615196565b5b50919050565b60008190508160005260206000209050919050565b60006020601f8301049050919050565b600082821b905092915050565b6000600883026152587fffffffffffffffffffffffffffffffffffffffffffffffffffffffffffffffff8261521b565b615262868361521b565b95508019841693508086168417925050509392505050565b6000819050919050565b600061529f61529a615295846141f5565b61527a565b6141f5565b9050919050565b6000819050919050565b6152b983615284565b6152cd6152c5826152a6565b848454615228565b825550505050565b600090565b6152e26152d5565b6152ed8184846152b0565b505050565b5b81811015615311576153066000826152da565b6001810190506152f3565b5050565b601f82111561535657615327816151f6565b6153308461520b565b8101602085101561533f578190505b61535361534b8561520b565b8301826152f2565b50505b505050565b600082821c905092915050565b60006153796000198460080261535b565b1980831691505092915050565b60006153928383615368565b9150826002028217905092915050565b6153ab82614289565b67ffffffffffffffff8111156153c4576153c3613fc3565b5b6153ce82546151c5565b6153d9828285615315565b600060209050601f83116001811461540c57600084156153fa578287015190505b6154048582615386565b86555061546c565b601f19841661541a866151f6565b60005b828110156154425784890151825560018201915060208501945060208101905061541d565b8683101561545f578489015161545b601f891682615368565b8355505b6001600288020188555050505b505050505050565b7f6e6f74207477656574206f776e65720000000000000000000000000000000000600082015250565b60006154aa600f83614294565b91506154b582615474565b602082019050919050565b600060208201905081810360008301526154d98161549d565b9050919050565b60006154eb826141f5565b91506154f6836141f5565b925082820190508082111561550e5761550d615093565b5b92915050565b600081549050615523816151c5565b9050919050565b818103615538575050615610565b61554182615514565b67ffffffffffffffff81111561555a57615559613fc3565b5b61556482546151c5565b61556f828285615315565b6000601f83116001811461559e576000841561558c578287015490505b6155968582615386565b865550615609565b601f1984166155ac876151f6565b96506155b7866151f6565b60005b828110156155df578489015482556001820191506001850194506020810190506155ba565b868310156155fc57848901546155f8601f891682615368565b8355505b6001600288020188555050505b5050505050505b56fea2646970667358221220d6668d8a8db0521dfac00ba5871d0a923f88f448ac0f7a0a14d11abb49adf45e64736f6c63430008130033",
  "immutableReferences": {},
  "source": "// SPDX-License-Identifier: UNLICENSED\r\npragma solidity ^0.8.17;\r\n\r\ncontract Decentra {\r\n    address public owner;\r\n   \r\n\r\n    constructor() {\r\n        owner = msg.sender;\r\n    }\r\n\r\n    struct Profile {\r\n        string name;\r\n        string avatar;\r\n        string banner;\r\n        uint256 age;\r\n        string gender;\r\n        string status;\r\n        string country;\r\n        string city;\r\n    }\r\n    struct user {\r\n        address userAddress;\r\n        Profile profile;\r\n        string occupation;\r\n        string date_joined;\r\n        uint256 followers;\r\n        uint256 following;\r\n        address[] user_following;\r\n        address[] user_followed;\r\n    }\r\n\r\n    struct Tweet{\r\n        address tweetOwner;\r\n        uint256 t_id;     \r\n        string username;\r\n        string userAt;\r\n        string date;\r\n        string text;\r\n        string cId;\r\n        bool liked;\r\n\r\n    }\r\n\r\n    struct Comment{\r\n        address commentOwner;\r\n        uint256 c_id;\r\n        string username;\r\n        string userAt;\r\n        string date;\r\n        string text;\r\n        bool liked;\r\n        Comment[] cmts;\r\n    }\r\n    \r\n    struct Notification {\r\n        uint256 id;\r\n        string text;\r\n        string image;\r\n    }\r\n     \r\n    mapping (address => user) Users;\r\n    address[] private userAddresses;\r\n    mapping(address => Notification[]) public userNotifications;\r\n\r\n     uint256 tweetId=1000;\r\n    Tweet[] public tweets;\r\n    mapping (address => Tweet[]) public userTweets;\r\n\r\n    // function addUser (\r\n    //     Profile memory _profile,\r\n    //     string memory _occupation,\r\n    //     string memory _date_joined,\r\n    //     uint256 _followers,\r\n    //     uint256 _following,\r\n    //     uint256[] memory _user_following,\r\n    //     uint256[] memory _user_followed\r\n    // ) public {\r\n    //     user memory newUser = user(\r\n    //     _profile,\r\n    //     _occupation,\r\n    //     _date_joined,\r\n    //     _followers,\r\n    //     _following,\r\n    //     _user_following,\r\n    //     _user_followed\r\n    // );\r\n\r\n    // Users[msg.sender] = newUser;\r\n    // }\r\n\r\n    // function updateUser (\r\n    //     Profile memory _profile,\r\n    //     string memory _occupation\r\n    // ) public {\r\n    //     user storage userData = Users[msg.sender];\r\n    //     userData.profile = _profile;\r\n    //     userData.occupation = _occupation;\r\n    // }\r\n\r\n    function createUser(user memory _user) public {\r\n        Users[msg.sender] = _user;\r\n        userAddresses.push(msg.sender);\r\n    }\r\n\r\n    function updateUser(user memory _user) public {\r\n    Users[msg.sender] = _user;\r\n    }\r\n\r\n    function getUser(address userAddress) public view returns (user memory) {\r\n        return Users[userAddress];\r\n    }\r\n\r\n    function getAllUsers() public view returns (user[] memory) {\r\n        user[] memory allUsers = new user[](userAddresses.length);\r\n        for (uint256 i = 0; i < userAddresses.length; i++) {\r\n            allUsers[i] = Users[userAddresses[i]];\r\n        }\r\n        return allUsers;\r\n    }\r\n\r\n    // Follow Logic\r\n    function follow(address userAddress) public {\r\n        Users[msg.sender].user_following.push(userAddress);\r\n        Users[msg.sender].following++;\r\n        Users[userAddress].user_followed.push(msg.sender);\r\n        Users[userAddress].followers++;\r\n    }\r\n\r\n    function unfollow(address userAddress) public {\r\n        address[] storage following = Users[msg.sender].user_following;\r\n        address[] storage followed = Users[userAddress].user_followed;\r\n        for (uint256 i = 0; i < following.length; i++) {\r\n            if (following[i] == userAddress) {\r\n                if (i != following.length - 1) {\r\n                    // Replace the element to be removed with the last element\r\n                    following[i] = following[following.length - 1];\r\n                }\r\n                // Remove the last element\r\n                following.pop();\r\n                Users[msg.sender].following--;\r\n                break; // Exit the loop once the user is found and removed\r\n            }\r\n        }\r\n\r\n        for (uint256 i = 0; i < followed.length; i++) {\r\n            if (followed[i] == msg.sender) {\r\n                if (i != followed.length - 1) {\r\n                    // Replace the element to be removed with the last element\r\n                    followed[i] = followed[followed.length - 1];\r\n                }\r\n                // Remove the last element\r\n                followed.pop();\r\n                Users[userAddress].followers--;\r\n                break; // Exit the loop once the follower is found and removed\r\n            }\r\n        }\r\n    }\r\n\r\n    function addTweet(string memory _username, string memory _userAt, string memory _date, string memory _text, string memory _cId) public {\r\n        uint id =tweetId;\r\n        tweetId++;\r\n        tweets.push(Tweet(msg.sender ,id, _username, _userAt, _date, _text, _cId, false));\r\n        \r\n        Tweet[] storage userSpecificTweets= userTweets[msg.sender];\r\n        userSpecificTweets.push(Tweet(msg.sender ,id, _username, _userAt, _date, _text, _cId, false));\r\n        \r\n        userTweets[msg.sender]=userSpecificTweets;\r\n    }\r\n\r\n    function getAllTweets() public view returns(Tweet[] memory){\r\n        return tweets;\r\n    }\r\n\r\n    function getUserTweets(address _user) public view returns(Tweet[] memory){\r\n        return userTweets[_user];\r\n    }\r\n\r\n    function deleteTweet(uint id) public {\r\n        Tweet[] storage userSpecificTweets = userTweets[msg.sender];\r\n        for(uint i=0; i<tweets.length; i++)\r\n        {\r\n            if(tweets[i].t_id == id){\r\n                require(tweets[i].tweetOwner == msg.sender, \"not tweet owner\");\r\n                if(tweets.length==1){\r\n                    tweets.pop();\r\n                }\r\n                else{\r\n                    for(uint j=i; j<tweets.length-1;j++){\r\n                        tweets[j]=tweets[j+1];\r\n                    }\r\n                    tweets.pop();\r\n                }\r\n            }\r\n        }\r\n        for (uint i=0;i<userSpecificTweets.length;i++){\r\n            if(userSpecificTweets[i].t_id==id){\r\n                require(userSpecificTweets[i].tweetOwner == msg.sender, \"not tweet owner\");\r\n                if(userSpecificTweets.length==1){\r\n                    userSpecificTweets.pop();\r\n                    userTweets[msg.sender]=userSpecificTweets;\r\n                }\r\n                else{\r\n                    for(uint j=i; j<userSpecificTweets.length-1;j++){\r\n                    userSpecificTweets[j]=userSpecificTweets[j+1];\r\n                    }\r\n                    userSpecificTweets.pop();\r\n                    userTweets[msg.sender]=userSpecificTweets;\r\n                }\r\n                \r\n            }\r\n        }\r\n    }\r\n\r\n    // Function to add a new notification\r\n    function addNotification(address _userAddress, string memory _text, string memory _image) public {\r\n        Notification[] storage notifications = userNotifications[_userAddress];\r\n        uint256 notificationId = notifications.length;\r\n        Notification memory newNotification = Notification(notificationId, _text, _image);\r\n        notifications.push(newNotification);\r\n    }\r\n\r\n    // Function to retrieve a user's notifications\r\n    function getUserNotifications(address _userAddress) public view returns (Notification[] memory) {\r\n        return userNotifications[_userAddress];\r\n    }\r\n}   ",
  "sourcePath": "D:\\Docs\\Engineering\\Src\\Web\\FYP\\Code\\decentra\\contracts\\Decentra.sol",
  "compiler": {
    "name": "solc",
    "version": "0.8.19+commit.7dd6d404.Emscripten.clang"
  },
  "schemaVersion": "3.4.13",
  "updatedAt": "2023-07-04T15:02:36.172Z",
  "networkType": "ethereum",
  "devdoc": {
    "kind": "dev",
    "methods": {},
    "version": 1
  },
  "userdoc": {
    "kind": "user",
    "methods": {},
    "version": 1
  }
}