{
  "contractName": "Decentra",
  "abi": [
    {
      "inputs": [],
      "stateMutability": "nonpayable",
      "type": "constructor"
    },
    {
      "inputs": [],
      "name": "owner",
      "outputs": [
        {
          "internalType": "address",
          "name": "",
          "type": "address"
        }
      ],
      "stateMutability": "view",
      "type": "function",
      "constant": true
    },
    {
      "inputs": [
        {
          "internalType": "uint256",
          "name": "",
          "type": "uint256"
        }
      ],
      "name": "tweets",
      "outputs": [
        {
          "internalType": "address",
          "name": "tweetOwner",
          "type": "address"
        },
        {
          "internalType": "uint256",
          "name": "t_id",
          "type": "uint256"
        },
        {
          "internalType": "string",
          "name": "username",
          "type": "string"
        },
        {
          "internalType": "string",
          "name": "userAt",
          "type": "string"
        },
        {
          "internalType": "string",
          "name": "date",
          "type": "string"
        },
        {
          "internalType": "string",
          "name": "text",
          "type": "string"
        },
        {
          "internalType": "string",
          "name": "cId",
          "type": "string"
        },
        {
          "internalType": "bool",
          "name": "liked",
          "type": "bool"
        }
      ],
      "stateMutability": "view",
      "type": "function",
      "constant": true
    },
    {
      "inputs": [
        {
          "internalType": "address",
          "name": "",
          "type": "address"
        },
        {
          "internalType": "uint256",
          "name": "",
          "type": "uint256"
        }
      ],
      "name": "userNotifications",
      "outputs": [
        {
          "internalType": "uint256",
          "name": "id",
          "type": "uint256"
        },
        {
          "internalType": "string",
          "name": "text",
          "type": "string"
        },
        {
          "internalType": "string",
          "name": "image",
          "type": "string"
        }
      ],
      "stateMutability": "view",
      "type": "function",
      "constant": true
    },
    {
      "inputs": [
        {
          "internalType": "address",
          "name": "",
          "type": "address"
        },
        {
          "internalType": "uint256",
          "name": "",
          "type": "uint256"
        }
      ],
      "name": "userTweets",
      "outputs": [
        {
          "internalType": "address",
          "name": "tweetOwner",
          "type": "address"
        },
        {
          "internalType": "uint256",
          "name": "t_id",
          "type": "uint256"
        },
        {
          "internalType": "string",
          "name": "username",
          "type": "string"
        },
        {
          "internalType": "string",
          "name": "userAt",
          "type": "string"
        },
        {
          "internalType": "string",
          "name": "date",
          "type": "string"
        },
        {
          "internalType": "string",
          "name": "text",
          "type": "string"
        },
        {
          "internalType": "string",
          "name": "cId",
          "type": "string"
        },
        {
          "internalType": "bool",
          "name": "liked",
          "type": "bool"
        }
      ],
      "stateMutability": "view",
      "type": "function",
      "constant": true
    },
    {
      "inputs": [
        {
          "components": [
            {
              "internalType": "address",
              "name": "userAddress",
              "type": "address"
            },
            {
              "components": [
                {
                  "internalType": "string",
                  "name": "name",
                  "type": "string"
                },
                {
                  "internalType": "string",
                  "name": "avatar",
                  "type": "string"
                },
                {
                  "internalType": "string",
                  "name": "banner",
                  "type": "string"
                },
                {
                  "internalType": "uint256",
                  "name": "age",
                  "type": "uint256"
                },
                {
                  "internalType": "string",
                  "name": "gender",
                  "type": "string"
                },
                {
                  "internalType": "string",
                  "name": "status",
                  "type": "string"
                },
                {
                  "internalType": "string",
                  "name": "country",
                  "type": "string"
                },
                {
                  "internalType": "string",
                  "name": "city",
                  "type": "string"
                }
              ],
              "internalType": "struct Decentra.Profile",
              "name": "profile",
              "type": "tuple"
            },
            {
              "internalType": "string",
              "name": "occupation",
              "type": "string"
            },
            {
              "internalType": "string",
              "name": "date_joined",
              "type": "string"
            },
            {
              "internalType": "uint256",
              "name": "followers",
              "type": "uint256"
            },
            {
              "internalType": "uint256",
              "name": "following",
              "type": "uint256"
            },
            {
              "internalType": "address[]",
              "name": "user_following",
              "type": "address[]"
            },
            {
              "internalType": "address[]",
              "name": "user_followed",
              "type": "address[]"
            }
          ],
          "internalType": "struct Decentra.user",
          "name": "_user",
          "type": "tuple"
        }
      ],
      "name": "createUser",
      "outputs": [],
      "stateMutability": "nonpayable",
      "type": "function"
    },
    {
      "inputs": [
        {
          "components": [
            {
              "internalType": "address",
              "name": "userAddress",
              "type": "address"
            },
            {
              "components": [
                {
                  "internalType": "string",
                  "name": "name",
                  "type": "string"
                },
                {
                  "internalType": "string",
                  "name": "avatar",
                  "type": "string"
                },
                {
                  "internalType": "string",
                  "name": "banner",
                  "type": "string"
                },
                {
                  "internalType": "uint256",
                  "name": "age",
                  "type": "uint256"
                },
                {
                  "internalType": "string",
                  "name": "gender",
                  "type": "string"
                },
                {
                  "internalType": "string",
                  "name": "status",
                  "type": "string"
                },
                {
                  "internalType": "string",
                  "name": "country",
                  "type": "string"
                },
                {
                  "internalType": "string",
                  "name": "city",
                  "type": "string"
                }
              ],
              "internalType": "struct Decentra.Profile",
              "name": "profile",
              "type": "tuple"
            },
            {
              "internalType": "string",
              "name": "occupation",
              "type": "string"
            },
            {
              "internalType": "string",
              "name": "date_joined",
              "type": "string"
            },
            {
              "internalType": "uint256",
              "name": "followers",
              "type": "uint256"
            },
            {
              "internalType": "uint256",
              "name": "following",
              "type": "uint256"
            },
            {
              "internalType": "address[]",
              "name": "user_following",
              "type": "address[]"
            },
            {
              "internalType": "address[]",
              "name": "user_followed",
              "type": "address[]"
            }
          ],
          "internalType": "struct Decentra.user",
          "name": "_user",
          "type": "tuple"
        }
      ],
      "name": "updateUser",
      "outputs": [],
      "stateMutability": "nonpayable",
      "type": "function"
    },
    {
      "inputs": [
        {
          "internalType": "address",
          "name": "userAddress",
          "type": "address"
        }
      ],
      "name": "getUser",
      "outputs": [
        {
          "components": [
            {
              "internalType": "address",
              "name": "userAddress",
              "type": "address"
            },
            {
              "components": [
                {
                  "internalType": "string",
                  "name": "name",
                  "type": "string"
                },
                {
                  "internalType": "string",
                  "name": "avatar",
                  "type": "string"
                },
                {
                  "internalType": "string",
                  "name": "banner",
                  "type": "string"
                },
                {
                  "internalType": "uint256",
                  "name": "age",
                  "type": "uint256"
                },
                {
                  "internalType": "string",
                  "name": "gender",
                  "type": "string"
                },
                {
                  "internalType": "string",
                  "name": "status",
                  "type": "string"
                },
                {
                  "internalType": "string",
                  "name": "country",
                  "type": "string"
                },
                {
                  "internalType": "string",
                  "name": "city",
                  "type": "string"
                }
              ],
              "internalType": "struct Decentra.Profile",
              "name": "profile",
              "type": "tuple"
            },
            {
              "internalType": "string",
              "name": "occupation",
              "type": "string"
            },
            {
              "internalType": "string",
              "name": "date_joined",
              "type": "string"
            },
            {
              "internalType": "uint256",
              "name": "followers",
              "type": "uint256"
            },
            {
              "internalType": "uint256",
              "name": "following",
              "type": "uint256"
            },
            {
              "internalType": "address[]",
              "name": "user_following",
              "type": "address[]"
            },
            {
              "internalType": "address[]",
              "name": "user_followed",
              "type": "address[]"
            }
          ],
          "internalType": "struct Decentra.user",
          "name": "",
          "type": "tuple"
        }
      ],
      "stateMutability": "view",
      "type": "function",
      "constant": true
    },
    {
      "inputs": [],
      "name": "getAllUsers",
      "outputs": [
        {
          "components": [
            {
              "internalType": "address",
              "name": "userAddress",
              "type": "address"
            },
            {
              "components": [
                {
                  "internalType": "string",
                  "name": "name",
                  "type": "string"
                },
                {
                  "internalType": "string",
                  "name": "avatar",
                  "type": "string"
                },
                {
                  "internalType": "string",
                  "name": "banner",
                  "type": "string"
                },
                {
                  "internalType": "uint256",
                  "name": "age",
                  "type": "uint256"
                },
                {
                  "internalType": "string",
                  "name": "gender",
                  "type": "string"
                },
                {
                  "internalType": "string",
                  "name": "status",
                  "type": "string"
                },
                {
                  "internalType": "string",
                  "name": "country",
                  "type": "string"
                },
                {
                  "internalType": "string",
                  "name": "city",
                  "type": "string"
                }
              ],
              "internalType": "struct Decentra.Profile",
              "name": "profile",
              "type": "tuple"
            },
            {
              "internalType": "string",
              "name": "occupation",
              "type": "string"
            },
            {
              "internalType": "string",
              "name": "date_joined",
              "type": "string"
            },
            {
              "internalType": "uint256",
              "name": "followers",
              "type": "uint256"
            },
            {
              "internalType": "uint256",
              "name": "following",
              "type": "uint256"
            },
            {
              "internalType": "address[]",
              "name": "user_following",
              "type": "address[]"
            },
            {
              "internalType": "address[]",
              "name": "user_followed",
              "type": "address[]"
            }
          ],
          "internalType": "struct Decentra.user[]",
          "name": "",
          "type": "tuple[]"
        }
      ],
      "stateMutability": "view",
      "type": "function",
      "constant": true
    },
    {
      "inputs": [
        {
          "internalType": "address",
          "name": "userAddress",
          "type": "address"
        }
      ],
      "name": "follow",
      "outputs": [],
      "stateMutability": "nonpayable",
      "type": "function"
    },
    {
      "inputs": [
        {
          "internalType": "address",
          "name": "userAddress",
          "type": "address"
        }
      ],
      "name": "unfollow",
      "outputs": [],
      "stateMutability": "nonpayable",
      "type": "function"
    },
    {
      "inputs": [
        {
          "internalType": "string",
          "name": "_username",
          "type": "string"
        },
        {
          "internalType": "string",
          "name": "_userAt",
          "type": "string"
        },
        {
          "internalType": "string",
          "name": "_date",
          "type": "string"
        },
        {
          "internalType": "string",
          "name": "_text",
          "type": "string"
        },
        {
          "internalType": "string",
          "name": "_cId",
          "type": "string"
        }
      ],
      "name": "addTweet",
      "outputs": [],
      "stateMutability": "nonpayable",
      "type": "function"
    },
    {
      "inputs": [],
      "name": "getAllTweets",
      "outputs": [
        {
          "components": [
            {
              "internalType": "address",
              "name": "tweetOwner",
              "type": "address"
            },
            {
              "internalType": "uint256",
              "name": "t_id",
              "type": "uint256"
            },
            {
              "internalType": "string",
              "name": "username",
              "type": "string"
            },
            {
              "internalType": "string",
              "name": "userAt",
              "type": "string"
            },
            {
              "internalType": "string",
              "name": "date",
              "type": "string"
            },
            {
              "internalType": "string",
              "name": "text",
              "type": "string"
            },
            {
              "internalType": "string",
              "name": "cId",
              "type": "string"
            },
            {
              "internalType": "bool",
              "name": "liked",
              "type": "bool"
            }
          ],
          "internalType": "struct Decentra.Tweet[]",
          "name": "",
          "type": "tuple[]"
        }
      ],
      "stateMutability": "view",
      "type": "function",
      "constant": true
    },
    {
      "inputs": [
        {
          "internalType": "address",
          "name": "_user",
          "type": "address"
        }
      ],
      "name": "getUserTweets",
      "outputs": [
        {
          "components": [
            {
              "internalType": "address",
              "name": "tweetOwner",
              "type": "address"
            },
            {
              "internalType": "uint256",
              "name": "t_id",
              "type": "uint256"
            },
            {
              "internalType": "string",
              "name": "username",
              "type": "string"
            },
            {
              "internalType": "string",
              "name": "userAt",
              "type": "string"
            },
            {
              "internalType": "string",
              "name": "date",
              "type": "string"
            },
            {
              "internalType": "string",
              "name": "text",
              "type": "string"
            },
            {
              "internalType": "string",
              "name": "cId",
              "type": "string"
            },
            {
              "internalType": "bool",
              "name": "liked",
              "type": "bool"
            }
          ],
          "internalType": "struct Decentra.Tweet[]",
          "name": "",
          "type": "tuple[]"
        }
      ],
      "stateMutability": "view",
      "type": "function",
      "constant": true
    },
    {
      "inputs": [
        {
          "internalType": "uint256",
          "name": "id",
          "type": "uint256"
        }
      ],
      "name": "deleteTweet",
      "outputs": [],
      "stateMutability": "nonpayable",
      "type": "function"
    },
    {
      "inputs": [
        {
          "internalType": "address",
          "name": "_userAddress",
          "type": "address"
        },
        {
          "internalType": "string",
          "name": "_text",
          "type": "string"
        },
        {
          "internalType": "string",
          "name": "_image",
          "type": "string"
        }
      ],
      "name": "addNotification",
      "outputs": [],
      "stateMutability": "nonpayable",
      "type": "function"
    },
    {
      "inputs": [
        {
          "internalType": "address",
          "name": "_userAddress",
          "type": "address"
        }
      ],
      "name": "getUserNotifications",
      "outputs": [
        {
          "components": [
            {
              "internalType": "uint256",
              "name": "id",
              "type": "uint256"
            },
            {
              "internalType": "string",
              "name": "text",
              "type": "string"
            },
            {
              "internalType": "string",
              "name": "image",
              "type": "string"
            }
          ],
          "internalType": "struct Decentra.Notification[]",
          "name": "",
          "type": "tuple[]"
        }
      ],
      "stateMutability": "view",
      "type": "function",
      "constant": true
    }
  ],
  "bytecode": "0x60806040526103e860015534801561001657600080fd5b50336000806101000a81548173ffffffffffffffffffffffffffffffffffffffff021916908373ffffffffffffffffffffffffffffffffffffffff1602179055506154bf806100666000396000f3fe608060405234801561001057600080fd5b50600436106101005760003560e01c80635775912a11610097578063b4dd1bfd11610066578063b4dd1bfd146102c6578063dc77fe50146102e2578063e2842d79146102fe578063e8d857b01461031c57610100565b80635775912a1461022c57806357f31358146102485780636f77926b146102785780638da5cb5b146102a857610100565b806338c91910116100d357806338c91910146101a45780634dbf27cc146101d657806353256135146101f257806355abc23b1461021057610100565b8063015a4ead146101055780631dc0d344146101215780632e06f3471461013d5780632f5899d714610174575b600080fd5b61011f600480360381019061011a9190613e1b565b610353565b005b61013b60048036038101906101369190613f8e565b610722565b005b610157600480360381019061015291906140cb565b610a99565b60405161016b9897969594939291906141c3565b60405180910390f35b61018e60048036038101906101899190613e1b565b610dd3565b60405161019b9190614469565b60405180910390f35b6101be60048036038101906101b991906140cb565b6111c7565b6040516101cd9392919061448b565b60405180910390f35b6101f060048036038101906101eb9190613e1b565b61131e565b005b6101fa611467565b6040516102079190614469565b60405180910390f35b61022a600480360381019061022591906144d0565b61181c565b005b6102466004803603810190610241919061455b565b6118f2565b005b610262600480360381019061025d9190613e1b565b61220e565b60405161026f91906146a1565b60405180910390f35b610292600480360381019061028d9190613e1b565b6123da565b60405161029f9190614918565b60405180910390f35b6102b0612afb565b6040516102bd919061493a565b60405180910390f35b6102e060048036038101906102db9190614d0b565b612b1f565b005b6102fc60048036038101906102f79190614d0b565b612d38565b005b610306612eee565b6040516103139190614ee2565b60405180910390f35b6103366004803603810190610331919061455b565b6136e6565b60405161034a9897969594939291906141c3565b60405180910390f35b6000600460003373ffffffffffffffffffffffffffffffffffffffff1673ffffffffffffffffffffffffffffffffffffffff168152602001908152602001600020600d0190506000600460008473ffffffffffffffffffffffffffffffffffffffff1673ffffffffffffffffffffffffffffffffffffffff168152602001908152602001600020600e01905060005b828054905081101561057d578373ffffffffffffffffffffffffffffffffffffffff1683828154811061041857610417614f04565b5b9060005260206000200160009054906101000a900473ffffffffffffffffffffffffffffffffffffffff1673ffffffffffffffffffffffffffffffffffffffff160361056a576001838054905061046f9190614f62565b811461051f5782600184805490506104879190614f62565b8154811061049857610497614f04565b5b9060005260206000200160009054906101000a900473ffffffffffffffffffffffffffffffffffffffff168382815481106104d6576104d5614f04565b5b9060005260206000200160006101000a81548173ffffffffffffffffffffffffffffffffffffffff021916908373ffffffffffffffffffffffffffffffffffffffff1602179055505b828054806105305761052f614f96565b5b6001900381819060005260206000200160006101000a81549073ffffffffffffffffffffffffffffffffffffffff0219169055905561057d565b808061057590614fc5565b9150506103e2565b5060005b818054905081101561071c573373ffffffffffffffffffffffffffffffffffffffff168282815481106105b7576105b6614f04565b5b9060005260206000200160009054906101000a900473ffffffffffffffffffffffffffffffffffffffff1673ffffffffffffffffffffffffffffffffffffffff1603610709576001828054905061060e9190614f62565b81146106be5781600183805490506106269190614f62565b8154811061063757610636614f04565b5b9060005260206000200160009054906101000a900473ffffffffffffffffffffffffffffffffffffffff1682828154811061067557610674614f04565b5b9060005260206000200160006101000a81548173ffffffffffffffffffffffffffffffffffffffff021916908373ffffffffffffffffffffffffffffffffffffffff1602179055505b818054806106cf576106ce614f96565b5b6001900381819060005260206000200160006101000a81549073ffffffffffffffffffffffffffffffffffffffff0219169055905561071c565b808061071490614fc5565b915050610581565b50505050565b600060015490506001600081548092919061073c90614fc5565b919050555060026040518061010001604052803373ffffffffffffffffffffffffffffffffffffffff16815260200183815260200188815260200187815260200186815260200185815260200184815260200160001515815250908060018154018082558091505060019003906000526020600020906008020160009091909190915060008201518160000160006101000a81548173ffffffffffffffffffffffffffffffffffffffff021916908373ffffffffffffffffffffffffffffffffffffffff1602179055506020820151816001015560408201518160020190816108259190615219565b50606082015181600301908161083b9190615219565b5060808201518160040190816108519190615219565b5060a08201518160050190816108679190615219565b5060c082015181600601908161087d9190615219565b5060e08201518160070160006101000a81548160ff02191690831515021790555050506000600360003373ffffffffffffffffffffffffffffffffffffffff1673ffffffffffffffffffffffffffffffffffffffff1681526020019081526020016000209050806040518061010001604052803373ffffffffffffffffffffffffffffffffffffffff16815260200184815260200189815260200188815260200187815260200186815260200185815260200160001515815250908060018154018082558091505060019003906000526020600020906008020160009091909190915060008201518160000160006101000a81548173ffffffffffffffffffffffffffffffffffffffff021916908373ffffffffffffffffffffffffffffffffffffffff1602179055506020820151816001015560408201518160020190816109c69190615219565b5060608201518160030190816109dc9190615219565b5060808201518160040190816109f29190615219565b5060a0820151816005019081610a089190615219565b5060c0820151816006019081610a1e9190615219565b5060e08201518160070160006101000a81548160ff021916908315150217905550505080600360003373ffffffffffffffffffffffffffffffffffffffff1673ffffffffffffffffffffffffffffffffffffffff168152602001908152602001600020908054610a8f929190613a13565b5050505050505050565b60036020528160005260406000208181548110610ab557600080fd5b9060005260206000209060080201600091509150508060000160009054906101000a900473ffffffffffffffffffffffffffffffffffffffff1690806001015490806002018054610b059061503c565b80601f0160208091040260200160405190810160405280929190818152602001828054610b319061503c565b8015610b7e5780601f10610b5357610100808354040283529160200191610b7e565b820191906000526020600020905b815481529060010190602001808311610b6157829003601f168201915b505050505090806003018054610b939061503c565b80601f0160208091040260200160405190810160405280929190818152602001828054610bbf9061503c565b8015610c0c5780601f10610be157610100808354040283529160200191610c0c565b820191906000526020600020905b815481529060010190602001808311610bef57829003601f168201915b505050505090806004018054610c219061503c565b80601f0160208091040260200160405190810160405280929190818152602001828054610c4d9061503c565b8015610c9a5780601f10610c6f57610100808354040283529160200191610c9a565b820191906000526020600020905b815481529060010190602001808311610c7d57829003601f168201915b505050505090806005018054610caf9061503c565b80601f0160208091040260200160405190810160405280929190818152602001828054610cdb9061503c565b8015610d285780601f10610cfd57610100808354040283529160200191610d28565b820191906000526020600020905b815481529060010190602001808311610d0b57829003601f168201915b505050505090806006018054610d3d9061503c565b80601f0160208091040260200160405190810160405280929190818152602001828054610d699061503c565b8015610db65780601f10610d8b57610100808354040283529160200191610db6565b820191906000526020600020905b815481529060010190602001808311610d9957829003601f168201915b5050505050908060070160009054906101000a900460ff16905088565b6060600360008373ffffffffffffffffffffffffffffffffffffffff1673ffffffffffffffffffffffffffffffffffffffff168152602001908152602001600020805480602002602001604051908101604052809291908181526020016000905b828210156111bc5783829060005260206000209060080201604051806101000160405290816000820160009054906101000a900473ffffffffffffffffffffffffffffffffffffffff1673ffffffffffffffffffffffffffffffffffffffff1673ffffffffffffffffffffffffffffffffffffffff16815260200160018201548152602001600282018054610ec89061503c565b80601f0160208091040260200160405190810160405280929190818152602001828054610ef49061503c565b8015610f415780601f10610f1657610100808354040283529160200191610f41565b820191906000526020600020905b815481529060010190602001808311610f2457829003601f168201915b50505050508152602001600382018054610f5a9061503c565b80601f0160208091040260200160405190810160405280929190818152602001828054610f869061503c565b8015610fd35780601f10610fa857610100808354040283529160200191610fd3565b820191906000526020600020905b815481529060010190602001808311610fb657829003601f168201915b50505050508152602001600482018054610fec9061503c565b80601f01602080910402602001604051908101604052809291908181526020018280546110189061503c565b80156110655780601f1061103a57610100808354040283529160200191611065565b820191906000526020600020905b81548152906001019060200180831161104857829003601f168201915b5050505050815260200160058201805461107e9061503c565b80601f01602080910402602001604051908101604052809291908181526020018280546110aa9061503c565b80156110f75780601f106110cc576101008083540402835291602001916110f7565b820191906000526020600020905b8154815290600101906020018083116110da57829003601f168201915b505050505081526020016006820180546111109061503c565b80601f016020809104026020016040519081016040528092919081815260200182805461113c9061503c565b80156111895780601f1061115e57610100808354040283529160200191611189565b820191906000526020600020905b81548152906001019060200180831161116c57829003601f168201915b505050505081526020016007820160009054906101000a900460ff16151515158152505081526020019060010190610e34565b505050509050919050565b600660205281600052604060002081815481106111e357600080fd5b90600052602060002090600302016000915091505080600001549080600101805461120d9061503c565b80601f01602080910402602001604051908101604052809291908181526020018280546112399061503c565b80156112865780601f1061125b57610100808354040283529160200191611286565b820191906000526020600020905b81548152906001019060200180831161126957829003601f168201915b50505050509080600201805461129b9061503c565b80601f01602080910402602001604051908101604052809291908181526020018280546112c79061503c565b80156113145780601f106112e957610100808354040283529160200191611314565b820191906000526020600020905b8154815290600101906020018083116112f757829003601f168201915b5050505050905083565b600460003373ffffffffffffffffffffffffffffffffffffffff1673ffffffffffffffffffffffffffffffffffffffff168152602001908152602001600020600d01819080600181540180825580915050600190039060005260206000200160009091909190916101000a81548173ffffffffffffffffffffffffffffffffffffffff021916908373ffffffffffffffffffffffffffffffffffffffff160217905550600460008273ffffffffffffffffffffffffffffffffffffffff1673ffffffffffffffffffffffffffffffffffffffff168152602001908152602001600020600e01339080600181540180825580915050600190039060005260206000200160009091909190916101000a81548173ffffffffffffffffffffffffffffffffffffffff021916908373ffffffffffffffffffffffffffffffffffffffff16021790555050565b60606002805480602002602001604051908101604052809291908181526020016000905b828210156118135783829060005260206000209060080201604051806101000160405290816000820160009054906101000a900473ffffffffffffffffffffffffffffffffffffffff1673ffffffffffffffffffffffffffffffffffffffff1673ffffffffffffffffffffffffffffffffffffffff1681526020016001820154815260200160028201805461151f9061503c565b80601f016020809104026020016040519081016040528092919081815260200182805461154b9061503c565b80156115985780601f1061156d57610100808354040283529160200191611598565b820191906000526020600020905b81548152906001019060200180831161157b57829003601f168201915b505050505081526020016003820180546115b19061503c565b80601f01602080910402602001604051908101604052809291908181526020018280546115dd9061503c565b801561162a5780601f106115ff5761010080835404028352916020019161162a565b820191906000526020600020905b81548152906001019060200180831161160d57829003601f168201915b505050505081526020016004820180546116439061503c565b80601f016020809104026020016040519081016040528092919081815260200182805461166f9061503c565b80156116bc5780601f10611691576101008083540402835291602001916116bc565b820191906000526020600020905b81548152906001019060200180831161169f57829003601f168201915b505050505081526020016005820180546116d59061503c565b80601f01602080910402602001604051908101604052809291908181526020018280546117019061503c565b801561174e5780601f106117235761010080835404028352916020019161174e565b820191906000526020600020905b81548152906001019060200180831161173157829003601f168201915b505050505081526020016006820180546117679061503c565b80601f01602080910402602001604051908101604052809291908181526020018280546117939061503c565b80156117e05780601f106117b5576101008083540402835291602001916117e0565b820191906000526020600020905b8154815290600101906020018083116117c357829003601f168201915b505050505081526020016007820160009054906101000a900460ff1615151515815250508152602001906001019061148b565b50505050905090565b6000600660008573ffffffffffffffffffffffffffffffffffffffff1673ffffffffffffffffffffffffffffffffffffffff168152602001908152602001600020905060008180549050905060006040518060600160405280838152602001868152602001858152509050828190806001815401808255809150506001900390600052602060002090600302016000909190919091506000820151816000015560208201518160010190816118d19190615219565b5060408201518160020190816118e79190615219565b505050505050505050565b6000600360003373ffffffffffffffffffffffffffffffffffffffff1673ffffffffffffffffffffffffffffffffffffffff168152602001908152602001600020905060005b600280549050811015611d5457826002828154811061195a57611959614f04565b5b90600052602060002090600802016001015403611d41573373ffffffffffffffffffffffffffffffffffffffff166002828154811061199c5761199b614f04565b5b906000526020600020906008020160000160009054906101000a900473ffffffffffffffffffffffffffffffffffffffff1673ffffffffffffffffffffffffffffffffffffffff1614611a24576040517f08c379a0000000000000000000000000000000000000000000000000000000008152600401611a1b90615337565b60405180910390fd5b600160028054905003611af4576002805480611a4357611a42614f96565b5b6001900381819060005260206000209060080201600080820160006101000a81549073ffffffffffffffffffffffffffffffffffffffff02191690556001820160009055600282016000611a979190613b72565b600382016000611aa79190613b72565b600482016000611ab79190613b72565b600582016000611ac79190613b72565b600682016000611ad79190613b72565b6007820160006101000a81549060ff021916905550509055611d40565b60008190505b6001600280549050611b0c9190614f62565b811015611c80576002600182611b229190615357565b81548110611b3357611b32614f04565b5b906000526020600020906008020160028281548110611b5557611b54614f04565b5b90600052602060002090600802016000820160009054906101000a900473ffffffffffffffffffffffffffffffffffffffff168160000160006101000a81548173ffffffffffffffffffffffffffffffffffffffff021916908373ffffffffffffffffffffffffffffffffffffffff1602179055506001820154816001015560028201816002019081611be891906153a1565b5060038201816003019081611bfd91906153a1565b5060048201816004019081611c1291906153a1565b5060058201816005019081611c2791906153a1565b5060068201816006019081611c3c91906153a1565b506007820160009054906101000a900460ff168160070160006101000a81548160ff0219169083151502179055509050508080611c7890614fc5565b915050611afa565b506002805480611c9357611c92614f96565b5b6001900381819060005260206000209060080201600080820160006101000a81549073ffffffffffffffffffffffffffffffffffffffff02191690556001820160009055600282016000611ce79190613b72565b600382016000611cf79190613b72565b600482016000611d079190613b72565b600582016000611d179190613b72565b600682016000611d279190613b72565b6007820160006101000a81549060ff0219169055505090555b5b8080611d4c90614fc5565b915050611938565b5060005b81805490508110156122095782828281548110611d7857611d77614f04565b5b906000526020600020906008020160010154036121f6573373ffffffffffffffffffffffffffffffffffffffff16828281548110611db957611db8614f04565b5b906000526020600020906008020160000160009054906101000a900473ffffffffffffffffffffffffffffffffffffffff1673ffffffffffffffffffffffffffffffffffffffff1614611e41576040517f08c379a0000000000000000000000000000000000000000000000000000000008152600401611e3890615337565b60405180910390fd5b6001828054905003611f5e5781805480611e5e57611e5d614f96565b5b6001900381819060005260206000209060080201600080820160006101000a81549073ffffffffffffffffffffffffffffffffffffffff02191690556001820160009055600282016000611eb29190613b72565b600382016000611ec29190613b72565b600482016000611ed29190613b72565b600582016000611ee29190613b72565b600682016000611ef29190613b72565b6007820160006101000a81549060ff02191690555050905581600360003373ffffffffffffffffffffffffffffffffffffffff1673ffffffffffffffffffffffffffffffffffffffff168152602001908152602001600020908054611f58929190613a13565b506121f5565b60008190505b60018380549050611f759190614f62565b8110156120e75782600182611f8a9190615357565b81548110611f9b57611f9a614f04565b5b9060005260206000209060080201838281548110611fbc57611fbb614f04565b5b90600052602060002090600802016000820160009054906101000a900473ffffffffffffffffffffffffffffffffffffffff168160000160006101000a81548173ffffffffffffffffffffffffffffffffffffffff021916908373ffffffffffffffffffffffffffffffffffffffff160217905550600182015481600101556002820181600201908161204f91906153a1565b506003820181600301908161206491906153a1565b506004820181600401908161207991906153a1565b506005820181600501908161208e91906153a1565b50600682018160060190816120a391906153a1565b506007820160009054906101000a900460ff168160070160006101000a81548160ff02191690831515021790555090505080806120df90614fc5565b915050611f64565b50818054806120f9576120f8614f96565b5b6001900381819060005260206000209060080201600080820160006101000a81549073ffffffffffffffffffffffffffffffffffffffff0219169055600182016000905560028201600061214d9190613b72565b60038201600061215d9190613b72565b60048201600061216d9190613b72565b60058201600061217d9190613b72565b60068201600061218d9190613b72565b6007820160006101000a81549060ff02191690555050905581600360003373ffffffffffffffffffffffffffffffffffffffff1673ffffffffffffffffffffffffffffffffffffffff1681526020019081526020016000209080546121f3929190613a13565b505b5b808061220190614fc5565b915050611d58565b505050565b6060600660008373ffffffffffffffffffffffffffffffffffffffff1673ffffffffffffffffffffffffffffffffffffffff168152602001908152602001600020805480602002602001604051908101604052809291908181526020016000905b828210156123cf5783829060005260206000209060030201604051806060016040529081600082015481526020016001820180546122ac9061503c565b80601f01602080910402602001604051908101604052809291908181526020018280546122d89061503c565b80156123255780601f106122fa57610100808354040283529160200191612325565b820191906000526020600020905b81548152906001019060200180831161230857829003601f168201915b5050505050815260200160028201805461233e9061503c565b80601f016020809104026020016040519081016040528092919081815260200182805461236a9061503c565b80156123b75780601f1061238c576101008083540402835291602001916123b7565b820191906000526020600020905b81548152906001019060200180831161239a57829003601f168201915b5050505050815250508152602001906001019061226f565b505050509050919050565b6123e2613bb2565b600460008373ffffffffffffffffffffffffffffffffffffffff1673ffffffffffffffffffffffffffffffffffffffff168152602001908152602001600020604051806101000160405290816000820160009054906101000a900473ffffffffffffffffffffffffffffffffffffffff1673ffffffffffffffffffffffffffffffffffffffff1673ffffffffffffffffffffffffffffffffffffffff16815260200160018201604051806101000160405290816000820180546124a49061503c565b80601f01602080910402602001604051908101604052809291908181526020018280546124d09061503c565b801561251d5780601f106124f25761010080835404028352916020019161251d565b820191906000526020600020905b81548152906001019060200180831161250057829003601f168201915b505050505081526020016001820180546125369061503c565b80601f01602080910402602001604051908101604052809291908181526020018280546125629061503c565b80156125af5780601f10612584576101008083540402835291602001916125af565b820191906000526020600020905b81548152906001019060200180831161259257829003601f168201915b505050505081526020016002820180546125c89061503c565b80601f01602080910402602001604051908101604052809291908181526020018280546125f49061503c565b80156126415780601f1061261657610100808354040283529160200191612641565b820191906000526020600020905b81548152906001019060200180831161262457829003601f168201915b50505050508152602001600382015481526020016004820180546126649061503c565b80601f01602080910402602001604051908101604052809291908181526020018280546126909061503c565b80156126dd5780601f106126b2576101008083540402835291602001916126dd565b820191906000526020600020905b8154815290600101906020018083116126c057829003601f168201915b505050505081526020016005820180546126f69061503c565b80601f01602080910402602001604051908101604052809291908181526020018280546127229061503c565b801561276f5780601f106127445761010080835404028352916020019161276f565b820191906000526020600020905b81548152906001019060200180831161275257829003601f168201915b505050505081526020016006820180546127889061503c565b80601f01602080910402602001604051908101604052809291908181526020018280546127b49061503c565b80156128015780601f106127d657610100808354040283529160200191612801565b820191906000526020600020905b8154815290600101906020018083116127e457829003601f168201915b5050505050815260200160078201805461281a9061503c565b80601f01602080910402602001604051908101604052809291908181526020018280546128469061503c565b80156128935780601f1061286857610100808354040283529160200191612893565b820191906000526020600020905b81548152906001019060200180831161287657829003601f168201915b50505050508152505081526020016009820180546128b09061503c565b80601f01602080910402602001604051908101604052809291908181526020018280546128dc9061503c565b80156129295780601f106128fe57610100808354040283529160200191612929565b820191906000526020600020905b81548152906001019060200180831161290c57829003601f168201915b50505050508152602001600a820180546129429061503c565b80601f016020809104026020016040519081016040528092919081815260200182805461296e9061503c565b80156129bb5780601f10612990576101008083540402835291602001916129bb565b820191906000526020600020905b81548152906001019060200180831161299e57829003601f168201915b50505050508152602001600b8201548152602001600c8201548152602001600d8201805480602002602001604051908101604052809291908181526020018280548015612a5d57602002820191906000526020600020905b8160009054906101000a900473ffffffffffffffffffffffffffffffffffffffff1673ffffffffffffffffffffffffffffffffffffffff1681526020019060010190808311612a13575b50505050508152602001600e8201805480602002602001604051908101604052809291908181526020018280548015612aeb57602002820191906000526020600020905b8160009054906101000a900473ffffffffffffffffffffffffffffffffffffffff1673ffffffffffffffffffffffffffffffffffffffff1681526020019060010190808311612aa1575b5050505050815250509050919050565b60008054906101000a900473ffffffffffffffffffffffffffffffffffffffff1681565b80600460003373ffffffffffffffffffffffffffffffffffffffff1673ffffffffffffffffffffffffffffffffffffffff16815260200190815260200160002060008201518160000160006101000a81548173ffffffffffffffffffffffffffffffffffffffff021916908373ffffffffffffffffffffffffffffffffffffffff1602179055506020820151816001016000820151816000019081612bc49190615219565b506020820151816001019081612bda9190615219565b506040820151816002019081612bf09190615219565b50606082015181600301556080820151816004019081612c109190615219565b5060a0820151816005019081612c269190615219565b5060c0820151816006019081612c3c9190615219565b5060e0820151816007019081612c529190615219565b5050506040820151816009019081612c6a9190615219565b50606082015181600a019081612c809190615219565b50608082015181600b015560a082015181600c015560c082015181600d019080519060200190612cb1929190613c13565b5060e082015181600e019080519060200190612cce929190613c13565b509050506005339080600181540180825580915050600190039060005260206000200160009091909190916101000a81548173ffffffffffffffffffffffffffffffffffffffff021916908373ffffffffffffffffffffffffffffffffffffffff16021790555050565b80600460003373ffffffffffffffffffffffffffffffffffffffff1673ffffffffffffffffffffffffffffffffffffffff16815260200190815260200160002060008201518160000160006101000a81548173ffffffffffffffffffffffffffffffffffffffff021916908373ffffffffffffffffffffffffffffffffffffffff1602179055506020820151816001016000820151816000019081612ddd9190615219565b506020820151816001019081612df39190615219565b506040820151816002019081612e099190615219565b50606082015181600301556080820151816004019081612e299190615219565b5060a0820151816005019081612e3f9190615219565b5060c0820151816006019081612e559190615219565b5060e0820151816007019081612e6b9190615219565b5050506040820151816009019081612e839190615219565b50606082015181600a019081612e999190615219565b50608082015181600b015560a082015181600c015560c082015181600d019080519060200190612eca929190613c13565b5060e082015181600e019080519060200190612ee7929190613c13565b5090505050565b6060600060058054905067ffffffffffffffff811115612f1157612f10613e63565b5b604051908082528060200260200182016040528015612f4a57816020015b612f37613bb2565b815260200190600190039081612f2f5790505b50905060005b6005805490508110156136de576004600060058381548110612f7557612f74614f04565b5b9060005260206000200160009054906101000a900473ffffffffffffffffffffffffffffffffffffffff1673ffffffffffffffffffffffffffffffffffffffff1673ffffffffffffffffffffffffffffffffffffffff168152602001908152602001600020604051806101000160405290816000820160009054906101000a900473ffffffffffffffffffffffffffffffffffffffff1673ffffffffffffffffffffffffffffffffffffffff1673ffffffffffffffffffffffffffffffffffffffff168152602001600182016040518061010001604052908160008201805461305d9061503c565b80601f01602080910402602001604051908101604052809291908181526020018280546130899061503c565b80156130d65780601f106130ab576101008083540402835291602001916130d6565b820191906000526020600020905b8154815290600101906020018083116130b957829003601f168201915b505050505081526020016001820180546130ef9061503c565b80601f016020809104026020016040519081016040528092919081815260200182805461311b9061503c565b80156131685780601f1061313d57610100808354040283529160200191613168565b820191906000526020600020905b81548152906001019060200180831161314b57829003601f168201915b505050505081526020016002820180546131819061503c565b80601f01602080910402602001604051908101604052809291908181526020018280546131ad9061503c565b80156131fa5780601f106131cf576101008083540402835291602001916131fa565b820191906000526020600020905b8154815290600101906020018083116131dd57829003601f168201915b505050505081526020016003820154815260200160048201805461321d9061503c565b80601f01602080910402602001604051908101604052809291908181526020018280546132499061503c565b80156132965780601f1061326b57610100808354040283529160200191613296565b820191906000526020600020905b81548152906001019060200180831161327957829003601f168201915b505050505081526020016005820180546132af9061503c565b80601f01602080910402602001604051908101604052809291908181526020018280546132db9061503c565b80156133285780601f106132fd57610100808354040283529160200191613328565b820191906000526020600020905b81548152906001019060200180831161330b57829003601f168201915b505050505081526020016006820180546133419061503c565b80601f016020809104026020016040519081016040528092919081815260200182805461336d9061503c565b80156133ba5780601f1061338f576101008083540402835291602001916133ba565b820191906000526020600020905b81548152906001019060200180831161339d57829003601f168201915b505050505081526020016007820180546133d39061503c565b80601f01602080910402602001604051908101604052809291908181526020018280546133ff9061503c565b801561344c5780601f106134215761010080835404028352916020019161344c565b820191906000526020600020905b81548152906001019060200180831161342f57829003601f168201915b50505050508152505081526020016009820180546134699061503c565b80601f01602080910402602001604051908101604052809291908181526020018280546134959061503c565b80156134e25780601f106134b7576101008083540402835291602001916134e2565b820191906000526020600020905b8154815290600101906020018083116134c557829003601f168201915b50505050508152602001600a820180546134fb9061503c565b80601f01602080910402602001604051908101604052809291908181526020018280546135279061503c565b80156135745780601f1061354957610100808354040283529160200191613574565b820191906000526020600020905b81548152906001019060200180831161355757829003601f168201915b50505050508152602001600b8201548152602001600c8201548152602001600d820180548060200260200160405190810160405280929190818152602001828054801561361657602002820191906000526020600020905b8160009054906101000a900473ffffffffffffffffffffffffffffffffffffffff1673ffffffffffffffffffffffffffffffffffffffff16815260200190600101908083116135cc575b50505050508152602001600e82018054806020026020016040519081016040528092919081815260200182805480156136a457602002820191906000526020600020905b8160009054906101000a900473ffffffffffffffffffffffffffffffffffffffff1673ffffffffffffffffffffffffffffffffffffffff168152602001906001019080831161365a575b5050505050815250508282815181106136c0576136bf614f04565b5b602002602001018190525080806136d690614fc5565b915050612f50565b508091505090565b600281815481106136f657600080fd5b90600052602060002090600802016000915090508060000160009054906101000a900473ffffffffffffffffffffffffffffffffffffffff16908060010154908060020180546137459061503c565b80601f01602080910402602001604051908101604052809291908181526020018280546137719061503c565b80156137be5780601f10613793576101008083540402835291602001916137be565b820191906000526020600020905b8154815290600101906020018083116137a157829003601f168201915b5050505050908060030180546137d39061503c565b80601f01602080910402602001604051908101604052809291908181526020018280546137ff9061503c565b801561384c5780601f106138215761010080835404028352916020019161384c565b820191906000526020600020905b81548152906001019060200180831161382f57829003601f168201915b5050505050908060040180546138619061503c565b80601f016020809104026020016040519081016040528092919081815260200182805461388d9061503c565b80156138da5780601f106138af576101008083540402835291602001916138da565b820191906000526020600020905b8154815290600101906020018083116138bd57829003601f168201915b5050505050908060050180546138ef9061503c565b80601f016020809104026020016040519081016040528092919081815260200182805461391b9061503c565b80156139685780601f1061393d57610100808354040283529160200191613968565b820191906000526020600020905b81548152906001019060200180831161394b57829003601f168201915b50505050509080600601805461397d9061503c565b80601f01602080910402602001604051908101604052809291908181526020018280546139a99061503c565b80156139f65780601f106139cb576101008083540402835291602001916139f6565b820191906000526020600020905b8154815290600101906020018083116139d957829003601f168201915b5050505050908060070160009054906101000a900460ff16905088565b828054828255906000526020600020906008028101928215613b615760005260206000209160080282015b82811115613b605782826000820160009054906101000a900473ffffffffffffffffffffffffffffffffffffffff168160000160006101000a81548173ffffffffffffffffffffffffffffffffffffffff021916908373ffffffffffffffffffffffffffffffffffffffff1602179055506001820154816001015560028201816002019081613acd91906153a1565b5060038201816003019081613ae291906153a1565b5060048201816004019081613af791906153a1565b5060058201816005019081613b0c91906153a1565b5060068201816006019081613b2191906153a1565b506007820160009054906101000a900460ff168160070160006101000a81548160ff021916908315150217905550505091600801919060080190613a3e565b5b509050613b6e9190613c9d565b5090565b508054613b7e9061503c565b6000825580601f10613b905750613baf565b601f016020900490600052602060002090810190613bae9190613d47565b5b50565b604051806101000160405280600073ffffffffffffffffffffffffffffffffffffffff168152602001613be3613d64565b81526020016060815260200160608152602001600081526020016000815260200160608152602001606081525090565b828054828255906000526020600020908101928215613c8c579160200282015b82811115613c8b5782518260006101000a81548173ffffffffffffffffffffffffffffffffffffffff021916908373ffffffffffffffffffffffffffffffffffffffff16021790555091602001919060010190613c33565b5b509050613c999190613d47565b5090565b5b80821115613d4357600080820160006101000a81549073ffffffffffffffffffffffffffffffffffffffff02191690556001820160009055600282016000613ce69190613b72565b600382016000613cf69190613b72565b600482016000613d069190613b72565b600582016000613d169190613b72565b600682016000613d269190613b72565b6007820160006101000a81549060ff021916905550600801613c9e565b5090565b5b80821115613d60576000816000905550600101613d48565b5090565b60405180610100016040528060608152602001606081526020016060815260200160008152602001606081526020016060815260200160608152602001606081525090565b6000604051905090565b600080fd5b600080fd5b600073ffffffffffffffffffffffffffffffffffffffff82169050919050565b6000613de882613dbd565b9050919050565b613df881613ddd565b8114613e0357600080fd5b50565b600081359050613e1581613def565b92915050565b600060208284031215613e3157613e30613db3565b5b6000613e3f84828501613e06565b91505092915050565b600080fd5b600080fd5b6000601f19601f8301169050919050565b7f4e487b7100000000000000000000000000000000000000000000000000000000600052604160045260246000fd5b613e9b82613e52565b810181811067ffffffffffffffff82111715613eba57613eb9613e63565b5b80604052505050565b6000613ecd613da9565b9050613ed98282613e92565b919050565b600067ffffffffffffffff821115613ef957613ef8613e63565b5b613f0282613e52565b9050602081019050919050565b82818337600083830152505050565b6000613f31613f2c84613ede565b613ec3565b905082815260208101848484011115613f4d57613f4c613e4d565b5b613f58848285613f0f565b509392505050565b600082601f830112613f7557613f74613e48565b5b8135613f85848260208601613f1e565b91505092915050565b600080600080600060a08688031215613faa57613fa9613db3565b5b600086013567ffffffffffffffff811115613fc857613fc7613db8565b5b613fd488828901613f60565b955050602086013567ffffffffffffffff811115613ff557613ff4613db8565b5b61400188828901613f60565b945050604086013567ffffffffffffffff81111561402257614021613db8565b5b61402e88828901613f60565b935050606086013567ffffffffffffffff81111561404f5761404e613db8565b5b61405b88828901613f60565b925050608086013567ffffffffffffffff81111561407c5761407b613db8565b5b61408888828901613f60565b9150509295509295909350565b6000819050919050565b6140a881614095565b81146140b357600080fd5b50565b6000813590506140c58161409f565b92915050565b600080604083850312156140e2576140e1613db3565b5b60006140f085828601613e06565b9250506020614101858286016140b6565b9150509250929050565b61411481613ddd565b82525050565b61412381614095565b82525050565b600081519050919050565b600082825260208201905092915050565b60005b83811015614163578082015181840152602081019050614148565b60008484015250505050565b600061417a82614129565b6141848185614134565b9350614194818560208601614145565b61419d81613e52565b840191505092915050565b60008115159050919050565b6141bd816141a8565b82525050565b6000610100820190506141d9600083018b61410b565b6141e6602083018a61411a565b81810360408301526141f8818961416f565b9050818103606083015261420c818861416f565b90508181036080830152614220818761416f565b905081810360a0830152614234818661416f565b905081810360c0830152614248818561416f565b905061425760e08301846141b4565b9998505050505050505050565b600081519050919050565b600082825260208201905092915050565b6000819050602082019050919050565b61429981613ddd565b82525050565b6142a881614095565b82525050565b600082825260208201905092915050565b60006142ca82614129565b6142d481856142ae565b93506142e4818560208601614145565b6142ed81613e52565b840191505092915050565b614301816141a8565b82525050565b6000610100830160008301516143206000860182614290565b506020830151614333602086018261429f565b506040830151848203604086015261434b82826142bf565b9150506060830151848203606086015261436582826142bf565b9150506080830151848203608086015261437f82826142bf565b91505060a083015184820360a086015261439982826142bf565b91505060c083015184820360c08601526143b382826142bf565b91505060e08301516143c860e08601826142f8565b508091505092915050565b60006143df8383614307565b905092915050565b6000602082019050919050565b60006143ff82614264565b614409818561426f565b93508360208202850161441b85614280565b8060005b85811015614457578484038952815161443885826143d3565b9450614443836143e7565b925060208a0199505060018101905061441f565b50829750879550505050505092915050565b6000602082019050818103600083015261448381846143f4565b905092915050565b60006060820190506144a0600083018661411a565b81810360208301526144b2818561416f565b905081810360408301526144c6818461416f565b9050949350505050565b6000806000606084860312156144e9576144e8613db3565b5b60006144f786828701613e06565b935050602084013567ffffffffffffffff81111561451857614517613db8565b5b61452486828701613f60565b925050604084013567ffffffffffffffff81111561454557614544613db8565b5b61455186828701613f60565b9150509250925092565b60006020828403121561457157614570613db3565b5b600061457f848285016140b6565b91505092915050565b600081519050919050565b600082825260208201905092915050565b6000819050602082019050919050565b60006060830160008301516145cc600086018261429f565b50602083015184820360208601526145e482826142bf565b915050604083015184820360408601526145fe82826142bf565b9150508091505092915050565b600061461783836145b4565b905092915050565b6000602082019050919050565b600061463782614588565b6146418185614593565b935083602082028501614653856145a4565b8060005b8581101561468f5784840389528151614670858261460b565b945061467b8361461f565b925060208a01995050600181019050614657565b50829750879550505050505092915050565b600060208201905081810360008301526146bb818461462c565b905092915050565b60006101008301600083015184820360008601526146e182826142bf565b915050602083015184820360208601526146fb82826142bf565b9150506040830151848203604086015261471582826142bf565b915050606083015161472a606086018261429f565b506080830151848203608086015261474282826142bf565b91505060a083015184820360a086015261475c82826142bf565b91505060c083015184820360c086015261477682826142bf565b91505060e083015184820360e086015261479082826142bf565b9150508091505092915050565b600081519050919050565b600082825260208201905092915050565b6000819050602082019050919050565b60006147d58383614290565b60208301905092915050565b6000602082019050919050565b60006147f98261479d565b61480381856147a8565b935061480e836147b9565b8060005b8381101561483f57815161482688826147c9565b9750614831836147e1565b925050600181019050614812565b5085935050505092915050565b6000610100830160008301516148656000860182614290565b506020830151848203602086015261487d82826146c3565b9150506040830151848203604086015261489782826142bf565b915050606083015184820360608601526148b182826142bf565b91505060808301516148c6608086018261429f565b5060a08301516148d960a086018261429f565b5060c083015184820360c08601526148f182826147ee565b91505060e083015184820360e086015261490b82826147ee565b9150508091505092915050565b60006020820190508181036000830152614932818461484c565b905092915050565b600060208201905061494f600083018461410b565b92915050565b600080fd5b600080fd5b6000610100828403121561497657614975614955565b5b614981610100613ec3565b9050600082013567ffffffffffffffff8111156149a1576149a061495a565b5b6149ad84828501613f60565b600083015250602082013567ffffffffffffffff8111156149d1576149d061495a565b5b6149dd84828501613f60565b602083015250604082013567ffffffffffffffff811115614a0157614a0061495a565b5b614a0d84828501613f60565b6040830152506060614a21848285016140b6565b606083015250608082013567ffffffffffffffff811115614a4557614a4461495a565b5b614a5184828501613f60565b60808301525060a082013567ffffffffffffffff811115614a7557614a7461495a565b5b614a8184828501613f60565b60a08301525060c082013567ffffffffffffffff811115614aa557614aa461495a565b5b614ab184828501613f60565b60c08301525060e082013567ffffffffffffffff811115614ad557614ad461495a565b5b614ae184828501613f60565b60e08301525092915050565b600067ffffffffffffffff821115614b0857614b07613e63565b5b602082029050602081019050919050565b600080fd5b6000614b31614b2c84614aed565b613ec3565b90508083825260208201905060208402830185811115614b5457614b53614b19565b5b835b81811015614b7d5780614b698882613e06565b845260208401935050602081019050614b56565b5050509392505050565b600082601f830112614b9c57614b9b613e48565b5b8135614bac848260208601614b1e565b91505092915050565b60006101008284031215614bcc57614bcb614955565b5b614bd7610100613ec3565b90506000614be784828501613e06565b600083015250602082013567ffffffffffffffff811115614c0b57614c0a61495a565b5b614c178482850161495f565b602083015250604082013567ffffffffffffffff811115614c3b57614c3a61495a565b5b614c4784828501613f60565b604083015250606082013567ffffffffffffffff811115614c6b57614c6a61495a565b5b614c7784828501613f60565b6060830152506080614c8b848285016140b6565b60808301525060a0614c9f848285016140b6565b60a08301525060c082013567ffffffffffffffff811115614cc357614cc261495a565b5b614ccf84828501614b87565b60c08301525060e082013567ffffffffffffffff811115614cf357614cf261495a565b5b614cff84828501614b87565b60e08301525092915050565b600060208284031215614d2157614d20613db3565b5b600082013567ffffffffffffffff811115614d3f57614d3e613db8565b5b614d4b84828501614bb5565b91505092915050565b600081519050919050565b600082825260208201905092915050565b6000819050602082019050919050565b600061010083016000830151614d996000860182614290565b5060208301518482036020860152614db182826146c3565b91505060408301518482036040860152614dcb82826142bf565b91505060608301518482036060860152614de582826142bf565b9150506080830151614dfa608086018261429f565b5060a0830151614e0d60a086018261429f565b5060c083015184820360c0860152614e2582826147ee565b91505060e083015184820360e0860152614e3f82826147ee565b9150508091505092915050565b6000614e588383614d80565b905092915050565b6000602082019050919050565b6000614e7882614d54565b614e828185614d5f565b935083602082028501614e9485614d70565b8060005b85811015614ed05784840389528151614eb18582614e4c565b9450614ebc83614e60565b925060208a01995050600181019050614e98565b50829750879550505050505092915050565b60006020820190508181036000830152614efc8184614e6d565b905092915050565b7f4e487b7100000000000000000000000000000000000000000000000000000000600052603260045260246000fd5b7f4e487b7100000000000000000000000000000000000000000000000000000000600052601160045260246000fd5b6000614f6d82614095565b9150614f7883614095565b9250828203905081811115614f9057614f8f614f33565b5b92915050565b7f4e487b7100000000000000000000000000000000000000000000000000000000600052603160045260246000fd5b6000614fd082614095565b91507fffffffffffffffffffffffffffffffffffffffffffffffffffffffffffffffff820361500257615001614f33565b5b600182019050919050565b7f4e487b7100000000000000000000000000000000000000000000000000000000600052602260045260246000fd5b6000600282049050600182168061505457607f821691505b6020821081036150675761506661500d565b5b50919050565b60008190508160005260206000209050919050565b60006020601f8301049050919050565b600082821b905092915050565b6000600883026150cf7fffffffffffffffffffffffffffffffffffffffffffffffffffffffffffffffff82615092565b6150d98683615092565b95508019841693508086168417925050509392505050565b6000819050919050565b600061511661511161510c84614095565b6150f1565b614095565b9050919050565b6000819050919050565b615130836150fb565b61514461513c8261511d565b84845461509f565b825550505050565b600090565b61515961514c565b615164818484615127565b505050565b5b818110156151885761517d600082615151565b60018101905061516a565b5050565b601f8211156151cd5761519e8161506d565b6151a784615082565b810160208510156151b6578190505b6151ca6151c285615082565b830182615169565b50505b505050565b600082821c905092915050565b60006151f0600019846008026151d2565b1980831691505092915050565b600061520983836151df565b9150826002028217905092915050565b61522282614129565b67ffffffffffffffff81111561523b5761523a613e63565b5b615245825461503c565b61525082828561518c565b600060209050601f8311600181146152835760008415615271578287015190505b61527b85826151fd565b8655506152e3565b601f1984166152918661506d565b60005b828110156152b957848901518255600182019150602085019450602081019050615294565b868310156152d657848901516152d2601f8916826151df565b8355505b6001600288020188555050505b505050505050565b7f6e6f74207477656574206f776e65720000000000000000000000000000000000600082015250565b6000615321600f83614134565b915061532c826152eb565b602082019050919050565b6000602082019050818103600083015261535081615314565b9050919050565b600061536282614095565b915061536d83614095565b925082820190508082111561538557615384614f33565b5b92915050565b60008154905061539a8161503c565b9050919050565b8181036153af575050615487565b6153b88261538b565b67ffffffffffffffff8111156153d1576153d0613e63565b5b6153db825461503c565b6153e682828561518c565b6000601f8311600181146154155760008415615403578287015490505b61540d85826151fd565b865550615480565b601f1984166154238761506d565b965061542e8661506d565b60005b8281101561545657848901548255600182019150600185019450602081019050615431565b86831015615473578489015461546f601f8916826151df565b8355505b6001600288020188555050505b5050505050505b56fea2646970667358221220af64992b952dabd4fe2d63fa9719f738619f523b37e8c4d21f41ed41c834705064736f6c63430008130033",
  "immutableReferences": {},
  "source": "// SPDX-License-Identifier: UNLICENSED\r\npragma solidity ^0.8.17;\r\n\r\ncontract Decentra {\r\n    address public owner;\r\n   \r\n\r\n    constructor() {\r\n        owner = msg.sender;\r\n    }\r\n\r\n    struct Profile {\r\n        string name;\r\n        string avatar;\r\n        string banner;\r\n        uint256 age;\r\n        string gender;\r\n        string status;\r\n        string country;\r\n        string city;\r\n    }\r\n    struct user {\r\n        address userAddress;\r\n        Profile profile;\r\n        string occupation;\r\n        string date_joined;\r\n        uint256 followers;\r\n        uint256 following;\r\n        address[] user_following;\r\n        address[] user_followed;\r\n    }\r\n\r\n    struct Tweet{\r\n        address tweetOwner;\r\n        uint256 t_id;     \r\n        string username;\r\n        string userAt;\r\n        string date;\r\n        string text;\r\n        string cId;\r\n        bool liked;\r\n\r\n    }\r\n\r\n    struct Comment{\r\n        address commentOwner;\r\n        uint256 c_id;\r\n        string username;\r\n        string userAt;\r\n        string date;\r\n        string text;\r\n        bool liked;\r\n        Comment[] cmts;\r\n    }\r\n    \r\n    struct Notification {\r\n        uint256 id;\r\n        string text;\r\n        string image;\r\n    }\r\n    uint256 tweetId=1000;\r\n    Tweet[] public tweets;\r\n    mapping (address => Tweet[]) public userTweets;\r\n     \r\n    mapping (address => user) Users;\r\n    address[] private userAddresses;\r\n    mapping(address => Notification[]) public userNotifications;\r\n\r\n    // function addUser (\r\n    //     Profile memory _profile,\r\n    //     string memory _occupation,\r\n    //     string memory _date_joined,\r\n    //     uint256 _followers,\r\n    //     uint256 _following,\r\n    //     uint256[] memory _user_following,\r\n    //     uint256[] memory _user_followed\r\n    // ) public {\r\n    //     user memory newUser = user(\r\n    //     _profile,\r\n    //     _occupation,\r\n    //     _date_joined,\r\n    //     _followers,\r\n    //     _following,\r\n    //     _user_following,\r\n    //     _user_followed\r\n    // );\r\n\r\n    // Users[msg.sender] = newUser;\r\n    // }\r\n\r\n    // function updateUser (\r\n    //     Profile memory _profile,\r\n    //     string memory _occupation\r\n    // ) public {\r\n    //     user storage userData = Users[msg.sender];\r\n    //     userData.profile = _profile;\r\n    //     userData.occupation = _occupation;\r\n    // }\r\n\r\n    function createUser(user memory _user) public {\r\n        Users[msg.sender] = _user;\r\n        userAddresses.push(msg.sender);\r\n    }\r\n\r\n    function updateUser(user memory _user) public {\r\n    Users[msg.sender] = _user;\r\n    }\r\n\r\n    function getUser(address userAddress) public view returns (user memory) {\r\n        return Users[userAddress];\r\n    }\r\n\r\n    function getAllUsers() public view returns (user[] memory) {\r\n        user[] memory allUsers = new user[](userAddresses.length);\r\n        for (uint256 i = 0; i < userAddresses.length; i++) {\r\n            allUsers[i] = Users[userAddresses[i]];\r\n        }\r\n        return allUsers;\r\n    }\r\n\r\n    // Follow Logic\r\n    function follow(address userAddress) public {\r\n        Users[msg.sender].user_following.push(userAddress);\r\n        Users[userAddress].user_followed.push(msg.sender);\r\n    }\r\n\r\n    function unfollow(address userAddress) public {\r\n        address[] storage following = Users[msg.sender].user_following;\r\n        address[] storage followed = Users[userAddress].user_followed;\r\n        for (uint256 i = 0; i < following.length; i++) {\r\n            if (following[i] == userAddress) {\r\n                if (i != following.length - 1) {\r\n                    // Replace the element to be removed with the last element\r\n                    following[i] = following[following.length - 1];\r\n                }\r\n                // Remove the last element\r\n                following.pop();\r\n                break; // Exit the loop once the user is found and removed\r\n            }\r\n        }\r\n\r\n        for (uint256 i = 0; i < followed.length; i++) {\r\n            if (followed[i] == msg.sender) {\r\n                if (i != followed.length - 1) {\r\n                    // Replace the element to be removed with the last element\r\n                    followed[i] = followed[followed.length - 1];\r\n                }\r\n                // Remove the last element\r\n                followed.pop();\r\n                break; // Exit the loop once the follower is found and removed\r\n            }\r\n        }\r\n    }\r\n\r\n    function addTweet(string memory _username, string memory _userAt, string memory _date, string memory _text, string memory _cId) public {\r\n        uint id =tweetId;\r\n        tweetId++;\r\n        tweets.push(Tweet(msg.sender ,id, _username, _userAt, _date, _text, _cId, false));\r\n        \r\n        Tweet[] storage userSpecificTweets= userTweets[msg.sender];\r\n        userSpecificTweets.push(Tweet(msg.sender ,id, _username, _userAt, _date, _text, _cId, false));\r\n        \r\n        userTweets[msg.sender]=userSpecificTweets;\r\n    }\r\n\r\n    function getAllTweets() public view returns(Tweet[] memory){\r\n        return tweets;\r\n    }\r\n\r\n    function getUserTweets(address _user) public view returns(Tweet[] memory){\r\n        return userTweets[_user];\r\n    }\r\n\r\n    function deleteTweet(uint id) public {\r\n        Tweet[] storage userSpecificTweets = userTweets[msg.sender];\r\n        for(uint i=0; i<tweets.length; i++)\r\n        {\r\n            if(tweets[i].t_id == id){\r\n                require(tweets[i].tweetOwner == msg.sender, \"not tweet owner\");\r\n                if(tweets.length==1){\r\n                    tweets.pop();\r\n                }\r\n                else{\r\n                    for(uint j=i; j<tweets.length-1;j++){\r\n                        tweets[j]=tweets[j+1];\r\n                    }\r\n                    tweets.pop();\r\n                }\r\n            }\r\n        }\r\n        for (uint i=0;i<userSpecificTweets.length;i++){\r\n            if(userSpecificTweets[i].t_id==id){\r\n                require(userSpecificTweets[i].tweetOwner == msg.sender, \"not tweet owner\");\r\n                if(userSpecificTweets.length==1){\r\n                    userSpecificTweets.pop();\r\n                    userTweets[msg.sender]=userSpecificTweets;\r\n                }\r\n                else{\r\n                    for(uint j=i; j<userSpecificTweets.length-1;j++){\r\n                    userSpecificTweets[j]=userSpecificTweets[j+1];\r\n                    }\r\n                    userSpecificTweets.pop();\r\n                    userTweets[msg.sender]=userSpecificTweets;\r\n                }\r\n                \r\n            }\r\n        }\r\n    }\r\n\r\n    // Function to add a new notification\r\n    function addNotification(address _userAddress, string memory _text, string memory _image) public {\r\n        Notification[] storage notifications = userNotifications[_userAddress];\r\n        uint256 notificationId = notifications.length;\r\n        Notification memory newNotification = Notification(notificationId, _text, _image);\r\n        notifications.push(newNotification);\r\n    }\r\n\r\n    // Function to retrieve a user's notifications\r\n    function getUserNotifications(address _userAddress) public view returns (Notification[] memory) {\r\n        return userNotifications[_userAddress];\r\n    }\r\n}   ",
  "sourcePath": "C:\\Users\\hamza\\OneDrive\\Desktop\\8th Semester\\FYP\\fyp the return\\decentra\\contracts\\Decentra.sol",
  "compiler": {
    "name": "solc",
    "version": "0.8.19+commit.7dd6d404.Emscripten.clang"
  },
  "schemaVersion": "3.4.14",
  "updatedAt": "2023-07-02T18:55:12.367Z",
  "networkType": "ethereum",
  "devdoc": {
    "kind": "dev",
    "methods": {},
    "version": 1
  },
  "userdoc": {
    "kind": "user",
    "methods": {},
    "version": 1
  }
}