{
  "contractName": "DecentraModules",
  "abi": [
    {
      "inputs": [],
      "stateMutability": "nonpayable",
      "type": "constructor"
    },
    {
      "inputs": [
        {
          "internalType": "uint256",
          "name": "",
          "type": "uint256"
        }
      ],
      "name": "cmtarr",
      "outputs": [
        {
          "internalType": "address",
          "name": "commentOwner",
          "type": "address"
        },
        {
          "internalType": "uint256",
          "name": "c_id",
          "type": "uint256"
        },
        {
          "internalType": "uint256",
          "name": "p_id",
          "type": "uint256"
        },
        {
          "internalType": "string",
          "name": "username",
          "type": "string"
        },
        {
          "internalType": "string",
          "name": "userAt",
          "type": "string"
        },
        {
          "internalType": "string",
          "name": "date",
          "type": "string"
        },
        {
          "internalType": "string",
          "name": "text",
          "type": "string"
        },
        {
          "internalType": "string",
          "name": "cId",
          "type": "string"
        },
        {
          "internalType": "uint256",
          "name": "likes",
          "type": "uint256"
        },
        {
          "internalType": "uint256",
          "name": "dislikes",
          "type": "uint256"
        },
        {
          "internalType": "string",
          "name": "avatar",
          "type": "string"
        }
      ],
      "stateMutability": "view",
      "type": "function",
      "constant": true
    },
    {
      "inputs": [
        {
          "internalType": "uint256",
          "name": "",
          "type": "uint256"
        },
        {
          "internalType": "uint256",
          "name": "",
          "type": "uint256"
        }
      ],
      "name": "comments",
      "outputs": [
        {
          "internalType": "address",
          "name": "commentOwner",
          "type": "address"
        },
        {
          "internalType": "uint256",
          "name": "c_id",
          "type": "uint256"
        },
        {
          "internalType": "uint256",
          "name": "p_id",
          "type": "uint256"
        },
        {
          "internalType": "string",
          "name": "username",
          "type": "string"
        },
        {
          "internalType": "string",
          "name": "userAt",
          "type": "string"
        },
        {
          "internalType": "string",
          "name": "date",
          "type": "string"
        },
        {
          "internalType": "string",
          "name": "text",
          "type": "string"
        },
        {
          "internalType": "string",
          "name": "cId",
          "type": "string"
        },
        {
          "internalType": "uint256",
          "name": "likes",
          "type": "uint256"
        },
        {
          "internalType": "uint256",
          "name": "dislikes",
          "type": "uint256"
        },
        {
          "internalType": "string",
          "name": "avatar",
          "type": "string"
        }
      ],
      "stateMutability": "view",
      "type": "function",
      "constant": true
    },
    {
      "inputs": [
        {
          "internalType": "uint256",
          "name": "",
          "type": "uint256"
        },
        {
          "internalType": "uint256",
          "name": "",
          "type": "uint256"
        }
      ],
      "name": "disliked",
      "outputs": [
        {
          "internalType": "address",
          "name": "",
          "type": "address"
        }
      ],
      "stateMutability": "view",
      "type": "function",
      "constant": true
    },
    {
      "inputs": [
        {
          "internalType": "uint256",
          "name": "",
          "type": "uint256"
        },
        {
          "internalType": "uint256",
          "name": "",
          "type": "uint256"
        }
      ],
      "name": "liked",
      "outputs": [
        {
          "internalType": "address",
          "name": "",
          "type": "address"
        }
      ],
      "stateMutability": "view",
      "type": "function",
      "constant": true
    },
    {
      "inputs": [
        {
          "internalType": "uint256",
          "name": "",
          "type": "uint256"
        }
      ],
      "name": "mentions",
      "outputs": [
        {
          "internalType": "uint256",
          "name": "",
          "type": "uint256"
        }
      ],
      "stateMutability": "view",
      "type": "function",
      "constant": true
    },
    {
      "inputs": [],
      "name": "owner",
      "outputs": [
        {
          "internalType": "address",
          "name": "",
          "type": "address"
        }
      ],
      "stateMutability": "view",
      "type": "function",
      "constant": true
    },
    {
      "inputs": [
        {
          "internalType": "uint256",
          "name": "",
          "type": "uint256"
        }
      ],
      "name": "trends",
      "outputs": [
        {
          "internalType": "uint256",
          "name": "t_id",
          "type": "uint256"
        },
        {
          "internalType": "string",
          "name": "t_name",
          "type": "string"
        },
        {
          "internalType": "string",
          "name": "t_location",
          "type": "string"
        }
      ],
      "stateMutability": "view",
      "type": "function",
      "constant": true
    },
    {
      "inputs": [
        {
          "internalType": "uint256",
          "name": "",
          "type": "uint256"
        }
      ],
      "name": "tweets",
      "outputs": [
        {
          "internalType": "address",
          "name": "tweetOwner",
          "type": "address"
        },
        {
          "internalType": "uint256",
          "name": "t_id",
          "type": "uint256"
        },
        {
          "internalType": "string",
          "name": "username",
          "type": "string"
        },
        {
          "internalType": "string",
          "name": "userAt",
          "type": "string"
        },
        {
          "internalType": "string",
          "name": "date",
          "type": "string"
        },
        {
          "internalType": "string",
          "name": "text",
          "type": "string"
        },
        {
          "internalType": "string",
          "name": "cId",
          "type": "string"
        },
        {
          "internalType": "uint256",
          "name": "likes",
          "type": "uint256"
        },
        {
          "internalType": "uint256",
          "name": "dislikes",
          "type": "uint256"
        }
      ],
      "stateMutability": "view",
      "type": "function",
      "constant": true
    },
    {
      "inputs": [
        {
          "internalType": "address",
          "name": "",
          "type": "address"
        },
        {
          "internalType": "uint256",
          "name": "",
          "type": "uint256"
        }
      ],
      "name": "userTweets",
      "outputs": [
        {
          "internalType": "address",
          "name": "tweetOwner",
          "type": "address"
        },
        {
          "internalType": "uint256",
          "name": "t_id",
          "type": "uint256"
        },
        {
          "internalType": "string",
          "name": "username",
          "type": "string"
        },
        {
          "internalType": "string",
          "name": "userAt",
          "type": "string"
        },
        {
          "internalType": "string",
          "name": "date",
          "type": "string"
        },
        {
          "internalType": "string",
          "name": "text",
          "type": "string"
        },
        {
          "internalType": "string",
          "name": "cId",
          "type": "string"
        },
        {
          "internalType": "uint256",
          "name": "likes",
          "type": "uint256"
        },
        {
          "internalType": "uint256",
          "name": "dislikes",
          "type": "uint256"
        }
      ],
      "stateMutability": "view",
      "type": "function",
      "constant": true
    },
    {
      "inputs": [
        {
          "internalType": "uint256",
          "name": "index",
          "type": "uint256"
        },
        {
          "internalType": "bool",
          "name": "comment",
          "type": "bool"
        }
      ],
      "name": "ratio",
      "outputs": [],
      "stateMutability": "nonpayable",
      "type": "function"
    },
    {
      "inputs": [
        {
          "internalType": "uint256",
          "name": "_id",
          "type": "uint256"
        }
      ],
      "name": "addLike",
      "outputs": [],
      "stateMutability": "nonpayable",
      "type": "function"
    },
    {
      "inputs": [
        {
          "internalType": "uint256",
          "name": "_id",
          "type": "uint256"
        }
      ],
      "name": "removeLike",
      "outputs": [],
      "stateMutability": "nonpayable",
      "type": "function"
    },
    {
      "inputs": [
        {
          "internalType": "uint256",
          "name": "_id",
          "type": "uint256"
        }
      ],
      "name": "getlikes",
      "outputs": [
        {
          "internalType": "address[]",
          "name": "",
          "type": "address[]"
        }
      ],
      "stateMutability": "view",
      "type": "function",
      "constant": true
    },
    {
      "inputs": [
        {
          "internalType": "uint256",
          "name": "_id",
          "type": "uint256"
        }
      ],
      "name": "addDislike",
      "outputs": [],
      "stateMutability": "nonpayable",
      "type": "function"
    },
    {
      "inputs": [
        {
          "internalType": "uint256",
          "name": "_id",
          "type": "uint256"
        }
      ],
      "name": "removeDislike",
      "outputs": [],
      "stateMutability": "nonpayable",
      "type": "function"
    },
    {
      "inputs": [
        {
          "internalType": "uint256",
          "name": "_id",
          "type": "uint256"
        }
      ],
      "name": "getdislikes",
      "outputs": [
        {
          "internalType": "address[]",
          "name": "",
          "type": "address[]"
        }
      ],
      "stateMutability": "view",
      "type": "function",
      "constant": true
    },
    {
      "inputs": [
        {
          "internalType": "string",
          "name": "_username",
          "type": "string"
        },
        {
          "internalType": "string",
          "name": "_userAt",
          "type": "string"
        },
        {
          "internalType": "string",
          "name": "_date",
          "type": "string"
        },
        {
          "internalType": "string",
          "name": "_text",
          "type": "string"
        },
        {
          "internalType": "string",
          "name": "_cId",
          "type": "string"
        }
      ],
      "name": "addTweet",
      "outputs": [],
      "stateMutability": "nonpayable",
      "type": "function"
    },
    {
      "inputs": [],
      "name": "getAllTweets",
      "outputs": [
        {
          "components": [
            {
              "internalType": "address",
              "name": "tweetOwner",
              "type": "address"
            },
            {
              "internalType": "uint256",
              "name": "t_id",
              "type": "uint256"
            },
            {
              "internalType": "string",
              "name": "username",
              "type": "string"
            },
            {
              "internalType": "string",
              "name": "userAt",
              "type": "string"
            },
            {
              "internalType": "string",
              "name": "date",
              "type": "string"
            },
            {
              "internalType": "string",
              "name": "text",
              "type": "string"
            },
            {
              "internalType": "string",
              "name": "cId",
              "type": "string"
            },
            {
              "internalType": "uint256",
              "name": "likes",
              "type": "uint256"
            },
            {
              "internalType": "uint256",
              "name": "dislikes",
              "type": "uint256"
            }
          ],
          "internalType": "struct DecentraModules.Tweet[]",
          "name": "",
          "type": "tuple[]"
        }
      ],
      "stateMutability": "view",
      "type": "function",
      "constant": true
    },
    {
      "inputs": [
        {
          "internalType": "address",
          "name": "_user",
          "type": "address"
        }
      ],
      "name": "getUserTweets",
      "outputs": [
        {
          "components": [
            {
              "internalType": "address",
              "name": "tweetOwner",
              "type": "address"
            },
            {
              "internalType": "uint256",
              "name": "t_id",
              "type": "uint256"
            },
            {
              "internalType": "string",
              "name": "username",
              "type": "string"
            },
            {
              "internalType": "string",
              "name": "userAt",
              "type": "string"
            },
            {
              "internalType": "string",
              "name": "date",
              "type": "string"
            },
            {
              "internalType": "string",
              "name": "text",
              "type": "string"
            },
            {
              "internalType": "string",
              "name": "cId",
              "type": "string"
            },
            {
              "internalType": "uint256",
              "name": "likes",
              "type": "uint256"
            },
            {
              "internalType": "uint256",
              "name": "dislikes",
              "type": "uint256"
            }
          ],
          "internalType": "struct DecentraModules.Tweet[]",
          "name": "",
          "type": "tuple[]"
        }
      ],
      "stateMutability": "view",
      "type": "function",
      "constant": true
    },
    {
      "inputs": [
        {
          "internalType": "uint256",
          "name": "id",
          "type": "uint256"
        }
      ],
      "name": "deleteTweet",
      "outputs": [],
      "stateMutability": "nonpayable",
      "type": "function"
    },
    {
      "inputs": [
        {
          "internalType": "uint256",
          "name": "id",
          "type": "uint256"
        }
      ],
      "name": "deleteTweetregardless",
      "outputs": [],
      "stateMutability": "nonpayable",
      "type": "function"
    },
    {
      "inputs": [
        {
          "internalType": "uint256",
          "name": "p_id",
          "type": "uint256"
        },
        {
          "internalType": "string",
          "name": "_username",
          "type": "string"
        },
        {
          "internalType": "string",
          "name": "_userAt",
          "type": "string"
        },
        {
          "internalType": "string",
          "name": "_date",
          "type": "string"
        },
        {
          "internalType": "string",
          "name": "_text",
          "type": "string"
        },
        {
          "internalType": "string",
          "name": "_cId",
          "type": "string"
        },
        {
          "internalType": "string",
          "name": "_avatar",
          "type": "string"
        }
      ],
      "name": "addComment",
      "outputs": [],
      "stateMutability": "nonpayable",
      "type": "function"
    },
    {
      "inputs": [
        {
          "internalType": "uint256",
          "name": "p_id",
          "type": "uint256"
        }
      ],
      "name": "getComments",
      "outputs": [
        {
          "components": [
            {
              "internalType": "address",
              "name": "commentOwner",
              "type": "address"
            },
            {
              "internalType": "uint256",
              "name": "c_id",
              "type": "uint256"
            },
            {
              "internalType": "uint256",
              "name": "p_id",
              "type": "uint256"
            },
            {
              "internalType": "string",
              "name": "username",
              "type": "string"
            },
            {
              "internalType": "string",
              "name": "userAt",
              "type": "string"
            },
            {
              "internalType": "string",
              "name": "date",
              "type": "string"
            },
            {
              "internalType": "string",
              "name": "text",
              "type": "string"
            },
            {
              "internalType": "string",
              "name": "cId",
              "type": "string"
            },
            {
              "internalType": "uint256",
              "name": "likes",
              "type": "uint256"
            },
            {
              "internalType": "uint256",
              "name": "dislikes",
              "type": "uint256"
            },
            {
              "internalType": "string",
              "name": "avatar",
              "type": "string"
            }
          ],
          "internalType": "struct DecentraModules.Comment[]",
          "name": "",
          "type": "tuple[]"
        }
      ],
      "stateMutability": "view",
      "type": "function",
      "constant": true
    },
    {
      "inputs": [
        {
          "internalType": "uint256",
          "name": "_id",
          "type": "uint256"
        }
      ],
      "name": "getCommentimpressions",
      "outputs": [
        {
          "components": [
            {
              "internalType": "address",
              "name": "commentOwner",
              "type": "address"
            },
            {
              "internalType": "uint256",
              "name": "c_id",
              "type": "uint256"
            },
            {
              "internalType": "uint256",
              "name": "p_id",
              "type": "uint256"
            },
            {
              "internalType": "string",
              "name": "username",
              "type": "string"
            },
            {
              "internalType": "string",
              "name": "userAt",
              "type": "string"
            },
            {
              "internalType": "string",
              "name": "date",
              "type": "string"
            },
            {
              "internalType": "string",
              "name": "text",
              "type": "string"
            },
            {
              "internalType": "string",
              "name": "cId",
              "type": "string"
            },
            {
              "internalType": "uint256",
              "name": "likes",
              "type": "uint256"
            },
            {
              "internalType": "uint256",
              "name": "dislikes",
              "type": "uint256"
            },
            {
              "internalType": "string",
              "name": "avatar",
              "type": "string"
            }
          ],
          "internalType": "struct DecentraModules.Comment",
          "name": "",
          "type": "tuple"
        }
      ],
      "stateMutability": "view",
      "type": "function",
      "constant": true
    },
    {
      "inputs": [
        {
          "internalType": "uint256",
          "name": "p_id",
          "type": "uint256"
        },
        {
          "internalType": "uint256",
          "name": "id",
          "type": "uint256"
        }
      ],
      "name": "deleteComment",
      "outputs": [],
      "stateMutability": "nonpayable",
      "type": "function"
    },
    {
      "inputs": [
        {
          "internalType": "uint256",
          "name": "p_id",
          "type": "uint256"
        },
        {
          "internalType": "uint256",
          "name": "id",
          "type": "uint256"
        }
      ],
      "name": "deleteCommentregardless",
      "outputs": [],
      "stateMutability": "nonpayable",
      "type": "function"
    },
    {
      "inputs": [
        {
          "internalType": "string",
          "name": "_name",
          "type": "string"
        },
        {
          "internalType": "string",
          "name": "_location",
          "type": "string"
        }
      ],
      "name": "addTrend",
      "outputs": [],
      "stateMutability": "nonpayable",
      "type": "function"
    },
    {
      "inputs": [],
      "name": "getTrends",
      "outputs": [
        {
          "components": [
            {
              "internalType": "uint256",
              "name": "t_id",
              "type": "uint256"
            },
            {
              "internalType": "string",
              "name": "t_name",
              "type": "string"
            },
            {
              "internalType": "string",
              "name": "t_location",
              "type": "string"
            }
          ],
          "internalType": "struct DecentraModules.Trend[]",
          "name": "",
          "type": "tuple[]"
        }
      ],
      "stateMutability": "view",
      "type": "function",
      "constant": true
    },
    {
      "inputs": [
        {
          "internalType": "uint256",
          "name": "_id",
          "type": "uint256"
        }
      ],
      "name": "getMentions",
      "outputs": [
        {
          "internalType": "uint256",
          "name": "",
          "type": "uint256"
        }
      ],
      "stateMutability": "view",
      "type": "function",
      "constant": true
    }
  ],
  "bytecode": "0x60806040526103e860065534801561001657600080fd5b50600080546001600160a01b03191633179055615532806100386000396000f3fe608060405234801561001057600080fd5b506004361061015f5760003560e01c80631460473814610164578063192ed92d146101795780631dc0d3441461018c57806323edf6971461019f5780632e06f347146101c85780632f5899d7146101f05780632f692f3f146102105780632f8242631461022557806331a4bcb514610253578063378a35cd146102665780633aef9be31461027957806353256135146102a35780635775912a146102ab5780638da5cb5b146102be5780638f0f315f146102e9578063a370fdb414610309578063a7656e331461031c578063aa0f93801461032f578063aa851ba71461034f578063adab264d14610362578063bfbfa81e14610375578063c0939b7b14610388578063d3a0108a1461039b578063e23b5b6e146103bb578063e4313944146103ce578063e8d857b0146103e1578063ec5ec59b146103f4578063f99483ea14610416578063fc6c776f14610429575b600080fd5b61017761017236600461495d565b61043c565b005b6101776101873660046149c0565b610659565b61017761019a3660046149d9565b610c23565b6101b26101ad3660046149c0565b610ed5565b6040516101bf9190614bdd565b60405180910390f35b6101db6101d6366004614c5b565b6112f3565b6040516101bf99989796959493929190614c85565b6102036101fe366004614d1b565b61160d565b6040516101bf9190614d3d565b610218611986565b6040516101bf9190614e47565b6102456102333660046149c0565b60009081526001602052604090205490565b6040519081526020016101bf565b610177610261366004614eca565b611b13565b6101776102743660046149c0565b611e9c565b61028c6102873660046149c0565b611ff8565b6040516101bf9b9a99989796959493929190614eec565b61020361239c565b6101776102b93660046149c0565b612701565b6000546102d1906001600160a01b031681565b6040516001600160a01b0390911681526020016101bf565b6102fc6102f73660046149c0565b612d11565b6040516101bf9190614f9f565b6101776103173660046149c0565b612d7d565b61017761032a3660046149c0565b612f42565b61034261033d3660046149c0565b613217565b6040516101bf9190614fec565b61017761035d366004614fff565b6136c5565b6102fc6103703660046149c0565b6139ab565b6101776103833660046150fe565b613a15565b6101776103963660046149c0565b613cae565b6102456103a93660046149c0565b60016020526000908152604090205481565b6102d16103c9366004614eca565b613f4d565b6101776103dc366004614eca565b613f85565b6101db6103ef3660046149c0565b614274565b6104076104023660046149c0565b6142ba565b6040516101bf93929190615133565b6102d1610424366004614eca565b614400565b61028c610437366004614eca565b61441c565b600654600080805b60025481101561054b57610504600282815481106104645761046461515e565b9060005260206000209060030201600101805461048090615174565b80601f01602080910402602001604051908101604052809291908181526020018280546104ac90615174565b80156104f95780601f106104ce576101008083540402835291602001916104f9565b820191906000526020600020905b8154815290600101906020018083116104dc57829003601f168201915b505050505087614475565b156105395760019250600281815481106105205761052061515e565b906000526020600020906003020160000154935061054b565b80610543816151c4565b915050610444565b50811561058657506000828152600160205260409020548061056c816151c4565b600085815260016020526040902081905591506106529050565b60068054906000610596836151c4565b9091555050604080516060810182528481526020810187815291810186905260028054600181018255600091909152815160039091027f405787fa12a823e0f2b7631cc41b3ba8828b3321ca811111fa75cd3aa3bb5ace81019182559251919290917f405787fa12a823e0f2b7631cc41b3ba8828b3321ca811111fa75cd3aa3bb5acf909101906106279082615240565b506040820151600282019061063c9082615240565b5050506000838152600160208190526040909120555b5050505050565b336000908152600960205260408120905b6007548110156108fb5782600782815481106106885761068861515e565b906000526020600020906009020160010154036108e9576007546001036107415760078054806106ba576106ba6152f9565b60008281526020812060096000199093019283020180546001600160a01b031916815560018101829055906106f26002830182614519565b610700600383016000614519565b61070e600483016000614519565b61071c600583016000614519565b61072a600683016000614519565b5060006007820181905560089091015590556108e9565b805b6007546107529060019061530f565b811015610854576007610766826001615322565b815481106107765761077661515e565b9060005260206000209060090201600782815481106107975761079761515e565b60009182526020909120825460099092020180546001600160a01b0319166001600160a01b03909216919091178155600180830154908201556002808201906107e290840182615335565b506003818101906107f590840182615335565b5060048181019061080890840182615335565b5060058181019061081b90840182615335565b5060068181019061082e90840182615335565b50600782810154908201556008918201549101558061084c816151c4565b915050610743565b506007805480610866576108666152f9565b60008281526020812060096000199093019283020180546001600160a01b0319168155600181018290559061089e6002830182614519565b6108ac600383016000614519565b6108ba600483016000614519565b6108c8600583016000614519565b6108d6600683016000614519565b5060006007820181905560089091015590555b806108f3816151c4565b91505061066a565b5060005b8154811015610c1e578282828154811061091b5761091b61515e565b90600052602060002090600902016001015403610c0c57336001600160a01b031682828154811061094e5761094e61515e565b60009182526020909120600990910201546001600160a01b03161461098e5760405162461bcd60e51b815260040161098590615401565b60405180910390fd5b8154600103610a4b57818054806109a7576109a76152f9565b60008281526020812060096000199093019283020180546001600160a01b031916815560018101829055906109df6002830182614519565b6109ed600383016000614519565b6109fb600483016000614519565b610a09600583016000614519565b610a17600683016000614519565b50600060078201819055600890910181905591553381526009602052604090208254610a4591908490614556565b50610c0c565b805b8254610a5b9060019061530f565b811015610b5b5782610a6e826001615322565b81548110610a7e57610a7e61515e565b9060005260206000209060090201838281548110610a9e57610a9e61515e565b60009182526020909120825460099092020180546001600160a01b0319166001600160a01b0390921691909117815560018083015490820155600280820190610ae990840182615335565b50600381810190610afc90840182615335565b50600481810190610b0f90840182615335565b50600581810190610b2290840182615335565b50600681810190610b3590840182615335565b506007828101549082015560089182015491015580610b53816151c4565b915050610a4d565b5081805480610b6c57610b6c6152f9565b60008281526020812060096000199093019283020180546001600160a01b03191681556001810182905590610ba46002830182614519565b610bb2600383016000614519565b610bc0600483016000614519565b610bce600583016000614519565b610bdc600683016000614519565b50600060078201819055600890910181905591553381526009602052604090208254610c0a91908490614556565b505b80610c16816151c4565b9150506108ff565b505050565b600680549081906000610c35836151c4565b9091555050604080516101208101825233815260208101838152918101888152606082018890526080820187905260a0820186905260c08201859052600060e08301819052610100830181905260078054600181018255915282517fa66cc928b5edb82af9bd49922954155ab7b0942694bea4ce44661d9a8736c688600990920291820180546001600160a01b0319166001600160a01b0390921691909117815593517fa66cc928b5edb82af9bd49922954155ab7b0942694bea4ce44661d9a8736c68982015590519192917fa66cc928b5edb82af9bd49922954155ab7b0942694bea4ce44661d9a8736c68a90910190610d309082615240565b5060608201516003820190610d459082615240565b5060808201516004820190610d5a9082615240565b5060a08201516005820190610d6f9082615240565b5060c08201516006820190610d849082615240565b5060e0828101516007830155610100928301516008909201919091553360008181526009602081815260408084208151610120810183529586528583018981529186018e8152606087018e9052608087018d905260a087018c905260c087018b90529686018590529685018490528654600180820189558886529290942085519490930290920180546001600160a01b0319166001600160a01b0390941693909317835590519082015591519091906002820190610e429082615240565b5060608201516003820190610e579082615240565b5060808201516004820190610e6c9082615240565b5060a08201516005820190610e819082615240565b5060c08201516006820190610e969082615240565b5060e08201516007820155610100909101516008909101553360009081526009602052604090208154610ecb91908390614556565b5050505050505050565b606060036000838152602001908152602001600020805480602002602001604051908101604052809291908181526020016000905b828210156112e85760008481526020908190206040805161016081018252600b860290920180546001600160a01b03168352600181015493830193909352600283015490820152600382018054919291606084019190610f6990615174565b80601f0160208091040260200160405190810160405280929190818152602001828054610f9590615174565b8015610fe25780601f10610fb757610100808354040283529160200191610fe2565b820191906000526020600020905b815481529060010190602001808311610fc557829003601f168201915b50505050508152602001600482018054610ffb90615174565b80601f016020809104026020016040519081016040528092919081815260200182805461102790615174565b80156110745780601f1061104957610100808354040283529160200191611074565b820191906000526020600020905b81548152906001019060200180831161105757829003601f168201915b5050505050815260200160058201805461108d90615174565b80601f01602080910402602001604051908101604052809291908181526020018280546110b990615174565b80156111065780601f106110db57610100808354040283529160200191611106565b820191906000526020600020905b8154815290600101906020018083116110e957829003601f168201915b5050505050815260200160068201805461111f90615174565b80601f016020809104026020016040519081016040528092919081815260200182805461114b90615174565b80156111985780601f1061116d57610100808354040283529160200191611198565b820191906000526020600020905b81548152906001019060200180831161117b57829003601f168201915b505050505081526020016007820180546111b190615174565b80601f01602080910402602001604051908101604052809291908181526020018280546111dd90615174565b801561122a5780601f106111ff5761010080835404028352916020019161122a565b820191906000526020600020905b81548152906001019060200180831161120d57829003601f168201915b505050505081526020016008820154815260200160098201548152602001600a8201805461125790615174565b80601f016020809104026020016040519081016040528092919081815260200182805461128390615174565b80156112d05780601f106112a5576101008083540402835291602001916112d0565b820191906000526020600020905b8154815290600101906020018083116112b357829003601f168201915b50505050508152505081526020019060010190610f0a565b505050509050919050565b6009602052816000526040600020818154811061130f57600080fd5b60009182526020909120600990910201805460018201546002830180546001600160a01b0390931695509093509061134690615174565b80601f016020809104026020016040519081016040528092919081815260200182805461137290615174565b80156113bf5780601f10611394576101008083540402835291602001916113bf565b820191906000526020600020905b8154815290600101906020018083116113a257829003601f168201915b5050505050908060030180546113d490615174565b80601f016020809104026020016040519081016040528092919081815260200182805461140090615174565b801561144d5780601f106114225761010080835404028352916020019161144d565b820191906000526020600020905b81548152906001019060200180831161143057829003601f168201915b50505050509080600401805461146290615174565b80601f016020809104026020016040519081016040528092919081815260200182805461148e90615174565b80156114db5780601f106114b0576101008083540402835291602001916114db565b820191906000526020600020905b8154815290600101906020018083116114be57829003601f168201915b5050505050908060050180546114f090615174565b80601f016020809104026020016040519081016040528092919081815260200182805461151c90615174565b80156115695780601f1061153e57610100808354040283529160200191611569565b820191906000526020600020905b81548152906001019060200180831161154c57829003601f168201915b50505050509080600601805461157e90615174565b80601f01602080910402602001604051908101604052809291908181526020018280546115aa90615174565b80156115f75780601f106115cc576101008083540402835291602001916115f7565b820191906000526020600020905b8154815290600101906020018083116115da57829003601f168201915b5050505050908060070154908060080154905089565b6001600160a01b0381166000908152600960209081526040808320805482518185028101850190935280835260609492939192909184015b828210156112e857600084815260209081902060408051610120810182526009860290920180546001600160a01b031683526001810154938301939093526002830180549293929184019161169990615174565b80601f01602080910402602001604051908101604052809291908181526020018280546116c590615174565b80156117125780601f106116e757610100808354040283529160200191611712565b820191906000526020600020905b8154815290600101906020018083116116f557829003601f168201915b5050505050815260200160038201805461172b90615174565b80601f016020809104026020016040519081016040528092919081815260200182805461175790615174565b80156117a45780601f10611779576101008083540402835291602001916117a4565b820191906000526020600020905b81548152906001019060200180831161178757829003601f168201915b505050505081526020016004820180546117bd90615174565b80601f01602080910402602001604051908101604052809291908181526020018280546117e990615174565b80156118365780601f1061180b57610100808354040283529160200191611836565b820191906000526020600020905b81548152906001019060200180831161181957829003601f168201915b5050505050815260200160058201805461184f90615174565b80601f016020809104026020016040519081016040528092919081815260200182805461187b90615174565b80156118c85780601f1061189d576101008083540402835291602001916118c8565b820191906000526020600020905b8154815290600101906020018083116118ab57829003601f168201915b505050505081526020016006820180546118e190615174565b80601f016020809104026020016040519081016040528092919081815260200182805461190d90615174565b801561195a5780601f1061192f5761010080835404028352916020019161195a565b820191906000526020600020905b81548152906001019060200180831161193d57829003601f168201915b505050505081526020016007820154815260200160088201548152505081526020019060010190611645565b60606002805480602002602001604051908101604052809291908181526020016000905b82821015611b0a5783829060005260206000209060030201604051806060016040529081600082015481526020016001820180546119e790615174565b80601f0160208091040260200160405190810160405280929190818152602001828054611a1390615174565b8015611a605780601f10611a3557610100808354040283529160200191611a60565b820191906000526020600020905b815481529060010190602001808311611a4357829003601f168201915b50505050508152602001600282018054611a7990615174565b80601f0160208091040260200160405190810160405280929190818152602001828054611aa590615174565b8015611af25780601f10611ac757610100808354040283529160200191611af2565b820191906000526020600020905b815481529060010190602001808311611ad557829003601f168201915b505050505081525050815260200190600101906119aa565b50505050905090565b6000828152600360205260408120905b8154811015611e795782828281548110611b3f57611b3f61515e565b90600052602060002090600b02016001015403611e6757336001600160a01b0316828281548110611b7257611b7261515e565b60009182526020909120600b90910201546001600160a01b031614611bcd5760405162461bcd60e51b81526020600482015260116024820152703737ba1031b7b6b6b2b73a1037bbb732b960791b6044820152606401610985565b8154600103611c865781805480611be657611be66152f9565b600082815260208120600b6000199093019283020180546001600160a01b0319168155600181018290556002810182905590611c256003830182614519565b611c33600483016000614519565b611c41600583016000614519565b611c4f600683016000614519565b611c5d600783016000614519565b60088201600090556009820160009055600a82016000611c7d9190614519565b50509055611e67565b805b8254611c969060019061530f565b811015611dba5782611ca9826001615322565b81548110611cb957611cb961515e565b90600052602060002090600b0201838281548110611cd957611cd961515e565b600091825260209091208254600b9092020180546001600160a01b0319166001600160a01b039092169190911781556001808301549082015560028083015490820155600380820190611d2e90840182615335565b50600481810190611d4190840182615335565b50600581810190611d5490840182615335565b50600681810190611d6790840182615335565b50600781810190611d7a90840182615335565b506008820154816008015560098201548160090155600a820181600a019081611da39190615335565b509050508080611db2906151c4565b915050611c88565b5081805480611dcb57611dcb6152f9565b600082815260208120600b6000199093019283020180546001600160a01b0319168155600181018290556002810182905590611e0a6003830182614519565b611e18600483016000614519565b611e26600583016000614519565b611e34600683016000614519565b611e42600783016000614519565b60088201600090556009820160009055600a82016000611e629190614519565b505090555b80611e71816151c4565b915050611b23565b5060008381526003602052604090208154611e9691908390614645565b50505050565b60008181526004602090815260408220805460018101825581845291832090910180546001600160a01b03191633179055908290528054611ee0908290819061474f565b50600160005b600754811015611f6c578360078281548110611f0457611f0461515e565b90600052602060002090600902016001015403611f5a5760078181548110611f2e57611f2e61515e565b600091825260208220600760099092020101805491611f4c836151c4565b919050555060009150611f6c565b80611f64816151c4565b915050611ee6565b508015610c1e5760005b600854811015611e96578360088281548110611f9457611f9461515e565b90600052602060002090600b02016001015403611fe65760088181548110611fbe57611fbe61515e565b6000918252602082206008600b9092020101805491611fdc836151c4565b9190505550611e96565b80611ff0816151c4565b915050611f76565b6008818154811061200857600080fd5b60009182526020909120600b909102018054600182015460028301546003840180546001600160a01b0390941695509193909290919061204790615174565b80601f016020809104026020016040519081016040528092919081815260200182805461207390615174565b80156120c05780601f10612095576101008083540402835291602001916120c0565b820191906000526020600020905b8154815290600101906020018083116120a357829003601f168201915b5050505050908060040180546120d590615174565b80601f016020809104026020016040519081016040528092919081815260200182805461210190615174565b801561214e5780601f106121235761010080835404028352916020019161214e565b820191906000526020600020905b81548152906001019060200180831161213157829003601f168201915b50505050509080600501805461216390615174565b80601f016020809104026020016040519081016040528092919081815260200182805461218f90615174565b80156121dc5780601f106121b1576101008083540402835291602001916121dc565b820191906000526020600020905b8154815290600101906020018083116121bf57829003601f168201915b5050505050908060060180546121f190615174565b80601f016020809104026020016040519081016040528092919081815260200182805461221d90615174565b801561226a5780601f1061223f5761010080835404028352916020019161226a565b820191906000526020600020905b81548152906001019060200180831161224d57829003601f168201915b50505050509080600701805461227f90615174565b80601f01602080910402602001604051908101604052809291908181526020018280546122ab90615174565b80156122f85780601f106122cd576101008083540402835291602001916122f8565b820191906000526020600020905b8154815290600101906020018083116122db57829003601f168201915b50505050509080600801549080600901549080600a01805461231990615174565b80601f016020809104026020016040519081016040528092919081815260200182805461234590615174565b80156123925780601f1061236757610100808354040283529160200191612392565b820191906000526020600020905b81548152906001019060200180831161237557829003601f168201915b505050505090508b565b60606007805480602002602001604051908101604052809291908181526020016000905b82821015611b0a57600084815260209081902060408051610120810182526009860290920180546001600160a01b031683526001810154938301939093526002830180549293929184019161241490615174565b80601f016020809104026020016040519081016040528092919081815260200182805461244090615174565b801561248d5780601f106124625761010080835404028352916020019161248d565b820191906000526020600020905b81548152906001019060200180831161247057829003601f168201915b505050505081526020016003820180546124a690615174565b80601f01602080910402602001604051908101604052809291908181526020018280546124d290615174565b801561251f5780601f106124f45761010080835404028352916020019161251f565b820191906000526020600020905b81548152906001019060200180831161250257829003601f168201915b5050505050815260200160048201805461253890615174565b80601f016020809104026020016040519081016040528092919081815260200182805461256490615174565b80156125b15780601f10612586576101008083540402835291602001916125b1565b820191906000526020600020905b81548152906001019060200180831161259457829003601f168201915b505050505081526020016005820180546125ca90615174565b80601f01602080910402602001604051908101604052809291908181526020018280546125f690615174565b80156126435780601f1061261857610100808354040283529160200191612643565b820191906000526020600020905b81548152906001019060200180831161262657829003601f168201915b5050505050815260200160068201805461265c90615174565b80601f016020809104026020016040519081016040528092919081815260200182805461268890615174565b80156126d55780601f106126aa576101008083540402835291602001916126d5565b820191906000526020600020905b8154815290600101906020018083116126b857829003601f168201915b5050505050815260200160078201548152602001600882015481525050815260200190600101906123c0565b336000908152600960205260408120905b6007548110156129f75782600782815481106127305761273061515e565b906000526020600020906009020160010154036129e557336001600160a01b0316600782815481106127645761276461515e565b60009182526020909120600990910201546001600160a01b03161461279b5760405162461bcd60e51b815260040161098590615401565b60075460010361283d5760078054806127b6576127b66152f9565b60008281526020812060096000199093019283020180546001600160a01b031916815560018101829055906127ee6002830182614519565b6127fc600383016000614519565b61280a600483016000614519565b612818600583016000614519565b612826600683016000614519565b5060006007820181905560089091015590556129e5565b805b60075461284e9060019061530f565b811015612950576007612862826001615322565b815481106128725761287261515e565b9060005260206000209060090201600782815481106128935761289361515e565b60009182526020909120825460099092020180546001600160a01b0319166001600160a01b03909216919091178155600180830154908201556002808201906128de90840182615335565b506003818101906128f190840182615335565b5060048181019061290490840182615335565b5060058181019061291790840182615335565b5060068181019061292a90840182615335565b506007828101549082015560089182015491015580612948816151c4565b91505061283f565b506007805480612962576129626152f9565b60008281526020812060096000199093019283020180546001600160a01b0319168155600181018290559061299a6002830182614519565b6129a8600383016000614519565b6129b6600483016000614519565b6129c4600583016000614519565b6129d2600683016000614519565b5060006007820181905560089091015590555b806129ef816151c4565b915050612712565b5060005b8154811015610c1e5782828281548110612a1757612a1761515e565b90600052602060002090600902016001015403612cff57336001600160a01b0316828281548110612a4a57612a4a61515e565b60009182526020909120600990910201546001600160a01b031614612a815760405162461bcd60e51b815260040161098590615401565b8154600103612b3e5781805480612a9a57612a9a6152f9565b60008281526020812060096000199093019283020180546001600160a01b03191681556001810182905590612ad26002830182614519565b612ae0600383016000614519565b612aee600483016000614519565b612afc600583016000614519565b612b0a600683016000614519565b50600060078201819055600890910181905591553381526009602052604090208254612b3891908490614556565b50612cff565b805b8254612b4e9060019061530f565b811015612c4e5782612b61826001615322565b81548110612b7157612b7161515e565b9060005260206000209060090201838281548110612b9157612b9161515e565b60009182526020909120825460099092020180546001600160a01b0319166001600160a01b0390921691909117815560018083015490820155600280820190612bdc90840182615335565b50600381810190612bef90840182615335565b50600481810190612c0290840182615335565b50600581810190612c1590840182615335565b50600681810190612c2890840182615335565b506007828101549082015560089182015491015580612c46816151c4565b915050612b40565b5081805480612c5f57612c5f6152f9565b60008281526020812060096000199093019283020180546001600160a01b03191681556001810182905590612c976002830182614519565b612ca5600383016000614519565b612cb3600483016000614519565b612cc1600583016000614519565b612ccf600683016000614519565b50600060078201819055600890910181905591553381526009602052604090208254612cfd91908490614556565b505b80612d09816151c4565b9150506129fb565b600081815260056020908152604091829020805483518184028101840190945280845260609392830182828015612d7157602002820191906000526020600020905b81546001600160a01b03168152600190910190602001808311612d53575b50505050509050919050565b600081815260056020908152604082208054600181810183558285529284200180546001600160a01b03191633179055918390528154612dc0908390819061474f565b5060005b600754811015612e80578360078281548110612de257612de261515e565b90600052602060002090600902016001015403612e6e5760078181548110612e0c57612e0c61515e565b600091825260208220600860099092020101805491612e2a836151c4565b919050555060009150600160078281548110612e4857612e4861515e565b90600052602060002090600902016007015410612e6957612e698183613a15565b612e80565b80612e78816151c4565b915050612dc4565b508015610c1e5760005b600854811015611e96578360088281548110612ea857612ea861515e565b90600052602060002090600b02016001015403612f305760088181548110612ed257612ed261515e565b6000918252602082206009600b9092020101805491612ef0836151c4565b9190505550600160088281548110612f0a57612f0a61515e565b90600052602060002090600b02016008015410612f2b57612f2b8183613a15565b611e96565b80612f3a816151c4565b915050612e8a565b6000818152600460205260408120906001905b82548110156130b857336001600160a01b0316838281548110612f7a57612f7a61515e565b6000918252602090912001546001600160a01b0316036130a6578254600103612fd45782805480612fad57612fad6152f9565b600082815260209020810160001990810180546001600160a01b03191690550190556130a6565b805b8354612fe49060019061530f565b8110156130725783612ff7826001615322565b815481106130075761300761515e565b9060005260206000200160009054906101000a90046001600160a01b03168482815481106130375761303761515e565b600091825260209091200180546001600160a01b0319166001600160a01b03929092169190911790558061306a816151c4565b915050612fd6565b5082805480613083576130836152f9565b600082815260209020810160001990810180546001600160a01b03191690550190555b806130b0816151c4565b915050612f55565b50600083815260046020526040902082546130d59190849061474f565b5060005b6007548110156131955783600782815481106130f7576130f761515e565b9060005260206000209060090201600101540361318357600781815481106131215761312161515e565b60009182526020822060076009909202010180549161313f8361542a565b91905055506000915060016007828154811061315d5761315d61515e565b9060005260206000209060090201600701541061317e5761317e8183613a15565b613195565b8061318d816151c4565b9150506130d9565b508015610c1e5760005b600854811015611e965783600882815481106131bd576131bd61515e565b90600052602060002090600b0201600101540361320557600881815481106131e7576131e761515e565b6000918252602082206008600b9092020101805491612ef08361542a565b8061320f816151c4565b91505061319f565b61327d60405180610160016040528060006001600160a01b03168152602001600081526020016000815260200160608152602001606081526020016060815260200160608152602001606081526020016000815260200160008152602001606081525090565b6000805b6008548110156132cc57836008828154811061329f5761329f61515e565b90600052602060002090600b020160010154036132ba578091505b806132c4816151c4565b915050613281565b50600881815481106132e0576132e061515e565b90600052602060002090600b0201604051806101600160405290816000820160009054906101000a90046001600160a01b03166001600160a01b03166001600160a01b03168152602001600182015481526020016002820154815260200160038201805461334d90615174565b80601f016020809104026020016040519081016040528092919081815260200182805461337990615174565b80156133c65780601f1061339b576101008083540402835291602001916133c6565b820191906000526020600020905b8154815290600101906020018083116133a957829003601f168201915b505050505081526020016004820180546133df90615174565b80601f016020809104026020016040519081016040528092919081815260200182805461340b90615174565b80156134585780601f1061342d57610100808354040283529160200191613458565b820191906000526020600020905b81548152906001019060200180831161343b57829003601f168201915b5050505050815260200160058201805461347190615174565b80601f016020809104026020016040519081016040528092919081815260200182805461349d90615174565b80156134ea5780601f106134bf576101008083540402835291602001916134ea565b820191906000526020600020905b8154815290600101906020018083116134cd57829003601f168201915b5050505050815260200160068201805461350390615174565b80601f016020809104026020016040519081016040528092919081815260200182805461352f90615174565b801561357c5780601f106135515761010080835404028352916020019161357c565b820191906000526020600020905b81548152906001019060200180831161355f57829003601f168201915b5050505050815260200160078201805461359590615174565b80601f01602080910402602001604051908101604052809291908181526020018280546135c190615174565b801561360e5780601f106135e35761010080835404028352916020019161360e565b820191906000526020600020905b8154815290600101906020018083116135f157829003601f168201915b505050505081526020016008820154815260200160098201548152602001600a8201805461363b90615174565b80601f016020809104026020016040519081016040528092919081815260200182805461366790615174565b80156136b45780601f10613689576101008083540402835291602001916136b4565b820191906000526020600020905b81548152906001019060200180831161369757829003601f168201915b505050505081525050915050919050565b6006805490819060006136d7836151c4565b91905055506000604051806101600160405280336001600160a01b031681526020018381526020018a815260200189815260200188815260200187815260200186815260200185815260200160008152602001600081526020018481525090506008604051806101600160405280336001600160a01b031681526020018481526020018b81526020018a815260200189815260200188815260200187815260200186815260200160008152602001600081526020018581525090806001815401808255809150506001900390600052602060002090600b020160009091909190915060008201518160000160006101000a8154816001600160a01b0302191690836001600160a01b031602179055506020820151816001015560408201518160020155606082015181600301908161380f9190615240565b50608082015160048201906138249082615240565b5060a082015160058201906138399082615240565b5060c0820151600682019061384e9082615240565b5060e082015160078201906138639082615240565b5061010082015160088201556101208201516009820155610140820151600a82019061388f9082615240565b5050506000898152600360208181526040808420805460018082018355828752958490208751600b9092020180546001600160a01b0319166001600160a01b0390921691909117815592860151948301949094558401516002820155606084015184928201906138ff9082615240565b50608082015160048201906139149082615240565b5060a082015160058201906139299082615240565b5060c0820151600682019061393e9082615240565b5060e082015160078201906139539082615240565b5061010082015160088201556101208201516009820155610140820151600a82019061397f9082615240565b50505060008a8152600360205260409020815461399e91908390614645565b5050505050505050505050565b600081815260046020908152604091829020805483518184028101840190945280845260609392830182828015612d71576020028201919060005260206000209081546001600160a01b03168152600190910190602001808311612d535750505050509050919050565b604f19600082613b545760078481548110613a3257613a3261515e565b9060005260206000209060090201600801546064613a509190615441565b60078581548110613a6357613a6361515e565b9060005260206000209060090201600701546064613a819190615441565b613a8b9190615471565b905060078481548110613aa057613aa061515e565b90600052602060002090600902016008015460078581548110613ac557613ac561515e565b906000526020600020906009020160070154613ae19190615498565b613aeb90826154c0565b9050818113158015613b225750600160078581548110613b0d57613b0d61515e565b90600052602060002090600902016007015410155b15612f2b57612f2b60078581548110613b3d57613b3d61515e565b906000526020600020906009020160010154610659565b60088481548110613b6757613b6761515e565b90600052602060002090600b0201600901546064613b859190615441565b60088581548110613b9857613b9861515e565b90600052602060002090600b0201600801546064613bb69190615441565b613bc09190615471565b905060088481548110613bd557613bd561515e565b90600052602060002090600b02016009015460088581548110613bfa57613bfa61515e565b90600052602060002090600b020160080154613c169190615498565b613c2090826154c0565b9050818113158015613c575750600160088581548110613c4257613c4261515e565b90600052602060002090600b02016008015410155b15611e9657611e9660088581548110613c7257613c7261515e565b90600052602060002090600b02016002015460088681548110613c9757613c9761515e565b90600052602060002090600b020160010154613f85565b6000818152600560205260408120906001905b8254811015613e2457336001600160a01b0316838281548110613ce657613ce661515e565b6000918252602090912001546001600160a01b031603613e12578254600103613d405782805480613d1957613d196152f9565b600082815260209020810160001990810180546001600160a01b0319169055019055613e12565b805b8354613d509060019061530f565b811015613dde5783613d63826001615322565b81548110613d7357613d7361515e565b9060005260206000200160009054906101000a90046001600160a01b0316848281548110613da357613da361515e565b600091825260209091200180546001600160a01b0319166001600160a01b039290921691909117905580613dd6816151c4565b915050613d42565b5082805480613def57613def6152f9565b600082815260209020810160001990810180546001600160a01b03191690550190555b80613e1c816151c4565b915050613cc1565b5060008381526005602052604090208254613e419190849061474f565b5060005b600754811015613ecb578360078281548110613e6357613e6361515e565b90600052602060002090600902016001015403613eb95760078181548110613e8d57613e8d61515e565b600091825260208220600860099092020101805491613eab8361542a565b919050555060009150613ecb565b80613ec3816151c4565b915050613e45565b508015610c1e5760005b600854811015611e96578360088281548110613ef357613ef361515e565b90600052602060002090600b02016001015403613f3b5760088181548110613f1d57613f1d61515e565b6000918252602082206009600b9092020101805491611fdc8361542a565b80613f45816151c4565b915050613ed5565b60056020528160005260406000208181548110613f6957600080fd5b6000918252602090912001546001600160a01b03169150829050565b6000828152600360205260408120905b8154811015611e795782828281548110613fb157613fb161515e565b90600052602060002090600b020160010154036142625781546001036140815781805480613fe157613fe16152f9565b600082815260208120600b6000199093019283020180546001600160a01b03191681556001810182905560028101829055906140206003830182614519565b61402e600483016000614519565b61403c600583016000614519565b61404a600683016000614519565b614058600783016000614519565b60088201600090556009820160009055600a820160006140789190614519565b50509055614262565b805b82546140919060019061530f565b8110156141b557826140a4826001615322565b815481106140b4576140b461515e565b90600052602060002090600b02018382815481106140d4576140d461515e565b600091825260209091208254600b9092020180546001600160a01b0319166001600160a01b03909216919091178155600180830154908201556002808301549082015560038082019061412990840182615335565b5060048181019061413c90840182615335565b5060058181019061414f90840182615335565b5060068181019061416290840182615335565b5060078181019061417590840182615335565b506008820154816008015560098201548160090155600a820181600a01908161419e9190615335565b5090505080806141ad906151c4565b915050614083565b50818054806141c6576141c66152f9565b600082815260208120600b6000199093019283020180546001600160a01b03191681556001810182905560028101829055906142056003830182614519565b614213600483016000614519565b614221600583016000614519565b61422f600683016000614519565b61423d600783016000614519565b60088201600090556009820160009055600a8201600061425d9190614519565b505090555b8061426c816151c4565b915050613f95565b6007818154811061428457600080fd5b60009182526020909120600990910201805460018201546002830180546001600160a01b03909316945090929161134690615174565b600281815481106142ca57600080fd5b600091825260209091206003909102018054600182018054919350906142ef90615174565b80601f016020809104026020016040519081016040528092919081815260200182805461431b90615174565b80156143685780601f1061433d57610100808354040283529160200191614368565b820191906000526020600020905b81548152906001019060200180831161434b57829003601f168201915b50505050509080600201805461437d90615174565b80601f01602080910402602001604051908101604052809291908181526020018280546143a990615174565b80156143f65780601f106143cb576101008083540402835291602001916143f6565b820191906000526020600020905b8154815290600101906020018083116143d957829003601f168201915b5050505050905083565b60046020528160005260406000208181548110613f6957600080fd5b6003602052816000526040600020818154811061443857600080fd5b60009182526020909120600b909102018054600182015460028301546003840180546001600160a01b039094169650919450929161204790615174565b81518151600091849184919081146144935760009350505050614513565b60005b8181101561450a578281815181106144b0576144b061515e565b602001015160f81c60f81b6001600160f81b0319168482815181106144d7576144d761515e565b01602001516001600160f81b031916146144f8576000945050505050614513565b80614502816151c4565b915050614496565b50600193505050505b92915050565b50805461452590615174565b6000825580601f10614535575050565b601f0160209004906000526020600020908101906145539190614797565b50565b8280548282559060005260206000209060090281019282156146355760005260206000209160090282015b8281111561463557825482546001600160a01b0319166001600160a01b039091161782556001808401549083015582826002808201906145c390840182615335565b506003818101906145d690840182615335565b506004818101906145e990840182615335565b506005818101906145fc90840182615335565b5060068181019061460f90840182615335565b506007820154816007015560088201548160080155505091600901919060090190614581565b506146419291506147ac565b5090565b82805482825590600052602060002090600b02810192821561474357600052602060002091600b0282015b8281111561474357825482546001600160a01b0319166001600160a01b03909116178255600180840154908301556002808401549083015582826003808201906146bc90840182615335565b506004818101906146cf90840182615335565b506005818101906146e290840182615335565b506006818101906146f590840182615335565b5060078181019061470890840182615335565b506008820154816008015560098201548160090155600a820181600a0190816147319190615335565b50505091600b019190600b0190614670565b50614641929150614827565b82805482825590600052602060002090810192821561478f5760005260206000209182015b8281111561478f578254825591600101919060010190614774565b506146419291505b5b808211156146415760008155600101614798565b808211156146415780546001600160a01b03191681556000600182018190556147d86002830182614519565b6147e6600383016000614519565b6147f4600483016000614519565b614802600583016000614519565b614810600683016000614519565b5060006007820181905560088201556009016147ac565b808211156146415780546001600160a01b03191681556000600182018190556002820181905561485a6003830182614519565b614868600483016000614519565b614876600583016000614519565b614884600683016000614519565b614892600783016000614519565b60088201600090556009820160009055600a820160006148b29190614519565b50600b01614827565b634e487b7160e01b600052604160045260246000fd5b600082601f8301126148e257600080fd5b81356001600160401b03808211156148fc576148fc6148bb565b604051601f8301601f19908116603f01168101908282118183101715614924576149246148bb565b8160405283815286602085880101111561493d57600080fd5b836020870160208301376000602085830101528094505050505092915050565b6000806040838503121561497057600080fd5b82356001600160401b038082111561498757600080fd5b614993868387016148d1565b935060208501359150808211156149a957600080fd5b506149b6858286016148d1565b9150509250929050565b6000602082840312156149d257600080fd5b5035919050565b600080600080600060a086880312156149f157600080fd5b85356001600160401b0380821115614a0857600080fd5b614a1489838a016148d1565b96506020880135915080821115614a2a57600080fd5b614a3689838a016148d1565b95506040880135915080821115614a4c57600080fd5b614a5889838a016148d1565b94506060880135915080821115614a6e57600080fd5b614a7a89838a016148d1565b93506080880135915080821115614a9057600080fd5b50614a9d888289016148d1565b9150509295509295909350565b6001600160a01b03169052565b6000815180845260005b81811015614add57602081850181015186830182015201614ac1565b506000602082860101526020601f19601f83011685010191505092915050565b6000610160614b0d848451614aaa565b60208301516020850152604083015160408501526060830151816060860152614b3882860182614ab7565b91505060808301518482036080860152614b528282614ab7565b91505060a083015184820360a0860152614b6c8282614ab7565b91505060c083015184820360c0860152614b868282614ab7565b91505060e083015184820360e0860152614ba08282614ab7565b9150506101008084015181860152506101208084015181860152506101408084015185830382870152614bd38382614ab7565b9695505050505050565b6000602080830181845280855180835260408601915060408160051b870101925083870160005b82811015614c3257603f19888603018452614c20858351614afd565b94509285019290850190600101614c04565b5092979650505050505050565b80356001600160a01b0381168114614c5657600080fd5b919050565b60008060408385031215614c6e57600080fd5b614c7783614c3f565b946020939093013593505050565b6001600160a01b038a1681526020810189905261012060408201819052600090614cb18382018b614ab7565b90508281036060840152614cc5818a614ab7565b90508281036080840152614cd98189614ab7565b905082810360a0840152614ced8188614ab7565b905082810360c0840152614d018187614ab7565b60e084019590955250506101000152979650505050505050565b600060208284031215614d2d57600080fd5b614d3682614c3f565b9392505050565b60006020808301818452808551808352604092508286019150828160051b87010184880160005b83811015614e3957603f198984030185528151610120614d85858351614aaa565b8882015189860152878201518189870152614da282870182614ab7565b91505060608083015186830382880152614dbc8382614ab7565b9250505060808083015186830382880152614dd78382614ab7565b9250505060a08083015186830382880152614df28382614ab7565b9250505060c08083015186830382880152614e0d8382614ab7565b60e085810151908901526101009485015194909701939093525050509386019390860190600101614d64565b509098975050505050505050565b60006020808301818452808551808352604092508286019150828160051b87010184880160005b83811015614e3957603f19898403018552815160608151855288820151818a870152614e9c82870182614ab7565b91505087820151915084810388860152614eb68183614ab7565b968901969450505090860190600101614e6e565b60008060408385031215614edd57600080fd5b50508035926020909101359150565b600061016060018060a01b038e1683528c60208401528b6040840152806060840152614f1a8184018c614ab7565b90508281036080840152614f2e818b614ab7565b905082810360a0840152614f42818a614ab7565b905082810360c0840152614f568189614ab7565b905082810360e0840152614f6a8188614ab7565b90508561010084015284610120840152828103610140840152614f8d8185614ab7565b9e9d5050505050505050505050505050565b6020808252825182820181905260009190848201906040850190845b81811015614fe05783516001600160a01b031683529284019291840191600101614fbb565b50909695505050505050565b602081526000614d366020830184614afd565b600080600080600080600060e0888a03121561501a57600080fd5b8735965060208801356001600160401b038082111561503857600080fd5b6150448b838c016148d1565b975060408a013591508082111561505a57600080fd5b6150668b838c016148d1565b965060608a013591508082111561507c57600080fd5b6150888b838c016148d1565b955060808a013591508082111561509e57600080fd5b6150aa8b838c016148d1565b945060a08a01359150808211156150c057600080fd5b6150cc8b838c016148d1565b935060c08a01359150808211156150e257600080fd5b506150ef8a828b016148d1565b91505092959891949750929550565b6000806040838503121561511157600080fd5b823591506020830135801515811461512857600080fd5b809150509250929050565b83815260606020820152600061514c6060830185614ab7565b8281036040840152614bd38185614ab7565b634e487b7160e01b600052603260045260246000fd5b600181811c9082168061518857607f821691505b6020821081036151a857634e487b7160e01b600052602260045260246000fd5b50919050565b634e487b7160e01b600052601160045260246000fd5b6000600182016151d6576151d66151ae565b5060010190565b601f821115610c1e57600081815260208120601f850160051c810160208610156152045750805b601f850160051c820191505b8181101561522357828155600101615210565b505050505050565b600019600383901b1c191660019190911b1790565b81516001600160401b03811115615259576152596148bb565b61526d816152678454615174565b846151dd565b602080601f83116001811461529c576000841561528a5750858301515b615294858261522b565b865550615223565b600085815260208120601f198616915b828110156152cb578886015182559484019460019091019084016152ac565b50858210156152e95787850151600019600388901b60f8161c191681555b5050505050600190811b01905550565b634e487b7160e01b600052603160045260246000fd5b81810381811115614513576145136151ae565b80820180821115614513576145136151ae565b818103615340575050565b61534a8254615174565b6001600160401b03811115615361576153616148bb565b61536f816152678454615174565b6000601f82116001811461539d576000831561538b5750848201545b615395848261522b565b855550610652565b600085815260209020601f19841690600086815260209020845b838110156153d757828601548255600195860195909101906020016153b7565b50858310156152e95793015460001960f8600387901b161c19169092555050600190811b01905550565b6020808252600f908201526e3737ba103a3bb2b2ba1037bbb732b960891b604082015260600190565b600081615439576154396151ae565b506000190190565b80820260008212600160ff1b8414161561545d5761545d6151ae565b8181058314821517614513576145136151ae565b8181036000831280158383131683831282161715615491576154916151ae565b5092915050565b80820182811260008312801582168215821617156154b8576154b86151ae565b505092915050565b6000826154dd57634e487b7160e01b600052601260045260246000fd5b600160ff1b8214600019841416156154f7576154f76151ae565b50059056fea2646970667358221220dbe2b4c3888b719e10baa5ed6ba86f11821b51dd87cdbff6f3efbf9e67aa37ef64736f6c63430008130033",
  "immutableReferences": {},
  "source": "// SPDX-License-Identifier: UNLICENSED\r\npragma solidity ^0.8.17;\r\n\r\ncontract DecentraModules{\r\n    address public owner;\r\n    \r\n    constructor() {\r\n        owner = msg.sender;\r\n    }\r\n\r\n    struct Tweet{\r\n        address tweetOwner;\r\n        uint256 t_id;     \r\n        string username;\r\n        string userAt;\r\n        string date;\r\n        string text;\r\n        string cId;\r\n        uint likes;\r\n        uint dislikes;\r\n        \r\n\r\n    }\r\n\r\n    struct Comment{\r\n        address commentOwner;\r\n        uint256 c_id;\r\n        uint256 p_id;\r\n        string username;\r\n        string userAt;\r\n        string date;\r\n        string text;\r\n        string cId;\r\n        uint likes;\r\n        uint dislikes;\r\n        string avatar;\r\n        \r\n        \r\n    }\r\n\r\n    struct Trend{\r\n        uint256 t_id;\r\n        string t_name;\r\n        string t_location;\r\n        \r\n    }\r\n\r\n    mapping (uint => uint) public mentions;\r\n    Trend[] public trends;\r\n    mapping (uint => Comment[]) public comments; \r\n    mapping (uint => address[]) public liked;\r\n    mapping (uint => address[]) public disliked;\r\n\r\n    uint256 tweetId=1000;\r\n    Tweet[] public tweets;\r\n    Comment[] public cmtarr;\r\n    mapping (address => Tweet[]) public userTweets;\r\n\r\n    function ratio(uint index,bool comment) public {\r\n        int deletionLimit = -80;\r\n        int ratioAmount;\r\n        if(!comment){\r\n            ratioAmount=(int(tweets[index].likes)*100)-(int(tweets[index].dislikes)*100);\r\n            ratioAmount=ratioAmount/(int(tweets[index].likes)+int(tweets[index].dislikes));\r\n            if(ratioAmount<=deletionLimit && tweets[index].likes>=1){\r\n                deleteTweetregardless(tweets[index].t_id);\r\n            }\r\n        }\r\n        else{\r\n             ratioAmount=(int(cmtarr[index].likes)*100)-(int(cmtarr[index].dislikes)*100);\r\n            ratioAmount=ratioAmount/(int(cmtarr[index].likes)+int(cmtarr[index].dislikes));\r\n            if(ratioAmount<=deletionLimit && cmtarr[index].likes>=1){\r\n                    deleteCommentregardless(cmtarr[index].p_id, cmtarr[index].c_id);\r\n            }\r\n        }\r\n        \r\n    }\r\n\r\n    function stringsEquals(string memory s1, string memory s2) private pure returns (bool) {\r\n        bytes memory b1 = bytes(s1);\r\n        bytes memory b2 = bytes(s2);\r\n        uint256 l1 = b1.length;\r\n        if (l1 != b2.length) return false;\r\n        for (uint256 i=0; i<l1; i++) {\r\n            if (b1[i] != b2[i]) return false;\r\n        }\r\n        return true;\r\n\r\n\r\n    }\r\n\r\n    function addLike(uint _id) public {\r\n            address[] storage temp = liked[_id];\r\n            temp.push(msg.sender);\r\n            liked[_id]=temp;\r\n            bool comment=true;\r\n            for(uint i=0;i<tweets.length;i++){\r\n                if(tweets[i].t_id == _id){\r\n                    tweets[i].likes++;\r\n                    comment=false;\r\n                    break;\r\n                }\r\n            }\r\n            if(comment){\r\n                    for(uint i=0;i<cmtarr.length;i++){\r\n                        if(cmtarr[i].c_id == _id){\r\n                            cmtarr[i].likes++;\r\n                            break;\r\n                        }\r\n                }\r\n            }\r\n    }\r\n    function removeLike(uint _id) public{\r\n        address[] storage temp =liked[_id];\r\n        bool comment=true;\r\n            for(uint i=0; i<temp.length; i++)\r\n            {\r\n                if(temp[i] == msg.sender){\r\n                    \r\n                    if(temp.length==1){\r\n                        temp.pop();\r\n                    }\r\n                    else{\r\n                        for(uint j=i; j<temp.length-1;j++){\r\n                            temp[j]=temp[j+1];\r\n                        }\r\n                        temp.pop();\r\n                    }\r\n                }\r\n            }\r\n        liked[_id]=temp;\r\n         for(uint i=0;i<tweets.length;i++){\r\n            if(tweets[i].t_id == _id){\r\n                tweets[i].likes--;\r\n                comment=false;\r\n                if(tweets[i].likes>=1){\r\n                    ratio(i,comment);\r\n                }\r\n                break;\r\n            }\r\n        }\r\n         if(comment){\r\n                    for(uint i=0;i<cmtarr.length;i++){\r\n                        if(cmtarr[i].c_id == _id){\r\n                            cmtarr[i].likes--;\r\n                            if(cmtarr[i].likes>=1){\r\n                                ratio(i,comment);\r\n                            }\r\n                            break;\r\n                        }\r\n                }\r\n            }\r\n\r\n    }\r\n    function getlikes(uint _id) public view returns(address[] memory){\r\n        return liked[_id];\r\n    }\r\n    \r\n     function addDislike(uint _id) public {\r\n        address[] storage temp = disliked[_id];\r\n        bool comment=true;\r\n        temp.push(msg.sender);\r\n        disliked[_id]=temp;\r\n         for(uint i=0;i<tweets.length;i++){\r\n            if(tweets[i].t_id == _id){\r\n                tweets[i].dislikes++;\r\n                comment=false;\r\n                if(tweets[i].likes>=1){\r\n                    ratio(i,comment);\r\n                }\r\n                break;\r\n            }\r\n        }\r\n         if(comment){\r\n                    for(uint i=0;i<cmtarr.length;i++){\r\n                        if(cmtarr[i].c_id == _id){\r\n                            cmtarr[i].dislikes++;\r\n                            if(cmtarr[i].likes>=1){\r\n                                ratio(i,comment);\r\n                            }\r\n                            break;\r\n                        }\r\n                }\r\n            }\r\n\r\n\r\n    }\r\n\r\n    function removeDislike(uint _id) public{\r\n        address[] storage temp =disliked[_id];\r\n        bool comment=true;\r\n            for(uint i=0; i<temp.length; i++)\r\n            {\r\n                if(temp[i] == msg.sender){\r\n                    \r\n                    if(temp.length==1){\r\n                        temp.pop();\r\n                    }\r\n                    else{\r\n                        for(uint j=i; j<temp.length-1;j++){\r\n                            temp[j]=temp[j+1];\r\n                        }\r\n                        temp.pop();\r\n                    }\r\n                }\r\n            }\r\n        disliked[_id]=temp;\r\n\r\n         for(uint i=0;i<tweets.length;i++){\r\n            if(tweets[i].t_id == _id){\r\n                tweets[i].dislikes--;\r\n                comment=false;\r\n                break;\r\n            }\r\n        }\r\n         if(comment){\r\n                    for(uint i=0;i<cmtarr.length;i++){\r\n                        if(cmtarr[i].c_id == _id){\r\n                            cmtarr[i].dislikes--;\r\n                            break;\r\n                        }\r\n                }\r\n            }\r\n\r\n\r\n    }\r\n\r\n      function getdislikes(uint _id) public view returns(address[] memory){\r\n        return disliked[_id];\r\n    }\r\n\r\n     //Functions for Tweets\r\n    function addTweet(string memory _username, string memory _userAt, string memory _date, string memory _text, string memory _cId) public {\r\n        uint id =tweetId;\r\n        tweetId++;\r\n        tweets.push(Tweet(msg.sender ,id, _username, _userAt, _date, _text, _cId,0,0));\r\n        \r\n        Tweet[] storage userSpecificTweets= userTweets[msg.sender];\r\n        userSpecificTweets.push(Tweet(msg.sender ,id, _username, _userAt, _date, _text, _cId,0,0));\r\n        \r\n        userTweets[msg.sender]=userSpecificTweets;\r\n    }\r\n\r\n    function getAllTweets() public view returns(Tweet[] memory){\r\n        return tweets;\r\n    }\r\n\r\n    function getUserTweets(address _user) public view returns(Tweet[] memory){\r\n        return userTweets[_user];\r\n    }\r\n\r\n      function deleteTweet(uint id) public {\r\n        Tweet[] storage userSpecificTweets = userTweets[msg.sender];\r\n        for(uint i=0; i<tweets.length; i++)\r\n        {\r\n            if(tweets[i].t_id == id){\r\n                 require(tweets[i].tweetOwner == msg.sender, \"not tweet owner\");\r\n                if(tweets.length==1){\r\n                    tweets.pop();\r\n                }\r\n                else{\r\n                    for(uint j=i; j<tweets.length-1;j++){\r\n                        tweets[j]=tweets[j+1];\r\n                    }\r\n                    tweets.pop();\r\n                }\r\n            }\r\n        }\r\n        for (uint i=0;i<userSpecificTweets.length;i++){\r\n            if(userSpecificTweets[i].t_id==id){\r\n                require(userSpecificTweets[i].tweetOwner == msg.sender, \"not tweet owner\");\r\n                if(userSpecificTweets.length==1){\r\n                    userSpecificTweets.pop();\r\n                    userTweets[msg.sender]=userSpecificTweets;\r\n                }\r\n                else{\r\n                    for(uint j=i; j<userSpecificTweets.length-1;j++){\r\n                    userSpecificTweets[j]=userSpecificTweets[j+1];\r\n                    }\r\n                    userSpecificTweets.pop();\r\n                    userTweets[msg.sender]=userSpecificTweets;\r\n                }\r\n                \r\n            }\r\n        }\r\n    }\r\n      function deleteTweetregardless(uint id) public {\r\n        Tweet[] storage userSpecificTweets = userTweets[msg.sender];\r\n        for(uint i=0; i<tweets.length; i++)\r\n        {\r\n            if(tweets[i].t_id == id){\r\n                // require(tweets[i].tweetOwner == msg.sender, \"not tweet owner\");\r\n                if(tweets.length==1){\r\n                    tweets.pop();\r\n                }\r\n                else{\r\n                    for(uint j=i; j<tweets.length-1;j++){\r\n                        tweets[j]=tweets[j+1];\r\n                    }\r\n                    tweets.pop();\r\n                }\r\n            }\r\n        }\r\n        for (uint i=0;i<userSpecificTweets.length;i++){\r\n            if(userSpecificTweets[i].t_id==id){\r\n                require(userSpecificTweets[i].tweetOwner == msg.sender, \"not tweet owner\");\r\n                if(userSpecificTweets.length==1){\r\n                    userSpecificTweets.pop();\r\n                    userTweets[msg.sender]=userSpecificTweets;\r\n                }\r\n                else{\r\n                    for(uint j=i; j<userSpecificTweets.length-1;j++){\r\n                    userSpecificTweets[j]=userSpecificTweets[j+1];\r\n                    }\r\n                    userSpecificTweets.pop();\r\n                    userTweets[msg.sender]=userSpecificTweets;\r\n                }\r\n                \r\n            }\r\n        }\r\n    }\r\n\r\n    //Functions for Comments\r\n    function addComment(uint p_id, string memory _username, string memory _userAt, string memory _date, string memory _text, string memory _cId, string memory _avatar) public {\r\n        uint id=tweetId;\r\n        tweetId++;\r\n        Comment memory cmt= Comment(msg.sender, id, p_id, _username, _userAt, _date, _text, _cId,0,0,_avatar);\r\n        cmtarr.push(Comment(msg.sender, id, p_id, _username, _userAt, _date, _text, _cId,0,0,_avatar));\r\n        Comment[] storage new_cmts =comments[p_id];\r\n        new_cmts.push(cmt); \r\n        comments[p_id] = new_cmts;\r\n    }\r\n    function getComments(uint p_id) public view returns(Comment[] memory){\r\n        return comments[p_id];\r\n    }\r\n    function getCommentimpressions(uint _id) public view returns(Comment memory){\r\n       uint index=0;\r\n        for(uint i=0;i<cmtarr.length;i++){\r\n            if(cmtarr[i].c_id==_id){\r\n                index=i;\r\n            }\r\n        }\r\n        return cmtarr[index];\r\n    }\r\n    function deleteComment(uint p_id, uint id) public {\r\n        Comment[] storage temp = comments[p_id];\r\n\r\n            for(uint i=0; i<temp.length; i++)\r\n            {\r\n                if(temp[i].c_id == id){\r\n                    require(temp[i].commentOwner == msg.sender, \"not comment owner\");\r\n                    if(temp.length==1){\r\n                        temp.pop();\r\n                    }\r\n                    else{\r\n                        for(uint j=i; j<temp.length-1;j++){\r\n                            temp[j]=temp[j+1];\r\n                        }\r\n                        temp.pop();\r\n                    }\r\n                }\r\n            }\r\n        comments[p_id]=temp;\r\n    }\r\n    function deleteCommentregardless(uint p_id, uint id) public {\r\n        Comment[] storage temp = comments[p_id];\r\n\r\n            for(uint i=0; i<temp.length; i++)\r\n            {\r\n                if(temp[i].c_id == id){\r\n                    // require(temp[i].commentOwner == msg.sender, \"not comment owner\");\r\n                    if(temp.length==1){\r\n                        temp.pop();\r\n                    }\r\n                    else{\r\n                        for(uint j=i; j<temp.length-1;j++){\r\n                            temp[j]=temp[j+1];\r\n                        }\r\n                        temp.pop();\r\n                    }\r\n                }\r\n            }\r\n        comments[p_id]=temp;\r\n    }\r\n\r\n     //Functions for Trends\r\n    function addTrend(string memory _name, string memory _location) public  {\r\n        uint id = tweetId;\r\n        bool exists =false;\r\n        uint tempMentions;\r\n       \r\n        for(uint i=0;i<trends.length;i++){\r\n            if(stringsEquals(trends[i].t_name, _name)){\r\n                exists = true;\r\n                id=trends[i].t_id;\r\n                break;\r\n            }\r\n        }\r\n       \r\n       if(exists){\r\n            tempMentions=mentions[id];\r\n            tempMentions++;\r\n            mentions[id]=tempMentions;\r\n        }else{\r\n            tweetId++;\r\n            trends.push(Trend(id,_name,_location));\r\n            mentions[id]=1;\r\n        }\r\n        \r\n    }\r\n   \r\n    function getTrends() public view returns(Trend[] memory){\r\n        return trends;\r\n    }\r\n    function getMentions(uint _id) public view returns(uint){\r\n        return mentions[_id];\r\n    }\r\n}",
  "sourcePath": "D:\\Docs\\Engineering\\Src\\Web\\FYP\\Code\\decentra\\contracts\\DecentraModules.sol",
  "compiler": {
    "name": "solc",
    "version": "0.8.19+commit.7dd6d404.Emscripten.clang"
  },
  "schemaVersion": "3.4.13",
  "updatedAt": "2023-08-24T06:17:13.658Z",
  "networkType": "ethereum",
  "devdoc": {
    "kind": "dev",
    "methods": {},
    "version": 1
  },
  "userdoc": {
    "kind": "user",
    "methods": {},
    "version": 1
  }
}