{
  "contractName": "Decentra",
  "abi": [
    {
      "inputs": [],
      "stateMutability": "nonpayable",
      "type": "constructor"
    },
    {
      "inputs": [],
      "name": "owner",
      "outputs": [
        {
          "internalType": "address",
          "name": "",
          "type": "address"
        }
      ],
      "stateMutability": "view",
      "type": "function",
      "constant": true
    },
    {
      "inputs": [
        {
          "components": [
            {
              "internalType": "string",
              "name": "name",
              "type": "string"
            },
            {
              "internalType": "string",
              "name": "avatar",
              "type": "string"
            },
            {
              "internalType": "string",
              "name": "banner",
              "type": "string"
            },
            {
              "internalType": "uint256",
              "name": "age",
              "type": "uint256"
            },
            {
              "internalType": "string",
              "name": "gender",
              "type": "string"
            },
            {
              "internalType": "string",
              "name": "status",
              "type": "string"
            },
            {
              "internalType": "string",
              "name": "country",
              "type": "string"
            },
            {
              "internalType": "string",
              "name": "city",
              "type": "string"
            }
          ],
          "internalType": "struct Decentra.Profile",
          "name": "_profile",
          "type": "tuple"
        },
        {
          "internalType": "string",
          "name": "_occupation",
          "type": "string"
        },
        {
          "internalType": "string",
          "name": "_date_joined",
          "type": "string"
        },
        {
          "internalType": "uint256",
          "name": "_followers",
          "type": "uint256"
        },
        {
          "internalType": "uint256",
          "name": "_following",
          "type": "uint256"
        },
        {
          "internalType": "uint256[]",
          "name": "_user_following",
          "type": "uint256[]"
        },
        {
          "internalType": "uint256[]",
          "name": "_user_followed",
          "type": "uint256[]"
        }
      ],
      "name": "updateUser",
      "outputs": [],
      "stateMutability": "nonpayable",
      "type": "function"
    },
    {
      "inputs": [
        {
          "internalType": "address",
          "name": "userAddress",
          "type": "address"
        }
      ],
      "name": "getUser",
      "outputs": [
        {
          "components": [
            {
              "components": [
                {
                  "internalType": "string",
                  "name": "name",
                  "type": "string"
                },
                {
                  "internalType": "string",
                  "name": "avatar",
                  "type": "string"
                },
                {
                  "internalType": "string",
                  "name": "banner",
                  "type": "string"
                },
                {
                  "internalType": "uint256",
                  "name": "age",
                  "type": "uint256"
                },
                {
                  "internalType": "string",
                  "name": "gender",
                  "type": "string"
                },
                {
                  "internalType": "string",
                  "name": "status",
                  "type": "string"
                },
                {
                  "internalType": "string",
                  "name": "country",
                  "type": "string"
                },
                {
                  "internalType": "string",
                  "name": "city",
                  "type": "string"
                }
              ],
              "internalType": "struct Decentra.Profile",
              "name": "profile",
              "type": "tuple"
            },
            {
              "internalType": "string",
              "name": "occupation",
              "type": "string"
            },
            {
              "internalType": "string",
              "name": "date_joined",
              "type": "string"
            },
            {
              "internalType": "uint256",
              "name": "followers",
              "type": "uint256"
            },
            {
              "internalType": "uint256",
              "name": "following",
              "type": "uint256"
            },
            {
              "internalType": "uint256[]",
              "name": "user_following",
              "type": "uint256[]"
            },
            {
              "internalType": "uint256[]",
              "name": "user_followed",
              "type": "uint256[]"
            }
          ],
          "internalType": "struct Decentra.user",
          "name": "",
          "type": "tuple"
        }
      ],
      "stateMutability": "view",
      "type": "function",
      "constant": true
    }
  ],
  "bytecode": "0x608060405234801561001057600080fd5b50336000806101000a81548173ffffffffffffffffffffffffffffffffffffffff021916908373ffffffffffffffffffffffffffffffffffffffff16021790555061155d806100606000396000f3fe608060405234801561001057600080fd5b50600436106100415760003560e01c806345e09be5146100465780636f77926b146100625780638da5cb5b14610092575b600080fd5b610060600480360381019061005b9190610d75565b6100b0565b005b61007c60048036038101906100779190610f01565b610211565b60405161008991906111fd565b60405180910390f35b61009a61086f565b6040516100a7919061122e565b60405180910390f35b6000600160003373ffffffffffffffffffffffffffffffffffffffff1673ffffffffffffffffffffffffffffffffffffffff16815260200190815260200160002090508781600001600082015181600001908161010d9190611455565b5060208201518160010190816101239190611455565b5060408201518160020190816101399190611455565b506060820151816003015560808201518160040190816101599190611455565b5060a082015181600501908161016f9190611455565b5060c08201518160060190816101859190611455565b5060e082015181600701908161019b9190611455565b50905050868160080190816101b09190611455565b50858160090190816101c29190611455565b508481600a01819055508381600b01819055508281600c0190805190602001906101ed929190610893565b508181600d019080519060200190610206929190610893565b505050505050505050565b6102196108e0565b600160008373ffffffffffffffffffffffffffffffffffffffff1673ffffffffffffffffffffffffffffffffffffffff1681526020019081526020016000206040518060e0016040529081600082016040518061010001604052908160008201805461028490611278565b80601f01602080910402602001604051908101604052809291908181526020018280546102b090611278565b80156102fd5780601f106102d2576101008083540402835291602001916102fd565b820191906000526020600020905b8154815290600101906020018083116102e057829003601f168201915b5050505050815260200160018201805461031690611278565b80601f016020809104026020016040519081016040528092919081815260200182805461034290611278565b801561038f5780601f106103645761010080835404028352916020019161038f565b820191906000526020600020905b81548152906001019060200180831161037257829003601f168201915b505050505081526020016002820180546103a890611278565b80601f01602080910402602001604051908101604052809291908181526020018280546103d490611278565b80156104215780601f106103f657610100808354040283529160200191610421565b820191906000526020600020905b81548152906001019060200180831161040457829003601f168201915b505050505081526020016003820154815260200160048201805461044490611278565b80601f016020809104026020016040519081016040528092919081815260200182805461047090611278565b80156104bd5780601f10610492576101008083540402835291602001916104bd565b820191906000526020600020905b8154815290600101906020018083116104a057829003601f168201915b505050505081526020016005820180546104d690611278565b80601f016020809104026020016040519081016040528092919081815260200182805461050290611278565b801561054f5780601f106105245761010080835404028352916020019161054f565b820191906000526020600020905b81548152906001019060200180831161053257829003601f168201915b5050505050815260200160068201805461056890611278565b80601f016020809104026020016040519081016040528092919081815260200182805461059490611278565b80156105e15780601f106105b6576101008083540402835291602001916105e1565b820191906000526020600020905b8154815290600101906020018083116105c457829003601f168201915b505050505081526020016007820180546105fa90611278565b80601f016020809104026020016040519081016040528092919081815260200182805461062690611278565b80156106735780601f1061064857610100808354040283529160200191610673565b820191906000526020600020905b81548152906001019060200180831161065657829003601f168201915b505050505081525050815260200160088201805461069090611278565b80601f01602080910402602001604051908101604052809291908181526020018280546106bc90611278565b80156107095780601f106106de57610100808354040283529160200191610709565b820191906000526020600020905b8154815290600101906020018083116106ec57829003601f168201915b5050505050815260200160098201805461072290611278565b80601f016020809104026020016040519081016040528092919081815260200182805461074e90611278565b801561079b5780601f106107705761010080835404028352916020019161079b565b820191906000526020600020905b81548152906001019060200180831161077e57829003601f168201915b50505050508152602001600a8201548152602001600b8201548152602001600c820180548060200260200160405190810160405280929190818152602001828054801561080757602002820191906000526020600020905b8154815260200190600101908083116107f3575b50505050508152602001600d820180548060200260200160405190810160405280929190818152602001828054801561085f57602002820191906000526020600020905b81548152602001906001019080831161084b575b5050505050815250509050919050565b60008054906101000a900473ffffffffffffffffffffffffffffffffffffffff1681565b8280548282559060005260206000209081019282156108cf579160200282015b828111156108ce5782518255916020019190600101906108b3565b5b5090506108dc9190610923565b5090565b6040518060e001604052806108f3610940565b81526020016060815260200160608152602001600081526020016000815260200160608152602001606081525090565b5b8082111561093c576000816000905550600101610924565b5090565b60405180610100016040528060608152602001606081526020016060815260200160008152602001606081526020016060815260200160608152602001606081525090565b6000604051905090565b600080fd5b600080fd5b600080fd5b6000601f19601f8301169050919050565b7f4e487b7100000000000000000000000000000000000000000000000000000000600052604160045260246000fd5b6109e78261099e565b810181811067ffffffffffffffff82111715610a0657610a056109af565b5b80604052505050565b6000610a19610985565b9050610a2582826109de565b919050565b600080fd5b600080fd5b600080fd5b600067ffffffffffffffff821115610a5457610a536109af565b5b610a5d8261099e565b9050602081019050919050565b82818337600083830152505050565b6000610a8c610a8784610a39565b610a0f565b905082815260208101848484011115610aa857610aa7610a34565b5b610ab3848285610a6a565b509392505050565b600082601f830112610ad057610acf610a2f565b5b8135610ae0848260208601610a79565b91505092915050565b6000819050919050565b610afc81610ae9565b8114610b0757600080fd5b50565b600081359050610b1981610af3565b92915050565b60006101008284031215610b3657610b35610999565b5b610b41610100610a0f565b9050600082013567ffffffffffffffff811115610b6157610b60610a2a565b5b610b6d84828501610abb565b600083015250602082013567ffffffffffffffff811115610b9157610b90610a2a565b5b610b9d84828501610abb565b602083015250604082013567ffffffffffffffff811115610bc157610bc0610a2a565b5b610bcd84828501610abb565b6040830152506060610be184828501610b0a565b606083015250608082013567ffffffffffffffff811115610c0557610c04610a2a565b5b610c1184828501610abb565b60808301525060a082013567ffffffffffffffff811115610c3557610c34610a2a565b5b610c4184828501610abb565b60a08301525060c082013567ffffffffffffffff811115610c6557610c64610a2a565b5b610c7184828501610abb565b60c08301525060e082013567ffffffffffffffff811115610c9557610c94610a2a565b5b610ca184828501610abb565b60e08301525092915050565b600067ffffffffffffffff821115610cc857610cc76109af565b5b602082029050602081019050919050565b600080fd5b6000610cf1610cec84610cad565b610a0f565b90508083825260208201905060208402830185811115610d1457610d13610cd9565b5b835b81811015610d3d5780610d298882610b0a565b845260208401935050602081019050610d16565b5050509392505050565b600082601f830112610d5c57610d5b610a2f565b5b8135610d6c848260208601610cde565b91505092915050565b600080600080600080600060e0888a031215610d9457610d9361098f565b5b600088013567ffffffffffffffff811115610db257610db1610994565b5b610dbe8a828b01610b1f565b975050602088013567ffffffffffffffff811115610ddf57610dde610994565b5b610deb8a828b01610abb565b965050604088013567ffffffffffffffff811115610e0c57610e0b610994565b5b610e188a828b01610abb565b9550506060610e298a828b01610b0a565b9450506080610e3a8a828b01610b0a565b93505060a088013567ffffffffffffffff811115610e5b57610e5a610994565b5b610e678a828b01610d47565b92505060c088013567ffffffffffffffff811115610e8857610e87610994565b5b610e948a828b01610d47565b91505092959891949750929550565b600073ffffffffffffffffffffffffffffffffffffffff82169050919050565b6000610ece82610ea3565b9050919050565b610ede81610ec3565b8114610ee957600080fd5b50565b600081359050610efb81610ed5565b92915050565b600060208284031215610f1757610f1661098f565b5b6000610f2584828501610eec565b91505092915050565b600081519050919050565b600082825260208201905092915050565b60005b83811015610f68578082015181840152602081019050610f4d565b60008484015250505050565b6000610f7f82610f2e565b610f898185610f39565b9350610f99818560208601610f4a565b610fa28161099e565b840191505092915050565b610fb681610ae9565b82525050565b6000610100830160008301518482036000860152610fda8282610f74565b91505060208301518482036020860152610ff48282610f74565b9150506040830151848203604086015261100e8282610f74565b91505060608301516110236060860182610fad565b506080830151848203608086015261103b8282610f74565b91505060a083015184820360a08601526110558282610f74565b91505060c083015184820360c086015261106f8282610f74565b91505060e083015184820360e08601526110898282610f74565b9150508091505092915050565b600081519050919050565b600082825260208201905092915050565b6000819050602082019050919050565b60006110ce8383610fad565b60208301905092915050565b6000602082019050919050565b60006110f282611096565b6110fc81856110a1565b9350611107836110b2565b8060005b8381101561113857815161111f88826110c2565b975061112a836110da565b92505060018101905061110b565b5085935050505092915050565b600060e08301600083015184820360008601526111628282610fbc565b9150506020830151848203602086015261117c8282610f74565b915050604083015184820360408601526111968282610f74565b91505060608301516111ab6060860182610fad565b5060808301516111be6080860182610fad565b5060a083015184820360a08601526111d682826110e7565b91505060c083015184820360c08601526111f082826110e7565b9150508091505092915050565b600060208201905081810360008301526112178184611145565b905092915050565b61122881610ec3565b82525050565b6000602082019050611243600083018461121f565b92915050565b7f4e487b7100000000000000000000000000000000000000000000000000000000600052602260045260246000fd5b6000600282049050600182168061129057607f821691505b6020821081036112a3576112a2611249565b5b50919050565b60008190508160005260206000209050919050565b60006020601f8301049050919050565b600082821b905092915050565b60006008830261130b7fffffffffffffffffffffffffffffffffffffffffffffffffffffffffffffffff826112ce565b61131586836112ce565b95508019841693508086168417925050509392505050565b6000819050919050565b600061135261134d61134884610ae9565b61132d565b610ae9565b9050919050565b6000819050919050565b61136c83611337565b61138061137882611359565b8484546112db565b825550505050565b600090565b611395611388565b6113a0818484611363565b505050565b5b818110156113c4576113b960008261138d565b6001810190506113a6565b5050565b601f821115611409576113da816112a9565b6113e3846112be565b810160208510156113f2578190505b6114066113fe856112be565b8301826113a5565b50505b505050565b600082821c905092915050565b600061142c6000198460080261140e565b1980831691505092915050565b6000611445838361141b565b9150826002028217905092915050565b61145e82610f2e565b67ffffffffffffffff811115611477576114766109af565b5b6114818254611278565b61148c8282856113c8565b600060209050601f8311600181146114bf57600084156114ad578287015190505b6114b78582611439565b86555061151f565b601f1984166114cd866112a9565b60005b828110156114f5578489015182556001820191506020850194506020810190506114d0565b86831015611512578489015161150e601f89168261141b565b8355505b6001600288020188555050505b50505050505056fea264697066735822122071a25e79149a4b0197f73e6bc4e4007152b4016aa3184e0b98a4266be2b81cf864736f6c63430008130033",
  "immutableReferences": {},
  "source": "// SPDX-License-Identifier: UNLICENSED\r\npragma solidity ^0.8.17;\r\n\r\ncontract Decentra {\r\n    address public owner;\r\n\r\n    constructor() {\r\n        owner = msg.sender;\r\n    }\r\n\r\n    struct Profile {\r\n        string name;\r\n        string avatar;\r\n        string banner;\r\n        uint256 age;\r\n        string gender;\r\n        string status;\r\n        string country;\r\n        string city;\r\n    }\r\n    struct user {\r\n        Profile profile;\r\n        string occupation;\r\n        string date_joined;\r\n        uint256 followers;\r\n        uint256 following;\r\n        uint256[] user_following;\r\n        uint256[] user_followed;\r\n    }\r\n\r\n    mapping (address => user) Users;\r\n\r\n    // function addUser (\r\n    //     Profile memory _profile,\r\n    //     string memory _occupation,\r\n    //     string memory _date_joined,\r\n    //     uint256 _followers,\r\n    //     uint256 _following,\r\n    //     uint256[] memory _user_following,\r\n    //     uint256[] memory _user_followed\r\n    // ) public {\r\n    //     user memory newUser = user(\r\n    //     _profile,\r\n    //     _occupation,\r\n    //     _date_joined,\r\n    //     _followers,\r\n    //     _following,\r\n    //     _user_following,\r\n    //     _user_followed\r\n    // );\r\n\r\n    // Users[msg.sender] = newUser;\r\n    // }\r\n\r\n    function updateUser (\r\n        Profile memory _profile,\r\n        string memory _occupation,\r\n        string memory _date_joined,\r\n        uint256 _followers,\r\n        uint256 _following,\r\n        uint256[] memory _user_following,\r\n        uint256[] memory _user_followed\r\n    ) public {\r\n        user storage userData = Users[msg.sender];\r\n        userData.profile = _profile;\r\n        userData.occupation = _occupation;\r\n        userData.date_joined = _date_joined;\r\n        userData.followers = _followers;\r\n        userData.following = _following;\r\n        userData.user_following = _user_following;\r\n        userData.user_followed = _user_followed;\r\n    }\r\n\r\n    function getUser(address userAddress) public view returns (user memory) {\r\n        return Users[userAddress];\r\n    }\r\n}",
  "sourcePath": "D:\\Docs\\Engineering\\Src\\Web\\FYP\\Code\\decentra\\contracts\\Decentra.sol",
  "compiler": {
    "name": "solc",
    "version": "0.8.19+commit.7dd6d404.Emscripten.clang"
  },
  "schemaVersion": "3.4.13",
  "updatedAt": "2023-05-19T09:54:24.361Z",
  "networkType": "ethereum",
  "devdoc": {
    "kind": "dev",
    "methods": {},
    "version": 1
  },
  "userdoc": {
    "kind": "user",
    "methods": {},
    "version": 1
  }
}