{
  "contractName": "Decentra",
  "abi": [
    {
      "inputs": [],
      "stateMutability": "nonpayable",
      "type": "constructor"
    },
    {
      "inputs": [],
      "name": "owner",
      "outputs": [
        {
          "internalType": "address",
          "name": "",
          "type": "address"
        }
      ],
      "stateMutability": "view",
      "type": "function",
      "constant": true
    },
    {
      "inputs": [
        {
          "components": [
            {
              "internalType": "address",
              "name": "userAddress",
              "type": "address"
            },
            {
              "components": [
                {
                  "internalType": "string",
                  "name": "name",
                  "type": "string"
                },
                {
                  "internalType": "string",
                  "name": "avatar",
                  "type": "string"
                },
                {
                  "internalType": "string",
                  "name": "banner",
                  "type": "string"
                },
                {
                  "internalType": "uint256",
                  "name": "age",
                  "type": "uint256"
                },
                {
                  "internalType": "string",
                  "name": "gender",
                  "type": "string"
                },
                {
                  "internalType": "string",
                  "name": "status",
                  "type": "string"
                },
                {
                  "internalType": "string",
                  "name": "country",
                  "type": "string"
                },
                {
                  "internalType": "string",
                  "name": "city",
                  "type": "string"
                }
              ],
              "internalType": "struct Decentra.Profile",
              "name": "profile",
              "type": "tuple"
            },
            {
              "internalType": "string",
              "name": "occupation",
              "type": "string"
            },
            {
              "internalType": "string",
              "name": "date_joined",
              "type": "string"
            },
            {
              "internalType": "uint256",
              "name": "followers",
              "type": "uint256"
            },
            {
              "internalType": "uint256",
              "name": "following",
              "type": "uint256"
            },
            {
              "internalType": "address[]",
              "name": "user_following",
              "type": "address[]"
            },
            {
              "internalType": "address[]",
              "name": "user_followed",
              "type": "address[]"
            }
          ],
          "internalType": "struct Decentra.user",
          "name": "_user",
          "type": "tuple"
        }
      ],
      "name": "createUser",
      "outputs": [],
      "stateMutability": "nonpayable",
      "type": "function"
    },
    {
      "inputs": [
        {
          "components": [
            {
              "internalType": "address",
              "name": "userAddress",
              "type": "address"
            },
            {
              "components": [
                {
                  "internalType": "string",
                  "name": "name",
                  "type": "string"
                },
                {
                  "internalType": "string",
                  "name": "avatar",
                  "type": "string"
                },
                {
                  "internalType": "string",
                  "name": "banner",
                  "type": "string"
                },
                {
                  "internalType": "uint256",
                  "name": "age",
                  "type": "uint256"
                },
                {
                  "internalType": "string",
                  "name": "gender",
                  "type": "string"
                },
                {
                  "internalType": "string",
                  "name": "status",
                  "type": "string"
                },
                {
                  "internalType": "string",
                  "name": "country",
                  "type": "string"
                },
                {
                  "internalType": "string",
                  "name": "city",
                  "type": "string"
                }
              ],
              "internalType": "struct Decentra.Profile",
              "name": "profile",
              "type": "tuple"
            },
            {
              "internalType": "string",
              "name": "occupation",
              "type": "string"
            },
            {
              "internalType": "string",
              "name": "date_joined",
              "type": "string"
            },
            {
              "internalType": "uint256",
              "name": "followers",
              "type": "uint256"
            },
            {
              "internalType": "uint256",
              "name": "following",
              "type": "uint256"
            },
            {
              "internalType": "address[]",
              "name": "user_following",
              "type": "address[]"
            },
            {
              "internalType": "address[]",
              "name": "user_followed",
              "type": "address[]"
            }
          ],
          "internalType": "struct Decentra.user",
          "name": "_user",
          "type": "tuple"
        }
      ],
      "name": "updateUser",
      "outputs": [],
      "stateMutability": "nonpayable",
      "type": "function"
    },
    {
      "inputs": [
        {
          "internalType": "address",
          "name": "userAddress",
          "type": "address"
        }
      ],
      "name": "getUser",
      "outputs": [
        {
          "components": [
            {
              "internalType": "address",
              "name": "userAddress",
              "type": "address"
            },
            {
              "components": [
                {
                  "internalType": "string",
                  "name": "name",
                  "type": "string"
                },
                {
                  "internalType": "string",
                  "name": "avatar",
                  "type": "string"
                },
                {
                  "internalType": "string",
                  "name": "banner",
                  "type": "string"
                },
                {
                  "internalType": "uint256",
                  "name": "age",
                  "type": "uint256"
                },
                {
                  "internalType": "string",
                  "name": "gender",
                  "type": "string"
                },
                {
                  "internalType": "string",
                  "name": "status",
                  "type": "string"
                },
                {
                  "internalType": "string",
                  "name": "country",
                  "type": "string"
                },
                {
                  "internalType": "string",
                  "name": "city",
                  "type": "string"
                }
              ],
              "internalType": "struct Decentra.Profile",
              "name": "profile",
              "type": "tuple"
            },
            {
              "internalType": "string",
              "name": "occupation",
              "type": "string"
            },
            {
              "internalType": "string",
              "name": "date_joined",
              "type": "string"
            },
            {
              "internalType": "uint256",
              "name": "followers",
              "type": "uint256"
            },
            {
              "internalType": "uint256",
              "name": "following",
              "type": "uint256"
            },
            {
              "internalType": "address[]",
              "name": "user_following",
              "type": "address[]"
            },
            {
              "internalType": "address[]",
              "name": "user_followed",
              "type": "address[]"
            }
          ],
          "internalType": "struct Decentra.user",
          "name": "",
          "type": "tuple"
        }
      ],
      "stateMutability": "view",
      "type": "function",
      "constant": true
    },
    {
      "inputs": [],
      "name": "getAllUsers",
      "outputs": [
        {
          "components": [
            {
              "internalType": "address",
              "name": "userAddress",
              "type": "address"
            },
            {
              "components": [
                {
                  "internalType": "string",
                  "name": "name",
                  "type": "string"
                },
                {
                  "internalType": "string",
                  "name": "avatar",
                  "type": "string"
                },
                {
                  "internalType": "string",
                  "name": "banner",
                  "type": "string"
                },
                {
                  "internalType": "uint256",
                  "name": "age",
                  "type": "uint256"
                },
                {
                  "internalType": "string",
                  "name": "gender",
                  "type": "string"
                },
                {
                  "internalType": "string",
                  "name": "status",
                  "type": "string"
                },
                {
                  "internalType": "string",
                  "name": "country",
                  "type": "string"
                },
                {
                  "internalType": "string",
                  "name": "city",
                  "type": "string"
                }
              ],
              "internalType": "struct Decentra.Profile",
              "name": "profile",
              "type": "tuple"
            },
            {
              "internalType": "string",
              "name": "occupation",
              "type": "string"
            },
            {
              "internalType": "string",
              "name": "date_joined",
              "type": "string"
            },
            {
              "internalType": "uint256",
              "name": "followers",
              "type": "uint256"
            },
            {
              "internalType": "uint256",
              "name": "following",
              "type": "uint256"
            },
            {
              "internalType": "address[]",
              "name": "user_following",
              "type": "address[]"
            },
            {
              "internalType": "address[]",
              "name": "user_followed",
              "type": "address[]"
            }
          ],
          "internalType": "struct Decentra.user[]",
          "name": "",
          "type": "tuple[]"
        }
      ],
      "stateMutability": "view",
      "type": "function",
      "constant": true
    },
    {
      "inputs": [
        {
          "internalType": "address",
          "name": "userAddress",
          "type": "address"
        }
      ],
      "name": "follow",
      "outputs": [],
      "stateMutability": "nonpayable",
      "type": "function"
    },
    {
      "inputs": [
        {
          "internalType": "address",
          "name": "userAddress",
          "type": "address"
        }
      ],
      "name": "unfollow",
      "outputs": [],
      "stateMutability": "nonpayable",
      "type": "function"
    }
  ],
  "bytecode": "0x608060405234801561001057600080fd5b50336000806101000a81548173ffffffffffffffffffffffffffffffffffffffff021916908373ffffffffffffffffffffffffffffffffffffffff1602179055506129f4806100606000396000f3fe608060405234801561001057600080fd5b506004361061007d5760003560e01c80638da5cb5b1161005b5780638da5cb5b146100ea578063b4dd1bfd14610108578063dc77fe5014610124578063e2842d79146101405761007d565b8063015a4ead146100825780634dbf27cc1461009e5780636f77926b146100ba575b600080fd5b61009c60048036038101906100979190611b41565b61015e565b005b6100b860048036038101906100b39190611b41565b61052d565b005b6100d460048036038101906100cf9190611b41565b610676565b6040516100e19190611e7b565b60405180910390f35b6100f2610d97565b6040516100ff9190611eac565b60405180910390f35b610122600480360381019061011d91906123de565b610dbb565b005b61013e600480360381019061013991906123de565b610fd4565b005b61014861118a565b60405161015591906125b5565b60405180910390f35b6000600160003373ffffffffffffffffffffffffffffffffffffffff1673ffffffffffffffffffffffffffffffffffffffff168152602001908152602001600020600d0190506000600160008473ffffffffffffffffffffffffffffffffffffffff1673ffffffffffffffffffffffffffffffffffffffff168152602001908152602001600020600e01905060005b8280549050811015610388578373ffffffffffffffffffffffffffffffffffffffff16838281548110610223576102226125d7565b5b9060005260206000200160009054906101000a900473ffffffffffffffffffffffffffffffffffffffff1673ffffffffffffffffffffffffffffffffffffffff1603610375576001838054905061027a9190612635565b811461032a5782600184805490506102929190612635565b815481106102a3576102a26125d7565b5b9060005260206000200160009054906101000a900473ffffffffffffffffffffffffffffffffffffffff168382815481106102e1576102e06125d7565b5b9060005260206000200160006101000a81548173ffffffffffffffffffffffffffffffffffffffff021916908373ffffffffffffffffffffffffffffffffffffffff1602179055505b8280548061033b5761033a612669565b5b6001900381819060005260206000200160006101000a81549073ffffffffffffffffffffffffffffffffffffffff02191690559055610388565b808061038090612698565b9150506101ed565b5060005b8180549050811015610527573373ffffffffffffffffffffffffffffffffffffffff168282815481106103c2576103c16125d7565b5b9060005260206000200160009054906101000a900473ffffffffffffffffffffffffffffffffffffffff1673ffffffffffffffffffffffffffffffffffffffff160361051457600182805490506104199190612635565b81146104c95781600183805490506104319190612635565b81548110610442576104416125d7565b5b9060005260206000200160009054906101000a900473ffffffffffffffffffffffffffffffffffffffff168282815481106104805761047f6125d7565b5b9060005260206000200160006101000a81548173ffffffffffffffffffffffffffffffffffffffff021916908373ffffffffffffffffffffffffffffffffffffffff1602179055505b818054806104da576104d9612669565b5b6001900381819060005260206000200160006101000a81549073ffffffffffffffffffffffffffffffffffffffff02191690559055610527565b808061051f90612698565b91505061038c565b50505050565b600160003373ffffffffffffffffffffffffffffffffffffffff1673ffffffffffffffffffffffffffffffffffffffff168152602001908152602001600020600d01819080600181540180825580915050600190039060005260206000200160009091909190916101000a81548173ffffffffffffffffffffffffffffffffffffffff021916908373ffffffffffffffffffffffffffffffffffffffff160217905550600160008273ffffffffffffffffffffffffffffffffffffffff1673ffffffffffffffffffffffffffffffffffffffff168152602001908152602001600020600e01339080600181540180825580915050600190039060005260206000200160009091909190916101000a81548173ffffffffffffffffffffffffffffffffffffffff021916908373ffffffffffffffffffffffffffffffffffffffff16021790555050565b61067e611982565b600160008373ffffffffffffffffffffffffffffffffffffffff1673ffffffffffffffffffffffffffffffffffffffff168152602001908152602001600020604051806101000160405290816000820160009054906101000a900473ffffffffffffffffffffffffffffffffffffffff1673ffffffffffffffffffffffffffffffffffffffff1673ffffffffffffffffffffffffffffffffffffffff16815260200160018201604051806101000160405290816000820180546107409061270f565b80601f016020809104026020016040519081016040528092919081815260200182805461076c9061270f565b80156107b95780601f1061078e576101008083540402835291602001916107b9565b820191906000526020600020905b81548152906001019060200180831161079c57829003601f168201915b505050505081526020016001820180546107d29061270f565b80601f01602080910402602001604051908101604052809291908181526020018280546107fe9061270f565b801561084b5780601f106108205761010080835404028352916020019161084b565b820191906000526020600020905b81548152906001019060200180831161082e57829003601f168201915b505050505081526020016002820180546108649061270f565b80601f01602080910402602001604051908101604052809291908181526020018280546108909061270f565b80156108dd5780601f106108b2576101008083540402835291602001916108dd565b820191906000526020600020905b8154815290600101906020018083116108c057829003601f168201915b50505050508152602001600382015481526020016004820180546109009061270f565b80601f016020809104026020016040519081016040528092919081815260200182805461092c9061270f565b80156109795780601f1061094e57610100808354040283529160200191610979565b820191906000526020600020905b81548152906001019060200180831161095c57829003601f168201915b505050505081526020016005820180546109929061270f565b80601f01602080910402602001604051908101604052809291908181526020018280546109be9061270f565b8015610a0b5780601f106109e057610100808354040283529160200191610a0b565b820191906000526020600020905b8154815290600101906020018083116109ee57829003601f168201915b50505050508152602001600682018054610a249061270f565b80601f0160208091040260200160405190810160405280929190818152602001828054610a509061270f565b8015610a9d5780601f10610a7257610100808354040283529160200191610a9d565b820191906000526020600020905b815481529060010190602001808311610a8057829003601f168201915b50505050508152602001600782018054610ab69061270f565b80601f0160208091040260200160405190810160405280929190818152602001828054610ae29061270f565b8015610b2f5780601f10610b0457610100808354040283529160200191610b2f565b820191906000526020600020905b815481529060010190602001808311610b1257829003601f168201915b5050505050815250508152602001600982018054610b4c9061270f565b80601f0160208091040260200160405190810160405280929190818152602001828054610b789061270f565b8015610bc55780601f10610b9a57610100808354040283529160200191610bc5565b820191906000526020600020905b815481529060010190602001808311610ba857829003601f168201915b50505050508152602001600a82018054610bde9061270f565b80601f0160208091040260200160405190810160405280929190818152602001828054610c0a9061270f565b8015610c575780601f10610c2c57610100808354040283529160200191610c57565b820191906000526020600020905b815481529060010190602001808311610c3a57829003601f168201915b50505050508152602001600b8201548152602001600c8201548152602001600d8201805480602002602001604051908101604052809291908181526020018280548015610cf957602002820191906000526020600020905b8160009054906101000a900473ffffffffffffffffffffffffffffffffffffffff1673ffffffffffffffffffffffffffffffffffffffff1681526020019060010190808311610caf575b50505050508152602001600e8201805480602002602001604051908101604052809291908181526020018280548015610d8757602002820191906000526020600020905b8160009054906101000a900473ffffffffffffffffffffffffffffffffffffffff1673ffffffffffffffffffffffffffffffffffffffff1681526020019060010190808311610d3d575b5050505050815250509050919050565b60008054906101000a900473ffffffffffffffffffffffffffffffffffffffff1681565b80600160003373ffffffffffffffffffffffffffffffffffffffff1673ffffffffffffffffffffffffffffffffffffffff16815260200190815260200160002060008201518160000160006101000a81548173ffffffffffffffffffffffffffffffffffffffff021916908373ffffffffffffffffffffffffffffffffffffffff1602179055506020820151816001016000820151816000019081610e6091906128ec565b506020820151816001019081610e7691906128ec565b506040820151816002019081610e8c91906128ec565b50606082015181600301556080820151816004019081610eac91906128ec565b5060a0820151816005019081610ec291906128ec565b5060c0820151816006019081610ed891906128ec565b5060e0820151816007019081610eee91906128ec565b5050506040820151816009019081610f0691906128ec565b50606082015181600a019081610f1c91906128ec565b50608082015181600b015560a082015181600c015560c082015181600d019080519060200190610f4d9291906119e3565b5060e082015181600e019080519060200190610f6a9291906119e3565b509050506002339080600181540180825580915050600190039060005260206000200160009091909190916101000a81548173ffffffffffffffffffffffffffffffffffffffff021916908373ffffffffffffffffffffffffffffffffffffffff16021790555050565b80600160003373ffffffffffffffffffffffffffffffffffffffff1673ffffffffffffffffffffffffffffffffffffffff16815260200190815260200160002060008201518160000160006101000a81548173ffffffffffffffffffffffffffffffffffffffff021916908373ffffffffffffffffffffffffffffffffffffffff160217905550602082015181600101600082015181600001908161107991906128ec565b50602082015181600101908161108f91906128ec565b5060408201518160020190816110a591906128ec565b506060820151816003015560808201518160040190816110c591906128ec565b5060a08201518160050190816110db91906128ec565b5060c08201518160060190816110f191906128ec565b5060e082015181600701908161110791906128ec565b505050604082015181600901908161111f91906128ec565b50606082015181600a01908161113591906128ec565b50608082015181600b015560a082015181600c015560c082015181600d0190805190602001906111669291906119e3565b5060e082015181600e0190805190602001906111839291906119e3565b5090505050565b6060600060028054905067ffffffffffffffff8111156111ad576111ac611ecc565b5b6040519080825280602002602001820160405280156111e657816020015b6111d3611982565b8152602001906001900390816111cb5790505b50905060005b60028054905081101561197a576001600060028381548110611211576112106125d7565b5b9060005260206000200160009054906101000a900473ffffffffffffffffffffffffffffffffffffffff1673ffffffffffffffffffffffffffffffffffffffff1673ffffffffffffffffffffffffffffffffffffffff168152602001908152602001600020604051806101000160405290816000820160009054906101000a900473ffffffffffffffffffffffffffffffffffffffff1673ffffffffffffffffffffffffffffffffffffffff1673ffffffffffffffffffffffffffffffffffffffff16815260200160018201604051806101000160405290816000820180546112f99061270f565b80601f01602080910402602001604051908101604052809291908181526020018280546113259061270f565b80156113725780601f1061134757610100808354040283529160200191611372565b820191906000526020600020905b81548152906001019060200180831161135557829003601f168201915b5050505050815260200160018201805461138b9061270f565b80601f01602080910402602001604051908101604052809291908181526020018280546113b79061270f565b80156114045780601f106113d957610100808354040283529160200191611404565b820191906000526020600020905b8154815290600101906020018083116113e757829003601f168201915b5050505050815260200160028201805461141d9061270f565b80601f01602080910402602001604051908101604052809291908181526020018280546114499061270f565b80156114965780601f1061146b57610100808354040283529160200191611496565b820191906000526020600020905b81548152906001019060200180831161147957829003601f168201915b50505050508152602001600382015481526020016004820180546114b99061270f565b80601f01602080910402602001604051908101604052809291908181526020018280546114e59061270f565b80156115325780601f1061150757610100808354040283529160200191611532565b820191906000526020600020905b81548152906001019060200180831161151557829003601f168201915b5050505050815260200160058201805461154b9061270f565b80601f01602080910402602001604051908101604052809291908181526020018280546115779061270f565b80156115c45780601f10611599576101008083540402835291602001916115c4565b820191906000526020600020905b8154815290600101906020018083116115a757829003601f168201915b505050505081526020016006820180546115dd9061270f565b80601f01602080910402602001604051908101604052809291908181526020018280546116099061270f565b80156116565780601f1061162b57610100808354040283529160200191611656565b820191906000526020600020905b81548152906001019060200180831161163957829003601f168201915b5050505050815260200160078201805461166f9061270f565b80601f016020809104026020016040519081016040528092919081815260200182805461169b9061270f565b80156116e85780601f106116bd576101008083540402835291602001916116e8565b820191906000526020600020905b8154815290600101906020018083116116cb57829003601f168201915b50505050508152505081526020016009820180546117059061270f565b80601f01602080910402602001604051908101604052809291908181526020018280546117319061270f565b801561177e5780601f106117535761010080835404028352916020019161177e565b820191906000526020600020905b81548152906001019060200180831161176157829003601f168201915b50505050508152602001600a820180546117979061270f565b80601f01602080910402602001604051908101604052809291908181526020018280546117c39061270f565b80156118105780601f106117e557610100808354040283529160200191611810565b820191906000526020600020905b8154815290600101906020018083116117f357829003601f168201915b50505050508152602001600b8201548152602001600c8201548152602001600d82018054806020026020016040519081016040528092919081815260200182805480156118b257602002820191906000526020600020905b8160009054906101000a900473ffffffffffffffffffffffffffffffffffffffff1673ffffffffffffffffffffffffffffffffffffffff1681526020019060010190808311611868575b50505050508152602001600e820180548060200260200160405190810160405280929190818152602001828054801561194057602002820191906000526020600020905b8160009054906101000a900473ffffffffffffffffffffffffffffffffffffffff1673ffffffffffffffffffffffffffffffffffffffff16815260200190600101908083116118f6575b50505050508152505082828151811061195c5761195b6125d7565b5b6020026020010181905250808061197290612698565b9150506111ec565b508091505090565b604051806101000160405280600073ffffffffffffffffffffffffffffffffffffffff1681526020016119b3611a6d565b81526020016060815260200160608152602001600081526020016000815260200160608152602001606081525090565b828054828255906000526020600020908101928215611a5c579160200282015b82811115611a5b5782518260006101000a81548173ffffffffffffffffffffffffffffffffffffffff021916908373ffffffffffffffffffffffffffffffffffffffff16021790555091602001919060010190611a03565b5b509050611a699190611ab2565b5090565b60405180610100016040528060608152602001606081526020016060815260200160008152602001606081526020016060815260200160608152602001606081525090565b5b80821115611acb576000816000905550600101611ab3565b5090565b6000604051905090565b600080fd5b600080fd5b600073ffffffffffffffffffffffffffffffffffffffff82169050919050565b6000611b0e82611ae3565b9050919050565b611b1e81611b03565b8114611b2957600080fd5b50565b600081359050611b3b81611b15565b92915050565b600060208284031215611b5757611b56611ad9565b5b6000611b6584828501611b2c565b91505092915050565b611b7781611b03565b82525050565b600081519050919050565b600082825260208201905092915050565b60005b83811015611bb7578082015181840152602081019050611b9c565b60008484015250505050565b6000601f19601f8301169050919050565b6000611bdf82611b7d565b611be98185611b88565b9350611bf9818560208601611b99565b611c0281611bc3565b840191505092915050565b6000819050919050565b611c2081611c0d565b82525050565b6000610100830160008301518482036000860152611c448282611bd4565b91505060208301518482036020860152611c5e8282611bd4565b91505060408301518482036040860152611c788282611bd4565b9150506060830151611c8d6060860182611c17565b5060808301518482036080860152611ca58282611bd4565b91505060a083015184820360a0860152611cbf8282611bd4565b91505060c083015184820360c0860152611cd98282611bd4565b91505060e083015184820360e0860152611cf38282611bd4565b9150508091505092915050565b600081519050919050565b600082825260208201905092915050565b6000819050602082019050919050565b6000611d388383611b6e565b60208301905092915050565b6000602082019050919050565b6000611d5c82611d00565b611d668185611d0b565b9350611d7183611d1c565b8060005b83811015611da2578151611d898882611d2c565b9750611d9483611d44565b925050600181019050611d75565b5085935050505092915050565b600061010083016000830151611dc86000860182611b6e565b5060208301518482036020860152611de08282611c26565b91505060408301518482036040860152611dfa8282611bd4565b91505060608301518482036060860152611e148282611bd4565b9150506080830151611e296080860182611c17565b5060a0830151611e3c60a0860182611c17565b5060c083015184820360c0860152611e548282611d51565b91505060e083015184820360e0860152611e6e8282611d51565b9150508091505092915050565b60006020820190508181036000830152611e958184611daf565b905092915050565b611ea681611b03565b82525050565b6000602082019050611ec16000830184611e9d565b92915050565b600080fd5b7f4e487b7100000000000000000000000000000000000000000000000000000000600052604160045260246000fd5b611f0482611bc3565b810181811067ffffffffffffffff82111715611f2357611f22611ecc565b5b80604052505050565b6000611f36611acf565b9050611f428282611efb565b919050565b600080fd5b600080fd5b600080fd5b600067ffffffffffffffff821115611f7157611f70611ecc565b5b611f7a82611bc3565b9050602081019050919050565b82818337600083830152505050565b6000611fa9611fa484611f56565b611f2c565b905082815260208101848484011115611fc557611fc4611f51565b5b611fd0848285611f87565b509392505050565b600082601f830112611fed57611fec611f4c565b5b8135611ffd848260208601611f96565b91505092915050565b61200f81611c0d565b811461201a57600080fd5b50565b60008135905061202c81612006565b92915050565b6000610100828403121561204957612048611ec7565b5b612054610100611f2c565b9050600082013567ffffffffffffffff81111561207457612073611f47565b5b61208084828501611fd8565b600083015250602082013567ffffffffffffffff8111156120a4576120a3611f47565b5b6120b084828501611fd8565b602083015250604082013567ffffffffffffffff8111156120d4576120d3611f47565b5b6120e084828501611fd8565b60408301525060606120f48482850161201d565b606083015250608082013567ffffffffffffffff81111561211857612117611f47565b5b61212484828501611fd8565b60808301525060a082013567ffffffffffffffff81111561214857612147611f47565b5b61215484828501611fd8565b60a08301525060c082013567ffffffffffffffff81111561217857612177611f47565b5b61218484828501611fd8565b60c08301525060e082013567ffffffffffffffff8111156121a8576121a7611f47565b5b6121b484828501611fd8565b60e08301525092915050565b600067ffffffffffffffff8211156121db576121da611ecc565b5b602082029050602081019050919050565b600080fd5b60006122046121ff846121c0565b611f2c565b90508083825260208201905060208402830185811115612227576122266121ec565b5b835b81811015612250578061223c8882611b2c565b845260208401935050602081019050612229565b5050509392505050565b600082601f83011261226f5761226e611f4c565b5b813561227f8482602086016121f1565b91505092915050565b6000610100828403121561229f5761229e611ec7565b5b6122aa610100611f2c565b905060006122ba84828501611b2c565b600083015250602082013567ffffffffffffffff8111156122de576122dd611f47565b5b6122ea84828501612032565b602083015250604082013567ffffffffffffffff81111561230e5761230d611f47565b5b61231a84828501611fd8565b604083015250606082013567ffffffffffffffff81111561233e5761233d611f47565b5b61234a84828501611fd8565b606083015250608061235e8482850161201d565b60808301525060a06123728482850161201d565b60a08301525060c082013567ffffffffffffffff81111561239657612395611f47565b5b6123a28482850161225a565b60c08301525060e082013567ffffffffffffffff8111156123c6576123c5611f47565b5b6123d28482850161225a565b60e08301525092915050565b6000602082840312156123f4576123f3611ad9565b5b600082013567ffffffffffffffff81111561241257612411611ade565b5b61241e84828501612288565b91505092915050565b600081519050919050565b600082825260208201905092915050565b6000819050602082019050919050565b60006101008301600083015161246c6000860182611b6e565b50602083015184820360208601526124848282611c26565b9150506040830151848203604086015261249e8282611bd4565b915050606083015184820360608601526124b88282611bd4565b91505060808301516124cd6080860182611c17565b5060a08301516124e060a0860182611c17565b5060c083015184820360c08601526124f88282611d51565b91505060e083015184820360e08601526125128282611d51565b9150508091505092915050565b600061252b8383612453565b905092915050565b6000602082019050919050565b600061254b82612427565b6125558185612432565b93508360208202850161256785612443565b8060005b858110156125a35784840389528151612584858261251f565b945061258f83612533565b925060208a0199505060018101905061256b565b50829750879550505050505092915050565b600060208201905081810360008301526125cf8184612540565b905092915050565b7f4e487b7100000000000000000000000000000000000000000000000000000000600052603260045260246000fd5b7f4e487b7100000000000000000000000000000000000000000000000000000000600052601160045260246000fd5b600061264082611c0d565b915061264b83611c0d565b925082820390508181111561266357612662612606565b5b92915050565b7f4e487b7100000000000000000000000000000000000000000000000000000000600052603160045260246000fd5b60006126a382611c0d565b91507fffffffffffffffffffffffffffffffffffffffffffffffffffffffffffffffff82036126d5576126d4612606565b5b600182019050919050565b7f4e487b7100000000000000000000000000000000000000000000000000000000600052602260045260246000fd5b6000600282049050600182168061272757607f821691505b60208210810361273a576127396126e0565b5b50919050565b60008190508160005260206000209050919050565b60006020601f8301049050919050565b600082821b905092915050565b6000600883026127a27fffffffffffffffffffffffffffffffffffffffffffffffffffffffffffffffff82612765565b6127ac8683612765565b95508019841693508086168417925050509392505050565b6000819050919050565b60006127e96127e46127df84611c0d565b6127c4565b611c0d565b9050919050565b6000819050919050565b612803836127ce565b61281761280f826127f0565b848454612772565b825550505050565b600090565b61282c61281f565b6128378184846127fa565b505050565b5b8181101561285b57612850600082612824565b60018101905061283d565b5050565b601f8211156128a05761287181612740565b61287a84612755565b81016020851015612889578190505b61289d61289585612755565b83018261283c565b50505b505050565b600082821c905092915050565b60006128c3600019846008026128a5565b1980831691505092915050565b60006128dc83836128b2565b9150826002028217905092915050565b6128f582611b7d565b67ffffffffffffffff81111561290e5761290d611ecc565b5b612918825461270f565b61292382828561285f565b600060209050601f8311600181146129565760008415612944578287015190505b61294e85826128d0565b8655506129b6565b601f19841661296486612740565b60005b8281101561298c57848901518255600182019150602085019450602081019050612967565b868310156129a957848901516129a5601f8916826128b2565b8355505b6001600288020188555050505b50505050505056fea2646970667358221220b239bf1f008c63e2c09f3ff8f10c553406f00e58b6b7006e164c85b8afef437764736f6c63430008130033",
  "immutableReferences": {},
  "source": "// SPDX-License-Identifier: UNLICENSED\r\npragma solidity ^0.8.17;\r\n\r\ncontract Decentra {\r\n    address public owner;\r\n\r\n    constructor() {\r\n        owner = msg.sender;\r\n    }\r\n\r\n    struct Profile {\r\n        string name;\r\n        string avatar;\r\n        string banner;\r\n        uint256 age;\r\n        string gender;\r\n        string status;\r\n        string country;\r\n        string city;\r\n    }\r\n    struct user {\r\n        address userAddress;\r\n        Profile profile;\r\n        string occupation;\r\n        string date_joined;\r\n        uint256 followers;\r\n        uint256 following;\r\n        address[] user_following;\r\n        address[] user_followed;\r\n    }\r\n\r\n    mapping (address => user) Users;\r\n    address[] private userAddresses;\r\n\r\n    // function addUser (\r\n    //     Profile memory _profile,\r\n    //     string memory _occupation,\r\n    //     string memory _date_joined,\r\n    //     uint256 _followers,\r\n    //     uint256 _following,\r\n    //     uint256[] memory _user_following,\r\n    //     uint256[] memory _user_followed\r\n    // ) public {\r\n    //     user memory newUser = user(\r\n    //     _profile,\r\n    //     _occupation,\r\n    //     _date_joined,\r\n    //     _followers,\r\n    //     _following,\r\n    //     _user_following,\r\n    //     _user_followed\r\n    // );\r\n\r\n    // Users[msg.sender] = newUser;\r\n    // }\r\n\r\n    // function updateUser (\r\n    //     Profile memory _profile,\r\n    //     string memory _occupation\r\n    // ) public {\r\n    //     user storage userData = Users[msg.sender];\r\n    //     userData.profile = _profile;\r\n    //     userData.occupation = _occupation;\r\n    // }\r\n\r\n    function createUser(user memory _user) public {\r\n        Users[msg.sender] = _user;\r\n        userAddresses.push(msg.sender);\r\n    }\r\n\r\n    function updateUser(user memory _user) public {\r\n    Users[msg.sender] = _user;\r\n    }\r\n\r\n    function getUser(address userAddress) public view returns (user memory) {\r\n        return Users[userAddress];\r\n    }\r\n\r\n    function getAllUsers() public view returns (user[] memory) {\r\n        user[] memory allUsers = new user[](userAddresses.length);\r\n        for (uint256 i = 0; i < userAddresses.length; i++) {\r\n            allUsers[i] = Users[userAddresses[i]];\r\n        }\r\n        return allUsers;\r\n    }\r\n\r\n    // Follow Logic\r\n    function follow(address userAddress) public {\r\n        Users[msg.sender].user_following.push(userAddress);\r\n        Users[userAddress].user_followed.push(msg.sender);\r\n    }\r\n\r\n    function unfollow(address userAddress) public {\r\n    address[] storage following = Users[msg.sender].user_following;\r\n    address[] storage followed = Users[userAddress].user_followed;\r\n\r\n    for (uint256 i = 0; i < following.length; i++) {\r\n        if (following[i] == userAddress) {\r\n            if (i != following.length - 1) {\r\n                // Replace the element to be removed with the last element\r\n                following[i] = following[following.length - 1];\r\n            }\r\n            // Remove the last element\r\n            following.pop();\r\n            break; // Exit the loop once the user is found and removed\r\n        }\r\n    }\r\n\r\n    for (uint256 i = 0; i < followed.length; i++) {\r\n        if (followed[i] == msg.sender) {\r\n            if (i != followed.length - 1) {\r\n                // Replace the element to be removed with the last element\r\n                followed[i] = followed[followed.length - 1];\r\n            }\r\n            // Remove the last element\r\n            followed.pop();\r\n            break; // Exit the loop once the follower is found and removed\r\n        }\r\n    }\r\n}\r\n}   ",
  "sourcePath": "D:\\Docs\\Engineering\\Src\\Web\\FYP\\Code\\decentra\\contracts\\Decentra.sol",
  "compiler": {
    "name": "solc",
    "version": "0.8.19+commit.7dd6d404.Emscripten.clang"
  },
  "schemaVersion": "3.4.13",
  "updatedAt": "2023-06-21T09:11:13.148Z",
  "networkType": "ethereum",
  "devdoc": {
    "kind": "dev",
    "methods": {},
    "version": 1
  },
  "userdoc": {
    "kind": "user",
    "methods": {},
    "version": 1
  }
}