{
  "contractName": "Decentra",
  "abi": [
    {
      "inputs": [],
      "stateMutability": "nonpayable",
      "type": "constructor"
    },
    {
      "inputs": [],
      "name": "owner",
      "outputs": [
        {
          "internalType": "address",
          "name": "",
          "type": "address"
        }
      ],
      "stateMutability": "view",
      "type": "function",
      "constant": true
    },
    {
      "inputs": [
        {
          "components": [
            {
              "components": [
                {
                  "internalType": "string",
                  "name": "name",
                  "type": "string"
                },
                {
                  "internalType": "string",
                  "name": "avatar",
                  "type": "string"
                },
                {
                  "internalType": "string",
                  "name": "banner",
                  "type": "string"
                },
                {
                  "internalType": "uint256",
                  "name": "age",
                  "type": "uint256"
                },
                {
                  "internalType": "string",
                  "name": "gender",
                  "type": "string"
                },
                {
                  "internalType": "string",
                  "name": "status",
                  "type": "string"
                },
                {
                  "internalType": "string",
                  "name": "country",
                  "type": "string"
                },
                {
                  "internalType": "string",
                  "name": "city",
                  "type": "string"
                }
              ],
              "internalType": "struct Decentra.Profile",
              "name": "profile",
              "type": "tuple"
            },
            {
              "internalType": "string",
              "name": "occupation",
              "type": "string"
            },
            {
              "internalType": "string",
              "name": "date_joined",
              "type": "string"
            },
            {
              "internalType": "uint256",
              "name": "followers",
              "type": "uint256"
            },
            {
              "internalType": "uint256",
              "name": "following",
              "type": "uint256"
            },
            {
              "internalType": "uint256[]",
              "name": "user_following",
              "type": "uint256[]"
            },
            {
              "internalType": "uint256[]",
              "name": "user_followed",
              "type": "uint256[]"
            }
          ],
          "internalType": "struct Decentra.user",
          "name": "_user",
          "type": "tuple"
        }
      ],
      "name": "updateUser",
      "outputs": [],
      "stateMutability": "nonpayable",
      "type": "function"
    },
    {
      "inputs": [
        {
          "internalType": "address",
          "name": "userAddress",
          "type": "address"
        }
      ],
      "name": "getUser",
      "outputs": [
        {
          "components": [
            {
              "components": [
                {
                  "internalType": "string",
                  "name": "name",
                  "type": "string"
                },
                {
                  "internalType": "string",
                  "name": "avatar",
                  "type": "string"
                },
                {
                  "internalType": "string",
                  "name": "banner",
                  "type": "string"
                },
                {
                  "internalType": "uint256",
                  "name": "age",
                  "type": "uint256"
                },
                {
                  "internalType": "string",
                  "name": "gender",
                  "type": "string"
                },
                {
                  "internalType": "string",
                  "name": "status",
                  "type": "string"
                },
                {
                  "internalType": "string",
                  "name": "country",
                  "type": "string"
                },
                {
                  "internalType": "string",
                  "name": "city",
                  "type": "string"
                }
              ],
              "internalType": "struct Decentra.Profile",
              "name": "profile",
              "type": "tuple"
            },
            {
              "internalType": "string",
              "name": "occupation",
              "type": "string"
            },
            {
              "internalType": "string",
              "name": "date_joined",
              "type": "string"
            },
            {
              "internalType": "uint256",
              "name": "followers",
              "type": "uint256"
            },
            {
              "internalType": "uint256",
              "name": "following",
              "type": "uint256"
            },
            {
              "internalType": "uint256[]",
              "name": "user_following",
              "type": "uint256[]"
            },
            {
              "internalType": "uint256[]",
              "name": "user_followed",
              "type": "uint256[]"
            }
          ],
          "internalType": "struct Decentra.user",
          "name": "",
          "type": "tuple"
        }
      ],
      "stateMutability": "view",
      "type": "function",
      "constant": true
    }
  ],
  "bytecode": "0x608060405234801561001057600080fd5b50336000806101000a81548173ffffffffffffffffffffffffffffffffffffffff021916908373ffffffffffffffffffffffffffffffffffffffff1602179055506115c6806100606000396000f3fe608060405234801561001057600080fd5b50600436106100415760003560e01c80636f77926b146100465780638da5cb5b14610076578063c12357d014610094575b600080fd5b610060600480360381019061005b9190610a05565b6100b0565b60405161006d9190610d1c565b60405180910390f35b61007e61070e565b60405161008b9190610d4d565b60405180910390f35b6100ae60048036038101906100a99190611269565b610732565b005b6100b86108a1565b600160008373ffffffffffffffffffffffffffffffffffffffff1673ffffffffffffffffffffffffffffffffffffffff1681526020019081526020016000206040518060e00160405290816000820160405180610100016040529081600082018054610123906112e1565b80601f016020809104026020016040519081016040528092919081815260200182805461014f906112e1565b801561019c5780601f106101715761010080835404028352916020019161019c565b820191906000526020600020905b81548152906001019060200180831161017f57829003601f168201915b505050505081526020016001820180546101b5906112e1565b80601f01602080910402602001604051908101604052809291908181526020018280546101e1906112e1565b801561022e5780601f106102035761010080835404028352916020019161022e565b820191906000526020600020905b81548152906001019060200180831161021157829003601f168201915b50505050508152602001600282018054610247906112e1565b80601f0160208091040260200160405190810160405280929190818152602001828054610273906112e1565b80156102c05780601f10610295576101008083540402835291602001916102c0565b820191906000526020600020905b8154815290600101906020018083116102a357829003601f168201915b50505050508152602001600382015481526020016004820180546102e3906112e1565b80601f016020809104026020016040519081016040528092919081815260200182805461030f906112e1565b801561035c5780601f106103315761010080835404028352916020019161035c565b820191906000526020600020905b81548152906001019060200180831161033f57829003601f168201915b50505050508152602001600582018054610375906112e1565b80601f01602080910402602001604051908101604052809291908181526020018280546103a1906112e1565b80156103ee5780601f106103c3576101008083540402835291602001916103ee565b820191906000526020600020905b8154815290600101906020018083116103d157829003601f168201915b50505050508152602001600682018054610407906112e1565b80601f0160208091040260200160405190810160405280929190818152602001828054610433906112e1565b80156104805780601f1061045557610100808354040283529160200191610480565b820191906000526020600020905b81548152906001019060200180831161046357829003601f168201915b50505050508152602001600782018054610499906112e1565b80601f01602080910402602001604051908101604052809291908181526020018280546104c5906112e1565b80156105125780601f106104e757610100808354040283529160200191610512565b820191906000526020600020905b8154815290600101906020018083116104f557829003601f168201915b505050505081525050815260200160088201805461052f906112e1565b80601f016020809104026020016040519081016040528092919081815260200182805461055b906112e1565b80156105a85780601f1061057d576101008083540402835291602001916105a8565b820191906000526020600020905b81548152906001019060200180831161058b57829003601f168201915b505050505081526020016009820180546105c1906112e1565b80601f01602080910402602001604051908101604052809291908181526020018280546105ed906112e1565b801561063a5780601f1061060f5761010080835404028352916020019161063a565b820191906000526020600020905b81548152906001019060200180831161061d57829003601f168201915b50505050508152602001600a8201548152602001600b8201548152602001600c82018054806020026020016040519081016040528092919081815260200182805480156106a657602002820191906000526020600020905b815481526020019060010190808311610692575b50505050508152602001600d82018054806020026020016040519081016040528092919081815260200182805480156106fe57602002820191906000526020600020905b8154815260200190600101908083116106ea575b5050505050815250509050919050565b60008054906101000a900473ffffffffffffffffffffffffffffffffffffffff1681565b80600160003373ffffffffffffffffffffffffffffffffffffffff1673ffffffffffffffffffffffffffffffffffffffff168152602001908152602001600020600082015181600001600082015181600001908161079091906114be565b5060208201518160010190816107a691906114be565b5060408201518160020190816107bc91906114be565b506060820151816003015560808201518160040190816107dc91906114be565b5060a08201518160050190816107f291906114be565b5060c082015181600601908161080891906114be565b5060e082015181600701908161081e91906114be565b505050602082015181600801908161083691906114be565b50604082015181600901908161084c91906114be565b50606082015181600a0155608082015181600b015560a082015181600c01908051906020019061087d9291906108e4565b5060c082015181600d01908051906020019061089a9291906108e4565b5090505050565b6040518060e001604052806108b4610931565b81526020016060815260200160608152602001600081526020016000815260200160608152602001606081525090565b828054828255906000526020600020908101928215610920579160200282015b8281111561091f578251825591602001919060010190610904565b5b50905061092d9190610976565b5090565b60405180610100016040528060608152602001606081526020016060815260200160008152602001606081526020016060815260200160608152602001606081525090565b5b8082111561098f576000816000905550600101610977565b5090565b6000604051905090565b600080fd5b600080fd5b600073ffffffffffffffffffffffffffffffffffffffff82169050919050565b60006109d2826109a7565b9050919050565b6109e2816109c7565b81146109ed57600080fd5b50565b6000813590506109ff816109d9565b92915050565b600060208284031215610a1b57610a1a61099d565b5b6000610a29848285016109f0565b91505092915050565b600081519050919050565b600082825260208201905092915050565b60005b83811015610a6c578082015181840152602081019050610a51565b60008484015250505050565b6000601f19601f8301169050919050565b6000610a9482610a32565b610a9e8185610a3d565b9350610aae818560208601610a4e565b610ab781610a78565b840191505092915050565b6000819050919050565b610ad581610ac2565b82525050565b6000610100830160008301518482036000860152610af98282610a89565b91505060208301518482036020860152610b138282610a89565b91505060408301518482036040860152610b2d8282610a89565b9150506060830151610b426060860182610acc565b5060808301518482036080860152610b5a8282610a89565b91505060a083015184820360a0860152610b748282610a89565b91505060c083015184820360c0860152610b8e8282610a89565b91505060e083015184820360e0860152610ba88282610a89565b9150508091505092915050565b600081519050919050565b600082825260208201905092915050565b6000819050602082019050919050565b6000610bed8383610acc565b60208301905092915050565b6000602082019050919050565b6000610c1182610bb5565b610c1b8185610bc0565b9350610c2683610bd1565b8060005b83811015610c57578151610c3e8882610be1565b9750610c4983610bf9565b925050600181019050610c2a565b5085935050505092915050565b600060e0830160008301518482036000860152610c818282610adb565b91505060208301518482036020860152610c9b8282610a89565b91505060408301518482036040860152610cb58282610a89565b9150506060830151610cca6060860182610acc565b506080830151610cdd6080860182610acc565b5060a083015184820360a0860152610cf58282610c06565b91505060c083015184820360c0860152610d0f8282610c06565b9150508091505092915050565b60006020820190508181036000830152610d368184610c64565b905092915050565b610d47816109c7565b82525050565b6000602082019050610d626000830184610d3e565b92915050565b600080fd5b7f4e487b7100000000000000000000000000000000000000000000000000000000600052604160045260246000fd5b610da582610a78565b810181811067ffffffffffffffff82111715610dc457610dc3610d6d565b5b80604052505050565b6000610dd7610993565b9050610de38282610d9c565b919050565b600080fd5b600080fd5b600080fd5b600067ffffffffffffffff821115610e1257610e11610d6d565b5b610e1b82610a78565b9050602081019050919050565b82818337600083830152505050565b6000610e4a610e4584610df7565b610dcd565b905082815260208101848484011115610e6657610e65610df2565b5b610e71848285610e28565b509392505050565b600082601f830112610e8e57610e8d610ded565b5b8135610e9e848260208601610e37565b91505092915050565b610eb081610ac2565b8114610ebb57600080fd5b50565b600081359050610ecd81610ea7565b92915050565b60006101008284031215610eea57610ee9610d68565b5b610ef5610100610dcd565b9050600082013567ffffffffffffffff811115610f1557610f14610de8565b5b610f2184828501610e79565b600083015250602082013567ffffffffffffffff811115610f4557610f44610de8565b5b610f5184828501610e79565b602083015250604082013567ffffffffffffffff811115610f7557610f74610de8565b5b610f8184828501610e79565b6040830152506060610f9584828501610ebe565b606083015250608082013567ffffffffffffffff811115610fb957610fb8610de8565b5b610fc584828501610e79565b60808301525060a082013567ffffffffffffffff811115610fe957610fe8610de8565b5b610ff584828501610e79565b60a08301525060c082013567ffffffffffffffff81111561101957611018610de8565b5b61102584828501610e79565b60c08301525060e082013567ffffffffffffffff81111561104957611048610de8565b5b61105584828501610e79565b60e08301525092915050565b600067ffffffffffffffff82111561107c5761107b610d6d565b5b602082029050602081019050919050565b600080fd5b60006110a56110a084611061565b610dcd565b905080838252602082019050602084028301858111156110c8576110c761108d565b5b835b818110156110f157806110dd8882610ebe565b8452602084019350506020810190506110ca565b5050509392505050565b600082601f8301126111105761110f610ded565b5b8135611120848260208601611092565b91505092915050565b600060e0828403121561113f5761113e610d68565b5b61114960e0610dcd565b9050600082013567ffffffffffffffff81111561116957611168610de8565b5b61117584828501610ed3565b600083015250602082013567ffffffffffffffff81111561119957611198610de8565b5b6111a584828501610e79565b602083015250604082013567ffffffffffffffff8111156111c9576111c8610de8565b5b6111d584828501610e79565b60408301525060606111e984828501610ebe565b60608301525060806111fd84828501610ebe565b60808301525060a082013567ffffffffffffffff81111561122157611220610de8565b5b61122d848285016110fb565b60a08301525060c082013567ffffffffffffffff81111561125157611250610de8565b5b61125d848285016110fb565b60c08301525092915050565b60006020828403121561127f5761127e61099d565b5b600082013567ffffffffffffffff81111561129d5761129c6109a2565b5b6112a984828501611129565b91505092915050565b7f4e487b7100000000000000000000000000000000000000000000000000000000600052602260045260246000fd5b600060028204905060018216806112f957607f821691505b60208210810361130c5761130b6112b2565b5b50919050565b60008190508160005260206000209050919050565b60006020601f8301049050919050565b600082821b905092915050565b6000600883026113747fffffffffffffffffffffffffffffffffffffffffffffffffffffffffffffffff82611337565b61137e8683611337565b95508019841693508086168417925050509392505050565b6000819050919050565b60006113bb6113b66113b184610ac2565b611396565b610ac2565b9050919050565b6000819050919050565b6113d5836113a0565b6113e96113e1826113c2565b848454611344565b825550505050565b600090565b6113fe6113f1565b6114098184846113cc565b505050565b5b8181101561142d576114226000826113f6565b60018101905061140f565b5050565b601f8211156114725761144381611312565b61144c84611327565b8101602085101561145b578190505b61146f61146785611327565b83018261140e565b50505b505050565b600082821c905092915050565b600061149560001984600802611477565b1980831691505092915050565b60006114ae8383611484565b9150826002028217905092915050565b6114c782610a32565b67ffffffffffffffff8111156114e0576114df610d6d565b5b6114ea82546112e1565b6114f5828285611431565b600060209050601f8311600181146115285760008415611516578287015190505b61152085826114a2565b865550611588565b601f19841661153686611312565b60005b8281101561155e57848901518255600182019150602085019450602081019050611539565b8683101561157b5784890151611577601f891682611484565b8355505b6001600288020188555050505b50505050505056fea26469706673582212200c8baac9e0ede97a24b2e5b5c67a1eebac572a78b095e507ee044cfc09d78af164736f6c63430008130033",
  "immutableReferences": {},
  "source": "// SPDX-License-Identifier: UNLICENSED\r\npragma solidity ^0.8.17;\r\n\r\ncontract Decentra {\r\n    address public owner;\r\n\r\n    constructor() {\r\n        owner = msg.sender;\r\n    }\r\n\r\n    struct Profile {\r\n        string name;\r\n        string avatar;\r\n        string banner;\r\n        uint256 age;\r\n        string gender;\r\n        string status;\r\n        string country;\r\n        string city;\r\n    }\r\n    struct user {\r\n        Profile profile;\r\n        string occupation;\r\n        string date_joined;\r\n        uint256 followers;\r\n        uint256 following;\r\n        uint256[] user_following;\r\n        uint256[] user_followed;\r\n    }\r\n\r\n    mapping (address => user) Users;\r\n\r\n    // function addUser (\r\n    //     Profile memory _profile,\r\n    //     string memory _occupation,\r\n    //     string memory _date_joined,\r\n    //     uint256 _followers,\r\n    //     uint256 _following,\r\n    //     uint256[] memory _user_following,\r\n    //     uint256[] memory _user_followed\r\n    // ) public {\r\n    //     user memory newUser = user(\r\n    //     _profile,\r\n    //     _occupation,\r\n    //     _date_joined,\r\n    //     _followers,\r\n    //     _following,\r\n    //     _user_following,\r\n    //     _user_followed\r\n    // );\r\n\r\n    // Users[msg.sender] = newUser;\r\n    // }\r\n\r\n    // function updateUser (\r\n    //     Profile memory _profile,\r\n    //     string memory _occupation\r\n    // ) public {\r\n    //     user storage userData = Users[msg.sender];\r\n    //     userData.profile = _profile;\r\n    //     userData.occupation = _occupation;\r\n    // }\r\n\r\n    function updateUser(user memory _user) public {\r\n    Users[msg.sender] = _user;\r\n}\r\n    function getUser(address userAddress) public view returns (user memory) {\r\n        return Users[userAddress];\r\n    }\r\n}",
  "sourcePath": "D:\\Docs\\Engineering\\Src\\Web\\FYP\\Code\\decentra\\contracts\\Decentra.sol",
  "compiler": {
    "name": "solc",
    "version": "0.8.19+commit.7dd6d404.Emscripten.clang"
  },
  "schemaVersion": "3.4.13",
  "updatedAt": "2023-05-25T07:05:52.082Z",
  "networkType": "ethereum",
  "devdoc": {
    "kind": "dev",
    "methods": {},
    "version": 1
  },
  "userdoc": {
    "kind": "user",
    "methods": {},
    "version": 1
  }
}