{
  "contractName": "Decentra",
  "abi": [
    {
      "inputs": [],
      "stateMutability": "nonpayable",
      "type": "constructor"
    },
    {
      "inputs": [],
      "name": "owner",
      "outputs": [
        {
          "internalType": "address",
          "name": "",
          "type": "address"
        }
      ],
      "stateMutability": "view",
      "type": "function",
      "constant": true
    },
    {
      "inputs": [
        {
          "internalType": "address",
          "name": "",
          "type": "address"
        },
        {
          "internalType": "uint256",
          "name": "",
          "type": "uint256"
        }
      ],
      "name": "userNotifications",
      "outputs": [
        {
          "internalType": "uint256",
          "name": "id",
          "type": "uint256"
        },
        {
          "internalType": "string",
          "name": "text",
          "type": "string"
        },
        {
          "internalType": "string",
          "name": "image",
          "type": "string"
        }
      ],
      "stateMutability": "view",
      "type": "function",
      "constant": true
    },
    {
      "inputs": [
        {
          "components": [
            {
              "internalType": "address",
              "name": "userAddress",
              "type": "address"
            },
            {
              "components": [
                {
                  "internalType": "string",
                  "name": "name",
                  "type": "string"
                },
                {
                  "internalType": "string",
                  "name": "avatar",
                  "type": "string"
                },
                {
                  "internalType": "string",
                  "name": "banner",
                  "type": "string"
                },
                {
                  "internalType": "uint256",
                  "name": "age",
                  "type": "uint256"
                },
                {
                  "internalType": "string",
                  "name": "gender",
                  "type": "string"
                },
                {
                  "internalType": "string",
                  "name": "status",
                  "type": "string"
                },
                {
                  "internalType": "string",
                  "name": "country",
                  "type": "string"
                },
                {
                  "internalType": "string",
                  "name": "city",
                  "type": "string"
                }
              ],
              "internalType": "struct Decentra.Profile",
              "name": "profile",
              "type": "tuple"
            },
            {
              "internalType": "string",
              "name": "occupation",
              "type": "string"
            },
            {
              "internalType": "string",
              "name": "date_joined",
              "type": "string"
            },
            {
              "internalType": "uint256",
              "name": "followers",
              "type": "uint256"
            },
            {
              "internalType": "uint256",
              "name": "following",
              "type": "uint256"
            },
            {
              "internalType": "address[]",
              "name": "user_following",
              "type": "address[]"
            },
            {
              "internalType": "address[]",
              "name": "user_followed",
              "type": "address[]"
            }
          ],
          "internalType": "struct Decentra.user",
          "name": "_user",
          "type": "tuple"
        }
      ],
      "name": "createUser",
      "outputs": [],
      "stateMutability": "nonpayable",
      "type": "function"
    },
    {
      "inputs": [
        {
          "components": [
            {
              "internalType": "address",
              "name": "userAddress",
              "type": "address"
            },
            {
              "components": [
                {
                  "internalType": "string",
                  "name": "name",
                  "type": "string"
                },
                {
                  "internalType": "string",
                  "name": "avatar",
                  "type": "string"
                },
                {
                  "internalType": "string",
                  "name": "banner",
                  "type": "string"
                },
                {
                  "internalType": "uint256",
                  "name": "age",
                  "type": "uint256"
                },
                {
                  "internalType": "string",
                  "name": "gender",
                  "type": "string"
                },
                {
                  "internalType": "string",
                  "name": "status",
                  "type": "string"
                },
                {
                  "internalType": "string",
                  "name": "country",
                  "type": "string"
                },
                {
                  "internalType": "string",
                  "name": "city",
                  "type": "string"
                }
              ],
              "internalType": "struct Decentra.Profile",
              "name": "profile",
              "type": "tuple"
            },
            {
              "internalType": "string",
              "name": "occupation",
              "type": "string"
            },
            {
              "internalType": "string",
              "name": "date_joined",
              "type": "string"
            },
            {
              "internalType": "uint256",
              "name": "followers",
              "type": "uint256"
            },
            {
              "internalType": "uint256",
              "name": "following",
              "type": "uint256"
            },
            {
              "internalType": "address[]",
              "name": "user_following",
              "type": "address[]"
            },
            {
              "internalType": "address[]",
              "name": "user_followed",
              "type": "address[]"
            }
          ],
          "internalType": "struct Decentra.user",
          "name": "_user",
          "type": "tuple"
        }
      ],
      "name": "updateUser",
      "outputs": [],
      "stateMutability": "nonpayable",
      "type": "function"
    },
    {
      "inputs": [
        {
          "internalType": "address",
          "name": "userAddress",
          "type": "address"
        }
      ],
      "name": "getUser",
      "outputs": [
        {
          "components": [
            {
              "internalType": "address",
              "name": "userAddress",
              "type": "address"
            },
            {
              "components": [
                {
                  "internalType": "string",
                  "name": "name",
                  "type": "string"
                },
                {
                  "internalType": "string",
                  "name": "avatar",
                  "type": "string"
                },
                {
                  "internalType": "string",
                  "name": "banner",
                  "type": "string"
                },
                {
                  "internalType": "uint256",
                  "name": "age",
                  "type": "uint256"
                },
                {
                  "internalType": "string",
                  "name": "gender",
                  "type": "string"
                },
                {
                  "internalType": "string",
                  "name": "status",
                  "type": "string"
                },
                {
                  "internalType": "string",
                  "name": "country",
                  "type": "string"
                },
                {
                  "internalType": "string",
                  "name": "city",
                  "type": "string"
                }
              ],
              "internalType": "struct Decentra.Profile",
              "name": "profile",
              "type": "tuple"
            },
            {
              "internalType": "string",
              "name": "occupation",
              "type": "string"
            },
            {
              "internalType": "string",
              "name": "date_joined",
              "type": "string"
            },
            {
              "internalType": "uint256",
              "name": "followers",
              "type": "uint256"
            },
            {
              "internalType": "uint256",
              "name": "following",
              "type": "uint256"
            },
            {
              "internalType": "address[]",
              "name": "user_following",
              "type": "address[]"
            },
            {
              "internalType": "address[]",
              "name": "user_followed",
              "type": "address[]"
            }
          ],
          "internalType": "struct Decentra.user",
          "name": "",
          "type": "tuple"
        }
      ],
      "stateMutability": "view",
      "type": "function",
      "constant": true
    },
    {
      "inputs": [],
      "name": "getAllUsers",
      "outputs": [
        {
          "components": [
            {
              "internalType": "address",
              "name": "userAddress",
              "type": "address"
            },
            {
              "components": [
                {
                  "internalType": "string",
                  "name": "name",
                  "type": "string"
                },
                {
                  "internalType": "string",
                  "name": "avatar",
                  "type": "string"
                },
                {
                  "internalType": "string",
                  "name": "banner",
                  "type": "string"
                },
                {
                  "internalType": "uint256",
                  "name": "age",
                  "type": "uint256"
                },
                {
                  "internalType": "string",
                  "name": "gender",
                  "type": "string"
                },
                {
                  "internalType": "string",
                  "name": "status",
                  "type": "string"
                },
                {
                  "internalType": "string",
                  "name": "country",
                  "type": "string"
                },
                {
                  "internalType": "string",
                  "name": "city",
                  "type": "string"
                }
              ],
              "internalType": "struct Decentra.Profile",
              "name": "profile",
              "type": "tuple"
            },
            {
              "internalType": "string",
              "name": "occupation",
              "type": "string"
            },
            {
              "internalType": "string",
              "name": "date_joined",
              "type": "string"
            },
            {
              "internalType": "uint256",
              "name": "followers",
              "type": "uint256"
            },
            {
              "internalType": "uint256",
              "name": "following",
              "type": "uint256"
            },
            {
              "internalType": "address[]",
              "name": "user_following",
              "type": "address[]"
            },
            {
              "internalType": "address[]",
              "name": "user_followed",
              "type": "address[]"
            }
          ],
          "internalType": "struct Decentra.user[]",
          "name": "",
          "type": "tuple[]"
        }
      ],
      "stateMutability": "view",
      "type": "function",
      "constant": true
    },
    {
      "inputs": [
        {
          "internalType": "address",
          "name": "userAddress",
          "type": "address"
        }
      ],
      "name": "follow",
      "outputs": [],
      "stateMutability": "nonpayable",
      "type": "function"
    },
    {
      "inputs": [
        {
          "internalType": "address",
          "name": "userAddress",
          "type": "address"
        }
      ],
      "name": "unfollow",
      "outputs": [],
      "stateMutability": "nonpayable",
      "type": "function"
    },
    {
      "inputs": [
        {
          "internalType": "address",
          "name": "_userAddress",
          "type": "address"
        },
        {
          "internalType": "string",
          "name": "_text",
          "type": "string"
        },
        {
          "internalType": "string",
          "name": "_image",
          "type": "string"
        }
      ],
      "name": "addNotification",
      "outputs": [],
      "stateMutability": "nonpayable",
      "type": "function"
    },
    {
      "inputs": [
        {
          "internalType": "address",
          "name": "_userAddress",
          "type": "address"
        }
      ],
      "name": "getUserNotifications",
      "outputs": [
        {
          "components": [
            {
              "internalType": "uint256",
              "name": "id",
              "type": "uint256"
            },
            {
              "internalType": "string",
              "name": "text",
              "type": "string"
            },
            {
              "internalType": "string",
              "name": "image",
              "type": "string"
            }
          ],
          "internalType": "struct Decentra.Notification[]",
          "name": "",
          "type": "tuple[]"
        }
      ],
      "stateMutability": "view",
      "type": "function",
      "constant": true
    }
  ],
  "bytecode": "0x608060405234801561001057600080fd5b50336000806101000a81548173ffffffffffffffffffffffffffffffffffffffff021916908373ffffffffffffffffffffffffffffffffffffffff1602179055506132b9806100606000396000f3fe608060405234801561001057600080fd5b506004361061009e5760003560e01c80636f77926b116100665780636f77926b146101595780638da5cb5b14610189578063b4dd1bfd146101a7578063dc77fe50146101c3578063e2842d79146101df5761009e565b8063015a4ead146100a357806338c91910146100bf5780634dbf27cc146100f157806355abc23b1461010d57806357f3135814610129575b600080fd5b6100bd60048036038101906100b89190612139565b6101fd565b005b6100d960048036038101906100d4919061219c565b61067c565b6040516100e89392919061227b565b60405180910390f35b61010b60048036038101906101069190612139565b6107d3565b005b610127600480360381019061012291906123f5565b6109cc565b005b610143600480360381019061013e9190612139565b610aa2565b60405161015091906125f2565b60405180910390f35b610173600480360381019061016e9190612139565b610c6e565b6040516101809190612878565b60405180910390f35b61019161138f565b60405161019e91906128a9565b60405180910390f35b6101c160048036038101906101bc9190612c7a565b6113b3565b005b6101dd60048036038101906101d89190612c7a565b6115cc565b005b6101e7611782565b6040516101f49190612e51565b60405180910390f35b6000600160003373ffffffffffffffffffffffffffffffffffffffff1673ffffffffffffffffffffffffffffffffffffffff168152602001908152602001600020600d0190506000600160008473ffffffffffffffffffffffffffffffffffffffff1673ffffffffffffffffffffffffffffffffffffffff168152602001908152602001600020600e01905060005b828054905081101561047f578373ffffffffffffffffffffffffffffffffffffffff168382815481106102c2576102c1612e73565b5b9060005260206000200160009054906101000a900473ffffffffffffffffffffffffffffffffffffffff1673ffffffffffffffffffffffffffffffffffffffff160361046c57600183805490506103199190612ed1565b81146103c95782600184805490506103319190612ed1565b8154811061034257610341612e73565b5b9060005260206000200160009054906101000a900473ffffffffffffffffffffffffffffffffffffffff168382815481106103805761037f612e73565b5b9060005260206000200160006101000a81548173ffffffffffffffffffffffffffffffffffffffff021916908373ffffffffffffffffffffffffffffffffffffffff1602179055505b828054806103da576103d9612f05565b5b6001900381819060005260206000200160006101000a81549073ffffffffffffffffffffffffffffffffffffffff02191690559055600160003373ffffffffffffffffffffffffffffffffffffffff1673ffffffffffffffffffffffffffffffffffffffff168152602001908152602001600020600c01600081548092919061046290612f34565b919050555061047f565b808061047790612f5d565b91505061028c565b5060005b8180549050811015610676573373ffffffffffffffffffffffffffffffffffffffff168282815481106104b9576104b8612e73565b5b9060005260206000200160009054906101000a900473ffffffffffffffffffffffffffffffffffffffff1673ffffffffffffffffffffffffffffffffffffffff160361066357600182805490506105109190612ed1565b81146105c05781600183805490506105289190612ed1565b8154811061053957610538612e73565b5b9060005260206000200160009054906101000a900473ffffffffffffffffffffffffffffffffffffffff1682828154811061057757610576612e73565b5b9060005260206000200160006101000a81548173ffffffffffffffffffffffffffffffffffffffff021916908373ffffffffffffffffffffffffffffffffffffffff1602179055505b818054806105d1576105d0612f05565b5b6001900381819060005260206000200160006101000a81549073ffffffffffffffffffffffffffffffffffffffff02191690559055600160008573ffffffffffffffffffffffffffffffffffffffff1673ffffffffffffffffffffffffffffffffffffffff168152602001908152602001600020600b01600081548092919061065990612f34565b9190505550610676565b808061066e90612f5d565b915050610483565b50505050565b6003602052816000526040600020818154811061069857600080fd5b9060005260206000209060030201600091509150508060000154908060010180546106c290612fd4565b80601f01602080910402602001604051908101604052809291908181526020018280546106ee90612fd4565b801561073b5780601f106107105761010080835404028352916020019161073b565b820191906000526020600020905b81548152906001019060200180831161071e57829003601f168201915b50505050509080600201805461075090612fd4565b80601f016020809104026020016040519081016040528092919081815260200182805461077c90612fd4565b80156107c95780601f1061079e576101008083540402835291602001916107c9565b820191906000526020600020905b8154815290600101906020018083116107ac57829003601f168201915b5050505050905083565b600160003373ffffffffffffffffffffffffffffffffffffffff1673ffffffffffffffffffffffffffffffffffffffff168152602001908152602001600020600d01819080600181540180825580915050600190039060005260206000200160009091909190916101000a81548173ffffffffffffffffffffffffffffffffffffffff021916908373ffffffffffffffffffffffffffffffffffffffff160217905550600160003373ffffffffffffffffffffffffffffffffffffffff1673ffffffffffffffffffffffffffffffffffffffff168152602001908152602001600020600c0160008154809291906108c990612f5d565b9190505550600160008273ffffffffffffffffffffffffffffffffffffffff1673ffffffffffffffffffffffffffffffffffffffff168152602001908152602001600020600e01339080600181540180825580915050600190039060005260206000200160009091909190916101000a81548173ffffffffffffffffffffffffffffffffffffffff021916908373ffffffffffffffffffffffffffffffffffffffff160217905550600160008273ffffffffffffffffffffffffffffffffffffffff1673ffffffffffffffffffffffffffffffffffffffff168152602001908152602001600020600b0160008154809291906109c490612f5d565b919050555050565b6000600360008573ffffffffffffffffffffffffffffffffffffffff1673ffffffffffffffffffffffffffffffffffffffff16815260200190815260200160002090506000818054905090506000604051806060016040528083815260200186815260200185815250905082819080600181540180825580915050600190039060005260206000209060030201600090919091909150600082015181600001556020820151816001019081610a8191906131b1565b506040820151816002019081610a9791906131b1565b505050505050505050565b6060600360008373ffffffffffffffffffffffffffffffffffffffff1673ffffffffffffffffffffffffffffffffffffffff168152602001908152602001600020805480602002602001604051908101604052809291908181526020016000905b82821015610c63578382906000526020600020906003020160405180606001604052908160008201548152602001600182018054610b4090612fd4565b80601f0160208091040260200160405190810160405280929190818152602001828054610b6c90612fd4565b8015610bb95780601f10610b8e57610100808354040283529160200191610bb9565b820191906000526020600020905b815481529060010190602001808311610b9c57829003601f168201915b50505050508152602001600282018054610bd290612fd4565b80601f0160208091040260200160405190810160405280929190818152602001828054610bfe90612fd4565b8015610c4b5780601f10610c2057610100808354040283529160200191610c4b565b820191906000526020600020905b815481529060010190602001808311610c2e57829003601f168201915b50505050508152505081526020019060010190610b03565b505050509050919050565b610c76611f7a565b600160008373ffffffffffffffffffffffffffffffffffffffff1673ffffffffffffffffffffffffffffffffffffffff168152602001908152602001600020604051806101000160405290816000820160009054906101000a900473ffffffffffffffffffffffffffffffffffffffff1673ffffffffffffffffffffffffffffffffffffffff1673ffffffffffffffffffffffffffffffffffffffff1681526020016001820160405180610100016040529081600082018054610d3890612fd4565b80601f0160208091040260200160405190810160405280929190818152602001828054610d6490612fd4565b8015610db15780601f10610d8657610100808354040283529160200191610db1565b820191906000526020600020905b815481529060010190602001808311610d9457829003601f168201915b50505050508152602001600182018054610dca90612fd4565b80601f0160208091040260200160405190810160405280929190818152602001828054610df690612fd4565b8015610e435780601f10610e1857610100808354040283529160200191610e43565b820191906000526020600020905b815481529060010190602001808311610e2657829003601f168201915b50505050508152602001600282018054610e5c90612fd4565b80601f0160208091040260200160405190810160405280929190818152602001828054610e8890612fd4565b8015610ed55780601f10610eaa57610100808354040283529160200191610ed5565b820191906000526020600020905b815481529060010190602001808311610eb857829003601f168201915b5050505050815260200160038201548152602001600482018054610ef890612fd4565b80601f0160208091040260200160405190810160405280929190818152602001828054610f2490612fd4565b8015610f715780601f10610f4657610100808354040283529160200191610f71565b820191906000526020600020905b815481529060010190602001808311610f5457829003601f168201915b50505050508152602001600582018054610f8a90612fd4565b80601f0160208091040260200160405190810160405280929190818152602001828054610fb690612fd4565b80156110035780601f10610fd857610100808354040283529160200191611003565b820191906000526020600020905b815481529060010190602001808311610fe657829003601f168201915b5050505050815260200160068201805461101c90612fd4565b80601f016020809104026020016040519081016040528092919081815260200182805461104890612fd4565b80156110955780601f1061106a57610100808354040283529160200191611095565b820191906000526020600020905b81548152906001019060200180831161107857829003601f168201915b505050505081526020016007820180546110ae90612fd4565b80601f01602080910402602001604051908101604052809291908181526020018280546110da90612fd4565b80156111275780601f106110fc57610100808354040283529160200191611127565b820191906000526020600020905b81548152906001019060200180831161110a57829003601f168201915b505050505081525050815260200160098201805461114490612fd4565b80601f016020809104026020016040519081016040528092919081815260200182805461117090612fd4565b80156111bd5780601f10611192576101008083540402835291602001916111bd565b820191906000526020600020905b8154815290600101906020018083116111a057829003601f168201915b50505050508152602001600a820180546111d690612fd4565b80601f016020809104026020016040519081016040528092919081815260200182805461120290612fd4565b801561124f5780601f106112245761010080835404028352916020019161124f565b820191906000526020600020905b81548152906001019060200180831161123257829003601f168201915b50505050508152602001600b8201548152602001600c8201548152602001600d82018054806020026020016040519081016040528092919081815260200182805480156112f157602002820191906000526020600020905b8160009054906101000a900473ffffffffffffffffffffffffffffffffffffffff1673ffffffffffffffffffffffffffffffffffffffff16815260200190600101908083116112a7575b50505050508152602001600e820180548060200260200160405190810160405280929190818152602001828054801561137f57602002820191906000526020600020905b8160009054906101000a900473ffffffffffffffffffffffffffffffffffffffff1673ffffffffffffffffffffffffffffffffffffffff1681526020019060010190808311611335575b5050505050815250509050919050565b60008054906101000a900473ffffffffffffffffffffffffffffffffffffffff1681565b80600160003373ffffffffffffffffffffffffffffffffffffffff1673ffffffffffffffffffffffffffffffffffffffff16815260200190815260200160002060008201518160000160006101000a81548173ffffffffffffffffffffffffffffffffffffffff021916908373ffffffffffffffffffffffffffffffffffffffff160217905550602082015181600101600082015181600001908161145891906131b1565b50602082015181600101908161146e91906131b1565b50604082015181600201908161148491906131b1565b506060820151816003015560808201518160040190816114a491906131b1565b5060a08201518160050190816114ba91906131b1565b5060c08201518160060190816114d091906131b1565b5060e08201518160070190816114e691906131b1565b50505060408201518160090190816114fe91906131b1565b50606082015181600a01908161151491906131b1565b50608082015181600b015560a082015181600c015560c082015181600d019080519060200190611545929190611fdb565b5060e082015181600e019080519060200190611562929190611fdb565b509050506002339080600181540180825580915050600190039060005260206000200160009091909190916101000a81548173ffffffffffffffffffffffffffffffffffffffff021916908373ffffffffffffffffffffffffffffffffffffffff16021790555050565b80600160003373ffffffffffffffffffffffffffffffffffffffff1673ffffffffffffffffffffffffffffffffffffffff16815260200190815260200160002060008201518160000160006101000a81548173ffffffffffffffffffffffffffffffffffffffff021916908373ffffffffffffffffffffffffffffffffffffffff160217905550602082015181600101600082015181600001908161167191906131b1565b50602082015181600101908161168791906131b1565b50604082015181600201908161169d91906131b1565b506060820151816003015560808201518160040190816116bd91906131b1565b5060a08201518160050190816116d391906131b1565b5060c08201518160060190816116e991906131b1565b5060e08201518160070190816116ff91906131b1565b505050604082015181600901908161171791906131b1565b50606082015181600a01908161172d91906131b1565b50608082015181600b015560a082015181600c015560c082015181600d01908051906020019061175e929190611fdb565b5060e082015181600e01908051906020019061177b929190611fdb565b5090505050565b6060600060028054905067ffffffffffffffff8111156117a5576117a46122ca565b5b6040519080825280602002602001820160405280156117de57816020015b6117cb611f7a565b8152602001906001900390816117c35790505b50905060005b600280549050811015611f7257600160006002838154811061180957611808612e73565b5b9060005260206000200160009054906101000a900473ffffffffffffffffffffffffffffffffffffffff1673ffffffffffffffffffffffffffffffffffffffff1673ffffffffffffffffffffffffffffffffffffffff168152602001908152602001600020604051806101000160405290816000820160009054906101000a900473ffffffffffffffffffffffffffffffffffffffff1673ffffffffffffffffffffffffffffffffffffffff1673ffffffffffffffffffffffffffffffffffffffff16815260200160018201604051806101000160405290816000820180546118f190612fd4565b80601f016020809104026020016040519081016040528092919081815260200182805461191d90612fd4565b801561196a5780601f1061193f5761010080835404028352916020019161196a565b820191906000526020600020905b81548152906001019060200180831161194d57829003601f168201915b5050505050815260200160018201805461198390612fd4565b80601f01602080910402602001604051908101604052809291908181526020018280546119af90612fd4565b80156119fc5780601f106119d1576101008083540402835291602001916119fc565b820191906000526020600020905b8154815290600101906020018083116119df57829003601f168201915b50505050508152602001600282018054611a1590612fd4565b80601f0160208091040260200160405190810160405280929190818152602001828054611a4190612fd4565b8015611a8e5780601f10611a6357610100808354040283529160200191611a8e565b820191906000526020600020905b815481529060010190602001808311611a7157829003601f168201915b5050505050815260200160038201548152602001600482018054611ab190612fd4565b80601f0160208091040260200160405190810160405280929190818152602001828054611add90612fd4565b8015611b2a5780601f10611aff57610100808354040283529160200191611b2a565b820191906000526020600020905b815481529060010190602001808311611b0d57829003601f168201915b50505050508152602001600582018054611b4390612fd4565b80601f0160208091040260200160405190810160405280929190818152602001828054611b6f90612fd4565b8015611bbc5780601f10611b9157610100808354040283529160200191611bbc565b820191906000526020600020905b815481529060010190602001808311611b9f57829003601f168201915b50505050508152602001600682018054611bd590612fd4565b80601f0160208091040260200160405190810160405280929190818152602001828054611c0190612fd4565b8015611c4e5780601f10611c2357610100808354040283529160200191611c4e565b820191906000526020600020905b815481529060010190602001808311611c3157829003601f168201915b50505050508152602001600782018054611c6790612fd4565b80601f0160208091040260200160405190810160405280929190818152602001828054611c9390612fd4565b8015611ce05780601f10611cb557610100808354040283529160200191611ce0565b820191906000526020600020905b815481529060010190602001808311611cc357829003601f168201915b5050505050815250508152602001600982018054611cfd90612fd4565b80601f0160208091040260200160405190810160405280929190818152602001828054611d2990612fd4565b8015611d765780601f10611d4b57610100808354040283529160200191611d76565b820191906000526020600020905b815481529060010190602001808311611d5957829003601f168201915b50505050508152602001600a82018054611d8f90612fd4565b80601f0160208091040260200160405190810160405280929190818152602001828054611dbb90612fd4565b8015611e085780601f10611ddd57610100808354040283529160200191611e08565b820191906000526020600020905b815481529060010190602001808311611deb57829003601f168201915b50505050508152602001600b8201548152602001600c8201548152602001600d8201805480602002602001604051908101604052809291908181526020018280548015611eaa57602002820191906000526020600020905b8160009054906101000a900473ffffffffffffffffffffffffffffffffffffffff1673ffffffffffffffffffffffffffffffffffffffff1681526020019060010190808311611e60575b50505050508152602001600e8201805480602002602001604051908101604052809291908181526020018280548015611f3857602002820191906000526020600020905b8160009054906101000a900473ffffffffffffffffffffffffffffffffffffffff1673ffffffffffffffffffffffffffffffffffffffff1681526020019060010190808311611eee575b505050505081525050828281518110611f5457611f53612e73565b5b60200260200101819052508080611f6a90612f5d565b9150506117e4565b508091505090565b604051806101000160405280600073ffffffffffffffffffffffffffffffffffffffff168152602001611fab612065565b81526020016060815260200160608152602001600081526020016000815260200160608152602001606081525090565b828054828255906000526020600020908101928215612054579160200282015b828111156120535782518260006101000a81548173ffffffffffffffffffffffffffffffffffffffff021916908373ffffffffffffffffffffffffffffffffffffffff16021790555091602001919060010190611ffb565b5b50905061206191906120aa565b5090565b60405180610100016040528060608152602001606081526020016060815260200160008152602001606081526020016060815260200160608152602001606081525090565b5b808211156120c35760008160009055506001016120ab565b5090565b6000604051905090565b600080fd5b600080fd5b600073ffffffffffffffffffffffffffffffffffffffff82169050919050565b6000612106826120db565b9050919050565b612116816120fb565b811461212157600080fd5b50565b6000813590506121338161210d565b92915050565b60006020828403121561214f5761214e6120d1565b5b600061215d84828501612124565b91505092915050565b6000819050919050565b61217981612166565b811461218457600080fd5b50565b60008135905061219681612170565b92915050565b600080604083850312156121b3576121b26120d1565b5b60006121c185828601612124565b92505060206121d285828601612187565b9150509250929050565b6121e581612166565b82525050565b600081519050919050565b600082825260208201905092915050565b60005b8381101561222557808201518184015260208101905061220a565b60008484015250505050565b6000601f19601f8301169050919050565b600061224d826121eb565b61225781856121f6565b9350612267818560208601612207565b61227081612231565b840191505092915050565b600060608201905061229060008301866121dc565b81810360208301526122a28185612242565b905081810360408301526122b68184612242565b9050949350505050565b600080fd5b600080fd5b7f4e487b7100000000000000000000000000000000000000000000000000000000600052604160045260246000fd5b61230282612231565b810181811067ffffffffffffffff82111715612321576123206122ca565b5b80604052505050565b60006123346120c7565b905061234082826122f9565b919050565b600067ffffffffffffffff8211156123605761235f6122ca565b5b61236982612231565b9050602081019050919050565b82818337600083830152505050565b600061239861239384612345565b61232a565b9050828152602081018484840111156123b4576123b36122c5565b5b6123bf848285612376565b509392505050565b600082601f8301126123dc576123db6122c0565b5b81356123ec848260208601612385565b91505092915050565b60008060006060848603121561240e5761240d6120d1565b5b600061241c86828701612124565b935050602084013567ffffffffffffffff81111561243d5761243c6120d6565b5b612449868287016123c7565b925050604084013567ffffffffffffffff81111561246a576124696120d6565b5b612476868287016123c7565b9150509250925092565b600081519050919050565b600082825260208201905092915050565b6000819050602082019050919050565b6124b581612166565b82525050565b600082825260208201905092915050565b60006124d7826121eb565b6124e181856124bb565b93506124f1818560208601612207565b6124fa81612231565b840191505092915050565b600060608301600083015161251d60008601826124ac565b506020830151848203602086015261253582826124cc565b9150506040830151848203604086015261254f82826124cc565b9150508091505092915050565b60006125688383612505565b905092915050565b6000602082019050919050565b600061258882612480565b612592818561248b565b9350836020820285016125a48561249c565b8060005b858110156125e057848403895281516125c1858261255c565b94506125cc83612570565b925060208a019950506001810190506125a8565b50829750879550505050505092915050565b6000602082019050818103600083015261260c818461257d565b905092915050565b61261d816120fb565b82525050565b600061010083016000830151848203600086015261264182826124cc565b9150506020830151848203602086015261265b82826124cc565b9150506040830151848203604086015261267582826124cc565b915050606083015161268a60608601826124ac565b50608083015184820360808601526126a282826124cc565b91505060a083015184820360a08601526126bc82826124cc565b91505060c083015184820360c08601526126d682826124cc565b91505060e083015184820360e08601526126f082826124cc565b9150508091505092915050565b600081519050919050565b600082825260208201905092915050565b6000819050602082019050919050565b60006127358383612614565b60208301905092915050565b6000602082019050919050565b6000612759826126fd565b6127638185612708565b935061276e83612719565b8060005b8381101561279f5781516127868882612729565b975061279183612741565b925050600181019050612772565b5085935050505092915050565b6000610100830160008301516127c56000860182612614565b50602083015184820360208601526127dd8282612623565b915050604083015184820360408601526127f782826124cc565b9150506060830151848203606086015261281182826124cc565b915050608083015161282660808601826124ac565b5060a083015161283960a08601826124ac565b5060c083015184820360c0860152612851828261274e565b91505060e083015184820360e086015261286b828261274e565b9150508091505092915050565b6000602082019050818103600083015261289281846127ac565b905092915050565b6128a3816120fb565b82525050565b60006020820190506128be600083018461289a565b92915050565b600080fd5b600080fd5b600061010082840312156128e5576128e46128c4565b5b6128f061010061232a565b9050600082013567ffffffffffffffff8111156129105761290f6128c9565b5b61291c848285016123c7565b600083015250602082013567ffffffffffffffff8111156129405761293f6128c9565b5b61294c848285016123c7565b602083015250604082013567ffffffffffffffff8111156129705761296f6128c9565b5b61297c848285016123c7565b604083015250606061299084828501612187565b606083015250608082013567ffffffffffffffff8111156129b4576129b36128c9565b5b6129c0848285016123c7565b60808301525060a082013567ffffffffffffffff8111156129e4576129e36128c9565b5b6129f0848285016123c7565b60a08301525060c082013567ffffffffffffffff811115612a1457612a136128c9565b5b612a20848285016123c7565b60c08301525060e082013567ffffffffffffffff811115612a4457612a436128c9565b5b612a50848285016123c7565b60e08301525092915050565b600067ffffffffffffffff821115612a7757612a766122ca565b5b602082029050602081019050919050565b600080fd5b6000612aa0612a9b84612a5c565b61232a565b90508083825260208201905060208402830185811115612ac357612ac2612a88565b5b835b81811015612aec5780612ad88882612124565b845260208401935050602081019050612ac5565b5050509392505050565b600082601f830112612b0b57612b0a6122c0565b5b8135612b1b848260208601612a8d565b91505092915050565b60006101008284031215612b3b57612b3a6128c4565b5b612b4661010061232a565b90506000612b5684828501612124565b600083015250602082013567ffffffffffffffff811115612b7a57612b796128c9565b5b612b86848285016128ce565b602083015250604082013567ffffffffffffffff811115612baa57612ba96128c9565b5b612bb6848285016123c7565b604083015250606082013567ffffffffffffffff811115612bda57612bd96128c9565b5b612be6848285016123c7565b6060830152506080612bfa84828501612187565b60808301525060a0612c0e84828501612187565b60a08301525060c082013567ffffffffffffffff811115612c3257612c316128c9565b5b612c3e84828501612af6565b60c08301525060e082013567ffffffffffffffff811115612c6257612c616128c9565b5b612c6e84828501612af6565b60e08301525092915050565b600060208284031215612c9057612c8f6120d1565b5b600082013567ffffffffffffffff811115612cae57612cad6120d6565b5b612cba84828501612b24565b91505092915050565b600081519050919050565b600082825260208201905092915050565b6000819050602082019050919050565b600061010083016000830151612d086000860182612614565b5060208301518482036020860152612d208282612623565b91505060408301518482036040860152612d3a82826124cc565b91505060608301518482036060860152612d5482826124cc565b9150506080830151612d6960808601826124ac565b5060a0830151612d7c60a08601826124ac565b5060c083015184820360c0860152612d94828261274e565b91505060e083015184820360e0860152612dae828261274e565b9150508091505092915050565b6000612dc78383612cef565b905092915050565b6000602082019050919050565b6000612de782612cc3565b612df18185612cce565b935083602082028501612e0385612cdf565b8060005b85811015612e3f5784840389528151612e208582612dbb565b9450612e2b83612dcf565b925060208a01995050600181019050612e07565b50829750879550505050505092915050565b60006020820190508181036000830152612e6b8184612ddc565b905092915050565b7f4e487b7100000000000000000000000000000000000000000000000000000000600052603260045260246000fd5b7f4e487b7100000000000000000000000000000000000000000000000000000000600052601160045260246000fd5b6000612edc82612166565b9150612ee783612166565b9250828203905081811115612eff57612efe612ea2565b5b92915050565b7f4e487b7100000000000000000000000000000000000000000000000000000000600052603160045260246000fd5b6000612f3f82612166565b915060008203612f5257612f51612ea2565b5b600182039050919050565b6000612f6882612166565b91507fffffffffffffffffffffffffffffffffffffffffffffffffffffffffffffffff8203612f9a57612f99612ea2565b5b600182019050919050565b7f4e487b7100000000000000000000000000000000000000000000000000000000600052602260045260246000fd5b60006002820490506001821680612fec57607f821691505b602082108103612fff57612ffe612fa5565b5b50919050565b60008190508160005260206000209050919050565b60006020601f8301049050919050565b600082821b905092915050565b6000600883026130677fffffffffffffffffffffffffffffffffffffffffffffffffffffffffffffffff8261302a565b613071868361302a565b95508019841693508086168417925050509392505050565b6000819050919050565b60006130ae6130a96130a484612166565b613089565b612166565b9050919050565b6000819050919050565b6130c883613093565b6130dc6130d4826130b5565b848454613037565b825550505050565b600090565b6130f16130e4565b6130fc8184846130bf565b505050565b5b81811015613120576131156000826130e9565b600181019050613102565b5050565b601f8211156131655761313681613005565b61313f8461301a565b8101602085101561314e578190505b61316261315a8561301a565b830182613101565b50505b505050565b600082821c905092915050565b60006131886000198460080261316a565b1980831691505092915050565b60006131a18383613177565b9150826002028217905092915050565b6131ba826121eb565b67ffffffffffffffff8111156131d3576131d26122ca565b5b6131dd8254612fd4565b6131e8828285613124565b600060209050601f83116001811461321b5760008415613209578287015190505b6132138582613195565b86555061327b565b601f19841661322986613005565b60005b828110156132515784890151825560018201915060208501945060208101905061322c565b8683101561326e578489015161326a601f891682613177565b8355505b6001600288020188555050505b50505050505056fea264697066735822122022392e7140ac6cf8109311bf9aa9b202608b6d66bb11c5e0da15291fde767fa264736f6c63430008130033",
  "immutableReferences": {},
  "source": "// SPDX-License-Identifier: UNLICENSED\r\npragma solidity ^0.8.17;\r\n\r\ncontract Decentra {\r\n    address public owner;\r\n\r\n    constructor() {\r\n        owner = msg.sender;\r\n    }\r\n\r\n    struct Profile {\r\n        string name;\r\n        string avatar;\r\n        string banner;\r\n        uint256 age;\r\n        string gender;\r\n        string status;\r\n        string country;\r\n        string city;\r\n    }\r\n    struct user {\r\n        address userAddress;\r\n        Profile profile;\r\n        string occupation;\r\n        string date_joined;\r\n        uint256 followers;\r\n        uint256 following;\r\n        address[] user_following;\r\n        address[] user_followed;\r\n    }\r\n\r\n    \r\n    struct Notification {\r\n        uint256 id;\r\n        string text;\r\n        string image;\r\n    }\r\n\r\n     \r\n    mapping (address => user) Users;\r\n    address[] private userAddresses;\r\n    mapping(address => Notification[]) public userNotifications;\r\n\r\n    // function addUser (\r\n    //     Profile memory _profile,\r\n    //     string memory _occupation,\r\n    //     string memory _date_joined,\r\n    //     uint256 _followers,\r\n    //     uint256 _following,\r\n    //     uint256[] memory _user_following,\r\n    //     uint256[] memory _user_followed\r\n    // ) public {\r\n    //     user memory newUser = user(\r\n    //     _profile,\r\n    //     _occupation,\r\n    //     _date_joined,\r\n    //     _followers,\r\n    //     _following,\r\n    //     _user_following,\r\n    //     _user_followed\r\n    // );\r\n\r\n    // Users[msg.sender] = newUser;\r\n    // }\r\n\r\n    // function updateUser (\r\n    //     Profile memory _profile,\r\n    //     string memory _occupation\r\n    // ) public {\r\n    //     user storage userData = Users[msg.sender];\r\n    //     userData.profile = _profile;\r\n    //     userData.occupation = _occupation;\r\n    // }\r\n\r\n    function createUser(user memory _user) public {\r\n        Users[msg.sender] = _user;\r\n        userAddresses.push(msg.sender);\r\n    }\r\n\r\n    function updateUser(user memory _user) public {\r\n    Users[msg.sender] = _user;\r\n    }\r\n\r\n    function getUser(address userAddress) public view returns (user memory) {\r\n        return Users[userAddress];\r\n    }\r\n\r\n    function getAllUsers() public view returns (user[] memory) {\r\n        user[] memory allUsers = new user[](userAddresses.length);\r\n        for (uint256 i = 0; i < userAddresses.length; i++) {\r\n            allUsers[i] = Users[userAddresses[i]];\r\n        }\r\n        return allUsers;\r\n    }\r\n\r\n    // Follow Logic\r\n    function follow(address userAddress) public {\r\n        Users[msg.sender].user_following.push(userAddress);\r\n        Users[msg.sender].following++;\r\n        Users[userAddress].user_followed.push(msg.sender);\r\n        Users[userAddress].followers++;\r\n    }\r\n\r\n    function unfollow(address userAddress) public {\r\n        address[] storage following = Users[msg.sender].user_following;\r\n        address[] storage followed = Users[userAddress].user_followed;\r\n        for (uint256 i = 0; i < following.length; i++) {\r\n            if (following[i] == userAddress) {\r\n                if (i != following.length - 1) {\r\n                    // Replace the element to be removed with the last element\r\n                    following[i] = following[following.length - 1];\r\n                }\r\n                // Remove the last element\r\n                following.pop();\r\n                Users[msg.sender].following--;\r\n                break; // Exit the loop once the user is found and removed\r\n            }\r\n        }\r\n\r\n        for (uint256 i = 0; i < followed.length; i++) {\r\n            if (followed[i] == msg.sender) {\r\n                if (i != followed.length - 1) {\r\n                    // Replace the element to be removed with the last element\r\n                    followed[i] = followed[followed.length - 1];\r\n                }\r\n                // Remove the last element\r\n                followed.pop();\r\n                Users[userAddress].followers--;\r\n                break; // Exit the loop once the follower is found and removed\r\n            }\r\n        }\r\n    }\r\n\r\n    // Function to add a new notification\r\n    function addNotification(address _userAddress, string memory _text, string memory _image) public {\r\n        Notification[] storage notifications = userNotifications[_userAddress];\r\n        uint256 notificationId = notifications.length;\r\n        Notification memory newNotification = Notification(notificationId, _text, _image);\r\n        notifications.push(newNotification);\r\n    }\r\n\r\n    // Function to retrieve a user's notifications\r\n    function getUserNotifications(address _userAddress) public view returns (Notification[] memory) {\r\n        return userNotifications[_userAddress];\r\n    }\r\n}   ",
  "sourcePath": "D:\\Docs\\Engineering\\Src\\Web\\FYP\\Code\\decentra\\contracts\\Decentra.sol",
  "compiler": {
    "name": "solc",
    "version": "0.8.19+commit.7dd6d404.Emscripten.clang"
  },
  "schemaVersion": "3.4.13",
  "updatedAt": "2023-06-25T08:26:53.288Z",
  "networkType": "ethereum",
  "devdoc": {
    "kind": "dev",
    "methods": {},
    "version": 1
  },
  "userdoc": {
    "kind": "user",
    "methods": {},
    "version": 1
  }
}