{
  "contractName": "DecentraModules",
  "abi": [
    {
      "inputs": [],
      "stateMutability": "nonpayable",
      "type": "constructor"
    },
    {
      "inputs": [
        {
          "internalType": "uint256",
          "name": "",
          "type": "uint256"
        }
      ],
      "name": "cmtarr",
      "outputs": [
        {
          "internalType": "address",
          "name": "commentOwner",
          "type": "address"
        },
        {
          "internalType": "uint256",
          "name": "c_id",
          "type": "uint256"
        },
        {
          "internalType": "uint256",
          "name": "p_id",
          "type": "uint256"
        },
        {
          "internalType": "string",
          "name": "username",
          "type": "string"
        },
        {
          "internalType": "string",
          "name": "userAt",
          "type": "string"
        },
        {
          "internalType": "string",
          "name": "date",
          "type": "string"
        },
        {
          "internalType": "string",
          "name": "text",
          "type": "string"
        },
        {
          "internalType": "string",
          "name": "cId",
          "type": "string"
        },
        {
          "internalType": "uint256",
          "name": "likes",
          "type": "uint256"
        },
        {
          "internalType": "uint256",
          "name": "dislikes",
          "type": "uint256"
        },
        {
          "internalType": "string",
          "name": "avatar",
          "type": "string"
        }
      ],
      "stateMutability": "view",
      "type": "function",
      "constant": true
    },
    {
      "inputs": [
        {
          "internalType": "uint256",
          "name": "",
          "type": "uint256"
        },
        {
          "internalType": "uint256",
          "name": "",
          "type": "uint256"
        }
      ],
      "name": "comments",
      "outputs": [
        {
          "internalType": "address",
          "name": "commentOwner",
          "type": "address"
        },
        {
          "internalType": "uint256",
          "name": "c_id",
          "type": "uint256"
        },
        {
          "internalType": "uint256",
          "name": "p_id",
          "type": "uint256"
        },
        {
          "internalType": "string",
          "name": "username",
          "type": "string"
        },
        {
          "internalType": "string",
          "name": "userAt",
          "type": "string"
        },
        {
          "internalType": "string",
          "name": "date",
          "type": "string"
        },
        {
          "internalType": "string",
          "name": "text",
          "type": "string"
        },
        {
          "internalType": "string",
          "name": "cId",
          "type": "string"
        },
        {
          "internalType": "uint256",
          "name": "likes",
          "type": "uint256"
        },
        {
          "internalType": "uint256",
          "name": "dislikes",
          "type": "uint256"
        },
        {
          "internalType": "string",
          "name": "avatar",
          "type": "string"
        }
      ],
      "stateMutability": "view",
      "type": "function",
      "constant": true
    },
    {
      "inputs": [
        {
          "internalType": "uint256",
          "name": "",
          "type": "uint256"
        },
        {
          "internalType": "uint256",
          "name": "",
          "type": "uint256"
        }
      ],
      "name": "disliked",
      "outputs": [
        {
          "internalType": "address",
          "name": "",
          "type": "address"
        }
      ],
      "stateMutability": "view",
      "type": "function",
      "constant": true
    },
    {
      "inputs": [
        {
          "internalType": "uint256",
          "name": "",
          "type": "uint256"
        },
        {
          "internalType": "uint256",
          "name": "",
          "type": "uint256"
        }
      ],
      "name": "liked",
      "outputs": [
        {
          "internalType": "address",
          "name": "",
          "type": "address"
        }
      ],
      "stateMutability": "view",
      "type": "function",
      "constant": true
    },
    {
      "inputs": [
        {
          "internalType": "uint256",
          "name": "",
          "type": "uint256"
        }
      ],
      "name": "mentions",
      "outputs": [
        {
          "internalType": "uint256",
          "name": "",
          "type": "uint256"
        }
      ],
      "stateMutability": "view",
      "type": "function",
      "constant": true
    },
    {
      "inputs": [],
      "name": "owner",
      "outputs": [
        {
          "internalType": "address",
          "name": "",
          "type": "address"
        }
      ],
      "stateMutability": "view",
      "type": "function",
      "constant": true
    },
    {
      "inputs": [
        {
          "internalType": "uint256",
          "name": "",
          "type": "uint256"
        }
      ],
      "name": "trends",
      "outputs": [
        {
          "internalType": "uint256",
          "name": "t_id",
          "type": "uint256"
        },
        {
          "internalType": "string",
          "name": "t_name",
          "type": "string"
        },
        {
          "internalType": "string",
          "name": "t_location",
          "type": "string"
        }
      ],
      "stateMutability": "view",
      "type": "function",
      "constant": true
    },
    {
      "inputs": [
        {
          "internalType": "uint256",
          "name": "",
          "type": "uint256"
        }
      ],
      "name": "tweets",
      "outputs": [
        {
          "internalType": "address",
          "name": "tweetOwner",
          "type": "address"
        },
        {
          "internalType": "uint256",
          "name": "t_id",
          "type": "uint256"
        },
        {
          "internalType": "string",
          "name": "username",
          "type": "string"
        },
        {
          "internalType": "string",
          "name": "userAt",
          "type": "string"
        },
        {
          "internalType": "string",
          "name": "date",
          "type": "string"
        },
        {
          "internalType": "string",
          "name": "text",
          "type": "string"
        },
        {
          "internalType": "string",
          "name": "cId",
          "type": "string"
        },
        {
          "internalType": "uint256",
          "name": "likes",
          "type": "uint256"
        },
        {
          "internalType": "uint256",
          "name": "dislikes",
          "type": "uint256"
        }
      ],
      "stateMutability": "view",
      "type": "function",
      "constant": true
    },
    {
      "inputs": [
        {
          "internalType": "address",
          "name": "",
          "type": "address"
        },
        {
          "internalType": "uint256",
          "name": "",
          "type": "uint256"
        }
      ],
      "name": "userTweets",
      "outputs": [
        {
          "internalType": "address",
          "name": "tweetOwner",
          "type": "address"
        },
        {
          "internalType": "uint256",
          "name": "t_id",
          "type": "uint256"
        },
        {
          "internalType": "string",
          "name": "username",
          "type": "string"
        },
        {
          "internalType": "string",
          "name": "userAt",
          "type": "string"
        },
        {
          "internalType": "string",
          "name": "date",
          "type": "string"
        },
        {
          "internalType": "string",
          "name": "text",
          "type": "string"
        },
        {
          "internalType": "string",
          "name": "cId",
          "type": "string"
        },
        {
          "internalType": "uint256",
          "name": "likes",
          "type": "uint256"
        },
        {
          "internalType": "uint256",
          "name": "dislikes",
          "type": "uint256"
        }
      ],
      "stateMutability": "view",
      "type": "function",
      "constant": true
    },
    {
      "inputs": [
        {
          "internalType": "uint256",
          "name": "index",
          "type": "uint256"
        },
        {
          "internalType": "bool",
          "name": "comment",
          "type": "bool"
        }
      ],
      "name": "ratio",
      "outputs": [],
      "stateMutability": "nonpayable",
      "type": "function"
    },
    {
      "inputs": [
        {
          "internalType": "uint256",
          "name": "_id",
          "type": "uint256"
        }
      ],
      "name": "addLike",
      "outputs": [],
      "stateMutability": "nonpayable",
      "type": "function"
    },
    {
      "inputs": [
        {
          "internalType": "uint256",
          "name": "_id",
          "type": "uint256"
        }
      ],
      "name": "removeLike",
      "outputs": [],
      "stateMutability": "nonpayable",
      "type": "function"
    },
    {
      "inputs": [
        {
          "internalType": "uint256",
          "name": "_id",
          "type": "uint256"
        }
      ],
      "name": "getlikes",
      "outputs": [
        {
          "internalType": "address[]",
          "name": "",
          "type": "address[]"
        }
      ],
      "stateMutability": "view",
      "type": "function",
      "constant": true
    },
    {
      "inputs": [
        {
          "internalType": "uint256",
          "name": "_id",
          "type": "uint256"
        }
      ],
      "name": "addDislike",
      "outputs": [],
      "stateMutability": "nonpayable",
      "type": "function"
    },
    {
      "inputs": [
        {
          "internalType": "uint256",
          "name": "_id",
          "type": "uint256"
        }
      ],
      "name": "removeDislike",
      "outputs": [],
      "stateMutability": "nonpayable",
      "type": "function"
    },
    {
      "inputs": [
        {
          "internalType": "uint256",
          "name": "_id",
          "type": "uint256"
        }
      ],
      "name": "getdislikes",
      "outputs": [
        {
          "internalType": "address[]",
          "name": "",
          "type": "address[]"
        }
      ],
      "stateMutability": "view",
      "type": "function",
      "constant": true
    },
    {
      "inputs": [
        {
          "internalType": "string",
          "name": "_username",
          "type": "string"
        },
        {
          "internalType": "string",
          "name": "_userAt",
          "type": "string"
        },
        {
          "internalType": "string",
          "name": "_date",
          "type": "string"
        },
        {
          "internalType": "string",
          "name": "_text",
          "type": "string"
        },
        {
          "internalType": "string",
          "name": "_cId",
          "type": "string"
        }
      ],
      "name": "addTweet",
      "outputs": [],
      "stateMutability": "nonpayable",
      "type": "function"
    },
    {
      "inputs": [],
      "name": "getAllTweets",
      "outputs": [
        {
          "components": [
            {
              "internalType": "address",
              "name": "tweetOwner",
              "type": "address"
            },
            {
              "internalType": "uint256",
              "name": "t_id",
              "type": "uint256"
            },
            {
              "internalType": "string",
              "name": "username",
              "type": "string"
            },
            {
              "internalType": "string",
              "name": "userAt",
              "type": "string"
            },
            {
              "internalType": "string",
              "name": "date",
              "type": "string"
            },
            {
              "internalType": "string",
              "name": "text",
              "type": "string"
            },
            {
              "internalType": "string",
              "name": "cId",
              "type": "string"
            },
            {
              "internalType": "uint256",
              "name": "likes",
              "type": "uint256"
            },
            {
              "internalType": "uint256",
              "name": "dislikes",
              "type": "uint256"
            }
          ],
          "internalType": "struct DecentraModules.Tweet[]",
          "name": "",
          "type": "tuple[]"
        }
      ],
      "stateMutability": "view",
      "type": "function",
      "constant": true
    },
    {
      "inputs": [
        {
          "internalType": "address",
          "name": "_user",
          "type": "address"
        }
      ],
      "name": "getUserTweets",
      "outputs": [
        {
          "components": [
            {
              "internalType": "address",
              "name": "tweetOwner",
              "type": "address"
            },
            {
              "internalType": "uint256",
              "name": "t_id",
              "type": "uint256"
            },
            {
              "internalType": "string",
              "name": "username",
              "type": "string"
            },
            {
              "internalType": "string",
              "name": "userAt",
              "type": "string"
            },
            {
              "internalType": "string",
              "name": "date",
              "type": "string"
            },
            {
              "internalType": "string",
              "name": "text",
              "type": "string"
            },
            {
              "internalType": "string",
              "name": "cId",
              "type": "string"
            },
            {
              "internalType": "uint256",
              "name": "likes",
              "type": "uint256"
            },
            {
              "internalType": "uint256",
              "name": "dislikes",
              "type": "uint256"
            }
          ],
          "internalType": "struct DecentraModules.Tweet[]",
          "name": "",
          "type": "tuple[]"
        }
      ],
      "stateMutability": "view",
      "type": "function",
      "constant": true
    },
    {
      "inputs": [
        {
          "internalType": "uint256",
          "name": "id",
          "type": "uint256"
        }
      ],
      "name": "deleteTweet",
      "outputs": [],
      "stateMutability": "nonpayable",
      "type": "function"
    },
    {
      "inputs": [
        {
          "internalType": "uint256",
          "name": "id",
          "type": "uint256"
        }
      ],
      "name": "deleteTweetregardless",
      "outputs": [],
      "stateMutability": "nonpayable",
      "type": "function"
    },
    {
      "inputs": [
        {
          "internalType": "uint256",
          "name": "p_id",
          "type": "uint256"
        },
        {
          "internalType": "string",
          "name": "_username",
          "type": "string"
        },
        {
          "internalType": "string",
          "name": "_userAt",
          "type": "string"
        },
        {
          "internalType": "string",
          "name": "_date",
          "type": "string"
        },
        {
          "internalType": "string",
          "name": "_text",
          "type": "string"
        },
        {
          "internalType": "string",
          "name": "_cId",
          "type": "string"
        },
        {
          "internalType": "string",
          "name": "_avatar",
          "type": "string"
        }
      ],
      "name": "addComment",
      "outputs": [],
      "stateMutability": "nonpayable",
      "type": "function"
    },
    {
      "inputs": [
        {
          "internalType": "uint256",
          "name": "p_id",
          "type": "uint256"
        }
      ],
      "name": "getComments",
      "outputs": [
        {
          "components": [
            {
              "internalType": "address",
              "name": "commentOwner",
              "type": "address"
            },
            {
              "internalType": "uint256",
              "name": "c_id",
              "type": "uint256"
            },
            {
              "internalType": "uint256",
              "name": "p_id",
              "type": "uint256"
            },
            {
              "internalType": "string",
              "name": "username",
              "type": "string"
            },
            {
              "internalType": "string",
              "name": "userAt",
              "type": "string"
            },
            {
              "internalType": "string",
              "name": "date",
              "type": "string"
            },
            {
              "internalType": "string",
              "name": "text",
              "type": "string"
            },
            {
              "internalType": "string",
              "name": "cId",
              "type": "string"
            },
            {
              "internalType": "uint256",
              "name": "likes",
              "type": "uint256"
            },
            {
              "internalType": "uint256",
              "name": "dislikes",
              "type": "uint256"
            },
            {
              "internalType": "string",
              "name": "avatar",
              "type": "string"
            }
          ],
          "internalType": "struct DecentraModules.Comment[]",
          "name": "",
          "type": "tuple[]"
        }
      ],
      "stateMutability": "view",
      "type": "function",
      "constant": true
    },
    {
      "inputs": [
        {
          "internalType": "uint256",
          "name": "p_id",
          "type": "uint256"
        },
        {
          "internalType": "uint256",
          "name": "id",
          "type": "uint256"
        }
      ],
      "name": "deleteComment",
      "outputs": [],
      "stateMutability": "nonpayable",
      "type": "function"
    },
    {
      "inputs": [
        {
          "internalType": "uint256",
          "name": "p_id",
          "type": "uint256"
        },
        {
          "internalType": "uint256",
          "name": "id",
          "type": "uint256"
        }
      ],
      "name": "deleteCommentregardless",
      "outputs": [],
      "stateMutability": "nonpayable",
      "type": "function"
    },
    {
      "inputs": [
        {
          "internalType": "string",
          "name": "_name",
          "type": "string"
        },
        {
          "internalType": "string",
          "name": "_location",
          "type": "string"
        }
      ],
      "name": "addTrend",
      "outputs": [],
      "stateMutability": "nonpayable",
      "type": "function"
    },
    {
      "inputs": [],
      "name": "getTrends",
      "outputs": [
        {
          "components": [
            {
              "internalType": "uint256",
              "name": "t_id",
              "type": "uint256"
            },
            {
              "internalType": "string",
              "name": "t_name",
              "type": "string"
            },
            {
              "internalType": "string",
              "name": "t_location",
              "type": "string"
            }
          ],
          "internalType": "struct DecentraModules.Trend[]",
          "name": "",
          "type": "tuple[]"
        }
      ],
      "stateMutability": "view",
      "type": "function",
      "constant": true
    },
    {
      "inputs": [
        {
          "internalType": "uint256",
          "name": "_id",
          "type": "uint256"
        }
      ],
      "name": "getMentions",
      "outputs": [
        {
          "internalType": "uint256",
          "name": "",
          "type": "uint256"
        }
      ],
      "stateMutability": "view",
      "type": "function",
      "constant": true
    }
  ],
  "bytecode": "0x60806040526103e860065534801561001657600080fd5b50600080546001600160a01b03191633179055615034806100386000396000f3fe608060405234801561001057600080fd5b50600436106101545760003560e01c80631460473814610159578063192ed92d1461016e5780631dc0d3441461018157806323edf697146101945780632e06f347146101bd5780632f5899d7146101e55780632f692f3f146102055780632f8242631461021a57806331a4bcb514610248578063378a35cd1461025b5780633aef9be31461026e57806353256135146102985780635775912a146102a05780638da5cb5b146102b35780638f0f315f146102de578063a370fdb4146102fe578063a7656e3314610311578063aa851ba714610324578063adab264d14610337578063bfbfa81e1461034a578063c0939b7b1461035d578063d3a0108a14610370578063e23b5b6e14610390578063e4313944146103a3578063e8d857b0146103b6578063ec5ec59b146103c9578063f99483ea146103eb578063fc6c776f146103fe575b600080fd5b61016c610167366004614484565b610411565b005b61016c61017c3660046144e7565b61062e565b61016c61018f366004614500565b610bf8565b6101a76101a23660046144e7565b610eaa565b6040516101b49190614624565b60405180910390f35b6101d06101cb366004614774565b6112c8565b6040516101b49998979695949392919061479e565b6101f86101f3366004614834565b6115e2565b6040516101b49190614856565b61020d61195b565b6040516101b49190614952565b61023a6102283660046144e7565b60009081526001602052604090205490565b6040519081526020016101b4565b61016c6102563660046149d5565b611ae8565b61016c6102693660046144e7565b611e71565b61028161027c3660046144e7565b611fcd565b6040516101b49b9a999897969594939291906149f7565b6101f8612371565b61016c6102ae3660046144e7565b6126d6565b6000546102c6906001600160a01b031681565b6040516001600160a01b0390911681526020016101b4565b6102f16102ec3660046144e7565b612ce6565b6040516101b49190614aaa565b61016c61030c3660046144e7565b612d52565b61016c61031f3660046144e7565b612f17565b61016c610332366004614af7565b6131ec565b6102f16103453660046144e7565b6134d2565b61016c610358366004614bf6565b61353c565b61016c61036b3660046144e7565b6137d5565b61023a61037e3660046144e7565b60016020526000908152604090205481565b6102c661039e3660046149d5565b613a74565b61016c6103b13660046149d5565b613aac565b6101d06103c43660046144e7565b613d9b565b6103dc6103d73660046144e7565b613de1565b6040516101b493929190614c2b565b6102c66103f93660046149d5565b613f27565b61028161040c3660046149d5565b613f43565b600654600080805b600254811015610520576104d96002828154811061043957610439614c60565b9060005260206000209060030201600101805461045590614c76565b80601f016020809104026020016040519081016040528092919081815260200182805461048190614c76565b80156104ce5780601f106104a3576101008083540402835291602001916104ce565b820191906000526020600020905b8154815290600101906020018083116104b157829003601f168201915b505050505087613f9c565b1561050e5760019250600281815481106104f5576104f5614c60565b9060005260206000209060030201600001549350610520565b8061051881614cc6565b915050610419565b50811561055b57506000828152600160205260409020548061054181614cc6565b600085815260016020526040902081905591506106279050565b6006805490600061056b83614cc6565b9091555050604080516060810182528481526020810187815291810186905260028054600181018255600091909152815160039091027f405787fa12a823e0f2b7631cc41b3ba8828b3321ca811111fa75cd3aa3bb5ace81019182559251919290917f405787fa12a823e0f2b7631cc41b3ba8828b3321ca811111fa75cd3aa3bb5acf909101906105fc9082614d42565b50604082015160028201906106119082614d42565b5050506000838152600160208190526040909120555b5050505050565b336000908152600960205260408120905b6007548110156108d057826007828154811061065d5761065d614c60565b906000526020600020906009020160010154036108be5760075460010361071657600780548061068f5761068f614dfb565b60008281526020812060096000199093019283020180546001600160a01b031916815560018101829055906106c76002830182614040565b6106d5600383016000614040565b6106e3600483016000614040565b6106f1600583016000614040565b6106ff600683016000614040565b5060006007820181905560089091015590556108be565b805b60075461072790600190614e11565b81101561082957600761073b826001614e24565b8154811061074b5761074b614c60565b90600052602060002090600902016007828154811061076c5761076c614c60565b60009182526020909120825460099092020180546001600160a01b0319166001600160a01b03909216919091178155600180830154908201556002808201906107b790840182614e37565b506003818101906107ca90840182614e37565b506004818101906107dd90840182614e37565b506005818101906107f090840182614e37565b5060068181019061080390840182614e37565b50600782810154908201556008918201549101558061082181614cc6565b915050610718565b50600780548061083b5761083b614dfb565b60008281526020812060096000199093019283020180546001600160a01b031916815560018101829055906108736002830182614040565b610881600383016000614040565b61088f600483016000614040565b61089d600583016000614040565b6108ab600683016000614040565b5060006007820181905560089091015590555b806108c881614cc6565b91505061063f565b5060005b8154811015610bf357828282815481106108f0576108f0614c60565b90600052602060002090600902016001015403610be157336001600160a01b031682828154811061092357610923614c60565b60009182526020909120600990910201546001600160a01b0316146109635760405162461bcd60e51b815260040161095a90614f03565b60405180910390fd5b8154600103610a20578180548061097c5761097c614dfb565b60008281526020812060096000199093019283020180546001600160a01b031916815560018101829055906109b46002830182614040565b6109c2600383016000614040565b6109d0600483016000614040565b6109de600583016000614040565b6109ec600683016000614040565b50600060078201819055600890910181905591553381526009602052604090208254610a1a9190849061407d565b50610be1565b805b8254610a3090600190614e11565b811015610b305782610a43826001614e24565b81548110610a5357610a53614c60565b9060005260206000209060090201838281548110610a7357610a73614c60565b60009182526020909120825460099092020180546001600160a01b0319166001600160a01b0390921691909117815560018083015490820155600280820190610abe90840182614e37565b50600381810190610ad190840182614e37565b50600481810190610ae490840182614e37565b50600581810190610af790840182614e37565b50600681810190610b0a90840182614e37565b506007828101549082015560089182015491015580610b2881614cc6565b915050610a22565b5081805480610b4157610b41614dfb565b60008281526020812060096000199093019283020180546001600160a01b03191681556001810182905590610b796002830182614040565b610b87600383016000614040565b610b95600483016000614040565b610ba3600583016000614040565b610bb1600683016000614040565b50600060078201819055600890910181905591553381526009602052604090208254610bdf9190849061407d565b505b80610beb81614cc6565b9150506108d4565b505050565b600680549081906000610c0a83614cc6565b9091555050604080516101208101825233815260208101838152918101888152606082018890526080820187905260a0820186905260c08201859052600060e08301819052610100830181905260078054600181018255915282517fa66cc928b5edb82af9bd49922954155ab7b0942694bea4ce44661d9a8736c688600990920291820180546001600160a01b0319166001600160a01b0390921691909117815593517fa66cc928b5edb82af9bd49922954155ab7b0942694bea4ce44661d9a8736c68982015590519192917fa66cc928b5edb82af9bd49922954155ab7b0942694bea4ce44661d9a8736c68a90910190610d059082614d42565b5060608201516003820190610d1a9082614d42565b5060808201516004820190610d2f9082614d42565b5060a08201516005820190610d449082614d42565b5060c08201516006820190610d599082614d42565b5060e0828101516007830155610100928301516008909201919091553360008181526009602081815260408084208151610120810183529586528583018981529186018e8152606087018e9052608087018d905260a087018c905260c087018b90529686018590529685018490528654600180820189558886529290942085519490930290920180546001600160a01b0319166001600160a01b0390941693909317835590519082015591519091906002820190610e179082614d42565b5060608201516003820190610e2c9082614d42565b5060808201516004820190610e419082614d42565b5060a08201516005820190610e569082614d42565b5060c08201516006820190610e6b9082614d42565b5060e08201516007820155610100909101516008909101553360009081526009602052604090208154610ea09190839061407d565b5050505050505050565b606060036000838152602001908152602001600020805480602002602001604051908101604052809291908181526020016000905b828210156112bd5760008481526020908190206040805161016081018252600b860290920180546001600160a01b03168352600181015493830193909352600283015490820152600382018054919291606084019190610f3e90614c76565b80601f0160208091040260200160405190810160405280929190818152602001828054610f6a90614c76565b8015610fb75780601f10610f8c57610100808354040283529160200191610fb7565b820191906000526020600020905b815481529060010190602001808311610f9a57829003601f168201915b50505050508152602001600482018054610fd090614c76565b80601f0160208091040260200160405190810160405280929190818152602001828054610ffc90614c76565b80156110495780601f1061101e57610100808354040283529160200191611049565b820191906000526020600020905b81548152906001019060200180831161102c57829003601f168201915b5050505050815260200160058201805461106290614c76565b80601f016020809104026020016040519081016040528092919081815260200182805461108e90614c76565b80156110db5780601f106110b0576101008083540402835291602001916110db565b820191906000526020600020905b8154815290600101906020018083116110be57829003601f168201915b505050505081526020016006820180546110f490614c76565b80601f016020809104026020016040519081016040528092919081815260200182805461112090614c76565b801561116d5780601f106111425761010080835404028352916020019161116d565b820191906000526020600020905b81548152906001019060200180831161115057829003601f168201915b5050505050815260200160078201805461118690614c76565b80601f01602080910402602001604051908101604052809291908181526020018280546111b290614c76565b80156111ff5780601f106111d4576101008083540402835291602001916111ff565b820191906000526020600020905b8154815290600101906020018083116111e257829003601f168201915b505050505081526020016008820154815260200160098201548152602001600a8201805461122c90614c76565b80601f016020809104026020016040519081016040528092919081815260200182805461125890614c76565b80156112a55780601f1061127a576101008083540402835291602001916112a5565b820191906000526020600020905b81548152906001019060200180831161128857829003601f168201915b50505050508152505081526020019060010190610edf565b505050509050919050565b600960205281600052604060002081815481106112e457600080fd5b60009182526020909120600990910201805460018201546002830180546001600160a01b0390931695509093509061131b90614c76565b80601f016020809104026020016040519081016040528092919081815260200182805461134790614c76565b80156113945780601f1061136957610100808354040283529160200191611394565b820191906000526020600020905b81548152906001019060200180831161137757829003601f168201915b5050505050908060030180546113a990614c76565b80601f01602080910402602001604051908101604052809291908181526020018280546113d590614c76565b80156114225780601f106113f757610100808354040283529160200191611422565b820191906000526020600020905b81548152906001019060200180831161140557829003601f168201915b50505050509080600401805461143790614c76565b80601f016020809104026020016040519081016040528092919081815260200182805461146390614c76565b80156114b05780601f10611485576101008083540402835291602001916114b0565b820191906000526020600020905b81548152906001019060200180831161149357829003601f168201915b5050505050908060050180546114c590614c76565b80601f01602080910402602001604051908101604052809291908181526020018280546114f190614c76565b801561153e5780601f106115135761010080835404028352916020019161153e565b820191906000526020600020905b81548152906001019060200180831161152157829003601f168201915b50505050509080600601805461155390614c76565b80601f016020809104026020016040519081016040528092919081815260200182805461157f90614c76565b80156115cc5780601f106115a1576101008083540402835291602001916115cc565b820191906000526020600020905b8154815290600101906020018083116115af57829003601f168201915b5050505050908060070154908060080154905089565b6001600160a01b0381166000908152600960209081526040808320805482518185028101850190935280835260609492939192909184015b828210156112bd57600084815260209081902060408051610120810182526009860290920180546001600160a01b031683526001810154938301939093526002830180549293929184019161166e90614c76565b80601f016020809104026020016040519081016040528092919081815260200182805461169a90614c76565b80156116e75780601f106116bc576101008083540402835291602001916116e7565b820191906000526020600020905b8154815290600101906020018083116116ca57829003601f168201915b5050505050815260200160038201805461170090614c76565b80601f016020809104026020016040519081016040528092919081815260200182805461172c90614c76565b80156117795780601f1061174e57610100808354040283529160200191611779565b820191906000526020600020905b81548152906001019060200180831161175c57829003601f168201915b5050505050815260200160048201805461179290614c76565b80601f01602080910402602001604051908101604052809291908181526020018280546117be90614c76565b801561180b5780601f106117e05761010080835404028352916020019161180b565b820191906000526020600020905b8154815290600101906020018083116117ee57829003601f168201915b5050505050815260200160058201805461182490614c76565b80601f016020809104026020016040519081016040528092919081815260200182805461185090614c76565b801561189d5780601f106118725761010080835404028352916020019161189d565b820191906000526020600020905b81548152906001019060200180831161188057829003601f168201915b505050505081526020016006820180546118b690614c76565b80601f01602080910402602001604051908101604052809291908181526020018280546118e290614c76565b801561192f5780601f106119045761010080835404028352916020019161192f565b820191906000526020600020905b81548152906001019060200180831161191257829003601f168201915b50505050508152602001600782015481526020016008820154815250508152602001906001019061161a565b60606002805480602002602001604051908101604052809291908181526020016000905b82821015611adf5783829060005260206000209060030201604051806060016040529081600082015481526020016001820180546119bc90614c76565b80601f01602080910402602001604051908101604052809291908181526020018280546119e890614c76565b8015611a355780601f10611a0a57610100808354040283529160200191611a35565b820191906000526020600020905b815481529060010190602001808311611a1857829003601f168201915b50505050508152602001600282018054611a4e90614c76565b80601f0160208091040260200160405190810160405280929190818152602001828054611a7a90614c76565b8015611ac75780601f10611a9c57610100808354040283529160200191611ac7565b820191906000526020600020905b815481529060010190602001808311611aaa57829003601f168201915b5050505050815250508152602001906001019061197f565b50505050905090565b6000828152600360205260408120905b8154811015611e4e5782828281548110611b1457611b14614c60565b90600052602060002090600b02016001015403611e3c57336001600160a01b0316828281548110611b4757611b47614c60565b60009182526020909120600b90910201546001600160a01b031614611ba25760405162461bcd60e51b81526020600482015260116024820152703737ba1031b7b6b6b2b73a1037bbb732b960791b604482015260640161095a565b8154600103611c5b5781805480611bbb57611bbb614dfb565b600082815260208120600b6000199093019283020180546001600160a01b0319168155600181018290556002810182905590611bfa6003830182614040565b611c08600483016000614040565b611c16600583016000614040565b611c24600683016000614040565b611c32600783016000614040565b60088201600090556009820160009055600a82016000611c529190614040565b50509055611e3c565b805b8254611c6b90600190614e11565b811015611d8f5782611c7e826001614e24565b81548110611c8e57611c8e614c60565b90600052602060002090600b0201838281548110611cae57611cae614c60565b600091825260209091208254600b9092020180546001600160a01b0319166001600160a01b039092169190911781556001808301549082015560028083015490820155600380820190611d0390840182614e37565b50600481810190611d1690840182614e37565b50600581810190611d2990840182614e37565b50600681810190611d3c90840182614e37565b50600781810190611d4f90840182614e37565b506008820154816008015560098201548160090155600a820181600a019081611d789190614e37565b509050508080611d8790614cc6565b915050611c5d565b5081805480611da057611da0614dfb565b600082815260208120600b6000199093019283020180546001600160a01b0319168155600181018290556002810182905590611ddf6003830182614040565b611ded600483016000614040565b611dfb600583016000614040565b611e09600683016000614040565b611e17600783016000614040565b60088201600090556009820160009055600a82016000611e379190614040565b505090555b80611e4681614cc6565b915050611af8565b5060008381526003602052604090208154611e6b9190839061416c565b50505050565b60008181526004602090815260408220805460018101825581845291832090910180546001600160a01b03191633179055908290528054611eb59082908190614276565b50600160005b600754811015611f41578360078281548110611ed957611ed9614c60565b90600052602060002090600902016001015403611f2f5760078181548110611f0357611f03614c60565b600091825260208220600760099092020101805491611f2183614cc6565b919050555060009150611f41565b80611f3981614cc6565b915050611ebb565b508015610bf35760005b600854811015611e6b578360088281548110611f6957611f69614c60565b90600052602060002090600b02016001015403611fbb5760088181548110611f9357611f93614c60565b6000918252602082206008600b9092020101805491611fb183614cc6565b9190505550611e6b565b80611fc581614cc6565b915050611f4b565b60088181548110611fdd57600080fd5b60009182526020909120600b909102018054600182015460028301546003840180546001600160a01b0390941695509193909290919061201c90614c76565b80601f016020809104026020016040519081016040528092919081815260200182805461204890614c76565b80156120955780601f1061206a57610100808354040283529160200191612095565b820191906000526020600020905b81548152906001019060200180831161207857829003601f168201915b5050505050908060040180546120aa90614c76565b80601f01602080910402602001604051908101604052809291908181526020018280546120d690614c76565b80156121235780601f106120f857610100808354040283529160200191612123565b820191906000526020600020905b81548152906001019060200180831161210657829003601f168201915b50505050509080600501805461213890614c76565b80601f016020809104026020016040519081016040528092919081815260200182805461216490614c76565b80156121b15780601f10612186576101008083540402835291602001916121b1565b820191906000526020600020905b81548152906001019060200180831161219457829003601f168201915b5050505050908060060180546121c690614c76565b80601f01602080910402602001604051908101604052809291908181526020018280546121f290614c76565b801561223f5780601f106122145761010080835404028352916020019161223f565b820191906000526020600020905b81548152906001019060200180831161222257829003601f168201915b50505050509080600701805461225490614c76565b80601f016020809104026020016040519081016040528092919081815260200182805461228090614c76565b80156122cd5780601f106122a2576101008083540402835291602001916122cd565b820191906000526020600020905b8154815290600101906020018083116122b057829003601f168201915b50505050509080600801549080600901549080600a0180546122ee90614c76565b80601f016020809104026020016040519081016040528092919081815260200182805461231a90614c76565b80156123675780601f1061233c57610100808354040283529160200191612367565b820191906000526020600020905b81548152906001019060200180831161234a57829003601f168201915b505050505090508b565b60606007805480602002602001604051908101604052809291908181526020016000905b82821015611adf57600084815260209081902060408051610120810182526009860290920180546001600160a01b03168352600181015493830193909352600283018054929392918401916123e990614c76565b80601f016020809104026020016040519081016040528092919081815260200182805461241590614c76565b80156124625780601f1061243757610100808354040283529160200191612462565b820191906000526020600020905b81548152906001019060200180831161244557829003601f168201915b5050505050815260200160038201805461247b90614c76565b80601f01602080910402602001604051908101604052809291908181526020018280546124a790614c76565b80156124f45780601f106124c9576101008083540402835291602001916124f4565b820191906000526020600020905b8154815290600101906020018083116124d757829003601f168201915b5050505050815260200160048201805461250d90614c76565b80601f016020809104026020016040519081016040528092919081815260200182805461253990614c76565b80156125865780601f1061255b57610100808354040283529160200191612586565b820191906000526020600020905b81548152906001019060200180831161256957829003601f168201915b5050505050815260200160058201805461259f90614c76565b80601f01602080910402602001604051908101604052809291908181526020018280546125cb90614c76565b80156126185780601f106125ed57610100808354040283529160200191612618565b820191906000526020600020905b8154815290600101906020018083116125fb57829003601f168201915b5050505050815260200160068201805461263190614c76565b80601f016020809104026020016040519081016040528092919081815260200182805461265d90614c76565b80156126aa5780601f1061267f576101008083540402835291602001916126aa565b820191906000526020600020905b81548152906001019060200180831161268d57829003601f168201915b505050505081526020016007820154815260200160088201548152505081526020019060010190612395565b336000908152600960205260408120905b6007548110156129cc57826007828154811061270557612705614c60565b906000526020600020906009020160010154036129ba57336001600160a01b03166007828154811061273957612739614c60565b60009182526020909120600990910201546001600160a01b0316146127705760405162461bcd60e51b815260040161095a90614f03565b60075460010361281257600780548061278b5761278b614dfb565b60008281526020812060096000199093019283020180546001600160a01b031916815560018101829055906127c36002830182614040565b6127d1600383016000614040565b6127df600483016000614040565b6127ed600583016000614040565b6127fb600683016000614040565b5060006007820181905560089091015590556129ba565b805b60075461282390600190614e11565b811015612925576007612837826001614e24565b8154811061284757612847614c60565b90600052602060002090600902016007828154811061286857612868614c60565b60009182526020909120825460099092020180546001600160a01b0319166001600160a01b03909216919091178155600180830154908201556002808201906128b390840182614e37565b506003818101906128c690840182614e37565b506004818101906128d990840182614e37565b506005818101906128ec90840182614e37565b506006818101906128ff90840182614e37565b50600782810154908201556008918201549101558061291d81614cc6565b915050612814565b50600780548061293757612937614dfb565b60008281526020812060096000199093019283020180546001600160a01b0319168155600181018290559061296f6002830182614040565b61297d600383016000614040565b61298b600483016000614040565b612999600583016000614040565b6129a7600683016000614040565b5060006007820181905560089091015590555b806129c481614cc6565b9150506126e7565b5060005b8154811015610bf357828282815481106129ec576129ec614c60565b90600052602060002090600902016001015403612cd457336001600160a01b0316828281548110612a1f57612a1f614c60565b60009182526020909120600990910201546001600160a01b031614612a565760405162461bcd60e51b815260040161095a90614f03565b8154600103612b135781805480612a6f57612a6f614dfb565b60008281526020812060096000199093019283020180546001600160a01b03191681556001810182905590612aa76002830182614040565b612ab5600383016000614040565b612ac3600483016000614040565b612ad1600583016000614040565b612adf600683016000614040565b50600060078201819055600890910181905591553381526009602052604090208254612b0d9190849061407d565b50612cd4565b805b8254612b2390600190614e11565b811015612c235782612b36826001614e24565b81548110612b4657612b46614c60565b9060005260206000209060090201838281548110612b6657612b66614c60565b60009182526020909120825460099092020180546001600160a01b0319166001600160a01b0390921691909117815560018083015490820155600280820190612bb190840182614e37565b50600381810190612bc490840182614e37565b50600481810190612bd790840182614e37565b50600581810190612bea90840182614e37565b50600681810190612bfd90840182614e37565b506007828101549082015560089182015491015580612c1b81614cc6565b915050612b15565b5081805480612c3457612c34614dfb565b60008281526020812060096000199093019283020180546001600160a01b03191681556001810182905590612c6c6002830182614040565b612c7a600383016000614040565b612c88600483016000614040565b612c96600583016000614040565b612ca4600683016000614040565b50600060078201819055600890910181905591553381526009602052604090208254612cd29190849061407d565b505b80612cde81614cc6565b9150506129d0565b600081815260056020908152604091829020805483518184028101840190945280845260609392830182828015612d4657602002820191906000526020600020905b81546001600160a01b03168152600190910190602001808311612d28575b50505050509050919050565b600081815260056020908152604082208054600181810183558285529284200180546001600160a01b03191633179055918390528154612d959083908190614276565b5060005b600754811015612e55578360078281548110612db757612db7614c60565b90600052602060002090600902016001015403612e435760078181548110612de157612de1614c60565b600091825260208220600860099092020101805491612dff83614cc6565b919050555060009150600160078281548110612e1d57612e1d614c60565b90600052602060002090600902016007015410612e3e57612e3e818361353c565b612e55565b80612e4d81614cc6565b915050612d99565b508015610bf35760005b600854811015611e6b578360088281548110612e7d57612e7d614c60565b90600052602060002090600b02016001015403612f055760088181548110612ea757612ea7614c60565b6000918252602082206009600b9092020101805491612ec583614cc6565b9190505550600160088281548110612edf57612edf614c60565b90600052602060002090600b02016008015410612f0057612f00818361353c565b611e6b565b80612f0f81614cc6565b915050612e5f565b6000818152600460205260408120906001905b825481101561308d57336001600160a01b0316838281548110612f4f57612f4f614c60565b6000918252602090912001546001600160a01b03160361307b578254600103612fa95782805480612f8257612f82614dfb565b600082815260209020810160001990810180546001600160a01b031916905501905561307b565b805b8354612fb990600190614e11565b8110156130475783612fcc826001614e24565b81548110612fdc57612fdc614c60565b9060005260206000200160009054906101000a90046001600160a01b031684828154811061300c5761300c614c60565b600091825260209091200180546001600160a01b0319166001600160a01b03929092169190911790558061303f81614cc6565b915050612fab565b508280548061305857613058614dfb565b600082815260209020810160001990810180546001600160a01b03191690550190555b8061308581614cc6565b915050612f2a565b50600083815260046020526040902082546130aa91908490614276565b5060005b60075481101561316a5783600782815481106130cc576130cc614c60565b9060005260206000209060090201600101540361315857600781815481106130f6576130f6614c60565b60009182526020822060076009909202010180549161311483614f2c565b91905055506000915060016007828154811061313257613132614c60565b9060005260206000209060090201600701541061315357613153818361353c565b61316a565b8061316281614cc6565b9150506130ae565b508015610bf35760005b600854811015611e6b57836008828154811061319257613192614c60565b90600052602060002090600b020160010154036131da57600881815481106131bc576131bc614c60565b6000918252602082206008600b9092020101805491612ec583614f2c565b806131e481614cc6565b915050613174565b6006805490819060006131fe83614cc6565b91905055506000604051806101600160405280336001600160a01b031681526020018381526020018a815260200189815260200188815260200187815260200186815260200185815260200160008152602001600081526020018481525090506008604051806101600160405280336001600160a01b031681526020018481526020018b81526020018a815260200189815260200188815260200187815260200186815260200160008152602001600081526020018581525090806001815401808255809150506001900390600052602060002090600b020160009091909190915060008201518160000160006101000a8154816001600160a01b0302191690836001600160a01b03160217905550602082015181600101556040820151816002015560608201518160030190816133369190614d42565b506080820151600482019061334b9082614d42565b5060a082015160058201906133609082614d42565b5060c082015160068201906133759082614d42565b5060e0820151600782019061338a9082614d42565b5061010082015160088201556101208201516009820155610140820151600a8201906133b69082614d42565b5050506000898152600360208181526040808420805460018082018355828752958490208751600b9092020180546001600160a01b0319166001600160a01b0390921691909117815592860151948301949094558401516002820155606084015184928201906134269082614d42565b506080820151600482019061343b9082614d42565b5060a082015160058201906134509082614d42565b5060c082015160068201906134659082614d42565b5060e0820151600782019061347a9082614d42565b5061010082015160088201556101208201516009820155610140820151600a8201906134a69082614d42565b50505060008a815260036020526040902081546134c59190839061416c565b5050505050505050505050565b600081815260046020908152604091829020805483518184028101840190945280845260609392830182828015612d46576020028201919060005260206000209081546001600160a01b03168152600190910190602001808311612d285750505050509050919050565b604f1960008261367b576007848154811061355957613559614c60565b90600052602060002090600902016008015460646135779190614f43565b6007858154811061358a5761358a614c60565b90600052602060002090600902016007015460646135a89190614f43565b6135b29190614f73565b9050600784815481106135c7576135c7614c60565b906000526020600020906009020160080154600785815481106135ec576135ec614c60565b9060005260206000209060090201600701546136089190614f9a565b6136129082614fc2565b9050818113158015613649575060016007858154811061363457613634614c60565b90600052602060002090600902016007015410155b15612f0057612f006007858154811061366457613664614c60565b90600052602060002090600902016001015461062e565b6008848154811061368e5761368e614c60565b90600052602060002090600b02016009015460646136ac9190614f43565b600885815481106136bf576136bf614c60565b90600052602060002090600b02016008015460646136dd9190614f43565b6136e79190614f73565b9050600884815481106136fc576136fc614c60565b90600052602060002090600b0201600901546008858154811061372157613721614c60565b90600052602060002090600b02016008015461373d9190614f9a565b6137479082614fc2565b905081811315801561377e575060016008858154811061376957613769614c60565b90600052602060002090600b02016008015410155b15611e6b57611e6b6008858154811061379957613799614c60565b90600052602060002090600b020160020154600886815481106137be576137be614c60565b90600052602060002090600b020160010154613aac565b6000818152600560205260408120906001905b825481101561394b57336001600160a01b031683828154811061380d5761380d614c60565b6000918252602090912001546001600160a01b031603613939578254600103613867578280548061384057613840614dfb565b600082815260209020810160001990810180546001600160a01b0319169055019055613939565b805b835461387790600190614e11565b811015613905578361388a826001614e24565b8154811061389a5761389a614c60565b9060005260206000200160009054906101000a90046001600160a01b03168482815481106138ca576138ca614c60565b600091825260209091200180546001600160a01b0319166001600160a01b0392909216919091179055806138fd81614cc6565b915050613869565b508280548061391657613916614dfb565b600082815260209020810160001990810180546001600160a01b03191690550190555b8061394381614cc6565b9150506137e8565b506000838152600560205260409020825461396891908490614276565b5060005b6007548110156139f257836007828154811061398a5761398a614c60565b906000526020600020906009020160010154036139e057600781815481106139b4576139b4614c60565b6000918252602082206008600990920201018054916139d283614f2c565b9190505550600091506139f2565b806139ea81614cc6565b91505061396c565b508015610bf35760005b600854811015611e6b578360088281548110613a1a57613a1a614c60565b90600052602060002090600b02016001015403613a625760088181548110613a4457613a44614c60565b6000918252602082206009600b9092020101805491611fb183614f2c565b80613a6c81614cc6565b9150506139fc565b60056020528160005260406000208181548110613a9057600080fd5b6000918252602090912001546001600160a01b03169150829050565b6000828152600360205260408120905b8154811015611e4e5782828281548110613ad857613ad8614c60565b90600052602060002090600b02016001015403613d89578154600103613ba85781805480613b0857613b08614dfb565b600082815260208120600b6000199093019283020180546001600160a01b0319168155600181018290556002810182905590613b476003830182614040565b613b55600483016000614040565b613b63600583016000614040565b613b71600683016000614040565b613b7f600783016000614040565b60088201600090556009820160009055600a82016000613b9f9190614040565b50509055613d89565b805b8254613bb890600190614e11565b811015613cdc5782613bcb826001614e24565b81548110613bdb57613bdb614c60565b90600052602060002090600b0201838281548110613bfb57613bfb614c60565b600091825260209091208254600b9092020180546001600160a01b0319166001600160a01b039092169190911781556001808301549082015560028083015490820155600380820190613c5090840182614e37565b50600481810190613c6390840182614e37565b50600581810190613c7690840182614e37565b50600681810190613c8990840182614e37565b50600781810190613c9c90840182614e37565b506008820154816008015560098201548160090155600a820181600a019081613cc59190614e37565b509050508080613cd490614cc6565b915050613baa565b5081805480613ced57613ced614dfb565b600082815260208120600b6000199093019283020180546001600160a01b0319168155600181018290556002810182905590613d2c6003830182614040565b613d3a600483016000614040565b613d48600583016000614040565b613d56600683016000614040565b613d64600783016000614040565b60088201600090556009820160009055600a82016000613d849190614040565b505090555b80613d9381614cc6565b915050613abc565b60078181548110613dab57600080fd5b60009182526020909120600990910201805460018201546002830180546001600160a01b03909316945090929161131b90614c76565b60028181548110613df157600080fd5b60009182526020909120600390910201805460018201805491935090613e1690614c76565b80601f0160208091040260200160405190810160405280929190818152602001828054613e4290614c76565b8015613e8f5780601f10613e6457610100808354040283529160200191613e8f565b820191906000526020600020905b815481529060010190602001808311613e7257829003601f168201915b505050505090806002018054613ea490614c76565b80601f0160208091040260200160405190810160405280929190818152602001828054613ed090614c76565b8015613f1d5780601f10613ef257610100808354040283529160200191613f1d565b820191906000526020600020905b815481529060010190602001808311613f0057829003601f168201915b5050505050905083565b60046020528160005260406000208181548110613a9057600080fd5b60036020528160005260406000208181548110613f5f57600080fd5b60009182526020909120600b909102018054600182015460028301546003840180546001600160a01b039094169650919450929161201c90614c76565b8151815160009184918491908114613fba576000935050505061403a565b60005b8181101561403157828181518110613fd757613fd7614c60565b602001015160f81c60f81b6001600160f81b031916848281518110613ffe57613ffe614c60565b01602001516001600160f81b0319161461401f57600094505050505061403a565b8061402981614cc6565b915050613fbd565b50600193505050505b92915050565b50805461404c90614c76565b6000825580601f1061405c575050565b601f01602090049060005260206000209081019061407a91906142be565b50565b82805482825590600052602060002090600902810192821561415c5760005260206000209160090282015b8281111561415c57825482546001600160a01b0319166001600160a01b039091161782556001808401549083015582826002808201906140ea90840182614e37565b506003818101906140fd90840182614e37565b5060048181019061411090840182614e37565b5060058181019061412390840182614e37565b5060068181019061413690840182614e37565b5060078201548160070155600882015481600801555050916009019190600901906140a8565b506141689291506142d3565b5090565b82805482825590600052602060002090600b02810192821561426a57600052602060002091600b0282015b8281111561426a57825482546001600160a01b0319166001600160a01b03909116178255600180840154908301556002808401549083015582826003808201906141e390840182614e37565b506004818101906141f690840182614e37565b5060058181019061420990840182614e37565b5060068181019061421c90840182614e37565b5060078181019061422f90840182614e37565b506008820154816008015560098201548160090155600a820181600a0190816142589190614e37565b50505091600b019190600b0190614197565b5061416892915061434e565b8280548282559060005260206000209081019282156142b65760005260206000209182015b828111156142b657825482559160010191906001019061429b565b506141689291505b5b8082111561416857600081556001016142bf565b808211156141685780546001600160a01b03191681556000600182018190556142ff6002830182614040565b61430d600383016000614040565b61431b600483016000614040565b614329600583016000614040565b614337600683016000614040565b5060006007820181905560088201556009016142d3565b808211156141685780546001600160a01b0319168155600060018201819055600282018190556143816003830182614040565b61438f600483016000614040565b61439d600583016000614040565b6143ab600683016000614040565b6143b9600783016000614040565b60088201600090556009820160009055600a820160006143d99190614040565b50600b0161434e565b634e487b7160e01b600052604160045260246000fd5b600082601f83011261440957600080fd5b81356001600160401b0380821115614423576144236143e2565b604051601f8301601f19908116603f0116810190828211818310171561444b5761444b6143e2565b8160405283815286602085880101111561446457600080fd5b836020870160208301376000602085830101528094505050505092915050565b6000806040838503121561449757600080fd5b82356001600160401b03808211156144ae57600080fd5b6144ba868387016143f8565b935060208501359150808211156144d057600080fd5b506144dd858286016143f8565b9150509250929050565b6000602082840312156144f957600080fd5b5035919050565b600080600080600060a0868803121561451857600080fd5b85356001600160401b038082111561452f57600080fd5b61453b89838a016143f8565b9650602088013591508082111561455157600080fd5b61455d89838a016143f8565b9550604088013591508082111561457357600080fd5b61457f89838a016143f8565b9450606088013591508082111561459557600080fd5b6145a189838a016143f8565b935060808801359150808211156145b757600080fd5b506145c4888289016143f8565b9150509295509295909350565b6001600160a01b03169052565b6000815180845260005b81811015614604576020818501810151868301820152016145e8565b506000602082860101526020601f19601f83011685010191505092915050565b60006020808301818452808551808352604092508286019150828160051b87010184880160005b8381101561474a57603f19898403018552815161016061466c8583516145d1565b888201518986015287820151888601526060808301518282880152614693838801826145de565b92505050608080830151868303828801526146ae83826145de565b9250505060a080830151868303828801526146c983826145de565b9250505060c080830151868303828801526146e483826145de565b9250505060e080830151868303828801526146ff83826145de565b92505050610100808301518187015250610120808301518187015250610140808301519250858203818701525061473681836145de565b96890196945050509086019060010161464b565b509098975050505050505050565b80356001600160a01b038116811461476f57600080fd5b919050565b6000806040838503121561478757600080fd5b61479083614758565b946020939093013593505050565b6001600160a01b038a16815260208101899052610120604082018190526000906147ca8382018b6145de565b905082810360608401526147de818a6145de565b905082810360808401526147f281896145de565b905082810360a084015261480681886145de565b905082810360c084015261481a81876145de565b60e084019590955250506101000152979650505050505050565b60006020828403121561484657600080fd5b61484f82614758565b9392505050565b60006020808301818452808551808352604092508286019150828160051b87010184880160005b8381101561474a57603f19898403018552815161012061489e8583516145d1565b88820151898601528782015181898701526148bb828701826145de565b915050606080830151868303828801526148d583826145de565b92505050608080830151868303828801526148f083826145de565b9250505060a0808301518683038288015261490b83826145de565b9250505060c0808301518683038288015261492683826145de565b60e08581015190890152610100948501519490970193909352505050938601939086019060010161487d565b60006020808301818452808551808352604092508286019150828160051b87010184880160005b8381101561474a57603f19898403018552815160608151855288820151818a8701526149a7828701826145de565b915050878201519150848103888601526149c181836145de565b968901969450505090860190600101614979565b600080604083850312156149e857600080fd5b50508035926020909101359150565b600061016060018060a01b038e1683528c60208401528b6040840152806060840152614a258184018c6145de565b90508281036080840152614a39818b6145de565b905082810360a0840152614a4d818a6145de565b905082810360c0840152614a6181896145de565b905082810360e0840152614a7581886145de565b90508561010084015284610120840152828103610140840152614a9881856145de565b9e9d5050505050505050505050505050565b6020808252825182820181905260009190848201906040850190845b81811015614aeb5783516001600160a01b031683529284019291840191600101614ac6565b50909695505050505050565b600080600080600080600060e0888a031215614b1257600080fd5b8735965060208801356001600160401b0380821115614b3057600080fd5b614b3c8b838c016143f8565b975060408a0135915080821115614b5257600080fd5b614b5e8b838c016143f8565b965060608a0135915080821115614b7457600080fd5b614b808b838c016143f8565b955060808a0135915080821115614b9657600080fd5b614ba28b838c016143f8565b945060a08a0135915080821115614bb857600080fd5b614bc48b838c016143f8565b935060c08a0135915080821115614bda57600080fd5b50614be78a828b016143f8565b91505092959891949750929550565b60008060408385031215614c0957600080fd5b8235915060208301358015158114614c2057600080fd5b809150509250929050565b838152606060208201526000614c4460608301856145de565b8281036040840152614c5681856145de565b9695505050505050565b634e487b7160e01b600052603260045260246000fd5b600181811c90821680614c8a57607f821691505b602082108103614caa57634e487b7160e01b600052602260045260246000fd5b50919050565b634e487b7160e01b600052601160045260246000fd5b600060018201614cd857614cd8614cb0565b5060010190565b601f821115610bf357600081815260208120601f850160051c81016020861015614d065750805b601f850160051c820191505b81811015614d2557828155600101614d12565b505050505050565b600019600383901b1c191660019190911b1790565b81516001600160401b03811115614d5b57614d5b6143e2565b614d6f81614d698454614c76565b84614cdf565b602080601f831160018114614d9e5760008415614d8c5750858301515b614d968582614d2d565b865550614d25565b600085815260208120601f198616915b82811015614dcd57888601518255948401946001909101908401614dae565b5085821015614deb5787850151600019600388901b60f8161c191681555b5050505050600190811b01905550565b634e487b7160e01b600052603160045260246000fd5b8181038181111561403a5761403a614cb0565b8082018082111561403a5761403a614cb0565b818103614e42575050565b614e4c8254614c76565b6001600160401b03811115614e6357614e636143e2565b614e7181614d698454614c76565b6000601f821160018114614e9f5760008315614e8d5750848201545b614e978482614d2d565b855550610627565b600085815260209020601f19841690600086815260209020845b83811015614ed95782860154825560019586019590910190602001614eb9565b5085831015614deb5793015460001960f8600387901b161c19169092555050600190811b01905550565b6020808252600f908201526e3737ba103a3bb2b2ba1037bbb732b960891b604082015260600190565b600081614f3b57614f3b614cb0565b506000190190565b80820260008212600160ff1b84141615614f5f57614f5f614cb0565b818105831482151761403a5761403a614cb0565b8181036000831280158383131683831282161715614f9357614f93614cb0565b5092915050565b8082018281126000831280158216821582161715614fba57614fba614cb0565b505092915050565b600082614fdf57634e487b7160e01b600052601260045260246000fd5b600160ff1b821460001984141615614ff957614ff9614cb0565b50059056fea26469706673582212209f770f5a6192b7fab913be42a7c48e6b6db6e4ec906cdb20330e9069fe11bccb64736f6c63430008130033",
  "immutableReferences": {},
  "source": "// SPDX-License-Identifier: UNLICENSED\r\npragma solidity ^0.8.17;\r\n\r\ncontract DecentraModules{\r\n    address public owner;\r\n    \r\n    constructor() {\r\n        owner = msg.sender;\r\n    }\r\n\r\n    struct Tweet{\r\n        address tweetOwner;\r\n        uint256 t_id;     \r\n        string username;\r\n        string userAt;\r\n        string date;\r\n        string text;\r\n        string cId;\r\n        uint likes;\r\n        uint dislikes;\r\n        \r\n\r\n    }\r\n\r\n    struct Comment{\r\n        address commentOwner;\r\n        uint256 c_id;\r\n        uint256 p_id;\r\n        string username;\r\n        string userAt;\r\n        string date;\r\n        string text;\r\n        string cId;\r\n        uint likes;\r\n        uint dislikes;\r\n        string avatar;\r\n        \r\n        \r\n    }\r\n\r\n    struct Trend{\r\n        uint256 t_id;\r\n        string t_name;\r\n        string t_location;\r\n        \r\n    }\r\n\r\n    mapping (uint => uint) public mentions;\r\n    Trend[] public trends;\r\n    mapping (uint => Comment[]) public comments; \r\n    mapping (uint => address[]) public liked;\r\n    mapping (uint => address[]) public disliked;\r\n\r\n    uint256 tweetId=1000;\r\n    Tweet[] public tweets;\r\n    Comment[] public cmtarr;\r\n    mapping (address => Tweet[]) public userTweets;\r\n\r\n    function ratio(uint index,bool comment) public {\r\n        int deletionLimit = -80;\r\n        int ratioAmount;\r\n        if(!comment){\r\n            ratioAmount=(int(tweets[index].likes)*100)-(int(tweets[index].dislikes)*100);\r\n            ratioAmount=ratioAmount/(int(tweets[index].likes)+int(tweets[index].dislikes));\r\n            if(ratioAmount<=deletionLimit && tweets[index].likes>=1){\r\n                deleteTweetregardless(tweets[index].t_id);\r\n            }\r\n        }\r\n        else{\r\n             ratioAmount=(int(cmtarr[index].likes)*100)-(int(cmtarr[index].dislikes)*100);\r\n            ratioAmount=ratioAmount/(int(cmtarr[index].likes)+int(cmtarr[index].dislikes));\r\n            if(ratioAmount<=deletionLimit && cmtarr[index].likes>=1){\r\n                    deleteCommentregardless(cmtarr[index].p_id, cmtarr[index].c_id);\r\n            }\r\n        }\r\n        \r\n    }\r\n\r\n    function stringsEquals(string memory s1, string memory s2) private pure returns (bool) {\r\n        bytes memory b1 = bytes(s1);\r\n        bytes memory b2 = bytes(s2);\r\n        uint256 l1 = b1.length;\r\n        if (l1 != b2.length) return false;\r\n        for (uint256 i=0; i<l1; i++) {\r\n            if (b1[i] != b2[i]) return false;\r\n        }\r\n        return true;\r\n\r\n\r\n    }\r\n\r\n    function addLike(uint _id) public {\r\n            address[] storage temp = liked[_id];\r\n            temp.push(msg.sender);\r\n            liked[_id]=temp;\r\n            bool comment=true;\r\n            for(uint i=0;i<tweets.length;i++){\r\n                if(tweets[i].t_id == _id){\r\n                    tweets[i].likes++;\r\n                    comment=false;\r\n                    break;\r\n                }\r\n            }\r\n            if(comment){\r\n                    for(uint i=0;i<cmtarr.length;i++){\r\n                        if(cmtarr[i].c_id == _id){\r\n                            cmtarr[i].likes++;\r\n                            break;\r\n                        }\r\n                }\r\n            }\r\n    }\r\n    function removeLike(uint _id) public{\r\n        address[] storage temp =liked[_id];\r\n        bool comment=true;\r\n            for(uint i=0; i<temp.length; i++)\r\n            {\r\n                if(temp[i] == msg.sender){\r\n                    \r\n                    if(temp.length==1){\r\n                        temp.pop();\r\n                    }\r\n                    else{\r\n                        for(uint j=i; j<temp.length-1;j++){\r\n                            temp[j]=temp[j+1];\r\n                        }\r\n                        temp.pop();\r\n                    }\r\n                }\r\n            }\r\n        liked[_id]=temp;\r\n         for(uint i=0;i<tweets.length;i++){\r\n            if(tweets[i].t_id == _id){\r\n                tweets[i].likes--;\r\n                comment=false;\r\n                if(tweets[i].likes>=1){\r\n                    ratio(i,comment);\r\n                }\r\n                break;\r\n            }\r\n        }\r\n         if(comment){\r\n                    for(uint i=0;i<cmtarr.length;i++){\r\n                        if(cmtarr[i].c_id == _id){\r\n                            cmtarr[i].likes--;\r\n                            if(cmtarr[i].likes>=1){\r\n                                ratio(i,comment);\r\n                            }\r\n                            break;\r\n                        }\r\n                }\r\n            }\r\n\r\n    }\r\n    function getlikes(uint _id) public view returns(address[] memory){\r\n        return liked[_id];\r\n    }\r\n    \r\n     function addDislike(uint _id) public {\r\n        address[] storage temp = disliked[_id];\r\n        bool comment=true;\r\n        temp.push(msg.sender);\r\n        disliked[_id]=temp;\r\n         for(uint i=0;i<tweets.length;i++){\r\n            if(tweets[i].t_id == _id){\r\n                tweets[i].dislikes++;\r\n                comment=false;\r\n                if(tweets[i].likes>=1){\r\n                    ratio(i,comment);\r\n                }\r\n                break;\r\n            }\r\n        }\r\n         if(comment){\r\n                    for(uint i=0;i<cmtarr.length;i++){\r\n                        if(cmtarr[i].c_id == _id){\r\n                            cmtarr[i].dislikes++;\r\n                            if(cmtarr[i].likes>=1){\r\n                                ratio(i,comment);\r\n                            }\r\n                            break;\r\n                        }\r\n                }\r\n            }\r\n\r\n\r\n    }\r\n\r\n    function removeDislike(uint _id) public{\r\n        address[] storage temp =disliked[_id];\r\n        bool comment=true;\r\n            for(uint i=0; i<temp.length; i++)\r\n            {\r\n                if(temp[i] == msg.sender){\r\n                    \r\n                    if(temp.length==1){\r\n                        temp.pop();\r\n                    }\r\n                    else{\r\n                        for(uint j=i; j<temp.length-1;j++){\r\n                            temp[j]=temp[j+1];\r\n                        }\r\n                        temp.pop();\r\n                    }\r\n                }\r\n            }\r\n        disliked[_id]=temp;\r\n\r\n         for(uint i=0;i<tweets.length;i++){\r\n            if(tweets[i].t_id == _id){\r\n                tweets[i].dislikes--;\r\n                comment=false;\r\n                break;\r\n            }\r\n        }\r\n         if(comment){\r\n                    for(uint i=0;i<cmtarr.length;i++){\r\n                        if(cmtarr[i].c_id == _id){\r\n                            cmtarr[i].dislikes--;\r\n                            break;\r\n                        }\r\n                }\r\n            }\r\n\r\n\r\n    }\r\n\r\n      function getdislikes(uint _id) public view returns(address[] memory){\r\n        return disliked[_id];\r\n    }\r\n\r\n     //Functions for Tweets\r\n    function addTweet(string memory _username, string memory _userAt, string memory _date, string memory _text, string memory _cId) public {\r\n        uint id =tweetId;\r\n        tweetId++;\r\n        tweets.push(Tweet(msg.sender ,id, _username, _userAt, _date, _text, _cId,0,0));\r\n        \r\n        Tweet[] storage userSpecificTweets= userTweets[msg.sender];\r\n        userSpecificTweets.push(Tweet(msg.sender ,id, _username, _userAt, _date, _text, _cId,0,0));\r\n        \r\n        userTweets[msg.sender]=userSpecificTweets;\r\n    }\r\n\r\n    function getAllTweets() public view returns(Tweet[] memory){\r\n        return tweets;\r\n    }\r\n\r\n    function getUserTweets(address _user) public view returns(Tweet[] memory){\r\n        return userTweets[_user];\r\n    }\r\n\r\n      function deleteTweet(uint id) public {\r\n        Tweet[] storage userSpecificTweets = userTweets[msg.sender];\r\n        for(uint i=0; i<tweets.length; i++)\r\n        {\r\n            if(tweets[i].t_id == id){\r\n                 require(tweets[i].tweetOwner == msg.sender, \"not tweet owner\");\r\n                if(tweets.length==1){\r\n                    tweets.pop();\r\n                }\r\n                else{\r\n                    for(uint j=i; j<tweets.length-1;j++){\r\n                        tweets[j]=tweets[j+1];\r\n                    }\r\n                    tweets.pop();\r\n                }\r\n            }\r\n        }\r\n        for (uint i=0;i<userSpecificTweets.length;i++){\r\n            if(userSpecificTweets[i].t_id==id){\r\n                require(userSpecificTweets[i].tweetOwner == msg.sender, \"not tweet owner\");\r\n                if(userSpecificTweets.length==1){\r\n                    userSpecificTweets.pop();\r\n                    userTweets[msg.sender]=userSpecificTweets;\r\n                }\r\n                else{\r\n                    for(uint j=i; j<userSpecificTweets.length-1;j++){\r\n                    userSpecificTweets[j]=userSpecificTweets[j+1];\r\n                    }\r\n                    userSpecificTweets.pop();\r\n                    userTweets[msg.sender]=userSpecificTweets;\r\n                }\r\n                \r\n            }\r\n        }\r\n    }\r\n      function deleteTweetregardless(uint id) public {\r\n        Tweet[] storage userSpecificTweets = userTweets[msg.sender];\r\n        for(uint i=0; i<tweets.length; i++)\r\n        {\r\n            if(tweets[i].t_id == id){\r\n                // require(tweets[i].tweetOwner == msg.sender, \"not tweet owner\");\r\n                if(tweets.length==1){\r\n                    tweets.pop();\r\n                }\r\n                else{\r\n                    for(uint j=i; j<tweets.length-1;j++){\r\n                        tweets[j]=tweets[j+1];\r\n                    }\r\n                    tweets.pop();\r\n                }\r\n            }\r\n        }\r\n        for (uint i=0;i<userSpecificTweets.length;i++){\r\n            if(userSpecificTweets[i].t_id==id){\r\n                require(userSpecificTweets[i].tweetOwner == msg.sender, \"not tweet owner\");\r\n                if(userSpecificTweets.length==1){\r\n                    userSpecificTweets.pop();\r\n                    userTweets[msg.sender]=userSpecificTweets;\r\n                }\r\n                else{\r\n                    for(uint j=i; j<userSpecificTweets.length-1;j++){\r\n                    userSpecificTweets[j]=userSpecificTweets[j+1];\r\n                    }\r\n                    userSpecificTweets.pop();\r\n                    userTweets[msg.sender]=userSpecificTweets;\r\n                }\r\n                \r\n            }\r\n        }\r\n    }\r\n\r\n    //Functions for Comments\r\n    function addComment(uint p_id, string memory _username, string memory _userAt, string memory _date, string memory _text, string memory _cId, string memory _avatar) public {\r\n        uint id=tweetId;\r\n        tweetId++;\r\n        Comment memory cmt= Comment(msg.sender, id, p_id, _username, _userAt, _date, _text, _cId,0,0,_avatar);\r\n        cmtarr.push(Comment(msg.sender, id, p_id, _username, _userAt, _date, _text, _cId,0,0,_avatar));\r\n        Comment[] storage new_cmts =comments[p_id];\r\n        new_cmts.push(cmt); \r\n        comments[p_id] = new_cmts;\r\n    }\r\n    function getComments(uint p_id) public view returns(Comment[] memory){\r\n        return comments[p_id];\r\n    }\r\n    function deleteComment(uint p_id, uint id) public {\r\n        Comment[] storage temp = comments[p_id];\r\n\r\n            for(uint i=0; i<temp.length; i++)\r\n            {\r\n                if(temp[i].c_id == id){\r\n                    require(temp[i].commentOwner == msg.sender, \"not comment owner\");\r\n                    if(temp.length==1){\r\n                        temp.pop();\r\n                    }\r\n                    else{\r\n                        for(uint j=i; j<temp.length-1;j++){\r\n                            temp[j]=temp[j+1];\r\n                        }\r\n                        temp.pop();\r\n                    }\r\n                }\r\n            }\r\n        comments[p_id]=temp;\r\n    }\r\n    function deleteCommentregardless(uint p_id, uint id) public {\r\n        Comment[] storage temp = comments[p_id];\r\n\r\n            for(uint i=0; i<temp.length; i++)\r\n            {\r\n                if(temp[i].c_id == id){\r\n                    // require(temp[i].commentOwner == msg.sender, \"not comment owner\");\r\n                    if(temp.length==1){\r\n                        temp.pop();\r\n                    }\r\n                    else{\r\n                        for(uint j=i; j<temp.length-1;j++){\r\n                            temp[j]=temp[j+1];\r\n                        }\r\n                        temp.pop();\r\n                    }\r\n                }\r\n            }\r\n        comments[p_id]=temp;\r\n    }\r\n\r\n     //Functions for Trends\r\n    function addTrend(string memory _name, string memory _location) public  {\r\n        uint id = tweetId;\r\n        bool exists =false;\r\n        uint tempMentions;\r\n       \r\n        for(uint i=0;i<trends.length;i++){\r\n            if(stringsEquals(trends[i].t_name, _name)){\r\n                exists = true;\r\n                id=trends[i].t_id;\r\n                break;\r\n            }\r\n        }\r\n       \r\n       if(exists){\r\n            tempMentions=mentions[id];\r\n            tempMentions++;\r\n            mentions[id]=tempMentions;\r\n        }else{\r\n            tweetId++;\r\n            trends.push(Trend(id,_name,_location));\r\n            mentions[id]=1;\r\n        }\r\n        \r\n    }\r\n   \r\n    function getTrends() public view returns(Trend[] memory){\r\n        return trends;\r\n    }\r\n    function getMentions(uint _id) public view returns(uint){\r\n        return mentions[_id];\r\n    }\r\n}",
  "sourcePath": "C:\\Users\\hamza\\OneDrive\\Desktop\\8th Semester\\FYP\\fyp the return\\decentra\\contracts\\DecentraModules.sol",
  "compiler": {
    "name": "solc",
    "version": "0.8.19+commit.7dd6d404.Emscripten.clang"
  },
  "schemaVersion": "3.4.14",
  "updatedAt": "2023-08-22T23:53:50.461Z",
  "networkType": "ethereum",
  "devdoc": {
    "kind": "dev",
    "methods": {},
    "version": 1
  },
  "userdoc": {
    "kind": "user",
    "methods": {},
    "version": 1
  }
}