{
  "contractName": "DecentraModules",
  "abi": [
    {
      "inputs": [],
      "stateMutability": "nonpayable",
      "type": "constructor"
    },
    {
      "inputs": [
        {
          "internalType": "uint256",
          "name": "",
          "type": "uint256"
        }
      ],
      "name": "cmtarr",
      "outputs": [
        {
          "internalType": "address",
          "name": "commentOwner",
          "type": "address"
        },
        {
          "internalType": "uint256",
          "name": "c_id",
          "type": "uint256"
        },
        {
          "internalType": "uint256",
          "name": "p_id",
          "type": "uint256"
        },
        {
          "internalType": "string",
          "name": "username",
          "type": "string"
        },
        {
          "internalType": "string",
          "name": "userAt",
          "type": "string"
        },
        {
          "internalType": "string",
          "name": "date",
          "type": "string"
        },
        {
          "internalType": "string",
          "name": "text",
          "type": "string"
        },
        {
          "internalType": "string",
          "name": "cId",
          "type": "string"
        },
        {
          "internalType": "uint256",
          "name": "likes",
          "type": "uint256"
        },
        {
          "internalType": "uint256",
          "name": "dislikes",
          "type": "uint256"
        }
      ],
      "stateMutability": "view",
      "type": "function",
      "constant": true
    },
    {
      "inputs": [
        {
          "internalType": "uint256",
          "name": "",
          "type": "uint256"
        },
        {
          "internalType": "uint256",
          "name": "",
          "type": "uint256"
        }
      ],
      "name": "comments",
      "outputs": [
        {
          "internalType": "address",
          "name": "commentOwner",
          "type": "address"
        },
        {
          "internalType": "uint256",
          "name": "c_id",
          "type": "uint256"
        },
        {
          "internalType": "uint256",
          "name": "p_id",
          "type": "uint256"
        },
        {
          "internalType": "string",
          "name": "username",
          "type": "string"
        },
        {
          "internalType": "string",
          "name": "userAt",
          "type": "string"
        },
        {
          "internalType": "string",
          "name": "date",
          "type": "string"
        },
        {
          "internalType": "string",
          "name": "text",
          "type": "string"
        },
        {
          "internalType": "string",
          "name": "cId",
          "type": "string"
        },
        {
          "internalType": "uint256",
          "name": "likes",
          "type": "uint256"
        },
        {
          "internalType": "uint256",
          "name": "dislikes",
          "type": "uint256"
        }
      ],
      "stateMutability": "view",
      "type": "function",
      "constant": true
    },
    {
      "inputs": [
        {
          "internalType": "uint256",
          "name": "",
          "type": "uint256"
        },
        {
          "internalType": "uint256",
          "name": "",
          "type": "uint256"
        }
      ],
      "name": "disliked",
      "outputs": [
        {
          "internalType": "address",
          "name": "",
          "type": "address"
        }
      ],
      "stateMutability": "view",
      "type": "function",
      "constant": true
    },
    {
      "inputs": [
        {
          "internalType": "uint256",
          "name": "",
          "type": "uint256"
        },
        {
          "internalType": "uint256",
          "name": "",
          "type": "uint256"
        }
      ],
      "name": "liked",
      "outputs": [
        {
          "internalType": "address",
          "name": "",
          "type": "address"
        }
      ],
      "stateMutability": "view",
      "type": "function",
      "constant": true
    },
    {
      "inputs": [
        {
          "internalType": "uint256",
          "name": "",
          "type": "uint256"
        }
      ],
      "name": "mentions",
      "outputs": [
        {
          "internalType": "uint256",
          "name": "",
          "type": "uint256"
        }
      ],
      "stateMutability": "view",
      "type": "function",
      "constant": true
    },
    {
      "inputs": [],
      "name": "owner",
      "outputs": [
        {
          "internalType": "address",
          "name": "",
          "type": "address"
        }
      ],
      "stateMutability": "view",
      "type": "function",
      "constant": true
    },
    {
      "inputs": [
        {
          "internalType": "uint256",
          "name": "",
          "type": "uint256"
        }
      ],
      "name": "trends",
      "outputs": [
        {
          "internalType": "uint256",
          "name": "t_id",
          "type": "uint256"
        },
        {
          "internalType": "string",
          "name": "t_name",
          "type": "string"
        },
        {
          "internalType": "string",
          "name": "t_location",
          "type": "string"
        }
      ],
      "stateMutability": "view",
      "type": "function",
      "constant": true
    },
    {
      "inputs": [
        {
          "internalType": "uint256",
          "name": "",
          "type": "uint256"
        }
      ],
      "name": "tweets",
      "outputs": [
        {
          "internalType": "address",
          "name": "tweetOwner",
          "type": "address"
        },
        {
          "internalType": "uint256",
          "name": "t_id",
          "type": "uint256"
        },
        {
          "internalType": "string",
          "name": "username",
          "type": "string"
        },
        {
          "internalType": "string",
          "name": "userAt",
          "type": "string"
        },
        {
          "internalType": "string",
          "name": "date",
          "type": "string"
        },
        {
          "internalType": "string",
          "name": "text",
          "type": "string"
        },
        {
          "internalType": "string",
          "name": "cId",
          "type": "string"
        },
        {
          "internalType": "uint256",
          "name": "likes",
          "type": "uint256"
        },
        {
          "internalType": "uint256",
          "name": "dislikes",
          "type": "uint256"
        }
      ],
      "stateMutability": "view",
      "type": "function",
      "constant": true
    },
    {
      "inputs": [
        {
          "internalType": "address",
          "name": "",
          "type": "address"
        },
        {
          "internalType": "uint256",
          "name": "",
          "type": "uint256"
        }
      ],
      "name": "userTweets",
      "outputs": [
        {
          "internalType": "address",
          "name": "tweetOwner",
          "type": "address"
        },
        {
          "internalType": "uint256",
          "name": "t_id",
          "type": "uint256"
        },
        {
          "internalType": "string",
          "name": "username",
          "type": "string"
        },
        {
          "internalType": "string",
          "name": "userAt",
          "type": "string"
        },
        {
          "internalType": "string",
          "name": "date",
          "type": "string"
        },
        {
          "internalType": "string",
          "name": "text",
          "type": "string"
        },
        {
          "internalType": "string",
          "name": "cId",
          "type": "string"
        },
        {
          "internalType": "uint256",
          "name": "likes",
          "type": "uint256"
        },
        {
          "internalType": "uint256",
          "name": "dislikes",
          "type": "uint256"
        }
      ],
      "stateMutability": "view",
      "type": "function",
      "constant": true
    },
    {
      "inputs": [
        {
          "internalType": "uint256",
          "name": "index",
          "type": "uint256"
        },
        {
          "internalType": "bool",
          "name": "comment",
          "type": "bool"
        }
      ],
      "name": "ratio",
      "outputs": [],
      "stateMutability": "nonpayable",
      "type": "function"
    },
    {
      "inputs": [
        {
          "internalType": "uint256",
          "name": "_id",
          "type": "uint256"
        }
      ],
      "name": "addLike",
      "outputs": [],
      "stateMutability": "nonpayable",
      "type": "function"
    },
    {
      "inputs": [
        {
          "internalType": "uint256",
          "name": "_id",
          "type": "uint256"
        }
      ],
      "name": "removeLike",
      "outputs": [],
      "stateMutability": "nonpayable",
      "type": "function"
    },
    {
      "inputs": [
        {
          "internalType": "uint256",
          "name": "_id",
          "type": "uint256"
        }
      ],
      "name": "getlikes",
      "outputs": [
        {
          "internalType": "address[]",
          "name": "",
          "type": "address[]"
        }
      ],
      "stateMutability": "view",
      "type": "function",
      "constant": true
    },
    {
      "inputs": [
        {
          "internalType": "uint256",
          "name": "_id",
          "type": "uint256"
        }
      ],
      "name": "addDislike",
      "outputs": [],
      "stateMutability": "nonpayable",
      "type": "function"
    },
    {
      "inputs": [
        {
          "internalType": "uint256",
          "name": "_id",
          "type": "uint256"
        }
      ],
      "name": "removeDislike",
      "outputs": [],
      "stateMutability": "nonpayable",
      "type": "function"
    },
    {
      "inputs": [
        {
          "internalType": "uint256",
          "name": "_id",
          "type": "uint256"
        }
      ],
      "name": "getdislikes",
      "outputs": [
        {
          "internalType": "address[]",
          "name": "",
          "type": "address[]"
        }
      ],
      "stateMutability": "view",
      "type": "function",
      "constant": true
    },
    {
      "inputs": [
        {
          "internalType": "string",
          "name": "_username",
          "type": "string"
        },
        {
          "internalType": "string",
          "name": "_userAt",
          "type": "string"
        },
        {
          "internalType": "string",
          "name": "_date",
          "type": "string"
        },
        {
          "internalType": "string",
          "name": "_text",
          "type": "string"
        },
        {
          "internalType": "string",
          "name": "_cId",
          "type": "string"
        }
      ],
      "name": "addTweet",
      "outputs": [],
      "stateMutability": "nonpayable",
      "type": "function"
    },
    {
      "inputs": [],
      "name": "getAllTweets",
      "outputs": [
        {
          "components": [
            {
              "internalType": "address",
              "name": "tweetOwner",
              "type": "address"
            },
            {
              "internalType": "uint256",
              "name": "t_id",
              "type": "uint256"
            },
            {
              "internalType": "string",
              "name": "username",
              "type": "string"
            },
            {
              "internalType": "string",
              "name": "userAt",
              "type": "string"
            },
            {
              "internalType": "string",
              "name": "date",
              "type": "string"
            },
            {
              "internalType": "string",
              "name": "text",
              "type": "string"
            },
            {
              "internalType": "string",
              "name": "cId",
              "type": "string"
            },
            {
              "internalType": "uint256",
              "name": "likes",
              "type": "uint256"
            },
            {
              "internalType": "uint256",
              "name": "dislikes",
              "type": "uint256"
            }
          ],
          "internalType": "struct DecentraModules.Tweet[]",
          "name": "",
          "type": "tuple[]"
        }
      ],
      "stateMutability": "view",
      "type": "function",
      "constant": true
    },
    {
      "inputs": [
        {
          "internalType": "address",
          "name": "_user",
          "type": "address"
        }
      ],
      "name": "getUserTweets",
      "outputs": [
        {
          "components": [
            {
              "internalType": "address",
              "name": "tweetOwner",
              "type": "address"
            },
            {
              "internalType": "uint256",
              "name": "t_id",
              "type": "uint256"
            },
            {
              "internalType": "string",
              "name": "username",
              "type": "string"
            },
            {
              "internalType": "string",
              "name": "userAt",
              "type": "string"
            },
            {
              "internalType": "string",
              "name": "date",
              "type": "string"
            },
            {
              "internalType": "string",
              "name": "text",
              "type": "string"
            },
            {
              "internalType": "string",
              "name": "cId",
              "type": "string"
            },
            {
              "internalType": "uint256",
              "name": "likes",
              "type": "uint256"
            },
            {
              "internalType": "uint256",
              "name": "dislikes",
              "type": "uint256"
            }
          ],
          "internalType": "struct DecentraModules.Tweet[]",
          "name": "",
          "type": "tuple[]"
        }
      ],
      "stateMutability": "view",
      "type": "function",
      "constant": true
    },
    {
      "inputs": [
        {
          "internalType": "uint256",
          "name": "id",
          "type": "uint256"
        }
      ],
      "name": "deleteTweet",
      "outputs": [],
      "stateMutability": "nonpayable",
      "type": "function"
    },
    {
      "inputs": [
        {
          "internalType": "uint256",
          "name": "id",
          "type": "uint256"
        }
      ],
      "name": "deleteTweetregardless",
      "outputs": [],
      "stateMutability": "nonpayable",
      "type": "function"
    },
    {
      "inputs": [
        {
          "internalType": "uint256",
          "name": "p_id",
          "type": "uint256"
        },
        {
          "internalType": "string",
          "name": "_username",
          "type": "string"
        },
        {
          "internalType": "string",
          "name": "_userAt",
          "type": "string"
        },
        {
          "internalType": "string",
          "name": "_date",
          "type": "string"
        },
        {
          "internalType": "string",
          "name": "_text",
          "type": "string"
        },
        {
          "internalType": "string",
          "name": "_cId",
          "type": "string"
        }
      ],
      "name": "addComment",
      "outputs": [],
      "stateMutability": "nonpayable",
      "type": "function"
    },
    {
      "inputs": [
        {
          "internalType": "uint256",
          "name": "p_id",
          "type": "uint256"
        }
      ],
      "name": "getComments",
      "outputs": [
        {
          "components": [
            {
              "internalType": "address",
              "name": "commentOwner",
              "type": "address"
            },
            {
              "internalType": "uint256",
              "name": "c_id",
              "type": "uint256"
            },
            {
              "internalType": "uint256",
              "name": "p_id",
              "type": "uint256"
            },
            {
              "internalType": "string",
              "name": "username",
              "type": "string"
            },
            {
              "internalType": "string",
              "name": "userAt",
              "type": "string"
            },
            {
              "internalType": "string",
              "name": "date",
              "type": "string"
            },
            {
              "internalType": "string",
              "name": "text",
              "type": "string"
            },
            {
              "internalType": "string",
              "name": "cId",
              "type": "string"
            },
            {
              "internalType": "uint256",
              "name": "likes",
              "type": "uint256"
            },
            {
              "internalType": "uint256",
              "name": "dislikes",
              "type": "uint256"
            }
          ],
          "internalType": "struct DecentraModules.Comment[]",
          "name": "",
          "type": "tuple[]"
        }
      ],
      "stateMutability": "view",
      "type": "function",
      "constant": true
    },
    {
      "inputs": [
        {
          "internalType": "uint256",
          "name": "p_id",
          "type": "uint256"
        },
        {
          "internalType": "uint256",
          "name": "id",
          "type": "uint256"
        }
      ],
      "name": "deleteComment",
      "outputs": [],
      "stateMutability": "nonpayable",
      "type": "function"
    },
    {
      "inputs": [
        {
          "internalType": "uint256",
          "name": "p_id",
          "type": "uint256"
        },
        {
          "internalType": "uint256",
          "name": "id",
          "type": "uint256"
        }
      ],
      "name": "deleteCommentregardless",
      "outputs": [],
      "stateMutability": "nonpayable",
      "type": "function"
    },
    {
      "inputs": [
        {
          "internalType": "string",
          "name": "_name",
          "type": "string"
        },
        {
          "internalType": "string",
          "name": "_location",
          "type": "string"
        }
      ],
      "name": "addTrend",
      "outputs": [],
      "stateMutability": "nonpayable",
      "type": "function"
    },
    {
      "inputs": [],
      "name": "getTrends",
      "outputs": [
        {
          "components": [
            {
              "internalType": "uint256",
              "name": "t_id",
              "type": "uint256"
            },
            {
              "internalType": "string",
              "name": "t_name",
              "type": "string"
            },
            {
              "internalType": "string",
              "name": "t_location",
              "type": "string"
            }
          ],
          "internalType": "struct DecentraModules.Trend[]",
          "name": "",
          "type": "tuple[]"
        }
      ],
      "stateMutability": "view",
      "type": "function",
      "constant": true
    },
    {
      "inputs": [
        {
          "internalType": "uint256",
          "name": "_id",
          "type": "uint256"
        }
      ],
      "name": "getMentions",
      "outputs": [
        {
          "internalType": "uint256",
          "name": "",
          "type": "uint256"
        }
      ],
      "stateMutability": "view",
      "type": "function",
      "constant": true
    }
  ],
  "bytecode": "0x60806040526103e860065534801561001657600080fd5b50600080546001600160a01b03191633179055614d56806100386000396000f3fe608060405234801561001057600080fd5b50600436106101545760003560e01c80631460473814610159578063192ed92d1461016e5780631dc0d3441461018157806323edf697146101945780632e06f347146101bd5780632f5899d7146101e55780632f692f3f146102055780632f8242631461021a57806331a4bcb514610248578063378a35cd1461025b5780633aef9be31461026e57806353256135146102975780635775912a1461029f5780638da5cb5b146102b25780638f0f315f146102dd578063a370fdb4146102fd578063a7656e3314610310578063adab264d14610323578063bfbfa81e14610336578063c0939b7b14610349578063d3a0108a1461035c578063e23b5b6e1461037c578063e402e6a51461038f578063e4313944146103a2578063e8d857b0146103b5578063ec5ec59b146103c8578063f99483ea146103ea578063fc6c776f146103fd575b600080fd5b61016c610167366004614203565b610410565b005b61016c61017c366004614266565b61062d565b61016c61018f36600461427f565b610bf7565b6101a76101a2366004614266565b610ea9565b6040516101b491906143a3565b60405180910390f35b6101d06101cb3660046144d5565b611235565b6040516101b4999897969594939291906144ff565b6101f86101f3366004614595565b61154f565b6040516101b491906145b7565b61020d6118c8565b6040516101b491906146b3565b61023a610228366004614266565b60009081526001602052604090205490565b6040519081526020016101b4565b61016c610256366004614736565b611a55565b61016c610269366004614266565b611da0565b61028161027c366004614266565b611efc565b6040516101b49a99989796959493929190614758565b6101f8612212565b61016c6102ad366004614266565b612577565b6000546102c5906001600160a01b031681565b6040516001600160a01b0390911681526020016101b4565b6102f06102eb366004614266565b612b87565b6040516101b491906147f2565b61016c61030b366004614266565b612bf3565b61016c61031e366004614266565b612d60565b6102f0610331366004614266565b613009565b61016c61034436600461483f565b613073565b61016c610357366004614266565b61330c565b61023a61036a366004614266565b60016020526000908152604090205481565b6102c561038a366004614736565b6135ab565b61016c61039d366004614874565b6135e3565b61016c6103b0366004614736565b613890565b6101d06103c3366004614266565b613b41565b6103db6103d6366004614266565b613b87565b6040516101b49392919061494d565b6102c56103f8366004614736565b613ccd565b61028161040b366004614736565b613ce9565b600654600080805b60025481101561051f576104d86002828154811061043857610438614982565b9060005260206000209060030201600101805461045490614998565b80601f016020809104026020016040519081016040528092919081815260200182805461048090614998565b80156104cd5780601f106104a2576101008083540402835291602001916104cd565b820191906000526020600020905b8154815290600101906020018083116104b057829003601f168201915b505050505087613d42565b1561050d5760019250600281815481106104f4576104f4614982565b906000526020600020906003020160000154935061051f565b80610517816149e8565b915050610418565b50811561055a575060008281526001602052604090205480610540816149e8565b600085815260016020526040902081905591506106269050565b6006805490600061056a836149e8565b9091555050604080516060810182528481526020810187815291810186905260028054600181018255600091909152815160039091027f405787fa12a823e0f2b7631cc41b3ba8828b3321ca811111fa75cd3aa3bb5ace81019182559251919290917f405787fa12a823e0f2b7631cc41b3ba8828b3321ca811111fa75cd3aa3bb5acf909101906105fb9082614a64565b50604082015160028201906106109082614a64565b5050506000838152600160208190526040909120555b5050505050565b336000908152600960205260408120905b6007548110156108cf57826007828154811061065c5761065c614982565b906000526020600020906009020160010154036108bd5760075460010361071557600780548061068e5761068e614b1d565b60008281526020812060096000199093019283020180546001600160a01b031916815560018101829055906106c66002830182613de6565b6106d4600383016000613de6565b6106e2600483016000613de6565b6106f0600583016000613de6565b6106fe600683016000613de6565b5060006007820181905560089091015590556108bd565b805b60075461072690600190614b33565b81101561082857600761073a826001614b46565b8154811061074a5761074a614982565b90600052602060002090600902016007828154811061076b5761076b614982565b60009182526020909120825460099092020180546001600160a01b0319166001600160a01b03909216919091178155600180830154908201556002808201906107b690840182614b59565b506003818101906107c990840182614b59565b506004818101906107dc90840182614b59565b506005818101906107ef90840182614b59565b5060068181019061080290840182614b59565b506007828101549082015560089182015491015580610820816149e8565b915050610717565b50600780548061083a5761083a614b1d565b60008281526020812060096000199093019283020180546001600160a01b031916815560018101829055906108726002830182613de6565b610880600383016000613de6565b61088e600483016000613de6565b61089c600583016000613de6565b6108aa600683016000613de6565b5060006007820181905560089091015590555b806108c7816149e8565b91505061063e565b5060005b8154811015610bf257828282815481106108ef576108ef614982565b90600052602060002090600902016001015403610be057336001600160a01b031682828154811061092257610922614982565b60009182526020909120600990910201546001600160a01b0316146109625760405162461bcd60e51b815260040161095990614c25565b60405180910390fd5b8154600103610a1f578180548061097b5761097b614b1d565b60008281526020812060096000199093019283020180546001600160a01b031916815560018101829055906109b36002830182613de6565b6109c1600383016000613de6565b6109cf600483016000613de6565b6109dd600583016000613de6565b6109eb600683016000613de6565b50600060078201819055600890910181905591553381526009602052604090208254610a1991908490613e23565b50610be0565b805b8254610a2f90600190614b33565b811015610b2f5782610a42826001614b46565b81548110610a5257610a52614982565b9060005260206000209060090201838281548110610a7257610a72614982565b60009182526020909120825460099092020180546001600160a01b0319166001600160a01b0390921691909117815560018083015490820155600280820190610abd90840182614b59565b50600381810190610ad090840182614b59565b50600481810190610ae390840182614b59565b50600581810190610af690840182614b59565b50600681810190610b0990840182614b59565b506007828101549082015560089182015491015580610b27816149e8565b915050610a21565b5081805480610b4057610b40614b1d565b60008281526020812060096000199093019283020180546001600160a01b03191681556001810182905590610b786002830182613de6565b610b86600383016000613de6565b610b94600483016000613de6565b610ba2600583016000613de6565b610bb0600683016000613de6565b50600060078201819055600890910181905591553381526009602052604090208254610bde91908490613e23565b505b80610bea816149e8565b9150506108d3565b505050565b600680549081906000610c09836149e8565b9091555050604080516101208101825233815260208101838152918101888152606082018890526080820187905260a0820186905260c08201859052600060e08301819052610100830181905260078054600181018255915282517fa66cc928b5edb82af9bd49922954155ab7b0942694bea4ce44661d9a8736c688600990920291820180546001600160a01b0319166001600160a01b0390921691909117815593517fa66cc928b5edb82af9bd49922954155ab7b0942694bea4ce44661d9a8736c68982015590519192917fa66cc928b5edb82af9bd49922954155ab7b0942694bea4ce44661d9a8736c68a90910190610d049082614a64565b5060608201516003820190610d199082614a64565b5060808201516004820190610d2e9082614a64565b5060a08201516005820190610d439082614a64565b5060c08201516006820190610d589082614a64565b5060e0828101516007830155610100928301516008909201919091553360008181526009602081815260408084208151610120810183529586528583018981529186018e8152606087018e9052608087018d905260a087018c905260c087018b90529686018590529685018490528654600180820189558886529290942085519490930290920180546001600160a01b0319166001600160a01b0390941693909317835590519082015591519091906002820190610e169082614a64565b5060608201516003820190610e2b9082614a64565b5060808201516004820190610e409082614a64565b5060a08201516005820190610e559082614a64565b5060c08201516006820190610e6a9082614a64565b5060e08201516007820155610100909101516008909101553360009081526009602052604090208154610e9f91908390613e23565b5050505050505050565b606060036000838152602001908152602001600020805480602002602001604051908101604052809291908181526020016000905b8282101561122a5760008481526020908190206040805161014081018252600a860290920180546001600160a01b03168352600181015493830193909352600283015490820152600382018054919291606084019190610f3d90614998565b80601f0160208091040260200160405190810160405280929190818152602001828054610f6990614998565b8015610fb65780601f10610f8b57610100808354040283529160200191610fb6565b820191906000526020600020905b815481529060010190602001808311610f9957829003601f168201915b50505050508152602001600482018054610fcf90614998565b80601f0160208091040260200160405190810160405280929190818152602001828054610ffb90614998565b80156110485780601f1061101d57610100808354040283529160200191611048565b820191906000526020600020905b81548152906001019060200180831161102b57829003601f168201915b5050505050815260200160058201805461106190614998565b80601f016020809104026020016040519081016040528092919081815260200182805461108d90614998565b80156110da5780601f106110af576101008083540402835291602001916110da565b820191906000526020600020905b8154815290600101906020018083116110bd57829003601f168201915b505050505081526020016006820180546110f390614998565b80601f016020809104026020016040519081016040528092919081815260200182805461111f90614998565b801561116c5780601f106111415761010080835404028352916020019161116c565b820191906000526020600020905b81548152906001019060200180831161114f57829003601f168201915b5050505050815260200160078201805461118590614998565b80601f01602080910402602001604051908101604052809291908181526020018280546111b190614998565b80156111fe5780601f106111d3576101008083540402835291602001916111fe565b820191906000526020600020905b8154815290600101906020018083116111e157829003601f168201915b505050505081526020016008820154815260200160098201548152505081526020019060010190610ede565b505050509050919050565b6009602052816000526040600020818154811061125157600080fd5b60009182526020909120600990910201805460018201546002830180546001600160a01b0390931695509093509061128890614998565b80601f01602080910402602001604051908101604052809291908181526020018280546112b490614998565b80156113015780601f106112d657610100808354040283529160200191611301565b820191906000526020600020905b8154815290600101906020018083116112e457829003601f168201915b50505050509080600301805461131690614998565b80601f016020809104026020016040519081016040528092919081815260200182805461134290614998565b801561138f5780601f106113645761010080835404028352916020019161138f565b820191906000526020600020905b81548152906001019060200180831161137257829003601f168201915b5050505050908060040180546113a490614998565b80601f01602080910402602001604051908101604052809291908181526020018280546113d090614998565b801561141d5780601f106113f25761010080835404028352916020019161141d565b820191906000526020600020905b81548152906001019060200180831161140057829003601f168201915b50505050509080600501805461143290614998565b80601f016020809104026020016040519081016040528092919081815260200182805461145e90614998565b80156114ab5780601f10611480576101008083540402835291602001916114ab565b820191906000526020600020905b81548152906001019060200180831161148e57829003601f168201915b5050505050908060060180546114c090614998565b80601f01602080910402602001604051908101604052809291908181526020018280546114ec90614998565b80156115395780601f1061150e57610100808354040283529160200191611539565b820191906000526020600020905b81548152906001019060200180831161151c57829003601f168201915b5050505050908060070154908060080154905089565b6001600160a01b0381166000908152600960209081526040808320805482518185028101850190935280835260609492939192909184015b8282101561122a57600084815260209081902060408051610120810182526009860290920180546001600160a01b03168352600181015493830193909352600283018054929392918401916115db90614998565b80601f016020809104026020016040519081016040528092919081815260200182805461160790614998565b80156116545780601f1061162957610100808354040283529160200191611654565b820191906000526020600020905b81548152906001019060200180831161163757829003601f168201915b5050505050815260200160038201805461166d90614998565b80601f016020809104026020016040519081016040528092919081815260200182805461169990614998565b80156116e65780601f106116bb576101008083540402835291602001916116e6565b820191906000526020600020905b8154815290600101906020018083116116c957829003601f168201915b505050505081526020016004820180546116ff90614998565b80601f016020809104026020016040519081016040528092919081815260200182805461172b90614998565b80156117785780601f1061174d57610100808354040283529160200191611778565b820191906000526020600020905b81548152906001019060200180831161175b57829003601f168201915b5050505050815260200160058201805461179190614998565b80601f01602080910402602001604051908101604052809291908181526020018280546117bd90614998565b801561180a5780601f106117df5761010080835404028352916020019161180a565b820191906000526020600020905b8154815290600101906020018083116117ed57829003601f168201915b5050505050815260200160068201805461182390614998565b80601f016020809104026020016040519081016040528092919081815260200182805461184f90614998565b801561189c5780601f106118715761010080835404028352916020019161189c565b820191906000526020600020905b81548152906001019060200180831161187f57829003601f168201915b505050505081526020016007820154815260200160088201548152505081526020019060010190611587565b60606002805480602002602001604051908101604052809291908181526020016000905b82821015611a4c57838290600052602060002090600302016040518060600160405290816000820154815260200160018201805461192990614998565b80601f016020809104026020016040519081016040528092919081815260200182805461195590614998565b80156119a25780601f10611977576101008083540402835291602001916119a2565b820191906000526020600020905b81548152906001019060200180831161198557829003601f168201915b505050505081526020016002820180546119bb90614998565b80601f01602080910402602001604051908101604052809291908181526020018280546119e790614998565b8015611a345780601f10611a0957610100808354040283529160200191611a34565b820191906000526020600020905b815481529060010190602001808311611a1757829003601f168201915b505050505081525050815260200190600101906118ec565b50505050905090565b6000828152600360205260408120905b8154811015611d7d5782828281548110611a8157611a81614982565b90600052602060002090600a02016001015403611d6b57336001600160a01b0316828281548110611ab457611ab4614982565b60009182526020909120600a90910201546001600160a01b031614611b0f5760405162461bcd60e51b81526020600482015260116024820152703737ba1031b7b6b6b2b73a1037bbb732b960791b6044820152606401610959565b8154600103611bb65781805480611b2857611b28614b1d565b600082815260208120600a6000199093019283020180546001600160a01b0319168155600181018290556002810182905590611b676003830182613de6565b611b75600483016000613de6565b611b83600583016000613de6565b611b91600683016000613de6565b611b9f600783016000613de6565b506000600882018190556009909101559055611d6b565b805b8254611bc690600190614b33565b811015611cd05782611bd9826001614b46565b81548110611be957611be9614982565b90600052602060002090600a0201838281548110611c0957611c09614982565b600091825260209091208254600a9092020180546001600160a01b0319166001600160a01b039092169190911781556001808301549082015560028083015490820155600380820190611c5e90840182614b59565b50600481810190611c7190840182614b59565b50600581810190611c8490840182614b59565b50600681810190611c9790840182614b59565b50600781810190611caa90840182614b59565b506008828101549082015560099182015491015580611cc8816149e8565b915050611bb8565b5081805480611ce157611ce1614b1d565b600082815260208120600a6000199093019283020180546001600160a01b0319168155600181018290556002810182905590611d206003830182613de6565b611d2e600483016000613de6565b611d3c600583016000613de6565b611d4a600683016000613de6565b611d58600783016000613de6565b5060006008820181905560099091015590555b80611d75816149e8565b915050611a65565b5060008381526003602052604090208154611d9a91908390613f12565b50505050565b60008181526004602090815260408220805460018101825581845291832090910180546001600160a01b03191633179055908290528054611de49082908190614007565b50600160005b600754811015611e70578360078281548110611e0857611e08614982565b90600052602060002090600902016001015403611e5e5760078181548110611e3257611e32614982565b600091825260208220600760099092020101805491611e50836149e8565b919050555060009150611e70565b80611e68816149e8565b915050611dea565b508015610bf25760005b600854811015611d9a578360088281548110611e9857611e98614982565b90600052602060002090600a02016001015403611eea5760088181548110611ec257611ec2614982565b6000918252602082206008600a9092020101805491611ee0836149e8565b9190505550611d9a565b80611ef4816149e8565b915050611e7a565b60088181548110611f0c57600080fd5b60009182526020909120600a909102018054600182015460028301546003840180546001600160a01b03909416955091939092909190611f4b90614998565b80601f0160208091040260200160405190810160405280929190818152602001828054611f7790614998565b8015611fc45780601f10611f9957610100808354040283529160200191611fc4565b820191906000526020600020905b815481529060010190602001808311611fa757829003601f168201915b505050505090806004018054611fd990614998565b80601f016020809104026020016040519081016040528092919081815260200182805461200590614998565b80156120525780601f1061202757610100808354040283529160200191612052565b820191906000526020600020905b81548152906001019060200180831161203557829003601f168201915b50505050509080600501805461206790614998565b80601f016020809104026020016040519081016040528092919081815260200182805461209390614998565b80156120e05780601f106120b5576101008083540402835291602001916120e0565b820191906000526020600020905b8154815290600101906020018083116120c357829003601f168201915b5050505050908060060180546120f590614998565b80601f016020809104026020016040519081016040528092919081815260200182805461212190614998565b801561216e5780601f106121435761010080835404028352916020019161216e565b820191906000526020600020905b81548152906001019060200180831161215157829003601f168201915b50505050509080600701805461218390614998565b80601f01602080910402602001604051908101604052809291908181526020018280546121af90614998565b80156121fc5780601f106121d1576101008083540402835291602001916121fc565b820191906000526020600020905b8154815290600101906020018083116121df57829003601f168201915b505050505090806008015490806009015490508a565b60606007805480602002602001604051908101604052809291908181526020016000905b82821015611a4c57600084815260209081902060408051610120810182526009860290920180546001600160a01b031683526001810154938301939093526002830180549293929184019161228a90614998565b80601f01602080910402602001604051908101604052809291908181526020018280546122b690614998565b80156123035780601f106122d857610100808354040283529160200191612303565b820191906000526020600020905b8154815290600101906020018083116122e657829003601f168201915b5050505050815260200160038201805461231c90614998565b80601f016020809104026020016040519081016040528092919081815260200182805461234890614998565b80156123955780601f1061236a57610100808354040283529160200191612395565b820191906000526020600020905b81548152906001019060200180831161237857829003601f168201915b505050505081526020016004820180546123ae90614998565b80601f01602080910402602001604051908101604052809291908181526020018280546123da90614998565b80156124275780601f106123fc57610100808354040283529160200191612427565b820191906000526020600020905b81548152906001019060200180831161240a57829003601f168201915b5050505050815260200160058201805461244090614998565b80601f016020809104026020016040519081016040528092919081815260200182805461246c90614998565b80156124b95780601f1061248e576101008083540402835291602001916124b9565b820191906000526020600020905b81548152906001019060200180831161249c57829003601f168201915b505050505081526020016006820180546124d290614998565b80601f01602080910402602001604051908101604052809291908181526020018280546124fe90614998565b801561254b5780601f106125205761010080835404028352916020019161254b565b820191906000526020600020905b81548152906001019060200180831161252e57829003601f168201915b505050505081526020016007820154815260200160088201548152505081526020019060010190612236565b336000908152600960205260408120905b60075481101561286d5782600782815481106125a6576125a6614982565b9060005260206000209060090201600101540361285b57336001600160a01b0316600782815481106125da576125da614982565b60009182526020909120600990910201546001600160a01b0316146126115760405162461bcd60e51b815260040161095990614c25565b6007546001036126b357600780548061262c5761262c614b1d565b60008281526020812060096000199093019283020180546001600160a01b031916815560018101829055906126646002830182613de6565b612672600383016000613de6565b612680600483016000613de6565b61268e600583016000613de6565b61269c600683016000613de6565b50600060078201819055600890910155905561285b565b805b6007546126c490600190614b33565b8110156127c65760076126d8826001614b46565b815481106126e8576126e8614982565b90600052602060002090600902016007828154811061270957612709614982565b60009182526020909120825460099092020180546001600160a01b0319166001600160a01b039092169190911781556001808301549082015560028082019061275490840182614b59565b5060038181019061276790840182614b59565b5060048181019061277a90840182614b59565b5060058181019061278d90840182614b59565b506006818101906127a090840182614b59565b5060078281015490820155600891820154910155806127be816149e8565b9150506126b5565b5060078054806127d8576127d8614b1d565b60008281526020812060096000199093019283020180546001600160a01b031916815560018101829055906128106002830182613de6565b61281e600383016000613de6565b61282c600483016000613de6565b61283a600583016000613de6565b612848600683016000613de6565b5060006007820181905560089091015590555b80612865816149e8565b915050612588565b5060005b8154811015610bf2578282828154811061288d5761288d614982565b90600052602060002090600902016001015403612b7557336001600160a01b03168282815481106128c0576128c0614982565b60009182526020909120600990910201546001600160a01b0316146128f75760405162461bcd60e51b815260040161095990614c25565b81546001036129b4578180548061291057612910614b1d565b60008281526020812060096000199093019283020180546001600160a01b031916815560018101829055906129486002830182613de6565b612956600383016000613de6565b612964600483016000613de6565b612972600583016000613de6565b612980600683016000613de6565b506000600782018190556008909101819055915533815260096020526040902082546129ae91908490613e23565b50612b75565b805b82546129c490600190614b33565b811015612ac457826129d7826001614b46565b815481106129e7576129e7614982565b9060005260206000209060090201838281548110612a0757612a07614982565b60009182526020909120825460099092020180546001600160a01b0319166001600160a01b0390921691909117815560018083015490820155600280820190612a5290840182614b59565b50600381810190612a6590840182614b59565b50600481810190612a7890840182614b59565b50600581810190612a8b90840182614b59565b50600681810190612a9e90840182614b59565b506007828101549082015560089182015491015580612abc816149e8565b9150506129b6565b5081805480612ad557612ad5614b1d565b60008281526020812060096000199093019283020180546001600160a01b03191681556001810182905590612b0d6002830182613de6565b612b1b600383016000613de6565b612b29600483016000613de6565b612b37600583016000613de6565b612b45600683016000613de6565b50600060078201819055600890910181905591553381526009602052604090208254612b7391908490613e23565b505b80612b7f816149e8565b915050612871565b600081815260056020908152604091829020805483518184028101840190945280845260609392830182828015612be757602002820191906000526020600020905b81546001600160a01b03168152600190910190602001808311612bc9575b50505050509050919050565b600081815260056020908152604082208054600181810183558285529284200180546001600160a01b03191633179055918390528154612c369083908190614007565b5060005b600754811015612cca578360078281548110612c5857612c58614982565b90600052602060002090600902016001015403612cb85760078181548110612c8257612c82614982565b600091825260208220600860099092020101805491612ca0836149e8565b919050555060009150612cb38183613073565b612cca565b80612cc2816149e8565b915050612c3a565b508015610bf25760005b600854811015611d9a578360088281548110612cf257612cf2614982565b90600052602060002090600a02016001015403612d4e5760088181548110612d1c57612d1c614982565b6000918252602082206009600a9092020101805491612d3a836149e8565b9190505550612d498183613073565b611d9a565b80612d58816149e8565b915050612cd4565b6000818152600460205260408120906001905b8254811015612ed657336001600160a01b0316838281548110612d9857612d98614982565b6000918252602090912001546001600160a01b031603612ec4578254600103612df25782805480612dcb57612dcb614b1d565b600082815260209020810160001990810180546001600160a01b0319169055019055612ec4565b805b8354612e0290600190614b33565b811015612e905783612e15826001614b46565b81548110612e2557612e25614982565b9060005260206000200160009054906101000a90046001600160a01b0316848281548110612e5557612e55614982565b600091825260209091200180546001600160a01b0319166001600160a01b039290921691909117905580612e88816149e8565b915050612df4565b5082805480612ea157612ea1614b1d565b600082815260209020810160001990810180546001600160a01b03191690550190555b80612ece816149e8565b915050612d73565b5060008381526004602052604090208254612ef391908490614007565b5060005b600754811015612f87578360078281548110612f1557612f15614982565b90600052602060002090600902016001015403612f755760078181548110612f3f57612f3f614982565b600091825260208220600760099092020101805491612f5d83614c4e565b919050555060009150612f708183613073565b612f87565b80612f7f816149e8565b915050612ef7565b508015610bf25760005b600854811015611d9a578360088281548110612faf57612faf614982565b90600052602060002090600a02016001015403612ff75760088181548110612fd957612fd9614982565b6000918252602082206008600a9092020101805491612d3a83614c4e565b80613001816149e8565b915050612f91565b600081815260046020908152604091829020805483518184028101840190945280845260609392830182828015612be7576020028201919060005260206000209081546001600160a01b03168152600190910190602001808311612bc95750505050509050919050565b604f196000826131b2576007848154811061309057613090614982565b90600052602060002090600902016008015460646130ae9190614c65565b600785815481106130c1576130c1614982565b90600052602060002090600902016007015460646130df9190614c65565b6130e99190614c95565b9050600784815481106130fe576130fe614982565b9060005260206000209060090201600801546007858154811061312357613123614982565b90600052602060002090600902016007015461313f9190614cbc565b6131499082614ce4565b9050818113158015613180575060016007858154811061316b5761316b614982565b90600052602060002090600902016007015410155b15612d4957612d496007858154811061319b5761319b614982565b90600052602060002090600902016001015461062d565b600884815481106131c5576131c5614982565b90600052602060002090600a02016009015460646131e39190614c65565b600885815481106131f6576131f6614982565b90600052602060002090600a02016008015460646132149190614c65565b61321e9190614c95565b90506008848154811061323357613233614982565b90600052602060002090600a0201600901546008858154811061325857613258614982565b90600052602060002090600a0201600801546132749190614cbc565b61327e9082614ce4565b90508181131580156132b557506001600885815481106132a0576132a0614982565b90600052602060002090600a02016008015410155b15611d9a57611d9a600885815481106132d0576132d0614982565b90600052602060002090600a020160020154600886815481106132f5576132f5614982565b90600052602060002090600a020160010154613890565b6000818152600560205260408120906001905b825481101561348257336001600160a01b031683828154811061334457613344614982565b6000918252602090912001546001600160a01b03160361347057825460010361339e578280548061337757613377614b1d565b600082815260209020810160001990810180546001600160a01b0319169055019055613470565b805b83546133ae90600190614b33565b81101561343c57836133c1826001614b46565b815481106133d1576133d1614982565b9060005260206000200160009054906101000a90046001600160a01b031684828154811061340157613401614982565b600091825260209091200180546001600160a01b0319166001600160a01b039290921691909117905580613434816149e8565b9150506133a0565b508280548061344d5761344d614b1d565b600082815260209020810160001990810180546001600160a01b03191690550190555b8061347a816149e8565b91505061331f565b506000838152600560205260409020825461349f91908490614007565b5060005b6007548110156135295783600782815481106134c1576134c1614982565b9060005260206000209060090201600101540361351757600781815481106134eb576134eb614982565b60009182526020822060086009909202010180549161350983614c4e565b919050555060009150613529565b80613521816149e8565b9150506134a3565b508015610bf25760005b600854811015611d9a57836008828154811061355157613551614982565b90600052602060002090600a02016001015403613599576008818154811061357b5761357b614982565b6000918252602082206009600a9092020101805491611ee083614c4e565b806135a3816149e8565b915050613533565b600560205281600052604060002081815481106135c757600080fd5b6000918252602090912001546001600160a01b03169150829050565b6006805490819060006135f5836149e8565b91905055506000604051806101400160405280336001600160a01b0316815260200183815260200189815260200188815260200187815260200186815260200185815260200184815260200160008152602001600081525090506008604051806101400160405280336001600160a01b031681526020018481526020018a815260200189815260200188815260200187815260200186815260200185815260200160008152602001600081525090806001815401808255809150506001900390600052602060002090600a020160009091909190915060008201518160000160006101000a8154816001600160a01b0302191690836001600160a01b03160217905550602082015181600101556040820151816002015560608201518160030190816137219190614a64565b50608082015160048201906137369082614a64565b5060a0820151600582019061374b9082614a64565b5060c082015160068201906137609082614a64565b5060e082015160078201906137759082614a64565b506101008201516008820155610120909101516009909101556000888152600360208181526040808420805460018082018355828752958490208751600a9092020180546001600160a01b0319166001600160a01b0390921691909117815592860151948301949094558401516002820155606084015184928201906137fb9082614a64565b50608082015160048201906138109082614a64565b5060a082015160058201906138259082614a64565b5060c0820151600682019061383a9082614a64565b5060e0820151600782019061384f9082614a64565b506101008201516008820155610120909101516009909101556000898152600360205260409020815461388491908390613f12565b50505050505050505050565b6000828152600360205260408120905b8154811015611d7d57828282815481106138bc576138bc614982565b90600052602060002090600a02016001015403613b2f57815460010361397a57818054806138ec576138ec614b1d565b600082815260208120600a6000199093019283020180546001600160a01b031916815560018101829055600281018290559061392b6003830182613de6565b613939600483016000613de6565b613947600583016000613de6565b613955600683016000613de6565b613963600783016000613de6565b506000600882018190556009909101559055613b2f565b805b825461398a90600190614b33565b811015613a94578261399d826001614b46565b815481106139ad576139ad614982565b90600052602060002090600a02018382815481106139cd576139cd614982565b600091825260209091208254600a9092020180546001600160a01b0319166001600160a01b039092169190911781556001808301549082015560028083015490820155600380820190613a2290840182614b59565b50600481810190613a3590840182614b59565b50600581810190613a4890840182614b59565b50600681810190613a5b90840182614b59565b50600781810190613a6e90840182614b59565b506008828101549082015560099182015491015580613a8c816149e8565b91505061397c565b5081805480613aa557613aa5614b1d565b600082815260208120600a6000199093019283020180546001600160a01b0319168155600181018290556002810182905590613ae46003830182613de6565b613af2600483016000613de6565b613b00600583016000613de6565b613b0e600683016000613de6565b613b1c600783016000613de6565b5060006008820181905560099091015590555b80613b39816149e8565b9150506138a0565b60078181548110613b5157600080fd5b60009182526020909120600990910201805460018201546002830180546001600160a01b03909316945090929161128890614998565b60028181548110613b9757600080fd5b60009182526020909120600390910201805460018201805491935090613bbc90614998565b80601f0160208091040260200160405190810160405280929190818152602001828054613be890614998565b8015613c355780601f10613c0a57610100808354040283529160200191613c35565b820191906000526020600020905b815481529060010190602001808311613c1857829003601f168201915b505050505090806002018054613c4a90614998565b80601f0160208091040260200160405190810160405280929190818152602001828054613c7690614998565b8015613cc35780601f10613c9857610100808354040283529160200191613cc3565b820191906000526020600020905b815481529060010190602001808311613ca657829003601f168201915b5050505050905083565b600460205281600052604060002081815481106135c757600080fd5b60036020528160005260406000208181548110613d0557600080fd5b60009182526020909120600a909102018054600182015460028301546003840180546001600160a01b0390941696509194509291611f4b90614998565b8151815160009184918491908114613d605760009350505050613de0565b60005b81811015613dd757828181518110613d7d57613d7d614982565b602001015160f81c60f81b6001600160f81b031916848281518110613da457613da4614982565b01602001516001600160f81b03191614613dc5576000945050505050613de0565b80613dcf816149e8565b915050613d63565b50600193505050505b92915050565b508054613df290614998565b6000825580601f10613e02575050565b601f016020900490600052602060002090810190613e20919061404f565b50565b828054828255906000526020600020906009028101928215613f025760005260206000209160090282015b82811115613f0257825482546001600160a01b0319166001600160a01b03909116178255600180840154908301558282600280820190613e9090840182614b59565b50600381810190613ea390840182614b59565b50600481810190613eb690840182614b59565b50600581810190613ec990840182614b59565b50600681810190613edc90840182614b59565b506007820154816007015560088201548160080155505091600901919060090190613e4e565b50613f0e929150614064565b5090565b82805482825590600052602060002090600a028101928215613ffb57600052602060002091600a0282015b82811115613ffb57825482546001600160a01b0319166001600160a01b0390911617825560018084015490830155600280840154908301558282600380820190613f8990840182614b59565b50600481810190613f9c90840182614b59565b50600581810190613faf90840182614b59565b50600681810190613fc290840182614b59565b50600781810190613fd590840182614b59565b506008820154816008015560098201548160090155505091600a019190600a0190613f3d565b50613f0e9291506140df565b8280548282559060005260206000209081019282156140475760005260206000209182015b8281111561404757825482559160010191906001019061402c565b50613f0e9291505b5b80821115613f0e5760008155600101614050565b80821115613f0e5780546001600160a01b03191681556000600182018190556140906002830182613de6565b61409e600383016000613de6565b6140ac600483016000613de6565b6140ba600583016000613de6565b6140c8600683016000613de6565b506000600782018190556008820155600901614064565b80821115613f0e5780546001600160a01b0319168155600060018201819055600282018190556141126003830182613de6565b614120600483016000613de6565b61412e600583016000613de6565b61413c600683016000613de6565b61414a600783016000613de6565b506000600882018190556009820155600a016140df565b634e487b7160e01b600052604160045260246000fd5b600082601f83011261418857600080fd5b81356001600160401b03808211156141a2576141a2614161565b604051601f8301601f19908116603f011681019082821181831017156141ca576141ca614161565b816040528381528660208588010111156141e357600080fd5b836020870160208301376000602085830101528094505050505092915050565b6000806040838503121561421657600080fd5b82356001600160401b038082111561422d57600080fd5b61423986838701614177565b9350602085013591508082111561424f57600080fd5b5061425c85828601614177565b9150509250929050565b60006020828403121561427857600080fd5b5035919050565b600080600080600060a0868803121561429757600080fd5b85356001600160401b03808211156142ae57600080fd5b6142ba89838a01614177565b965060208801359150808211156142d057600080fd5b6142dc89838a01614177565b955060408801359150808211156142f257600080fd5b6142fe89838a01614177565b9450606088013591508082111561431457600080fd5b61432089838a01614177565b9350608088013591508082111561433657600080fd5b5061434388828901614177565b9150509295509295909350565b6001600160a01b03169052565b6000815180845260005b8181101561438357602081850181015186830182015201614367565b506000602082860101526020601f19601f83011685010191505092915050565b60006020808301818452808551808352604092508286019150828160051b87010184880160005b838110156144ab57603f1989840301855281516101406143eb858351614350565b8882015189860152878201518886015260608083015182828801526144128388018261435d565b925050506080808301518683038288015261442d838261435d565b9250505060a08083015186830382880152614448838261435d565b9250505060c08083015186830382880152614463838261435d565b9250505060e0808301518683038288015261447e838261435d565b610100858101519089015261012094850151949097019390935250505093860193908601906001016143ca565b509098975050505050505050565b80356001600160a01b03811681146144d057600080fd5b919050565b600080604083850312156144e857600080fd5b6144f1836144b9565b946020939093013593505050565b6001600160a01b038a168152602081018990526101206040820181905260009061452b8382018b61435d565b9050828103606084015261453f818a61435d565b90508281036080840152614553818961435d565b905082810360a0840152614567818861435d565b905082810360c084015261457b818761435d565b60e084019590955250506101000152979650505050505050565b6000602082840312156145a757600080fd5b6145b0826144b9565b9392505050565b60006020808301818452808551808352604092508286019150828160051b87010184880160005b838110156144ab57603f1989840301855281516101206145ff858351614350565b888201518986015287820151818987015261461c8287018261435d565b91505060608083015186830382880152614636838261435d565b9250505060808083015186830382880152614651838261435d565b9250505060a0808301518683038288015261466c838261435d565b9250505060c08083015186830382880152614687838261435d565b60e0858101519089015261010094850151949097019390935250505093860193908601906001016145de565b60006020808301818452808551808352604092508286019150828160051b87010184880160005b838110156144ab57603f19898403018552815160608151855288820151818a8701526147088287018261435d565b91505087820151915084810388860152614722818361435d565b9689019694505050908601906001016146da565b6000806040838503121561474957600080fd5b50508035926020909101359150565b600061014060018060a01b038d1683528b60208401528a60408401528060608401526147868184018b61435d565b9050828103608084015261479a818a61435d565b905082810360a08401526147ae818961435d565b905082810360c08401526147c2818861435d565b905082810360e08401526147d6818761435d565b6101008401959095525050610120015298975050505050505050565b6020808252825182820181905260009190848201906040850190845b818110156148335783516001600160a01b03168352928401929184019160010161480e565b50909695505050505050565b6000806040838503121561485257600080fd5b823591506020830135801515811461486957600080fd5b809150509250929050565b60008060008060008060c0878903121561488d57600080fd5b8635955060208701356001600160401b03808211156148ab57600080fd5b6148b78a838b01614177565b965060408901359150808211156148cd57600080fd5b6148d98a838b01614177565b955060608901359150808211156148ef57600080fd5b6148fb8a838b01614177565b9450608089013591508082111561491157600080fd5b61491d8a838b01614177565b935060a089013591508082111561493357600080fd5b5061494089828a01614177565b9150509295509295509295565b838152606060208201526000614966606083018561435d565b8281036040840152614978818561435d565b9695505050505050565b634e487b7160e01b600052603260045260246000fd5b600181811c908216806149ac57607f821691505b6020821081036149cc57634e487b7160e01b600052602260045260246000fd5b50919050565b634e487b7160e01b600052601160045260246000fd5b6000600182016149fa576149fa6149d2565b5060010190565b601f821115610bf257600081815260208120601f850160051c81016020861015614a285750805b601f850160051c820191505b81811015614a4757828155600101614a34565b505050505050565b600019600383901b1c191660019190911b1790565b81516001600160401b03811115614a7d57614a7d614161565b614a9181614a8b8454614998565b84614a01565b602080601f831160018114614ac05760008415614aae5750858301515b614ab88582614a4f565b865550614a47565b600085815260208120601f198616915b82811015614aef57888601518255948401946001909101908401614ad0565b5085821015614b0d5787850151600019600388901b60f8161c191681555b5050505050600190811b01905550565b634e487b7160e01b600052603160045260246000fd5b81810381811115613de057613de06149d2565b80820180821115613de057613de06149d2565b818103614b64575050565b614b6e8254614998565b6001600160401b03811115614b8557614b85614161565b614b9381614a8b8454614998565b6000601f821160018114614bc15760008315614baf5750848201545b614bb98482614a4f565b855550610626565b600085815260209020601f19841690600086815260209020845b83811015614bfb5782860154825560019586019590910190602001614bdb565b5085831015614b0d5793015460001960f8600387901b161c19169092555050600190811b01905550565b6020808252600f908201526e3737ba103a3bb2b2ba1037bbb732b960891b604082015260600190565b600081614c5d57614c5d6149d2565b506000190190565b80820260008212600160ff1b84141615614c8157614c816149d2565b8181058314821517613de057613de06149d2565b8181036000831280158383131683831282161715614cb557614cb56149d2565b5092915050565b8082018281126000831280158216821582161715614cdc57614cdc6149d2565b505092915050565b600082614d0157634e487b7160e01b600052601260045260246000fd5b600160ff1b821460001984141615614d1b57614d1b6149d2565b50059056fea2646970667358221220fdbb5494ebd18160e9587d79d06f7891b876b42e0cc27fd095f7a3dc9ae86d2264736f6c63430008130033",
  "immutableReferences": {},
  "source": "// SPDX-License-Identifier: UNLICENSED\r\npragma solidity ^0.8.17;\r\n\r\ncontract DecentraModules{\r\n    address public owner;\r\n    \r\n    constructor() {\r\n        owner = msg.sender;\r\n    }\r\n\r\n    struct Tweet{\r\n        address tweetOwner;\r\n        uint256 t_id;     \r\n        string username;\r\n        string userAt;\r\n        string date;\r\n        string text;\r\n        string cId;\r\n        uint likes;\r\n        uint dislikes;\r\n        \r\n\r\n    }\r\n\r\n    struct Comment{\r\n        address commentOwner;\r\n        uint256 c_id;\r\n        uint256 p_id;\r\n        string username;\r\n        string userAt;\r\n        string date;\r\n        string text;\r\n        string cId;\r\n        uint likes;\r\n        uint dislikes;\r\n        \r\n        \r\n    }\r\n\r\n    struct Trend{\r\n        uint256 t_id;\r\n        string t_name;\r\n        string t_location;\r\n        \r\n    }\r\n\r\n    mapping (uint => uint) public mentions;\r\n    Trend[] public trends;\r\n    mapping (uint => Comment[]) public comments; \r\n    mapping (uint => address[]) public liked;\r\n    mapping (uint => address[]) public disliked;\r\n\r\n    uint256 tweetId=1000;\r\n    Tweet[] public tweets;\r\n    Comment[] public cmtarr;\r\n    mapping (address => Tweet[]) public userTweets;\r\n\r\n    function ratio(uint index,bool comment) public {\r\n        int deletionLimit = -80;\r\n        int ratioAmount;\r\n        if(!comment){\r\n            ratioAmount=(int(tweets[index].likes)*100)-(int(tweets[index].dislikes)*100);\r\n            ratioAmount=ratioAmount/(int(tweets[index].likes)+int(tweets[index].dislikes));\r\n            if(ratioAmount<=deletionLimit && tweets[index].likes>=1){\r\n                deleteTweetregardless(tweets[index].t_id);\r\n            }\r\n        }\r\n        else{\r\n             ratioAmount=(int(cmtarr[index].likes)*100)-(int(cmtarr[index].dislikes)*100);\r\n            ratioAmount=ratioAmount/(int(cmtarr[index].likes)+int(cmtarr[index].dislikes));\r\n            if(ratioAmount<=deletionLimit && cmtarr[index].likes>=1){\r\n                    deleteCommentregardless(cmtarr[index].p_id, cmtarr[index].c_id);\r\n            }\r\n        }\r\n        \r\n    }\r\n\r\n    function stringsEquals(string memory s1, string memory s2) private pure returns (bool) {\r\n        bytes memory b1 = bytes(s1);\r\n        bytes memory b2 = bytes(s2);\r\n        uint256 l1 = b1.length;\r\n        if (l1 != b2.length) return false;\r\n        for (uint256 i=0; i<l1; i++) {\r\n            if (b1[i] != b2[i]) return false;\r\n        }\r\n        return true;\r\n\r\n\r\n    }\r\n\r\n    function addLike(uint _id) public {\r\n            address[] storage temp = liked[_id];\r\n            temp.push(msg.sender);\r\n            liked[_id]=temp;\r\n            bool comment=true;\r\n            for(uint i=0;i<tweets.length;i++){\r\n                if(tweets[i].t_id == _id){\r\n                    tweets[i].likes++;\r\n                    comment=false;\r\n                    break;\r\n                }\r\n            }\r\n            if(comment){\r\n                    for(uint i=0;i<cmtarr.length;i++){\r\n                        if(cmtarr[i].c_id == _id){\r\n                            cmtarr[i].likes++;\r\n                            break;\r\n                        }\r\n                }\r\n            }\r\n    }\r\n    function removeLike(uint _id) public{\r\n        address[] storage temp =liked[_id];\r\n        bool comment=true;\r\n            for(uint i=0; i<temp.length; i++)\r\n            {\r\n                if(temp[i] == msg.sender){\r\n                    \r\n                    if(temp.length==1){\r\n                        temp.pop();\r\n                    }\r\n                    else{\r\n                        for(uint j=i; j<temp.length-1;j++){\r\n                            temp[j]=temp[j+1];\r\n                        }\r\n                        temp.pop();\r\n                    }\r\n                }\r\n            }\r\n        liked[_id]=temp;\r\n         for(uint i=0;i<tweets.length;i++){\r\n            if(tweets[i].t_id == _id){\r\n                tweets[i].likes--;\r\n                comment=false;\r\n                ratio(i,comment);\r\n                break;\r\n            }\r\n        }\r\n         if(comment){\r\n                    for(uint i=0;i<cmtarr.length;i++){\r\n                        if(cmtarr[i].c_id == _id){\r\n                            cmtarr[i].likes--;\r\n                            ratio(i,comment);\r\n                            break;\r\n                        }\r\n                }\r\n            }\r\n\r\n    }\r\n    function getlikes(uint _id) public view returns(address[] memory){\r\n        return liked[_id];\r\n    }\r\n    \r\n     function addDislike(uint _id) public {\r\n        address[] storage temp = disliked[_id];\r\n        bool comment=true;\r\n        temp.push(msg.sender);\r\n        disliked[_id]=temp;\r\n         for(uint i=0;i<tweets.length;i++){\r\n            if(tweets[i].t_id == _id){\r\n                tweets[i].dislikes++;\r\n                comment=false;\r\n                ratio(i,comment);\r\n                break;\r\n            }\r\n        }\r\n         if(comment){\r\n                    for(uint i=0;i<cmtarr.length;i++){\r\n                        if(cmtarr[i].c_id == _id){\r\n                            cmtarr[i].dislikes++;\r\n                            ratio(i,comment);\r\n                            break;\r\n                        }\r\n                }\r\n            }\r\n\r\n\r\n    }\r\n\r\n    function removeDislike(uint _id) public{\r\n        address[] storage temp =disliked[_id];\r\n        bool comment=true;\r\n            for(uint i=0; i<temp.length; i++)\r\n            {\r\n                if(temp[i] == msg.sender){\r\n                    \r\n                    if(temp.length==1){\r\n                        temp.pop();\r\n                    }\r\n                    else{\r\n                        for(uint j=i; j<temp.length-1;j++){\r\n                            temp[j]=temp[j+1];\r\n                        }\r\n                        temp.pop();\r\n                    }\r\n                }\r\n            }\r\n        disliked[_id]=temp;\r\n\r\n         for(uint i=0;i<tweets.length;i++){\r\n            if(tweets[i].t_id == _id){\r\n                tweets[i].dislikes--;\r\n                comment=false;\r\n                break;\r\n            }\r\n        }\r\n         if(comment){\r\n                    for(uint i=0;i<cmtarr.length;i++){\r\n                        if(cmtarr[i].c_id == _id){\r\n                            cmtarr[i].dislikes--;\r\n                            break;\r\n                        }\r\n                }\r\n            }\r\n\r\n\r\n    }\r\n\r\n      function getdislikes(uint _id) public view returns(address[] memory){\r\n        return disliked[_id];\r\n    }\r\n\r\n     //Functions for Tweets\r\n    function addTweet(string memory _username, string memory _userAt, string memory _date, string memory _text, string memory _cId) public {\r\n        uint id =tweetId;\r\n        tweetId++;\r\n        tweets.push(Tweet(msg.sender ,id, _username, _userAt, _date, _text, _cId,0,0));\r\n        \r\n        Tweet[] storage userSpecificTweets= userTweets[msg.sender];\r\n        userSpecificTweets.push(Tweet(msg.sender ,id, _username, _userAt, _date, _text, _cId,0,0));\r\n        \r\n        userTweets[msg.sender]=userSpecificTweets;\r\n    }\r\n\r\n    function getAllTweets() public view returns(Tweet[] memory){\r\n        return tweets;\r\n    }\r\n\r\n    function getUserTweets(address _user) public view returns(Tweet[] memory){\r\n        return userTweets[_user];\r\n    }\r\n\r\n      function deleteTweet(uint id) public {\r\n        Tweet[] storage userSpecificTweets = userTweets[msg.sender];\r\n        for(uint i=0; i<tweets.length; i++)\r\n        {\r\n            if(tweets[i].t_id == id){\r\n                 require(tweets[i].tweetOwner == msg.sender, \"not tweet owner\");\r\n                if(tweets.length==1){\r\n                    tweets.pop();\r\n                }\r\n                else{\r\n                    for(uint j=i; j<tweets.length-1;j++){\r\n                        tweets[j]=tweets[j+1];\r\n                    }\r\n                    tweets.pop();\r\n                }\r\n            }\r\n        }\r\n        for (uint i=0;i<userSpecificTweets.length;i++){\r\n            if(userSpecificTweets[i].t_id==id){\r\n                require(userSpecificTweets[i].tweetOwner == msg.sender, \"not tweet owner\");\r\n                if(userSpecificTweets.length==1){\r\n                    userSpecificTweets.pop();\r\n                    userTweets[msg.sender]=userSpecificTweets;\r\n                }\r\n                else{\r\n                    for(uint j=i; j<userSpecificTweets.length-1;j++){\r\n                    userSpecificTweets[j]=userSpecificTweets[j+1];\r\n                    }\r\n                    userSpecificTweets.pop();\r\n                    userTweets[msg.sender]=userSpecificTweets;\r\n                }\r\n                \r\n            }\r\n        }\r\n    }\r\n      function deleteTweetregardless(uint id) public {\r\n        Tweet[] storage userSpecificTweets = userTweets[msg.sender];\r\n        for(uint i=0; i<tweets.length; i++)\r\n        {\r\n            if(tweets[i].t_id == id){\r\n                // require(tweets[i].tweetOwner == msg.sender, \"not tweet owner\");\r\n                if(tweets.length==1){\r\n                    tweets.pop();\r\n                }\r\n                else{\r\n                    for(uint j=i; j<tweets.length-1;j++){\r\n                        tweets[j]=tweets[j+1];\r\n                    }\r\n                    tweets.pop();\r\n                }\r\n            }\r\n        }\r\n        for (uint i=0;i<userSpecificTweets.length;i++){\r\n            if(userSpecificTweets[i].t_id==id){\r\n                require(userSpecificTweets[i].tweetOwner == msg.sender, \"not tweet owner\");\r\n                if(userSpecificTweets.length==1){\r\n                    userSpecificTweets.pop();\r\n                    userTweets[msg.sender]=userSpecificTweets;\r\n                }\r\n                else{\r\n                    for(uint j=i; j<userSpecificTweets.length-1;j++){\r\n                    userSpecificTweets[j]=userSpecificTweets[j+1];\r\n                    }\r\n                    userSpecificTweets.pop();\r\n                    userTweets[msg.sender]=userSpecificTweets;\r\n                }\r\n                \r\n            }\r\n        }\r\n    }\r\n\r\n    //Functions for Comments\r\n    function addComment(uint p_id, string memory _username, string memory _userAt, string memory _date, string memory _text, string memory _cId) public {\r\n        uint id=tweetId;\r\n        tweetId++;\r\n        Comment memory cmt= Comment(msg.sender, id, p_id, _username, _userAt, _date, _text, _cId,0,0);\r\n        cmtarr.push(Comment(msg.sender, id, p_id, _username, _userAt, _date, _text, _cId,0,0));\r\n        Comment[] storage new_cmts =comments[p_id];\r\n        new_cmts.push(cmt); \r\n        comments[p_id] = new_cmts;\r\n    }\r\n    function getComments(uint p_id) public view returns(Comment[] memory){\r\n        return comments[p_id];\r\n    }\r\n    function deleteComment(uint p_id, uint id) public {\r\n        Comment[] storage temp = comments[p_id];\r\n\r\n            for(uint i=0; i<temp.length; i++)\r\n            {\r\n                if(temp[i].c_id == id){\r\n                    require(temp[i].commentOwner == msg.sender, \"not comment owner\");\r\n                    if(temp.length==1){\r\n                        temp.pop();\r\n                    }\r\n                    else{\r\n                        for(uint j=i; j<temp.length-1;j++){\r\n                            temp[j]=temp[j+1];\r\n                        }\r\n                        temp.pop();\r\n                    }\r\n                }\r\n            }\r\n        comments[p_id]=temp;\r\n    }\r\n    function deleteCommentregardless(uint p_id, uint id) public {\r\n        Comment[] storage temp = comments[p_id];\r\n\r\n            for(uint i=0; i<temp.length; i++)\r\n            {\r\n                if(temp[i].c_id == id){\r\n                    // require(temp[i].commentOwner == msg.sender, \"not comment owner\");\r\n                    if(temp.length==1){\r\n                        temp.pop();\r\n                    }\r\n                    else{\r\n                        for(uint j=i; j<temp.length-1;j++){\r\n                            temp[j]=temp[j+1];\r\n                        }\r\n                        temp.pop();\r\n                    }\r\n                }\r\n            }\r\n        comments[p_id]=temp;\r\n    }\r\n\r\n     //Functions for Trends\r\n    function addTrend(string memory _name, string memory _location) public  {\r\n        uint id = tweetId;\r\n        bool exists =false;\r\n        uint tempMentions;\r\n       \r\n        for(uint i=0;i<trends.length;i++){\r\n            if(stringsEquals(trends[i].t_name, _name)){\r\n                exists = true;\r\n                id=trends[i].t_id;\r\n                break;\r\n            }\r\n        }\r\n       \r\n       if(exists){\r\n            tempMentions=mentions[id];\r\n            tempMentions++;\r\n            mentions[id]=tempMentions;\r\n        }else{\r\n            tweetId++;\r\n            trends.push(Trend(id,_name,_location));\r\n            mentions[id]=1;\r\n        }\r\n        \r\n    }\r\n   \r\n    function getTrends() public view returns(Trend[] memory){\r\n        return trends;\r\n    }\r\n    function getMentions(uint _id) public view returns(uint){\r\n        return mentions[_id];\r\n    }\r\n}",
  "sourcePath": "C:\\Users\\hamza\\OneDrive\\Desktop\\8th Semester\\FYP\\fyp the return\\decentra\\contracts\\DecentraModules.sol",
  "compiler": {
    "name": "solc",
    "version": "0.8.19+commit.7dd6d404.Emscripten.clang"
  },
  "schemaVersion": "3.4.14",
  "updatedAt": "2023-08-22T14:00:09.919Z",
  "networkType": "ethereum",
  "devdoc": {
    "kind": "dev",
    "methods": {},
    "version": 1
  },
  "userdoc": {
    "kind": "user",
    "methods": {},
    "version": 1
  }
}