{
  "contractName": "Decentra",
  "abi": [
    {
      "inputs": [],
      "stateMutability": "nonpayable",
      "type": "constructor"
    },
    {
      "inputs": [
        {
          "internalType": "uint256",
          "name": "",
          "type": "uint256"
        },
        {
          "internalType": "uint256",
          "name": "",
          "type": "uint256"
        }
      ],
      "name": "comments",
      "outputs": [
        {
          "internalType": "address",
          "name": "commentOwner",
          "type": "address"
        },
        {
          "internalType": "uint256",
          "name": "c_id",
          "type": "uint256"
        },
        {
          "internalType": "uint256",
          "name": "p_id",
          "type": "uint256"
        },
        {
          "internalType": "string",
          "name": "username",
          "type": "string"
        },
        {
          "internalType": "string",
          "name": "userAt",
          "type": "string"
        },
        {
          "internalType": "string",
          "name": "date",
          "type": "string"
        },
        {
          "internalType": "string",
          "name": "text",
          "type": "string"
        },
        {
          "internalType": "string",
          "name": "cId",
          "type": "string"
        }
      ],
      "stateMutability": "view",
      "type": "function",
      "constant": true
    },
    {
      "inputs": [
        {
          "internalType": "uint256",
          "name": "",
          "type": "uint256"
        },
        {
          "internalType": "uint256",
          "name": "",
          "type": "uint256"
        }
      ],
      "name": "liked",
      "outputs": [
        {
          "internalType": "address",
          "name": "",
          "type": "address"
        }
      ],
      "stateMutability": "view",
      "type": "function",
      "constant": true
    },
    {
      "inputs": [],
      "name": "owner",
      "outputs": [
        {
          "internalType": "address",
          "name": "",
          "type": "address"
        }
      ],
      "stateMutability": "view",
      "type": "function",
      "constant": true
    },
    {
      "inputs": [
        {
          "internalType": "uint256",
          "name": "",
          "type": "uint256"
        }
      ],
      "name": "trends",
      "outputs": [
        {
          "internalType": "uint256",
          "name": "t_id",
          "type": "uint256"
        },
        {
          "internalType": "string",
          "name": "t_name",
          "type": "string"
        },
        {
          "internalType": "string",
          "name": "t_location",
          "type": "string"
        },
        {
          "internalType": "uint256",
          "name": "t_mentions",
          "type": "uint256"
        }
      ],
      "stateMutability": "view",
      "type": "function",
      "constant": true
    },
    {
      "inputs": [
        {
          "internalType": "uint256",
          "name": "",
          "type": "uint256"
        }
      ],
      "name": "tweets",
      "outputs": [
        {
          "internalType": "address",
          "name": "tweetOwner",
          "type": "address"
        },
        {
          "internalType": "uint256",
          "name": "t_id",
          "type": "uint256"
        },
        {
          "internalType": "string",
          "name": "username",
          "type": "string"
        },
        {
          "internalType": "string",
          "name": "userAt",
          "type": "string"
        },
        {
          "internalType": "string",
          "name": "date",
          "type": "string"
        },
        {
          "internalType": "string",
          "name": "text",
          "type": "string"
        },
        {
          "internalType": "string",
          "name": "cId",
          "type": "string"
        }
      ],
      "stateMutability": "view",
      "type": "function",
      "constant": true
    },
    {
      "inputs": [
        {
          "internalType": "address",
          "name": "",
          "type": "address"
        },
        {
          "internalType": "uint256",
          "name": "",
          "type": "uint256"
        }
      ],
      "name": "userNotifications",
      "outputs": [
        {
          "internalType": "uint256",
          "name": "id",
          "type": "uint256"
        },
        {
          "internalType": "string",
          "name": "text",
          "type": "string"
        },
        {
          "internalType": "string",
          "name": "image",
          "type": "string"
        }
      ],
      "stateMutability": "view",
      "type": "function",
      "constant": true
    },
    {
      "inputs": [
        {
          "internalType": "address",
          "name": "",
          "type": "address"
        },
        {
          "internalType": "uint256",
          "name": "",
          "type": "uint256"
        }
      ],
      "name": "userTweets",
      "outputs": [
        {
          "internalType": "address",
          "name": "tweetOwner",
          "type": "address"
        },
        {
          "internalType": "uint256",
          "name": "t_id",
          "type": "uint256"
        },
        {
          "internalType": "string",
          "name": "username",
          "type": "string"
        },
        {
          "internalType": "string",
          "name": "userAt",
          "type": "string"
        },
        {
          "internalType": "string",
          "name": "date",
          "type": "string"
        },
        {
          "internalType": "string",
          "name": "text",
          "type": "string"
        },
        {
          "internalType": "string",
          "name": "cId",
          "type": "string"
        }
      ],
      "stateMutability": "view",
      "type": "function",
      "constant": true
    },
    {
      "inputs": [
        {
          "internalType": "uint256",
          "name": "_id",
          "type": "uint256"
        }
      ],
      "name": "addLike",
      "outputs": [],
      "stateMutability": "nonpayable",
      "type": "function"
    },
    {
      "inputs": [
        {
          "internalType": "uint256",
          "name": "_id",
          "type": "uint256"
        }
      ],
      "name": "removeLike",
      "outputs": [],
      "stateMutability": "nonpayable",
      "type": "function"
    },
    {
      "inputs": [
        {
          "internalType": "uint256",
          "name": "_id",
          "type": "uint256"
        }
      ],
      "name": "getlikes",
      "outputs": [
        {
          "internalType": "address[]",
          "name": "",
          "type": "address[]"
        }
      ],
      "stateMutability": "view",
      "type": "function",
      "constant": true
    },
    {
      "inputs": [
        {
          "components": [
            {
              "internalType": "address",
              "name": "userAddress",
              "type": "address"
            },
            {
              "components": [
                {
                  "internalType": "string",
                  "name": "name",
                  "type": "string"
                },
                {
                  "internalType": "string",
                  "name": "avatar",
                  "type": "string"
                },
                {
                  "internalType": "string",
                  "name": "banner",
                  "type": "string"
                },
                {
                  "internalType": "uint256",
                  "name": "age",
                  "type": "uint256"
                },
                {
                  "internalType": "string",
                  "name": "gender",
                  "type": "string"
                },
                {
                  "internalType": "string",
                  "name": "status",
                  "type": "string"
                },
                {
                  "internalType": "string",
                  "name": "country",
                  "type": "string"
                },
                {
                  "internalType": "string",
                  "name": "city",
                  "type": "string"
                }
              ],
              "internalType": "struct Decentra.Profile",
              "name": "profile",
              "type": "tuple"
            },
            {
              "internalType": "string",
              "name": "occupation",
              "type": "string"
            },
            {
              "internalType": "string",
              "name": "date_joined",
              "type": "string"
            },
            {
              "internalType": "uint256",
              "name": "followers",
              "type": "uint256"
            },
            {
              "internalType": "uint256",
              "name": "following",
              "type": "uint256"
            },
            {
              "internalType": "address[]",
              "name": "user_following",
              "type": "address[]"
            },
            {
              "internalType": "address[]",
              "name": "user_followed",
              "type": "address[]"
            }
          ],
          "internalType": "struct Decentra.user",
          "name": "_user",
          "type": "tuple"
        }
      ],
      "name": "createUser",
      "outputs": [],
      "stateMutability": "nonpayable",
      "type": "function"
    },
    {
      "inputs": [
        {
          "components": [
            {
              "internalType": "address",
              "name": "userAddress",
              "type": "address"
            },
            {
              "components": [
                {
                  "internalType": "string",
                  "name": "name",
                  "type": "string"
                },
                {
                  "internalType": "string",
                  "name": "avatar",
                  "type": "string"
                },
                {
                  "internalType": "string",
                  "name": "banner",
                  "type": "string"
                },
                {
                  "internalType": "uint256",
                  "name": "age",
                  "type": "uint256"
                },
                {
                  "internalType": "string",
                  "name": "gender",
                  "type": "string"
                },
                {
                  "internalType": "string",
                  "name": "status",
                  "type": "string"
                },
                {
                  "internalType": "string",
                  "name": "country",
                  "type": "string"
                },
                {
                  "internalType": "string",
                  "name": "city",
                  "type": "string"
                }
              ],
              "internalType": "struct Decentra.Profile",
              "name": "profile",
              "type": "tuple"
            },
            {
              "internalType": "string",
              "name": "occupation",
              "type": "string"
            },
            {
              "internalType": "string",
              "name": "date_joined",
              "type": "string"
            },
            {
              "internalType": "uint256",
              "name": "followers",
              "type": "uint256"
            },
            {
              "internalType": "uint256",
              "name": "following",
              "type": "uint256"
            },
            {
              "internalType": "address[]",
              "name": "user_following",
              "type": "address[]"
            },
            {
              "internalType": "address[]",
              "name": "user_followed",
              "type": "address[]"
            }
          ],
          "internalType": "struct Decentra.user",
          "name": "_user",
          "type": "tuple"
        }
      ],
      "name": "updateUser",
      "outputs": [],
      "stateMutability": "nonpayable",
      "type": "function"
    },
    {
      "inputs": [
        {
          "internalType": "address",
          "name": "userAddress",
          "type": "address"
        }
      ],
      "name": "getUser",
      "outputs": [
        {
          "components": [
            {
              "internalType": "address",
              "name": "userAddress",
              "type": "address"
            },
            {
              "components": [
                {
                  "internalType": "string",
                  "name": "name",
                  "type": "string"
                },
                {
                  "internalType": "string",
                  "name": "avatar",
                  "type": "string"
                },
                {
                  "internalType": "string",
                  "name": "banner",
                  "type": "string"
                },
                {
                  "internalType": "uint256",
                  "name": "age",
                  "type": "uint256"
                },
                {
                  "internalType": "string",
                  "name": "gender",
                  "type": "string"
                },
                {
                  "internalType": "string",
                  "name": "status",
                  "type": "string"
                },
                {
                  "internalType": "string",
                  "name": "country",
                  "type": "string"
                },
                {
                  "internalType": "string",
                  "name": "city",
                  "type": "string"
                }
              ],
              "internalType": "struct Decentra.Profile",
              "name": "profile",
              "type": "tuple"
            },
            {
              "internalType": "string",
              "name": "occupation",
              "type": "string"
            },
            {
              "internalType": "string",
              "name": "date_joined",
              "type": "string"
            },
            {
              "internalType": "uint256",
              "name": "followers",
              "type": "uint256"
            },
            {
              "internalType": "uint256",
              "name": "following",
              "type": "uint256"
            },
            {
              "internalType": "address[]",
              "name": "user_following",
              "type": "address[]"
            },
            {
              "internalType": "address[]",
              "name": "user_followed",
              "type": "address[]"
            }
          ],
          "internalType": "struct Decentra.user",
          "name": "",
          "type": "tuple"
        }
      ],
      "stateMutability": "view",
      "type": "function",
      "constant": true
    },
    {
      "inputs": [],
      "name": "getAllUsers",
      "outputs": [
        {
          "components": [
            {
              "internalType": "address",
              "name": "userAddress",
              "type": "address"
            },
            {
              "components": [
                {
                  "internalType": "string",
                  "name": "name",
                  "type": "string"
                },
                {
                  "internalType": "string",
                  "name": "avatar",
                  "type": "string"
                },
                {
                  "internalType": "string",
                  "name": "banner",
                  "type": "string"
                },
                {
                  "internalType": "uint256",
                  "name": "age",
                  "type": "uint256"
                },
                {
                  "internalType": "string",
                  "name": "gender",
                  "type": "string"
                },
                {
                  "internalType": "string",
                  "name": "status",
                  "type": "string"
                },
                {
                  "internalType": "string",
                  "name": "country",
                  "type": "string"
                },
                {
                  "internalType": "string",
                  "name": "city",
                  "type": "string"
                }
              ],
              "internalType": "struct Decentra.Profile",
              "name": "profile",
              "type": "tuple"
            },
            {
              "internalType": "string",
              "name": "occupation",
              "type": "string"
            },
            {
              "internalType": "string",
              "name": "date_joined",
              "type": "string"
            },
            {
              "internalType": "uint256",
              "name": "followers",
              "type": "uint256"
            },
            {
              "internalType": "uint256",
              "name": "following",
              "type": "uint256"
            },
            {
              "internalType": "address[]",
              "name": "user_following",
              "type": "address[]"
            },
            {
              "internalType": "address[]",
              "name": "user_followed",
              "type": "address[]"
            }
          ],
          "internalType": "struct Decentra.user[]",
          "name": "",
          "type": "tuple[]"
        }
      ],
      "stateMutability": "view",
      "type": "function",
      "constant": true
    },
    {
      "inputs": [
        {
          "internalType": "address",
          "name": "userAddress",
          "type": "address"
        }
      ],
      "name": "follow",
      "outputs": [],
      "stateMutability": "nonpayable",
      "type": "function"
    },
    {
      "inputs": [
        {
          "internalType": "address",
          "name": "userAddress",
          "type": "address"
        }
      ],
      "name": "unfollow",
      "outputs": [],
      "stateMutability": "nonpayable",
      "type": "function"
    },
    {
      "inputs": [
        {
          "internalType": "string",
          "name": "_username",
          "type": "string"
        },
        {
          "internalType": "string",
          "name": "_userAt",
          "type": "string"
        },
        {
          "internalType": "string",
          "name": "_date",
          "type": "string"
        },
        {
          "internalType": "string",
          "name": "_text",
          "type": "string"
        },
        {
          "internalType": "string",
          "name": "_cId",
          "type": "string"
        }
      ],
      "name": "addTweet",
      "outputs": [],
      "stateMutability": "nonpayable",
      "type": "function"
    },
    {
      "inputs": [],
      "name": "getAllTweets",
      "outputs": [
        {
          "components": [
            {
              "internalType": "address",
              "name": "tweetOwner",
              "type": "address"
            },
            {
              "internalType": "uint256",
              "name": "t_id",
              "type": "uint256"
            },
            {
              "internalType": "string",
              "name": "username",
              "type": "string"
            },
            {
              "internalType": "string",
              "name": "userAt",
              "type": "string"
            },
            {
              "internalType": "string",
              "name": "date",
              "type": "string"
            },
            {
              "internalType": "string",
              "name": "text",
              "type": "string"
            },
            {
              "internalType": "string",
              "name": "cId",
              "type": "string"
            }
          ],
          "internalType": "struct Decentra.Tweet[]",
          "name": "",
          "type": "tuple[]"
        }
      ],
      "stateMutability": "view",
      "type": "function",
      "constant": true
    },
    {
      "inputs": [
        {
          "internalType": "address",
          "name": "_user",
          "type": "address"
        }
      ],
      "name": "getUserTweets",
      "outputs": [
        {
          "components": [
            {
              "internalType": "address",
              "name": "tweetOwner",
              "type": "address"
            },
            {
              "internalType": "uint256",
              "name": "t_id",
              "type": "uint256"
            },
            {
              "internalType": "string",
              "name": "username",
              "type": "string"
            },
            {
              "internalType": "string",
              "name": "userAt",
              "type": "string"
            },
            {
              "internalType": "string",
              "name": "date",
              "type": "string"
            },
            {
              "internalType": "string",
              "name": "text",
              "type": "string"
            },
            {
              "internalType": "string",
              "name": "cId",
              "type": "string"
            }
          ],
          "internalType": "struct Decentra.Tweet[]",
          "name": "",
          "type": "tuple[]"
        }
      ],
      "stateMutability": "view",
      "type": "function",
      "constant": true
    },
    {
      "inputs": [
        {
          "internalType": "uint256",
          "name": "id",
          "type": "uint256"
        }
      ],
      "name": "deleteTweet",
      "outputs": [],
      "stateMutability": "nonpayable",
      "type": "function"
    },
    {
      "inputs": [
        {
          "internalType": "uint256",
          "name": "p_id",
          "type": "uint256"
        },
        {
          "internalType": "string",
          "name": "_username",
          "type": "string"
        },
        {
          "internalType": "string",
          "name": "_userAt",
          "type": "string"
        },
        {
          "internalType": "string",
          "name": "_date",
          "type": "string"
        },
        {
          "internalType": "string",
          "name": "_text",
          "type": "string"
        },
        {
          "internalType": "string",
          "name": "_cId",
          "type": "string"
        }
      ],
      "name": "addComment",
      "outputs": [],
      "stateMutability": "nonpayable",
      "type": "function"
    },
    {
      "inputs": [
        {
          "internalType": "uint256",
          "name": "p_id",
          "type": "uint256"
        }
      ],
      "name": "getComments",
      "outputs": [
        {
          "components": [
            {
              "internalType": "address",
              "name": "commentOwner",
              "type": "address"
            },
            {
              "internalType": "uint256",
              "name": "c_id",
              "type": "uint256"
            },
            {
              "internalType": "uint256",
              "name": "p_id",
              "type": "uint256"
            },
            {
              "internalType": "string",
              "name": "username",
              "type": "string"
            },
            {
              "internalType": "string",
              "name": "userAt",
              "type": "string"
            },
            {
              "internalType": "string",
              "name": "date",
              "type": "string"
            },
            {
              "internalType": "string",
              "name": "text",
              "type": "string"
            },
            {
              "internalType": "string",
              "name": "cId",
              "type": "string"
            }
          ],
          "internalType": "struct Decentra.Comment[]",
          "name": "",
          "type": "tuple[]"
        }
      ],
      "stateMutability": "view",
      "type": "function",
      "constant": true
    },
    {
      "inputs": [
        {
          "internalType": "uint256",
          "name": "p_id",
          "type": "uint256"
        },
        {
          "internalType": "uint256",
          "name": "id",
          "type": "uint256"
        }
      ],
      "name": "deleteComment",
      "outputs": [],
      "stateMutability": "nonpayable",
      "type": "function"
    },
    {
      "inputs": [
        {
          "internalType": "string",
          "name": "_name",
          "type": "string"
        },
        {
          "internalType": "string",
          "name": "_location",
          "type": "string"
        }
      ],
      "name": "addTrend",
      "outputs": [],
      "stateMutability": "nonpayable",
      "type": "function"
    },
    {
      "inputs": [],
      "name": "getTrends",
      "outputs": [
        {
          "components": [
            {
              "internalType": "uint256",
              "name": "t_id",
              "type": "uint256"
            },
            {
              "internalType": "string",
              "name": "t_name",
              "type": "string"
            },
            {
              "internalType": "string",
              "name": "t_location",
              "type": "string"
            },
            {
              "internalType": "uint256",
              "name": "t_mentions",
              "type": "uint256"
            }
          ],
          "internalType": "struct Decentra.Trend[]",
          "name": "",
          "type": "tuple[]"
        }
      ],
      "stateMutability": "view",
      "type": "function",
      "constant": true
    },
    {
      "inputs": [
        {
          "internalType": "address",
          "name": "_userAddress",
          "type": "address"
        },
        {
          "internalType": "string",
          "name": "_text",
          "type": "string"
        },
        {
          "internalType": "string",
          "name": "_image",
          "type": "string"
        }
      ],
      "name": "addNotification",
      "outputs": [],
      "stateMutability": "nonpayable",
      "type": "function"
    },
    {
      "inputs": [
        {
          "internalType": "address",
          "name": "_userAddress",
          "type": "address"
        }
      ],
      "name": "getUserNotifications",
      "outputs": [
        {
          "components": [
            {
              "internalType": "uint256",
              "name": "id",
              "type": "uint256"
            },
            {
              "internalType": "string",
              "name": "text",
              "type": "string"
            },
            {
              "internalType": "string",
              "name": "image",
              "type": "string"
            }
          ],
          "internalType": "struct Decentra.Notification[]",
          "name": "",
          "type": "tuple[]"
        }
      ],
      "stateMutability": "view",
      "type": "function",
      "constant": true
    }
  ],
  "bytecode": "0x60806040526103e860015534801561001657600080fd5b50600080546001600160a01b031916331790556153e4806100386000396000f3fe608060405234801561001057600080fd5b50600436106101a95760003560e01c80635775912a116100f9578063dc77fe5011610097578063e8d857b011610071578063e8d857b0146103e2578063ec5ec59b146103f5578063f99483ea14610418578063fc6c776f1461042b57600080fd5b8063dc77fe50146103a7578063e2842d79146103ba578063e402e6a5146103cf57600080fd5b80638da5cb5b116100d35780638da5cb5b14610336578063a7656e3314610361578063adab264d14610374578063b4dd1bfd1461039457600080fd5b80635775912a146102e357806357f31358146102f65780636f77926b1461031657600080fd5b80632f692f3f1161016657806338c919101161014057806338c91910146102935780634dbf27cc146102b557806353256135146102c857806355abc23b146102d057600080fd5b80632f692f3f1461025857806331a4bcb51461026d578063378a35cd1461028057600080fd5b8063015a4ead146101ae57806314604738146101c35780631dc0d344146101d657806323edf697146101e95780632e06f347146102125780632f5899d714610238575b600080fd5b6101c16101bc36600461433b565b610452565b005b6101c16101d136600461443b565b61070d565b6101c16101e436600461449e565b6107dc565b6101fc6101f736600461456f565b610a44565b60405161020991906145ce565b60405180910390f35b6102256102203660046146d0565b610dbc565b60405161020997969594939291906146fa565b61024b61024636600461433b565b6110ca565b604051610209919061477d565b61026061142e565b6040516102099190614867565b6101c161027b3660046148f5565b6115c5565b6101c161028e36600461456f565b6118e4565b6102a66102a13660046146d0565b61192d565b60405161020993929190614917565b6101c16102c336600461433b565b611a84565b61024b611b37565b6101c16102de36600461494c565b611e87565b6101c16102f136600461456f565b611f0e565b61030961030436600461433b565b61250e565b60405161020991906149bf565b61032961032436600461433b565b6126a6565b6040516102099190614bf0565b600054610349906001600160a01b031681565b6040516001600160a01b039091168152602001610209565b6101c161036f36600461456f565b612cfe565b61038761038236600461456f565b612e8e565b6040516102099190614c03565b6101c16103a2366004614dce565b612efa565b6101c16103b5366004614dce565b61308b565b6103c26131d4565b6040516102099190614ef0565b6101c16103dd366004614f52565b6138e0565b6102256103f036600461456f565b613a1d565b61040861040336600461456f565b613a63565b604051610209949392919061502b565b6103496104263660046148f5565b613baf565b61043e6104393660046148f5565b613be7565b604051610209989796959493929190615068565b336000908152600760205260408082206001600160a01b0384168352908220600d90910191600e909101905b82548110156105bc57836001600160a01b03168382815481106104a3576104a36150f5565b6000918252602090912001546001600160a01b0316036105aa5782546104cb90600190615121565b811461055057825483906104e190600190615121565b815481106104f1576104f16150f5565b9060005260206000200160009054906101000a90046001600160a01b0316838281548110610521576105216150f5565b9060005260206000200160006101000a8154816001600160a01b0302191690836001600160a01b031602179055505b828054806105605761056061513a565b60008281526020808220830160001990810180546001600160a01b03191690559092019092553382526007905260408120600c018054916105a083615150565b91905055506105bc565b806105b481615167565b91505061047e565b5060005b815481101561070757336001600160a01b03168282815481106105e5576105e56150f5565b6000918252602090912001546001600160a01b0316036106f557815461060d90600190615121565b8114610692578154829061062390600190615121565b81548110610633576106336150f5565b9060005260206000200160009054906101000a90046001600160a01b0316828281548110610663576106636150f5565b9060005260206000200160006101000a8154816001600160a01b0302191690836001600160a01b031602179055505b818054806106a2576106a261513a565b60008281526020808220830160001990810180546001600160a01b03191690559092019092556001600160a01b03861682526007905260408120600b018054916106eb83615150565b9190505550610707565b806106ff81615167565b9150506105c0565b50505050565b60018054908190600061071f83615167565b90915550506040805160808101825282815260208101858152918101849052600160608201819052600380549182018155600052815160049091027fc2575a0e9e593c00f959f8c92f12db2869c3395a3b0502d05e2516446f71f85b81019182559251919290917fc2575a0e9e593c00f959f8c92f12db2869c3395a3b0502d05e2516446f71f85c909101906107b59082615202565b50604082015160028201906107ca9082615202565b50606082015181600301555050505050565b6001805490819060006107ee83615167565b90915550506040805160e08101825233815260208101838152918101888152606082018890526080820187905260a0820186905260c082018590526002805460018101825560009190915282517f405787fa12a823e0f2b7631cc41b3ba8828b3321ca811111fa75cd3aa3bb5ace600790920291820180546001600160a01b0319166001600160a01b0390921691909117815593517f405787fa12a823e0f2b7631cc41b3ba8828b3321ca811111fa75cd3aa3bb5acf82015590519192917f405787fa12a823e0f2b7631cc41b3ba8828b3321ca811111fa75cd3aa3bb5ad0909101906108db9082615202565b50606082015160038201906108f09082615202565b50608082015160048201906109059082615202565b5060a0820151600582019061091a9082615202565b5060c0820151600682019061092f9082615202565b5050336000818152600460209081526040808320815160e0810183529485528483018781529185018c8152606086018c9052608086018b905260a086018a905260c0860189905281546001808201845583875294909520865160079096020180546001600160a01b0319166001600160a01b039096169590951785559151928401929092555190935060028201906109c79082615202565b50606082015160038201906109dc9082615202565b50608082015160048201906109f19082615202565b5060a08201516005820190610a069082615202565b5060c08201516006820190610a1b9082615202565b50503360009081526004602052604090208254610a3a92508390613efb565b5050505050505050565b606060056000838152602001908152602001600020805480602002602001604051908101604052809291908181526020016000905b82821015610db157600084815260209081902060408051610100810182526008860290920180546001600160a01b03168352600181015493830193909352600283015490820152600382018054919291606084019190610ad890615180565b80601f0160208091040260200160405190810160405280929190818152602001828054610b0490615180565b8015610b515780601f10610b2657610100808354040283529160200191610b51565b820191906000526020600020905b815481529060010190602001808311610b3457829003601f168201915b50505050508152602001600482018054610b6a90615180565b80601f0160208091040260200160405190810160405280929190818152602001828054610b9690615180565b8015610be35780601f10610bb857610100808354040283529160200191610be3565b820191906000526020600020905b815481529060010190602001808311610bc657829003601f168201915b50505050508152602001600582018054610bfc90615180565b80601f0160208091040260200160405190810160405280929190818152602001828054610c2890615180565b8015610c755780601f10610c4a57610100808354040283529160200191610c75565b820191906000526020600020905b815481529060010190602001808311610c5857829003601f168201915b50505050508152602001600682018054610c8e90615180565b80601f0160208091040260200160405190810160405280929190818152602001828054610cba90615180565b8015610d075780601f10610cdc57610100808354040283529160200191610d07565b820191906000526020600020905b815481529060010190602001808311610cea57829003601f168201915b50505050508152602001600782018054610d2090615180565b80601f0160208091040260200160405190810160405280929190818152602001828054610d4c90615180565b8015610d995780601f10610d6e57610100808354040283529160200191610d99565b820191906000526020600020905b815481529060010190602001808311610d7c57829003601f168201915b50505050508152505081526020019060010190610a79565b505050509050919050565b60046020528160005260406000208181548110610dd857600080fd5b60009182526020909120600790910201805460018201546002830180546001600160a01b03909316955090935090610e0f90615180565b80601f0160208091040260200160405190810160405280929190818152602001828054610e3b90615180565b8015610e885780601f10610e5d57610100808354040283529160200191610e88565b820191906000526020600020905b815481529060010190602001808311610e6b57829003601f168201915b505050505090806003018054610e9d90615180565b80601f0160208091040260200160405190810160405280929190818152602001828054610ec990615180565b8015610f165780601f10610eeb57610100808354040283529160200191610f16565b820191906000526020600020905b815481529060010190602001808311610ef957829003601f168201915b505050505090806004018054610f2b90615180565b80601f0160208091040260200160405190810160405280929190818152602001828054610f5790615180565b8015610fa45780601f10610f7957610100808354040283529160200191610fa4565b820191906000526020600020905b815481529060010190602001808311610f8757829003601f168201915b505050505090806005018054610fb990615180565b80601f0160208091040260200160405190810160405280929190818152602001828054610fe590615180565b80156110325780601f1061100757610100808354040283529160200191611032565b820191906000526020600020905b81548152906001019060200180831161101557829003601f168201915b50505050509080600601805461104790615180565b80601f016020809104026020016040519081016040528092919081815260200182805461107390615180565b80156110c05780601f10611095576101008083540402835291602001916110c0565b820191906000526020600020905b8154815290600101906020018083116110a357829003601f168201915b5050505050905087565b6001600160a01b0381166000908152600460209081526040808320805482518185028101850190935280835260609492939192909184015b82821015610db15760008481526020908190206040805160e0810182526007860290920180546001600160a01b031683526001810154938301939093526002830180549293929184019161115590615180565b80601f016020809104026020016040519081016040528092919081815260200182805461118190615180565b80156111ce5780601f106111a3576101008083540402835291602001916111ce565b820191906000526020600020905b8154815290600101906020018083116111b157829003601f168201915b505050505081526020016003820180546111e790615180565b80601f016020809104026020016040519081016040528092919081815260200182805461121390615180565b80156112605780601f1061123557610100808354040283529160200191611260565b820191906000526020600020905b81548152906001019060200180831161124357829003601f168201915b5050505050815260200160048201805461127990615180565b80601f01602080910402602001604051908101604052809291908181526020018280546112a590615180565b80156112f25780601f106112c7576101008083540402835291602001916112f2565b820191906000526020600020905b8154815290600101906020018083116112d557829003601f168201915b5050505050815260200160058201805461130b90615180565b80601f016020809104026020016040519081016040528092919081815260200182805461133790615180565b80156113845780601f1061135957610100808354040283529160200191611384565b820191906000526020600020905b81548152906001019060200180831161136757829003601f168201915b5050505050815260200160068201805461139d90615180565b80601f01602080910402602001604051908101604052809291908181526020018280546113c990615180565b80156114165780601f106113eb57610100808354040283529160200191611416565b820191906000526020600020905b8154815290600101906020018083116113f957829003601f168201915b50505050508152505081526020019060010190611102565b60606003805480602002602001604051908101604052809291908181526020016000905b828210156115bc57838290600052602060002090600402016040518060800160405290816000820154815260200160018201805461148f90615180565b80601f01602080910402602001604051908101604052809291908181526020018280546114bb90615180565b80156115085780601f106114dd57610100808354040283529160200191611508565b820191906000526020600020905b8154815290600101906020018083116114eb57829003601f168201915b5050505050815260200160028201805461152190615180565b80601f016020809104026020016040519081016040528092919081815260200182805461154d90615180565b801561159a5780601f1061156f5761010080835404028352916020019161159a565b820191906000526020600020905b81548152906001019060200180831161157d57829003601f168201915b5050505050815260200160038201548152505081526020019060010190611452565b50505050905090565b6000828152600560205260408120905b81548110156118c757828282815481106115f1576115f16150f5565b906000526020600020906008020160010154036118b557336001600160a01b0316828281548110611624576116246150f5565b60009182526020909120600890910201546001600160a01b0316146116845760405162461bcd60e51b81526020600482015260116024820152703737ba1031b7b6b6b2b73a1037bbb732b960791b60448201526064015b60405180910390fd5b815460010361171d578180548061169d5761169d61513a565b60008281526020812060086000199093019283020180546001600160a01b03191681556001810182905560028101829055906116dc6003830182613fd6565b6116ea600483016000613fd6565b6116f8600583016000613fd6565b611706600683016000613fd6565b611714600783016000613fd6565b505090556118b5565b805b825461172d90600190615121565b81101561182857826117408260016152c1565b81548110611750576117506150f5565b9060005260206000209060080201838281548110611770576117706150f5565b60009182526020909120825460089092020180546001600160a01b0319166001600160a01b0390921691909117815560018083015490820155600280830154908201556003808201906117c5908401826152d4565b506004818101906117d8908401826152d4565b506005818101906117eb908401826152d4565b506006818101906117fe908401826152d4565b50600781810190611811908401826152d4565b50905050808061182090615167565b91505061171f565b50818054806118395761183961513a565b60008281526020812060086000199093019283020180546001600160a01b03191681556001810182905560028101829055906118786003830182613fd6565b611886600483016000613fd6565b611894600583016000613fd6565b6118a2600683016000613fd6565b6118b0600783016000613fd6565b505090555b806118bf81615167565b9150506115d5565b506000838152600560205260409020815461070791908390614013565b60008181526006602090815260408220805460018101825581845291832090910180546001600160a01b0319163317905590829052805461192890829081906140f4565b505050565b6009602052816000526040600020818154811061194957600080fd5b90600052602060002090600302016000915091505080600001549080600101805461197390615180565b80601f016020809104026020016040519081016040528092919081815260200182805461199f90615180565b80156119ec5780601f106119c1576101008083540402835291602001916119ec565b820191906000526020600020905b8154815290600101906020018083116119cf57829003601f168201915b505050505090806002018054611a0190615180565b80601f0160208091040260200160405190810160405280929190818152602001828054611a2d90615180565b8015611a7a5780601f10611a4f57610100808354040283529160200191611a7a565b820191906000526020600020905b815481529060010190602001808311611a5d57829003601f168201915b5050505050905083565b3360008181526007602090815260408220600d8101805460018101825590845291832090910180546001600160a01b0319166001600160a01b038616179055918152600c909101805491611ad783615167565b90915550506001600160a01b03811660008181526007602090815260408220600e8101805460018101825590845291832090910180546001600160a01b03191633179055918152600b909101805491611b2f83615167565b919050555050565b60606002805480602002602001604051908101604052809291908181526020016000905b828210156115bc5760008481526020908190206040805160e0810182526007860290920180546001600160a01b0316835260018101549383019390935260028301805492939291840191611bae90615180565b80601f0160208091040260200160405190810160405280929190818152602001828054611bda90615180565b8015611c275780601f10611bfc57610100808354040283529160200191611c27565b820191906000526020600020905b815481529060010190602001808311611c0a57829003601f168201915b50505050508152602001600382018054611c4090615180565b80601f0160208091040260200160405190810160405280929190818152602001828054611c6c90615180565b8015611cb95780601f10611c8e57610100808354040283529160200191611cb9565b820191906000526020600020905b815481529060010190602001808311611c9c57829003601f168201915b50505050508152602001600482018054611cd290615180565b80601f0160208091040260200160405190810160405280929190818152602001828054611cfe90615180565b8015611d4b5780601f10611d2057610100808354040283529160200191611d4b565b820191906000526020600020905b815481529060010190602001808311611d2e57829003601f168201915b50505050508152602001600582018054611d6490615180565b80601f0160208091040260200160405190810160405280929190818152602001828054611d9090615180565b8015611ddd5780601f10611db257610100808354040283529160200191611ddd565b820191906000526020600020905b815481529060010190602001808311611dc057829003601f168201915b50505050508152602001600682018054611df690615180565b80601f0160208091040260200160405190810160405280929190818152602001828054611e2290615180565b8015611e6f5780601f10611e4457610100808354040283529160200191611e6f565b820191906000526020600020905b815481529060010190602001808311611e5257829003601f168201915b50505050508152505081526020019060010190611b5b565b6001600160a01b0383166000908152600960209081526040808320805482516060810184528181528085018881529381018790526001808301845583875294909520855160038302909101908155925191949093909283929091820190611eee9082615202565b5060408201516002820190611f039082615202565b505050505050505050565b336000908152600460205260408120905b6002548110156121fb578260028281548110611f3d57611f3d6150f5565b906000526020600020906007020160010154036121e957336001600160a01b031660028281548110611f7157611f716150f5565b60009182526020909120600790910201546001600160a01b031614611fca5760405162461bcd60e51b815260206004820152600f60248201526e3737ba103a3bb2b2ba1037bbb732b960891b604482015260640161167b565b60025460010361205e576002805480611fe557611fe561513a565b60008281526020812060076000199093019283020180546001600160a01b0319168155600181018290559061201d6002830182613fd6565b61202b600383016000613fd6565b612039600483016000613fd6565b612047600583016000613fd6565b612055600683016000613fd6565b505090556121e9565b805b60025461206f90600190615121565b8110156121625760026120838260016152c1565b81548110612093576120936150f5565b9060005260206000209060070201600282815481106120b4576120b46150f5565b60009182526020909120825460079092020180546001600160a01b0319166001600160a01b03909216919091178155600180830154908201556002808201906120ff908401826152d4565b50600381810190612112908401826152d4565b50600481810190612125908401826152d4565b50600581810190612138908401826152d4565b5060068181019061214b908401826152d4565b50905050808061215a90615167565b915050612060565b5060028054806121745761217461513a565b60008281526020812060076000199093019283020180546001600160a01b031916815560018101829055906121ac6002830182613fd6565b6121ba600383016000613fd6565b6121c8600483016000613fd6565b6121d6600583016000613fd6565b6121e4600683016000613fd6565b505090555b806121f381615167565b915050611f1f565b5060005b8154811015611928578282828154811061221b5761221b6150f5565b906000526020600020906007020160010154036124fc57336001600160a01b031682828154811061224e5761224e6150f5565b60009182526020909120600790910201546001600160a01b0316146122a75760405162461bcd60e51b815260206004820152600f60248201526e3737ba103a3bb2b2ba1037bbb732b960891b604482015260640161167b565b815460010361235757818054806122c0576122c061513a565b60008281526020812060076000199093019283020180546001600160a01b031916815560018101829055906122f86002830182613fd6565b612306600383016000613fd6565b612314600483016000613fd6565b612322600583016000613fd6565b612330600683016000613fd6565b50509055336000908152600460205260409020825461235191908490613efb565b506124fc565b805b825461236790600190615121565b811015612458578261237a8260016152c1565b8154811061238a5761238a6150f5565b90600052602060002090600702018382815481106123aa576123aa6150f5565b60009182526020909120825460079092020180546001600160a01b0319166001600160a01b03909216919091178155600180830154908201556002808201906123f5908401826152d4565b50600381810190612408908401826152d4565b5060048181019061241b908401826152d4565b5060058181019061242e908401826152d4565b50600681810190612441908401826152d4565b50905050808061245090615167565b915050612359565b50818054806124695761246961513a565b60008281526020812060076000199093019283020180546001600160a01b031916815560018101829055906124a16002830182613fd6565b6124af600383016000613fd6565b6124bd600483016000613fd6565b6124cb600583016000613fd6565b6124d9600683016000613fd6565b5050905533600090815260046020526040902082546124fa91908490613efb565b505b8061250681615167565b9150506121ff565b6001600160a01b0381166000908152600960209081526040808320805482518185028101850190935280835260609492939192909184015b82821015610db157838290600052602060002090600302016040518060600160405290816000820154815260200160018201805461258390615180565b80601f01602080910402602001604051908101604052809291908181526020018280546125af90615180565b80156125fc5780601f106125d1576101008083540402835291602001916125fc565b820191906000526020600020905b8154815290600101906020018083116125df57829003601f168201915b5050505050815260200160028201805461261590615180565b80601f016020809104026020016040519081016040528092919081815260200182805461264190615180565b801561268e5780601f106126635761010080835404028352916020019161268e565b820191906000526020600020905b81548152906001019060200180831161267157829003601f168201915b50505050508152505081526020019060010190612546565b6126ae614140565b6001600160a01b03808316600090815260076020908152604091829020825161010080820185528254909516815283519485019093526001810180549394919392850192829082906126ff90615180565b80601f016020809104026020016040519081016040528092919081815260200182805461272b90615180565b80156127785780601f1061274d57610100808354040283529160200191612778565b820191906000526020600020905b81548152906001019060200180831161275b57829003601f168201915b5050505050815260200160018201805461279190615180565b80601f01602080910402602001604051908101604052809291908181526020018280546127bd90615180565b801561280a5780601f106127df5761010080835404028352916020019161280a565b820191906000526020600020905b8154815290600101906020018083116127ed57829003601f168201915b5050505050815260200160028201805461282390615180565b80601f016020809104026020016040519081016040528092919081815260200182805461284f90615180565b801561289c5780601f106128715761010080835404028352916020019161289c565b820191906000526020600020905b81548152906001019060200180831161287f57829003601f168201915b50505050508152602001600382015481526020016004820180546128bf90615180565b80601f01602080910402602001604051908101604052809291908181526020018280546128eb90615180565b80156129385780601f1061290d57610100808354040283529160200191612938565b820191906000526020600020905b81548152906001019060200180831161291b57829003601f168201915b5050505050815260200160058201805461295190615180565b80601f016020809104026020016040519081016040528092919081815260200182805461297d90615180565b80156129ca5780601f1061299f576101008083540402835291602001916129ca565b820191906000526020600020905b8154815290600101906020018083116129ad57829003601f168201915b505050505081526020016006820180546129e390615180565b80601f0160208091040260200160405190810160405280929190818152602001828054612a0f90615180565b8015612a5c5780601f10612a3157610100808354040283529160200191612a5c565b820191906000526020600020905b815481529060010190602001808311612a3f57829003601f168201915b50505050508152602001600782018054612a7590615180565b80601f0160208091040260200160405190810160405280929190818152602001828054612aa190615180565b8015612aee5780601f10612ac357610100808354040283529160200191612aee565b820191906000526020600020905b815481529060010190602001808311612ad157829003601f168201915b5050505050815250508152602001600982018054612b0b90615180565b80601f0160208091040260200160405190810160405280929190818152602001828054612b3790615180565b8015612b845780601f10612b5957610100808354040283529160200191612b84565b820191906000526020600020905b815481529060010190602001808311612b6757829003601f168201915b50505050508152602001600a82018054612b9d90615180565b80601f0160208091040260200160405190810160405280929190818152602001828054612bc990615180565b8015612c165780601f10612beb57610100808354040283529160200191612c16565b820191906000526020600020905b815481529060010190602001808311612bf957829003601f168201915b50505050508152602001600b8201548152602001600c8201548152602001600d8201805480602002602001604051908101604052809291908181526020018280548015612c8c57602002820191906000526020600020905b81546001600160a01b03168152600190910190602001808311612c6e575b50505050508152602001600e8201805480602002602001604051908101604052809291908181526020018280548015612cee57602002820191906000526020600020905b81546001600160a01b03168152600190910190602001808311612cd0575b5050505050815250509050919050565b6000818152600660205260408120905b8154811015612e7157336001600160a01b0316828281548110612d3357612d336150f5565b6000918252602090912001546001600160a01b031603612e5f578154600103612d8d5781805480612d6657612d6661513a565b600082815260209020810160001990810180546001600160a01b0319169055019055612e5f565b805b8254612d9d90600190615121565b811015612e2b5782612db08260016152c1565b81548110612dc057612dc06150f5565b9060005260206000200160009054906101000a90046001600160a01b0316838281548110612df057612df06150f5565b600091825260209091200180546001600160a01b0319166001600160a01b039290921691909117905580612e2381615167565b915050612d8f565b5081805480612e3c57612e3c61513a565b600082815260209020810160001990810180546001600160a01b03191690550190555b80612e6981615167565b915050612d0e565b5060008281526006602052604090208154611928919083906140f4565b600081815260066020908152604091829020805483518184028101840190945280845260609392830182828015612eee57602002820191906000526020600020905b81546001600160a01b03168152600190910190602001808311612ed0575b50505050509050919050565b336000908152600760209081526040909120825181546001600160a01b0319166001600160a01b039091161781559082015180518392919060018301908190612f439082615202565b5060208201516001820190612f589082615202565b5060408201516002820190612f6d9082615202565b506060820151600382015560808201516004820190612f8c9082615202565b5060a08201516005820190612fa19082615202565b5060c08201516006820190612fb69082615202565b5060e08201516007820190612fcb9082615202565b50505060408201516009820190612fe29082615202565b506060820151600a820190612ff79082615202565b506080820151600b82015560a0820151600c82015560c0820151805161302791600d8401916020909101906141d4565b5060e0820151805161304391600e8401916020909101906141d4565b5050600880546001810182556000919091527ff3f7a9fe364faab93b216da50a3214154f22a0a2b415b23a84c8169e8b636ee30180546001600160a01b031916331790555050565b336000908152600760209081526040909120825181546001600160a01b0319166001600160a01b0390911617815590820151805183929190600183019081906130d49082615202565b50602082015160018201906130e99082615202565b50604082015160028201906130fe9082615202565b50606082015160038201556080820151600482019061311d9082615202565b5060a082015160058201906131329082615202565b5060c082015160068201906131479082615202565b5060e0820151600782019061315c9082615202565b505050604082015160098201906131739082615202565b506060820151600a8201906131889082615202565b506080820151600b82015560a0820151600c82015560c082015180516131b891600d8401916020909101906141d4565b5060e0820151805161070791600e8401916020909101906141d4565b6008546060906000906001600160401b038111156131f4576131f461435d565b60405190808252806020026020018201604052801561322d57816020015b61321a614140565b8152602001906001900390816132125790505b50905060005b6008548110156138da576007600060088381548110613254576132546150f5565b60009182526020808320909101546001600160a01b039081168452838201949094526040928301909120825161010081810185528254909516815283519485019093526001810180549394919392850192829082906132b290615180565b80601f01602080910402602001604051908101604052809291908181526020018280546132de90615180565b801561332b5780601f106133005761010080835404028352916020019161332b565b820191906000526020600020905b81548152906001019060200180831161330e57829003601f168201915b5050505050815260200160018201805461334490615180565b80601f016020809104026020016040519081016040528092919081815260200182805461337090615180565b80156133bd5780601f10613392576101008083540402835291602001916133bd565b820191906000526020600020905b8154815290600101906020018083116133a057829003601f168201915b505050505081526020016002820180546133d690615180565b80601f016020809104026020016040519081016040528092919081815260200182805461340290615180565b801561344f5780601f106134245761010080835404028352916020019161344f565b820191906000526020600020905b81548152906001019060200180831161343257829003601f168201915b505050505081526020016003820154815260200160048201805461347290615180565b80601f016020809104026020016040519081016040528092919081815260200182805461349e90615180565b80156134eb5780601f106134c0576101008083540402835291602001916134eb565b820191906000526020600020905b8154815290600101906020018083116134ce57829003601f168201915b5050505050815260200160058201805461350490615180565b80601f016020809104026020016040519081016040528092919081815260200182805461353090615180565b801561357d5780601f106135525761010080835404028352916020019161357d565b820191906000526020600020905b81548152906001019060200180831161356057829003601f168201915b5050505050815260200160068201805461359690615180565b80601f01602080910402602001604051908101604052809291908181526020018280546135c290615180565b801561360f5780601f106135e45761010080835404028352916020019161360f565b820191906000526020600020905b8154815290600101906020018083116135f257829003601f168201915b5050505050815260200160078201805461362890615180565b80601f016020809104026020016040519081016040528092919081815260200182805461365490615180565b80156136a15780601f10613676576101008083540402835291602001916136a1565b820191906000526020600020905b81548152906001019060200180831161368457829003601f168201915b50505050508152505081526020016009820180546136be90615180565b80601f01602080910402602001604051908101604052809291908181526020018280546136ea90615180565b80156137375780601f1061370c57610100808354040283529160200191613737565b820191906000526020600020905b81548152906001019060200180831161371a57829003601f168201915b50505050508152602001600a8201805461375090615180565b80601f016020809104026020016040519081016040528092919081815260200182805461377c90615180565b80156137c95780601f1061379e576101008083540402835291602001916137c9565b820191906000526020600020905b8154815290600101906020018083116137ac57829003601f168201915b50505050508152602001600b8201548152602001600c8201548152602001600d820180548060200260200160405190810160405280929190818152602001828054801561383f57602002820191906000526020600020905b81546001600160a01b03168152600190910190602001808311613821575b50505050508152602001600e82018054806020026020016040519081016040528092919081815260200182805480156138a157602002820191906000526020600020905b81546001600160a01b03168152600190910190602001808311613883575b5050505050815250508282815181106138bc576138bc6150f5565b602002602001018190525080806138d290615167565b915050613233565b50919050565b6001805490819060006138f283615167565b9091555050604080516101008101825233815260208082018481528284018b8152606084018b8152608085018b905260a085018a905260c0850189905260e0850188905260008d81526005855295862080546001808201835582895295909720865160089098020180546001600160a01b0319166001600160a01b03909816979097178755925193860193909355516002850155905191929091839190600382019061399e9082615202565b50608082015160048201906139b39082615202565b5060a082015160058201906139c89082615202565b5060c082015160068201906139dd9082615202565b5060e082015160078201906139f29082615202565b50505060008981526005602052604090208154613a1191908390614013565b50505050505050505050565b60028181548110613a2d57600080fd5b60009182526020909120600790910201805460018201546002830180546001600160a01b039093169450909291610e0f90615180565b60038181548110613a7357600080fd5b60009182526020909120600490910201805460018201805491935090613a9890615180565b80601f0160208091040260200160405190810160405280929190818152602001828054613ac490615180565b8015613b115780601f10613ae657610100808354040283529160200191613b11565b820191906000526020600020905b815481529060010190602001808311613af457829003601f168201915b505050505090806002018054613b2690615180565b80601f0160208091040260200160405190810160405280929190818152602001828054613b5290615180565b8015613b9f5780601f10613b7457610100808354040283529160200191613b9f565b820191906000526020600020905b815481529060010190602001808311613b8257829003601f168201915b5050505050908060030154905084565b60066020528160005260406000208181548110613bcb57600080fd5b6000918252602090912001546001600160a01b03169150829050565b60056020528160005260406000208181548110613c0357600080fd5b600091825260209091206008909102018054600182015460028301546003840180546001600160a01b0390941696509194509291613c4090615180565b80601f0160208091040260200160405190810160405280929190818152602001828054613c6c90615180565b8015613cb95780601f10613c8e57610100808354040283529160200191613cb9565b820191906000526020600020905b815481529060010190602001808311613c9c57829003601f168201915b505050505090806004018054613cce90615180565b80601f0160208091040260200160405190810160405280929190818152602001828054613cfa90615180565b8015613d475780601f10613d1c57610100808354040283529160200191613d47565b820191906000526020600020905b815481529060010190602001808311613d2a57829003601f168201915b505050505090806005018054613d5c90615180565b80601f0160208091040260200160405190810160405280929190818152602001828054613d8890615180565b8015613dd55780601f10613daa57610100808354040283529160200191613dd5565b820191906000526020600020905b815481529060010190602001808311613db857829003601f168201915b505050505090806006018054613dea90615180565b80601f0160208091040260200160405190810160405280929190818152602001828054613e1690615180565b8015613e635780601f10613e3857610100808354040283529160200191613e63565b820191906000526020600020905b815481529060010190602001808311613e4657829003601f168201915b505050505090806007018054613e7890615180565b80601f0160208091040260200160405190810160405280929190818152602001828054613ea490615180565b8015613ef15780601f10613ec657610100808354040283529160200191613ef1565b820191906000526020600020905b815481529060010190602001808311613ed457829003601f168201915b5050505050905088565b828054828255906000526020600020906007028101928215613fc65760005260206000209160070282015b82811115613fc657825482546001600160a01b0319166001600160a01b03909116178255600180840154908301558282600280820190613f68908401826152d4565b50600381810190613f7b908401826152d4565b50600481810190613f8e908401826152d4565b50600581810190613fa1908401826152d4565b50600681810190613fb4908401826152d4565b50505091600701919060070190613f26565b50613fd2929150614229565b5090565b508054613fe290615180565b6000825580601f10613ff2575050565b601f0160209004906000526020600020908101906140109190614296565b50565b8280548282559060005260206000209060080281019282156140e85760005260206000209160080282015b828111156140e857825482546001600160a01b0319166001600160a01b039091161782556001808401549083015560028084015490830155828260038082019061408a908401826152d4565b5060048181019061409d908401826152d4565b506005818101906140b0908401826152d4565b506006818101906140c3908401826152d4565b506007818101906140d6908401826152d4565b5050509160080191906008019061403e565b50613fd29291506142ab565b8280548282559060005260206000209081019282156141345760005260206000209182015b82811115614134578254825591600101919060010190614119565b50613fd2929150614296565b60405180610100016040528060006001600160a01b031681526020016141a460405180610100016040528060608152602001606081526020016060815260200160008152602001606081526020016060815260200160608152602001606081525090565b81526020016060815260200160608152602001600081526020016000815260200160608152602001606081525090565b828054828255906000526020600020908101928215614134579160200282015b8281111561413457825182546001600160a01b0319166001600160a01b039091161782556020909201916001909101906141f4565b80821115613fd25780546001600160a01b03191681556000600182018190556142556002830182613fd6565b614263600383016000613fd6565b614271600483016000613fd6565b61427f600583016000613fd6565b61428d600683016000613fd6565b50600701614229565b5b80821115613fd25760008155600101614297565b80821115613fd25780546001600160a01b0319168155600060018201819055600282018190556142de6003830182613fd6565b6142ec600483016000613fd6565b6142fa600583016000613fd6565b614308600683016000613fd6565b614316600783016000613fd6565b506008016142ab565b80356001600160a01b038116811461433657600080fd5b919050565b60006020828403121561434d57600080fd5b6143568261431f565b9392505050565b634e487b7160e01b600052604160045260246000fd5b60405161010081016001600160401b03811182821017156143965761439661435d565b60405290565b604051601f8201601f191681016001600160401b03811182821017156143c4576143c461435d565b604052919050565b600082601f8301126143dd57600080fd5b81356001600160401b038111156143f6576143f661435d565b614409601f8201601f191660200161439c565b81815284602083860101111561441e57600080fd5b816020850160208301376000918101602001919091529392505050565b6000806040838503121561444e57600080fd5b82356001600160401b038082111561446557600080fd5b614471868387016143cc565b9350602085013591508082111561448757600080fd5b50614494858286016143cc565b9150509250929050565b600080600080600060a086880312156144b657600080fd5b85356001600160401b03808211156144cd57600080fd5b6144d989838a016143cc565b965060208801359150808211156144ef57600080fd5b6144fb89838a016143cc565b9550604088013591508082111561451157600080fd5b61451d89838a016143cc565b9450606088013591508082111561453357600080fd5b61453f89838a016143cc565b9350608088013591508082111561455557600080fd5b50614562888289016143cc565b9150509295509295909350565b60006020828403121561458157600080fd5b5035919050565b6000815180845260005b818110156145ae57602081850181015186830182015201614592565b506000602082860101526020601f19601f83011685010191505092915050565b60006020808301818452808551808352604092508286019150828160051b87010184880160005b838110156146c257888303603f19018552815180516001600160a01b0316845261010088820151898601528782015188860152606080830151828288015261463f83880182614588565b925050506080808301518683038288015261465a8382614588565b9250505060a080830151868303828801526146758382614588565b9250505060c080830151868303828801526146908382614588565b9250505060e080830151925085820381870152506146ae8183614588565b9689019694505050908601906001016145f5565b509098975050505050505050565b600080604083850312156146e357600080fd5b6146ec8361431f565b946020939093013593505050565b60018060a01b038816815286602082015260e06040820152600061472160e0830188614588565b82810360608401526147338188614588565b905082810360808401526147478187614588565b905082810360a084015261475b8186614588565b905082810360c084015261476f8185614588565b9a9950505050505050505050565b60006020808301818452808551808352604092508286019150828160051b87010184880160005b838110156146c257888303603f19018552815180516001600160a01b0316845287810151888501528681015160e0888601819052906147e582870182614588565b915050606080830151868303828801526147ff8382614588565b925050506080808301518683038288015261481a8382614588565b9250505060a080830151868303828801526148358382614588565b9250505060c080830151925085820381870152506148538183614588565b9689019694505050908601906001016147a4565b60006020808301818452808551808352604092508286019150828160051b87010184880160005b838110156146c257603f19898403018552815160808151855288820151818a8701526148bc82870182614588565b91505087820151858203898701526148d48282614588565b6060938401519690930195909552509487019492509086019060010161488e565b6000806040838503121561490857600080fd5b50508035926020909101359150565b8381526060602082015260006149306060830185614588565b82810360408401526149428185614588565b9695505050505050565b60008060006060848603121561496157600080fd5b61496a8461431f565b925060208401356001600160401b038082111561498657600080fd5b614992878388016143cc565b935060408601359150808211156149a857600080fd5b506149b5868287016143cc565b9150509250925092565b60006020808301818452808551808352604092508286019150828160051b87010184880160005b838110156146c257603f19898403018552815160608151855288820151818a870152614a1482870182614588565b91505087820151915084810388860152614a2e8183614588565b9689019694505050908601906001016149e6565b60006101008251818552614a5882860182614588565b91505060208301518482036020860152614a728282614588565b91505060408301518482036040860152614a8c8282614588565b9150506060830151606085015260808301518482036080860152614ab08282614588565b91505060a083015184820360a0860152614aca8282614588565b91505060c083015184820360c0860152614ae48282614588565b91505060e083015184820360e0860152614afe8282614588565b95945050505050565b600081518084526020808501945080840160005b83811015614b405781516001600160a01b031687529582019590820190600101614b1b565b509495945050505050565b80516001600160a01b0316825260006101006020830151816020860152614b7482860182614a42565b91505060408301518482036040860152614b8e8282614588565b91505060608301518482036060860152614ba88282614588565b9150506080830151608085015260a083015160a085015260c083015184820360c0860152614bd68282614b07565b91505060e083015184820360e0860152614afe8282614b07565b6020815260006143566020830184614b4b565b6020815260006143566020830184614b07565b60006101008284031215614c2957600080fd5b614c31614373565b905081356001600160401b0380821115614c4a57600080fd5b614c56858386016143cc565b83526020840135915080821115614c6c57600080fd5b614c78858386016143cc565b60208401526040840135915080821115614c9157600080fd5b614c9d858386016143cc565b6040840152606084013560608401526080840135915080821115614cc057600080fd5b614ccc858386016143cc565b608084015260a0840135915080821115614ce557600080fd5b614cf1858386016143cc565b60a084015260c0840135915080821115614d0a57600080fd5b614d16858386016143cc565b60c084015260e0840135915080821115614d2f57600080fd5b50614d3c848285016143cc565b60e08301525092915050565b600082601f830112614d5957600080fd5b813560206001600160401b03821115614d7457614d7461435d565b8160051b614d8382820161439c565b9283528481018201928281019087851115614d9d57600080fd5b83870192505b84831015614dc357614db48361431f565b82529183019190830190614da3565b979650505050505050565b600060208284031215614de057600080fd5b81356001600160401b0380821115614df757600080fd5b908301906101008286031215614e0c57600080fd5b614e14614373565b614e1d8361431f565b8152602083013582811115614e3157600080fd5b614e3d87828601614c16565b602083015250604083013582811115614e5557600080fd5b614e61878286016143cc565b604083015250606083013582811115614e7957600080fd5b614e85878286016143cc565b6060830152506080830135608082015260a083013560a082015260c083013582811115614eb157600080fd5b614ebd87828601614d48565b60c08301525060e083013582811115614ed557600080fd5b614ee187828601614d48565b60e08301525095945050505050565b6000602080830181845280855180835260408601915060408160051b870101925083870160005b82811015614f4557603f19888603018452614f33858351614b4b565b94509285019290850190600101614f17565b5092979650505050505050565b60008060008060008060c08789031215614f6b57600080fd5b8635955060208701356001600160401b0380821115614f8957600080fd5b614f958a838b016143cc565b96506040890135915080821115614fab57600080fd5b614fb78a838b016143cc565b95506060890135915080821115614fcd57600080fd5b614fd98a838b016143cc565b94506080890135915080821115614fef57600080fd5b614ffb8a838b016143cc565b935060a089013591508082111561501157600080fd5b5061501e89828a016143cc565b9150509295509295509295565b8481526080602082015260006150446080830186614588565b82810360408401526150568186614588565b91505082606083015295945050505050565b600061010060018060a01b038b16835289602084015288604084015280606084015261509681840189614588565b905082810360808401526150aa8188614588565b905082810360a08401526150be8187614588565b905082810360c08401526150d28186614588565b905082810360e08401526150e68185614588565b9b9a5050505050505050505050565b634e487b7160e01b600052603260045260246000fd5b634e487b7160e01b600052601160045260246000fd5b818103818111156151345761513461510b565b92915050565b634e487b7160e01b600052603160045260246000fd5b60008161515f5761515f61510b565b506000190190565b6000600182016151795761517961510b565b5060010190565b600181811c9082168061519457607f821691505b6020821081036138da57634e487b7160e01b600052602260045260246000fd5b601f82111561192857600081815260208120601f850160051c810160208610156151db5750805b601f850160051c820191505b818110156151fa578281556001016151e7565b505050505050565b81516001600160401b0381111561521b5761521b61435d565b61522f816152298454615180565b846151b4565b602080601f831160018114615264576000841561524c5750858301515b600019600386901b1c1916600185901b1785556151fa565b600085815260208120601f198616915b8281101561529357888601518255948401946001909101908401615274565b50858210156152b15787850151600019600388901b60f8161c191681555b5050505050600190811b01905550565b808201808211156151345761513461510b565b8181036152df575050565b6152e98254615180565b6001600160401b038111156153005761530061435d565b61530e816152298454615180565b6000601f821160018114615342576000831561532a5750848201545b600019600385901b1c1916600184901b1784556153a7565b600085815260209020601f19841690600086815260209020845b8381101561537c578286015482556001958601959091019060200161535c565b508583101561539a5781850154600019600388901b60f8161c191681555b50505060018360011b0184555b505050505056fea2646970667358221220be19e8a90dc626dcb068044039cec87fd3d11b5b9aed609de1f0b8c4d62bfe0064736f6c63430008130033",
  "immutableReferences": {},
  "source": "// SPDX-License-Identifier: UNLICENSED\r\npragma solidity ^0.8.17;\r\n\r\ncontract Decentra {\r\n    address public owner;\r\n   \r\n\r\n    constructor() {\r\n        owner = msg.sender;\r\n    }\r\n\r\n    struct Profile {\r\n        string name;\r\n        string avatar;\r\n        string banner;\r\n        uint256 age;\r\n        string gender;\r\n        string status;\r\n        string country;\r\n        string city;\r\n    }\r\n    struct user {\r\n        address userAddress;\r\n        Profile profile;\r\n        string occupation;\r\n        string date_joined;\r\n        uint256 followers;\r\n        uint256 following;\r\n        address[] user_following;\r\n        address[] user_followed;\r\n    }\r\n\r\n    struct Tweet{\r\n        address tweetOwner;\r\n        uint256 t_id;     \r\n        string username;\r\n        string userAt;\r\n        string date;\r\n        string text;\r\n        string cId;\r\n        \r\n\r\n    }\r\n\r\n    struct Comment{\r\n        address commentOwner;\r\n        uint256 c_id;\r\n        uint256 p_id;\r\n        string username;\r\n        string userAt;\r\n        string date;\r\n        string text;\r\n        string cId;\r\n        \r\n        \r\n    }\r\n\r\n    struct Trend{\r\n        uint256 t_id;\r\n        string t_name;\r\n        string t_location;\r\n        uint t_mentions;\r\n    }\r\n    \r\n    struct Notification {\r\n        uint256 id;\r\n        string text;\r\n        string image;\r\n    }\r\n\r\n    uint256 tweetId=1000;\r\n    Tweet[] public tweets;\r\n    Trend[] public trends;\r\n    mapping (address => Tweet[]) public userTweets;\r\n    mapping (uint => Comment[]) public comments; \r\n    mapping (uint => address[]) public liked;\r\n    \r\n\r\n    mapping (address => user) Users;\r\n    address[] private userAddresses;\r\n    mapping(address => Notification[]) public userNotifications;\r\n\r\n    // function addUser (\r\n    //     Profile memory _profile,\r\n    //     string memory _occupation,\r\n    //     string memory _date_joined,\r\n    //     uint256 _followers,\r\n    //     uint256 _following,\r\n    //     uint256[] memory _user_following,\r\n    //     uint256[] memory _user_followed\r\n    // ) public {\r\n    //     user memory newUser = user(\r\n    //     _profile,\r\n    //     _occupation,\r\n    //     _date_joined,\r\n    //     _followers,\r\n    //     _following,\r\n    //     _user_following,\r\n    //     _user_followed\r\n    // );\r\n\r\n    // Users[msg.sender] = newUser;\r\n    // }\r\n\r\n    // function updateUser (\r\n    //     Profile memory _profile,\r\n    //     string memory _occupation\r\n    // ) public {\r\n    //     user storage userData = Users[msg.sender];\r\n    //     userData.profile = _profile;\r\n    //     userData.occupation = _occupation;\r\n    // }\r\n\r\n    function stringsEquals(string memory s1, string memory s2) private pure returns (bool) {\r\n        bytes memory b1 = bytes(s1);\r\n        bytes memory b2 = bytes(s2);\r\n        uint256 l1 = b1.length;\r\n        if (l1 != b2.length) return false;\r\n        for (uint256 i=0; i<l1; i++) {\r\n            if (b1[i] != b2[i]) return false;\r\n        }\r\n        return true;\r\n}\r\n\r\n    function addLike(uint _id) public {\r\n        address[] storage temp = liked[_id];\r\n        temp.push(msg.sender);\r\n        liked[_id]=temp;\r\n    }\r\n    function removeLike(uint _id) public{\r\n        address[] storage temp =liked[_id];\r\n            for(uint i=0; i<temp.length; i++)\r\n            {\r\n                if(temp[i] == msg.sender){\r\n                    \r\n                    if(temp.length==1){\r\n                        temp.pop();\r\n                    }\r\n                    else{\r\n                        for(uint j=i; j<temp.length-1;j++){\r\n                            temp[j]=temp[j+1];\r\n                        }\r\n                        temp.pop();\r\n                    }\r\n                }\r\n            }\r\n        liked[_id]=temp;\r\n\r\n    }\r\n    function getlikes(uint _id) public view returns(address[] memory){\r\n        return liked[_id];\r\n    }\r\n    \r\n\r\n    function createUser(user memory _user) public {\r\n        Users[msg.sender] = _user;\r\n        userAddresses.push(msg.sender);\r\n    }\r\n\r\n    function updateUser(user memory _user) public {\r\n     Users[msg.sender] = _user;\r\n    }\r\n\r\n    function getUser(address userAddress) public view returns (user memory) {\r\n        return Users[userAddress];\r\n    }\r\n\r\n    function getAllUsers() public view returns (user[] memory) {\r\n        user[] memory allUsers = new user[](userAddresses.length);\r\n        for (uint256 i = 0; i < userAddresses.length; i++) {\r\n            allUsers[i] = Users[userAddresses[i]];\r\n        }\r\n        return allUsers;\r\n    }\r\n\r\n    // Follow Logic\r\n    function follow(address userAddress) public {\r\n        Users[msg.sender].user_following.push(userAddress);\r\n        Users[msg.sender].following++;\r\n        Users[userAddress].user_followed.push(msg.sender);\r\n        Users[userAddress].followers++;\r\n    }\r\n\r\n    function unfollow(address userAddress) public {\r\n        address[] storage following = Users[msg.sender].user_following;\r\n        address[] storage followed = Users[userAddress].user_followed;\r\n        for (uint256 i = 0; i < following.length; i++) {\r\n            if (following[i] == userAddress) {\r\n                if (i != following.length - 1) {\r\n                    // Replace the element to be removed with the last element\r\n                    following[i] = following[following.length - 1];\r\n                }\r\n                // Remove the last element\r\n                following.pop();\r\n                Users[msg.sender].following--;\r\n                break; // Exit the loop once the user is found and removed\r\n            }\r\n        }\r\n\r\n        for (uint256 i = 0; i < followed.length; i++) {\r\n            if (followed[i] == msg.sender) {\r\n                if (i != followed.length - 1) {\r\n                    // Replace the element to be removed with the last element\r\n                    followed[i] = followed[followed.length - 1];\r\n                }\r\n                // Remove the last element\r\n                followed.pop();\r\n                Users[userAddress].followers--;\r\n                break; // Exit the loop once the follower is found and removed\r\n            }\r\n        }\r\n    }\r\n\r\n    //Functions for Tweets\r\n    function addTweet(string memory _username, string memory _userAt, string memory _date, string memory _text, string memory _cId) public {\r\n        uint id =tweetId;\r\n        tweetId++;\r\n        tweets.push(Tweet(msg.sender ,id, _username, _userAt, _date, _text, _cId));\r\n        \r\n        Tweet[] storage userSpecificTweets= userTweets[msg.sender];\r\n        userSpecificTweets.push(Tweet(msg.sender ,id, _username, _userAt, _date, _text, _cId));\r\n        \r\n        userTweets[msg.sender]=userSpecificTweets;\r\n    }\r\n\r\n    function getAllTweets() public view returns(Tweet[] memory){\r\n        return tweets;\r\n    }\r\n\r\n    function getUserTweets(address _user) public view returns(Tweet[] memory){\r\n        return userTweets[_user];\r\n    }\r\n\r\n    function deleteTweet(uint id) public {\r\n        Tweet[] storage userSpecificTweets = userTweets[msg.sender];\r\n        for(uint i=0; i<tweets.length; i++)\r\n        {\r\n            if(tweets[i].t_id == id){\r\n                require(tweets[i].tweetOwner == msg.sender, \"not tweet owner\");\r\n                if(tweets.length==1){\r\n                    tweets.pop();\r\n                }\r\n                else{\r\n                    for(uint j=i; j<tweets.length-1;j++){\r\n                        tweets[j]=tweets[j+1];\r\n                    }\r\n                    tweets.pop();\r\n                }\r\n            }\r\n        }\r\n        for (uint i=0;i<userSpecificTweets.length;i++){\r\n            if(userSpecificTweets[i].t_id==id){\r\n                require(userSpecificTweets[i].tweetOwner == msg.sender, \"not tweet owner\");\r\n                if(userSpecificTweets.length==1){\r\n                    userSpecificTweets.pop();\r\n                    userTweets[msg.sender]=userSpecificTweets;\r\n                }\r\n                else{\r\n                    for(uint j=i; j<userSpecificTweets.length-1;j++){\r\n                    userSpecificTweets[j]=userSpecificTweets[j+1];\r\n                    }\r\n                    userSpecificTweets.pop();\r\n                    userTweets[msg.sender]=userSpecificTweets;\r\n                }\r\n                \r\n            }\r\n        }\r\n    }\r\n    //Functions for Comments\r\n    function addComment(uint p_id, string memory _username, string memory _userAt, string memory _date, string memory _text, string memory _cId) public {\r\n        uint id=tweetId;\r\n        tweetId++;\r\n        Comment memory cmt= Comment(msg.sender, id, p_id, _username, _userAt, _date, _text, _cId);\r\n        Comment[] storage new_cmts =comments[p_id];\r\n        new_cmts.push(cmt); \r\n        comments[p_id] = new_cmts;\r\n    }\r\n    function getComments(uint p_id) public view returns(Comment[] memory){\r\n        return comments[p_id];\r\n    }\r\n    function deleteComment(uint p_id, uint id) public {\r\n        Comment[] storage temp = comments[p_id];\r\n\r\n            for(uint i=0; i<temp.length; i++)\r\n            {\r\n                if(temp[i].c_id == id){\r\n                    require(temp[i].commentOwner == msg.sender, \"not comment owner\");\r\n                    if(temp.length==1){\r\n                        temp.pop();\r\n                    }\r\n                    else{\r\n                        for(uint j=i; j<temp.length-1;j++){\r\n                            temp[j]=temp[j+1];\r\n                        }\r\n                        temp.pop();\r\n                    }\r\n                }\r\n            }\r\n        comments[p_id]=temp;\r\n    }\r\n    //Functions for Trends\r\n    function addTrend(string memory _name, string memory _location) public  {\r\n        uint id = tweetId;\r\n        tweetId++;\r\n        trends.push(Trend(id,_name,_location, 1));\r\n    }\r\n   \r\n    function getTrends() public view returns(Trend[] memory){\r\n        return trends;\r\n    }\r\n\r\n    // Function to add a new notification\r\n    function addNotification(address _userAddress, string memory _text, string memory _image) public {\r\n        Notification[] storage notifications = userNotifications[_userAddress];\r\n        uint256 notificationId = notifications.length;\r\n        Notification memory newNotification = Notification(notificationId, _text, _image);\r\n        notifications.push(newNotification);\r\n    }\r\n\r\n    // Function to retrieve a user's notifications\r\n    function getUserNotifications(address _userAddress) public view returns (Notification[] memory) {\r\n        return userNotifications[_userAddress];\r\n    }\r\n\r\n    \r\n}   ",
  "sourcePath": "C:\\Users\\hamza\\OneDrive\\Desktop\\8th Semester\\FYP\\fyp the return\\decentra\\contracts\\Decentra.sol",
  "compiler": {
    "name": "solc",
    "version": "0.8.19+commit.7dd6d404.Emscripten.clang"
  },
  "schemaVersion": "3.4.14",
  "updatedAt": "2023-07-05T13:05:54.551Z",
  "networkType": "ethereum",
  "devdoc": {
    "kind": "dev",
    "methods": {},
    "version": 1
  },
  "userdoc": {
    "kind": "user",
    "methods": {},
    "version": 1
  }
}