{
  "contractName": "Decentra",
  "abi": [
    {
      "inputs": [],
      "stateMutability": "nonpayable",
      "type": "constructor"
    },
    {
      "inputs": [
        {
          "internalType": "uint256",
          "name": "",
          "type": "uint256"
        },
        {
          "internalType": "uint256",
          "name": "",
          "type": "uint256"
        }
      ],
      "name": "comments",
      "outputs": [
        {
          "internalType": "address",
          "name": "commentOwner",
          "type": "address"
        },
        {
          "internalType": "uint256",
          "name": "c_id",
          "type": "uint256"
        },
        {
          "internalType": "uint256",
          "name": "p_id",
          "type": "uint256"
        },
        {
          "internalType": "string",
          "name": "username",
          "type": "string"
        },
        {
          "internalType": "string",
          "name": "userAt",
          "type": "string"
        },
        {
          "internalType": "string",
          "name": "date",
          "type": "string"
        },
        {
          "internalType": "string",
          "name": "text",
          "type": "string"
        },
        {
          "internalType": "string",
          "name": "cId",
          "type": "string"
        }
      ],
      "stateMutability": "view",
      "type": "function",
      "constant": true
    },
    {
      "inputs": [
        {
          "internalType": "uint256",
          "name": "",
          "type": "uint256"
        },
        {
          "internalType": "uint256",
          "name": "",
          "type": "uint256"
        }
      ],
      "name": "liked",
      "outputs": [
        {
          "internalType": "address",
          "name": "",
          "type": "address"
        }
      ],
      "stateMutability": "view",
      "type": "function",
      "constant": true
    },
    {
      "inputs": [
        {
          "internalType": "uint256",
          "name": "",
          "type": "uint256"
        }
      ],
      "name": "mentions",
      "outputs": [
        {
          "internalType": "uint256",
          "name": "",
          "type": "uint256"
        }
      ],
      "stateMutability": "view",
      "type": "function",
      "constant": true
    },
    {
      "inputs": [],
      "name": "owner",
      "outputs": [
        {
          "internalType": "address",
          "name": "",
          "type": "address"
        }
      ],
      "stateMutability": "view",
      "type": "function",
      "constant": true
    },
    {
      "inputs": [
        {
          "internalType": "uint256",
          "name": "",
          "type": "uint256"
        }
      ],
      "name": "trends",
      "outputs": [
        {
          "internalType": "uint256",
          "name": "t_id",
          "type": "uint256"
        },
        {
          "internalType": "string",
          "name": "t_name",
          "type": "string"
        },
        {
          "internalType": "string",
          "name": "t_location",
          "type": "string"
        }
      ],
      "stateMutability": "view",
      "type": "function",
      "constant": true
    },
    {
      "inputs": [
        {
          "internalType": "uint256",
          "name": "",
          "type": "uint256"
        }
      ],
      "name": "tweets",
      "outputs": [
        {
          "internalType": "address",
          "name": "tweetOwner",
          "type": "address"
        },
        {
          "internalType": "uint256",
          "name": "t_id",
          "type": "uint256"
        },
        {
          "internalType": "string",
          "name": "username",
          "type": "string"
        },
        {
          "internalType": "string",
          "name": "userAt",
          "type": "string"
        },
        {
          "internalType": "string",
          "name": "date",
          "type": "string"
        },
        {
          "internalType": "string",
          "name": "text",
          "type": "string"
        },
        {
          "internalType": "string",
          "name": "cId",
          "type": "string"
        }
      ],
      "stateMutability": "view",
      "type": "function",
      "constant": true
    },
    {
      "inputs": [
        {
          "internalType": "address",
          "name": "",
          "type": "address"
        },
        {
          "internalType": "uint256",
          "name": "",
          "type": "uint256"
        }
      ],
      "name": "userNotifications",
      "outputs": [
        {
          "internalType": "uint256",
          "name": "id",
          "type": "uint256"
        },
        {
          "internalType": "string",
          "name": "text",
          "type": "string"
        },
        {
          "internalType": "string",
          "name": "image",
          "type": "string"
        }
      ],
      "stateMutability": "view",
      "type": "function",
      "constant": true
    },
    {
      "inputs": [
        {
          "internalType": "address",
          "name": "",
          "type": "address"
        },
        {
          "internalType": "uint256",
          "name": "",
          "type": "uint256"
        }
      ],
      "name": "userTweets",
      "outputs": [
        {
          "internalType": "address",
          "name": "tweetOwner",
          "type": "address"
        },
        {
          "internalType": "uint256",
          "name": "t_id",
          "type": "uint256"
        },
        {
          "internalType": "string",
          "name": "username",
          "type": "string"
        },
        {
          "internalType": "string",
          "name": "userAt",
          "type": "string"
        },
        {
          "internalType": "string",
          "name": "date",
          "type": "string"
        },
        {
          "internalType": "string",
          "name": "text",
          "type": "string"
        },
        {
          "internalType": "string",
          "name": "cId",
          "type": "string"
        }
      ],
      "stateMutability": "view",
      "type": "function",
      "constant": true
    },
    {
      "inputs": [
        {
          "internalType": "uint256",
          "name": "_id",
          "type": "uint256"
        }
      ],
      "name": "addLike",
      "outputs": [],
      "stateMutability": "nonpayable",
      "type": "function"
    },
    {
      "inputs": [
        {
          "internalType": "uint256",
          "name": "_id",
          "type": "uint256"
        }
      ],
      "name": "removeLike",
      "outputs": [],
      "stateMutability": "nonpayable",
      "type": "function"
    },
    {
      "inputs": [
        {
          "internalType": "uint256",
          "name": "_id",
          "type": "uint256"
        }
      ],
      "name": "getlikes",
      "outputs": [
        {
          "internalType": "address[]",
          "name": "",
          "type": "address[]"
        }
      ],
      "stateMutability": "view",
      "type": "function",
      "constant": true
    },
    {
      "inputs": [
        {
          "components": [
            {
              "internalType": "address",
              "name": "userAddress",
              "type": "address"
            },
            {
              "components": [
                {
                  "internalType": "string",
                  "name": "name",
                  "type": "string"
                },
                {
                  "internalType": "string",
                  "name": "avatar",
                  "type": "string"
                },
                {
                  "internalType": "string",
                  "name": "banner",
                  "type": "string"
                },
                {
                  "internalType": "string",
                  "name": "age",
                  "type": "string"
                },
                {
                  "internalType": "string",
                  "name": "gender",
                  "type": "string"
                },
                {
                  "internalType": "string",
                  "name": "status",
                  "type": "string"
                },
                {
                  "internalType": "string",
                  "name": "country",
                  "type": "string"
                },
                {
                  "internalType": "string",
                  "name": "city",
                  "type": "string"
                }
              ],
              "internalType": "struct Decentra.Profile",
              "name": "profile",
              "type": "tuple"
            },
            {
              "internalType": "string",
              "name": "occupation",
              "type": "string"
            },
            {
              "internalType": "string",
              "name": "date_joined",
              "type": "string"
            },
            {
              "internalType": "uint256",
              "name": "followers",
              "type": "uint256"
            },
            {
              "internalType": "uint256",
              "name": "following",
              "type": "uint256"
            },
            {
              "internalType": "address[]",
              "name": "user_following",
              "type": "address[]"
            },
            {
              "internalType": "address[]",
              "name": "user_followed",
              "type": "address[]"
            }
          ],
          "internalType": "struct Decentra.user",
          "name": "_user",
          "type": "tuple"
        }
      ],
      "name": "createUser",
      "outputs": [],
      "stateMutability": "nonpayable",
      "type": "function"
    },
    {
      "inputs": [
        {
          "components": [
            {
              "internalType": "address",
              "name": "userAddress",
              "type": "address"
            },
            {
              "components": [
                {
                  "internalType": "string",
                  "name": "name",
                  "type": "string"
                },
                {
                  "internalType": "string",
                  "name": "avatar",
                  "type": "string"
                },
                {
                  "internalType": "string",
                  "name": "banner",
                  "type": "string"
                },
                {
                  "internalType": "string",
                  "name": "age",
                  "type": "string"
                },
                {
                  "internalType": "string",
                  "name": "gender",
                  "type": "string"
                },
                {
                  "internalType": "string",
                  "name": "status",
                  "type": "string"
                },
                {
                  "internalType": "string",
                  "name": "country",
                  "type": "string"
                },
                {
                  "internalType": "string",
                  "name": "city",
                  "type": "string"
                }
              ],
              "internalType": "struct Decentra.Profile",
              "name": "profile",
              "type": "tuple"
            },
            {
              "internalType": "string",
              "name": "occupation",
              "type": "string"
            },
            {
              "internalType": "string",
              "name": "date_joined",
              "type": "string"
            },
            {
              "internalType": "uint256",
              "name": "followers",
              "type": "uint256"
            },
            {
              "internalType": "uint256",
              "name": "following",
              "type": "uint256"
            },
            {
              "internalType": "address[]",
              "name": "user_following",
              "type": "address[]"
            },
            {
              "internalType": "address[]",
              "name": "user_followed",
              "type": "address[]"
            }
          ],
          "internalType": "struct Decentra.user",
          "name": "_user",
          "type": "tuple"
        }
      ],
      "name": "updateUser",
      "outputs": [],
      "stateMutability": "nonpayable",
      "type": "function"
    },
    {
      "inputs": [
        {
          "internalType": "address",
          "name": "userAddress",
          "type": "address"
        }
      ],
      "name": "getUser",
      "outputs": [
        {
          "components": [
            {
              "internalType": "address",
              "name": "userAddress",
              "type": "address"
            },
            {
              "components": [
                {
                  "internalType": "string",
                  "name": "name",
                  "type": "string"
                },
                {
                  "internalType": "string",
                  "name": "avatar",
                  "type": "string"
                },
                {
                  "internalType": "string",
                  "name": "banner",
                  "type": "string"
                },
                {
                  "internalType": "string",
                  "name": "age",
                  "type": "string"
                },
                {
                  "internalType": "string",
                  "name": "gender",
                  "type": "string"
                },
                {
                  "internalType": "string",
                  "name": "status",
                  "type": "string"
                },
                {
                  "internalType": "string",
                  "name": "country",
                  "type": "string"
                },
                {
                  "internalType": "string",
                  "name": "city",
                  "type": "string"
                }
              ],
              "internalType": "struct Decentra.Profile",
              "name": "profile",
              "type": "tuple"
            },
            {
              "internalType": "string",
              "name": "occupation",
              "type": "string"
            },
            {
              "internalType": "string",
              "name": "date_joined",
              "type": "string"
            },
            {
              "internalType": "uint256",
              "name": "followers",
              "type": "uint256"
            },
            {
              "internalType": "uint256",
              "name": "following",
              "type": "uint256"
            },
            {
              "internalType": "address[]",
              "name": "user_following",
              "type": "address[]"
            },
            {
              "internalType": "address[]",
              "name": "user_followed",
              "type": "address[]"
            }
          ],
          "internalType": "struct Decentra.user",
          "name": "",
          "type": "tuple"
        }
      ],
      "stateMutability": "view",
      "type": "function",
      "constant": true
    },
    {
      "inputs": [],
      "name": "getAllUsers",
      "outputs": [
        {
          "components": [
            {
              "internalType": "address",
              "name": "userAddress",
              "type": "address"
            },
            {
              "components": [
                {
                  "internalType": "string",
                  "name": "name",
                  "type": "string"
                },
                {
                  "internalType": "string",
                  "name": "avatar",
                  "type": "string"
                },
                {
                  "internalType": "string",
                  "name": "banner",
                  "type": "string"
                },
                {
                  "internalType": "string",
                  "name": "age",
                  "type": "string"
                },
                {
                  "internalType": "string",
                  "name": "gender",
                  "type": "string"
                },
                {
                  "internalType": "string",
                  "name": "status",
                  "type": "string"
                },
                {
                  "internalType": "string",
                  "name": "country",
                  "type": "string"
                },
                {
                  "internalType": "string",
                  "name": "city",
                  "type": "string"
                }
              ],
              "internalType": "struct Decentra.Profile",
              "name": "profile",
              "type": "tuple"
            },
            {
              "internalType": "string",
              "name": "occupation",
              "type": "string"
            },
            {
              "internalType": "string",
              "name": "date_joined",
              "type": "string"
            },
            {
              "internalType": "uint256",
              "name": "followers",
              "type": "uint256"
            },
            {
              "internalType": "uint256",
              "name": "following",
              "type": "uint256"
            },
            {
              "internalType": "address[]",
              "name": "user_following",
              "type": "address[]"
            },
            {
              "internalType": "address[]",
              "name": "user_followed",
              "type": "address[]"
            }
          ],
          "internalType": "struct Decentra.user[]",
          "name": "",
          "type": "tuple[]"
        }
      ],
      "stateMutability": "view",
      "type": "function",
      "constant": true
    },
    {
      "inputs": [],
      "name": "getRandomUsers",
      "outputs": [
        {
          "components": [
            {
              "internalType": "address",
              "name": "userAddress",
              "type": "address"
            },
            {
              "components": [
                {
                  "internalType": "string",
                  "name": "name",
                  "type": "string"
                },
                {
                  "internalType": "string",
                  "name": "avatar",
                  "type": "string"
                },
                {
                  "internalType": "string",
                  "name": "banner",
                  "type": "string"
                },
                {
                  "internalType": "string",
                  "name": "age",
                  "type": "string"
                },
                {
                  "internalType": "string",
                  "name": "gender",
                  "type": "string"
                },
                {
                  "internalType": "string",
                  "name": "status",
                  "type": "string"
                },
                {
                  "internalType": "string",
                  "name": "country",
                  "type": "string"
                },
                {
                  "internalType": "string",
                  "name": "city",
                  "type": "string"
                }
              ],
              "internalType": "struct Decentra.Profile",
              "name": "profile",
              "type": "tuple"
            },
            {
              "internalType": "string",
              "name": "occupation",
              "type": "string"
            },
            {
              "internalType": "string",
              "name": "date_joined",
              "type": "string"
            },
            {
              "internalType": "uint256",
              "name": "followers",
              "type": "uint256"
            },
            {
              "internalType": "uint256",
              "name": "following",
              "type": "uint256"
            },
            {
              "internalType": "address[]",
              "name": "user_following",
              "type": "address[]"
            },
            {
              "internalType": "address[]",
              "name": "user_followed",
              "type": "address[]"
            }
          ],
          "internalType": "struct Decentra.user[]",
          "name": "",
          "type": "tuple[]"
        }
      ],
      "stateMutability": "view",
      "type": "function",
      "constant": true
    },
    {
      "inputs": [],
      "name": "getUserAddresses",
      "outputs": [
        {
          "internalType": "address[]",
          "name": "",
          "type": "address[]"
        }
      ],
      "stateMutability": "view",
      "type": "function",
      "constant": true
    },
    {
      "inputs": [
        {
          "internalType": "address",
          "name": "userAddress",
          "type": "address"
        }
      ],
      "name": "follow",
      "outputs": [],
      "stateMutability": "nonpayable",
      "type": "function"
    },
    {
      "inputs": [
        {
          "internalType": "address",
          "name": "userAddress",
          "type": "address"
        }
      ],
      "name": "unfollow",
      "outputs": [],
      "stateMutability": "nonpayable",
      "type": "function"
    },
    {
      "inputs": [
        {
          "internalType": "string",
          "name": "_username",
          "type": "string"
        },
        {
          "internalType": "string",
          "name": "_userAt",
          "type": "string"
        },
        {
          "internalType": "string",
          "name": "_date",
          "type": "string"
        },
        {
          "internalType": "string",
          "name": "_text",
          "type": "string"
        },
        {
          "internalType": "string",
          "name": "_cId",
          "type": "string"
        }
      ],
      "name": "addTweet",
      "outputs": [],
      "stateMutability": "nonpayable",
      "type": "function"
    },
    {
      "inputs": [],
      "name": "getAllTweets",
      "outputs": [
        {
          "components": [
            {
              "internalType": "address",
              "name": "tweetOwner",
              "type": "address"
            },
            {
              "internalType": "uint256",
              "name": "t_id",
              "type": "uint256"
            },
            {
              "internalType": "string",
              "name": "username",
              "type": "string"
            },
            {
              "internalType": "string",
              "name": "userAt",
              "type": "string"
            },
            {
              "internalType": "string",
              "name": "date",
              "type": "string"
            },
            {
              "internalType": "string",
              "name": "text",
              "type": "string"
            },
            {
              "internalType": "string",
              "name": "cId",
              "type": "string"
            }
          ],
          "internalType": "struct Decentra.Tweet[]",
          "name": "",
          "type": "tuple[]"
        }
      ],
      "stateMutability": "view",
      "type": "function",
      "constant": true
    },
    {
      "inputs": [
        {
          "internalType": "address",
          "name": "_user",
          "type": "address"
        }
      ],
      "name": "getUserTweets",
      "outputs": [
        {
          "components": [
            {
              "internalType": "address",
              "name": "tweetOwner",
              "type": "address"
            },
            {
              "internalType": "uint256",
              "name": "t_id",
              "type": "uint256"
            },
            {
              "internalType": "string",
              "name": "username",
              "type": "string"
            },
            {
              "internalType": "string",
              "name": "userAt",
              "type": "string"
            },
            {
              "internalType": "string",
              "name": "date",
              "type": "string"
            },
            {
              "internalType": "string",
              "name": "text",
              "type": "string"
            },
            {
              "internalType": "string",
              "name": "cId",
              "type": "string"
            }
          ],
          "internalType": "struct Decentra.Tweet[]",
          "name": "",
          "type": "tuple[]"
        }
      ],
      "stateMutability": "view",
      "type": "function",
      "constant": true
    },
    {
      "inputs": [
        {
          "internalType": "uint256",
          "name": "id",
          "type": "uint256"
        }
      ],
      "name": "deleteTweet",
      "outputs": [],
      "stateMutability": "nonpayable",
      "type": "function"
    },
    {
      "inputs": [
        {
          "internalType": "uint256",
          "name": "p_id",
          "type": "uint256"
        },
        {
          "internalType": "string",
          "name": "_username",
          "type": "string"
        },
        {
          "internalType": "string",
          "name": "_userAt",
          "type": "string"
        },
        {
          "internalType": "string",
          "name": "_date",
          "type": "string"
        },
        {
          "internalType": "string",
          "name": "_text",
          "type": "string"
        },
        {
          "internalType": "string",
          "name": "_cId",
          "type": "string"
        }
      ],
      "name": "addComment",
      "outputs": [],
      "stateMutability": "nonpayable",
      "type": "function"
    },
    {
      "inputs": [
        {
          "internalType": "uint256",
          "name": "p_id",
          "type": "uint256"
        }
      ],
      "name": "getComments",
      "outputs": [
        {
          "components": [
            {
              "internalType": "address",
              "name": "commentOwner",
              "type": "address"
            },
            {
              "internalType": "uint256",
              "name": "c_id",
              "type": "uint256"
            },
            {
              "internalType": "uint256",
              "name": "p_id",
              "type": "uint256"
            },
            {
              "internalType": "string",
              "name": "username",
              "type": "string"
            },
            {
              "internalType": "string",
              "name": "userAt",
              "type": "string"
            },
            {
              "internalType": "string",
              "name": "date",
              "type": "string"
            },
            {
              "internalType": "string",
              "name": "text",
              "type": "string"
            },
            {
              "internalType": "string",
              "name": "cId",
              "type": "string"
            }
          ],
          "internalType": "struct Decentra.Comment[]",
          "name": "",
          "type": "tuple[]"
        }
      ],
      "stateMutability": "view",
      "type": "function",
      "constant": true
    },
    {
      "inputs": [
        {
          "internalType": "uint256",
          "name": "p_id",
          "type": "uint256"
        },
        {
          "internalType": "uint256",
          "name": "id",
          "type": "uint256"
        }
      ],
      "name": "deleteComment",
      "outputs": [],
      "stateMutability": "nonpayable",
      "type": "function"
    },
    {
      "inputs": [
        {
          "internalType": "string",
          "name": "_name",
          "type": "string"
        },
        {
          "internalType": "string",
          "name": "_location",
          "type": "string"
        }
      ],
      "name": "addTrend",
      "outputs": [],
      "stateMutability": "nonpayable",
      "type": "function"
    },
    {
      "inputs": [],
      "name": "getTrends",
      "outputs": [
        {
          "components": [
            {
              "internalType": "uint256",
              "name": "t_id",
              "type": "uint256"
            },
            {
              "internalType": "string",
              "name": "t_name",
              "type": "string"
            },
            {
              "internalType": "string",
              "name": "t_location",
              "type": "string"
            }
          ],
          "internalType": "struct Decentra.Trend[]",
          "name": "",
          "type": "tuple[]"
        }
      ],
      "stateMutability": "view",
      "type": "function",
      "constant": true
    },
    {
      "inputs": [
        {
          "internalType": "uint256",
          "name": "_id",
          "type": "uint256"
        }
      ],
      "name": "getMentions",
      "outputs": [
        {
          "internalType": "uint256",
          "name": "",
          "type": "uint256"
        }
      ],
      "stateMutability": "view",
      "type": "function",
      "constant": true
    },
    {
      "inputs": [
        {
          "internalType": "address",
          "name": "_userAddress",
          "type": "address"
        },
        {
          "internalType": "string",
          "name": "_text",
          "type": "string"
        },
        {
          "internalType": "string",
          "name": "_image",
          "type": "string"
        }
      ],
      "name": "addNotification",
      "outputs": [],
      "stateMutability": "nonpayable",
      "type": "function"
    },
    {
      "inputs": [
        {
          "internalType": "address",
          "name": "_userAddress",
          "type": "address"
        }
      ],
      "name": "getUserNotifications",
      "outputs": [
        {
          "components": [
            {
              "internalType": "uint256",
              "name": "id",
              "type": "uint256"
            },
            {
              "internalType": "string",
              "name": "text",
              "type": "string"
            },
            {
              "internalType": "string",
              "name": "image",
              "type": "string"
            }
          ],
          "internalType": "struct Decentra.Notification[]",
          "name": "",
          "type": "tuple[]"
        }
      ],
      "stateMutability": "view",
      "type": "function",
      "constant": true
    }
  ],
  "bytecode": "0x60806040526103e860085534801561001657600080fd5b50600080546001600160a01b03191633179055615fb280620000396000396000f3fe608060405234801561001057600080fd5b50600436106101a55760003560e01c806355abc23b116100ef578063adab264d11610092578063adab264d146103ee578063d3a0108a14610401578063e2842d7914610421578063e402e6a514610429578063e8d857b01461043c578063ec5ec59b1461044f578063f99483ea14610462578063fc6c776f1461047557600080fd5b806355abc23b146103225780635775912a1461033557806357f31358146103485780636f77926b146103685780638aef1dd4146103885780638da5cb5b1461039b578063a591efde146103c6578063a7656e33146103db57600080fd5b80632f692f3f116101575780632f692f3f146102675780632f8242631461027c57806331a4bcb5146102aa578063378a35cd146102bd57806338c91910146102d05780634c184cb9146102f25780634dbf27cc14610307578063532561351461031a57600080fd5b8063015a4ead146101aa57806314604738146101bf5780631dc0d344146101d2578063208aa59b146101e557806323edf697146101f85780632e06f347146102215780632f5899d714610247575b600080fd5b6101bd6101b8366004614f04565b61049c565b005b6101bd6101cd366004615004565b610757565b6101bd6101e0366004615067565b610974565b6101bd6101f336600461530b565b610bdc565b61020b61020636600461542d565b610d30565b604051610218919061548c565b60405180910390f35b61023461022f36600461558e565b6110a8565b60405161021897969594939291906155b8565b61025a610255366004614f04565b6113b6565b604051610218919061563b565b61026f61171a565b6040516102189190615766565b61029c61028a36600461542d565b60009081526001602052604090205490565b604051908152602001610218565b6101bd6102b83660046157c8565b6118a7565b6101bd6102cb36600461542d565b611bc6565b6102e36102de36600461558e565b611c0f565b604051610218939291906157ea565b6102fa611d66565b60405161021891906159d4565b6101bd610315366004614f04565b6126d1565b61025a612784565b6101bd610330366004615a29565b612ad4565b6101bd61034336600461542d565b612b5b565b61035b610356366004614f04565b613117565b6040516102189190615a9c565b61037b610376366004614f04565b6132af565b6040516102189190615af1565b6101bd61039636600461530b565b61398f565b6000546103ae906001600160a01b031681565b6040516001600160a01b039091168152602001610218565b6103ce613b2b565b6040516102189190615b04565b6101bd6103e936600461542d565b613b8d565b6103ce6103fc36600461542d565b613d1d565b61029c61040f36600461542d565b60016020526000908152604090205481565b6102fa613d89565b6101bd610437366004615b17565b61451d565b61023461044a36600461542d565b614659565b6102e361045d36600461542d565b61469f565b6103ae6104703660046157c8565b6146d4565b6104886104833660046157c8565b61470c565b604051610218989796959493929190615bf0565b336000908152600560205260408082206001600160a01b0384168352908220600d90910191600e909101905b825481101561060657836001600160a01b03168382815481106104ed576104ed615c7d565b6000918252602090912001546001600160a01b0316036105f457825461051590600190615ca9565b811461059a578254839061052b90600190615ca9565b8154811061053b5761053b615c7d565b9060005260206000200160009054906101000a90046001600160a01b031683828154811061056b5761056b615c7d565b9060005260206000200160006101000a8154816001600160a01b0302191690836001600160a01b031602179055505b828054806105aa576105aa615cbc565b60008281526020808220830160001990810180546001600160a01b03191690559092019092553382526005905260408120600c018054916105ea83615cd2565b9190505550610606565b806105fe81615ce9565b9150506104c8565b5060005b815481101561075157336001600160a01b031682828154811061062f5761062f615c7d565b6000918252602090912001546001600160a01b03160361073f57815461065790600190615ca9565b81146106dc578154829061066d90600190615ca9565b8154811061067d5761067d615c7d565b9060005260206000200160009054906101000a90046001600160a01b03168282815481106106ad576106ad615c7d565b9060005260206000200160006101000a8154816001600160a01b0302191690836001600160a01b031602179055505b818054806106ec576106ec615cbc565b60008281526020808220830160001990810180546001600160a01b03191690559092019092556001600160a01b03861682526005905260408120600b0180549161073583615cd2565b9190505550610751565b8061074981615ce9565b91505061060a565b50505050565b600854600080805b6002548110156108665761081f6002828154811061077f5761077f615c7d565b9060005260206000209060030201600101805461079b90615d02565b80601f01602080910402602001604051908101604052809291908181526020018280546107c790615d02565b80156108145780601f106107e957610100808354040283529160200191610814565b820191906000526020600020905b8154815290600101906020018083116107f757829003601f168201915b505050505087614a20565b1561085457600192506002818154811061083b5761083b615c7d565b9060005260206000209060030201600001549350610866565b8061085e81615ce9565b91505061075f565b5081156108a157506000828152600160205260409020548061088781615ce9565b6000858152600160205260409020819055915061096d9050565b600880549060006108b183615ce9565b9091555050604080516060810182528481526020810187815291810186905260028054600181018255600091909152815160039091027f405787fa12a823e0f2b7631cc41b3ba8828b3321ca811111fa75cd3aa3bb5ace81019182559251919290917f405787fa12a823e0f2b7631cc41b3ba8828b3321ca811111fa75cd3aa3bb5acf909101906109429082615d99565b50604082015160028201906109579082615d99565b5050506000838152600160208190526040909120555b5050505050565b60088054908190600061098683615ce9565b90915550506040805160e08101825233815260208101838152918101888152606082018890526080820187905260a0820186905260c082018590526009805460018101825560009190915282517f6e1540171b6c0c960b71a7020d9f60077f6af931a8bbf590da0223dacf75c7af600790920291820180546001600160a01b0319166001600160a01b0390921691909117815593517f6e1540171b6c0c960b71a7020d9f60077f6af931a8bbf590da0223dacf75c7b082015590519192917f6e1540171b6c0c960b71a7020d9f60077f6af931a8bbf590da0223dacf75c7b190910190610a739082615d99565b5060608201516003820190610a889082615d99565b5060808201516004820190610a9d9082615d99565b5060a08201516005820190610ab29082615d99565b5060c08201516006820190610ac79082615d99565b5050336000818152600a60209081526040808320815160e0810183529485528483018781529185018c8152606086018c9052608086018b905260a086018a905260c0860189905281546001808201845583875294909520865160079096020180546001600160a01b0319166001600160a01b03909616959095178555915192840192909255519093506002820190610b5f9082615d99565b5060608201516003820190610b749082615d99565b5060808201516004820190610b899082615d99565b5060a08201516005820190610b9e9082615d99565b5060c08201516006820190610bb39082615d99565b5050336000908152600a602052604090208254610bd292508390614ac4565b5050505050505050565b336000908152600560209081526040909120825181546001600160a01b0319166001600160a01b039091161781559082015180518392919060018301908190610c259082615d99565b5060208201516001820190610c3a9082615d99565b5060408201516002820190610c4f9082615d99565b5060608201516003820190610c649082615d99565b5060808201516004820190610c799082615d99565b5060a08201516005820190610c8e9082615d99565b5060c08201516006820190610ca39082615d99565b5060e08201516007820190610cb89082615d99565b50505060408201516009820190610ccf9082615d99565b506060820151600a820190610ce49082615d99565b506080820151600b82015560a0820151600c82015560c08201518051610d1491600d840191602090910190614b9f565b5060e0820151805161075191600e840191602090910190614b9f565b606060036000838152602001908152602001600020805480602002602001604051908101604052809291908181526020016000905b8282101561109d57600084815260209081902060408051610100810182526008860290920180546001600160a01b03168352600181015493830193909352600283015490820152600382018054919291606084019190610dc490615d02565b80601f0160208091040260200160405190810160405280929190818152602001828054610df090615d02565b8015610e3d5780601f10610e1257610100808354040283529160200191610e3d565b820191906000526020600020905b815481529060010190602001808311610e2057829003601f168201915b50505050508152602001600482018054610e5690615d02565b80601f0160208091040260200160405190810160405280929190818152602001828054610e8290615d02565b8015610ecf5780601f10610ea457610100808354040283529160200191610ecf565b820191906000526020600020905b815481529060010190602001808311610eb257829003601f168201915b50505050508152602001600582018054610ee890615d02565b80601f0160208091040260200160405190810160405280929190818152602001828054610f1490615d02565b8015610f615780601f10610f3657610100808354040283529160200191610f61565b820191906000526020600020905b815481529060010190602001808311610f4457829003601f168201915b50505050508152602001600682018054610f7a90615d02565b80601f0160208091040260200160405190810160405280929190818152602001828054610fa690615d02565b8015610ff35780601f10610fc857610100808354040283529160200191610ff3565b820191906000526020600020905b815481529060010190602001808311610fd657829003601f168201915b5050505050815260200160078201805461100c90615d02565b80601f016020809104026020016040519081016040528092919081815260200182805461103890615d02565b80156110855780601f1061105a57610100808354040283529160200191611085565b820191906000526020600020905b81548152906001019060200180831161106857829003601f168201915b50505050508152505081526020019060010190610d65565b505050509050919050565b600a60205281600052604060002081815481106110c457600080fd5b60009182526020909120600790910201805460018201546002830180546001600160a01b039093169550909350906110fb90615d02565b80601f016020809104026020016040519081016040528092919081815260200182805461112790615d02565b80156111745780601f1061114957610100808354040283529160200191611174565b820191906000526020600020905b81548152906001019060200180831161115757829003601f168201915b50505050509080600301805461118990615d02565b80601f01602080910402602001604051908101604052809291908181526020018280546111b590615d02565b80156112025780601f106111d757610100808354040283529160200191611202565b820191906000526020600020905b8154815290600101906020018083116111e557829003601f168201915b50505050509080600401805461121790615d02565b80601f016020809104026020016040519081016040528092919081815260200182805461124390615d02565b80156112905780601f1061126557610100808354040283529160200191611290565b820191906000526020600020905b81548152906001019060200180831161127357829003601f168201915b5050505050908060050180546112a590615d02565b80601f01602080910402602001604051908101604052809291908181526020018280546112d190615d02565b801561131e5780601f106112f35761010080835404028352916020019161131e565b820191906000526020600020905b81548152906001019060200180831161130157829003601f168201915b50505050509080600601805461133390615d02565b80601f016020809104026020016040519081016040528092919081815260200182805461135f90615d02565b80156113ac5780601f10611381576101008083540402835291602001916113ac565b820191906000526020600020905b81548152906001019060200180831161138f57829003601f168201915b5050505050905087565b6001600160a01b0381166000908152600a60209081526040808320805482518185028101850190935280835260609492939192909184015b8282101561109d5760008481526020908190206040805160e0810182526007860290920180546001600160a01b031683526001810154938301939093526002830180549293929184019161144190615d02565b80601f016020809104026020016040519081016040528092919081815260200182805461146d90615d02565b80156114ba5780601f1061148f576101008083540402835291602001916114ba565b820191906000526020600020905b81548152906001019060200180831161149d57829003601f168201915b505050505081526020016003820180546114d390615d02565b80601f01602080910402602001604051908101604052809291908181526020018280546114ff90615d02565b801561154c5780601f106115215761010080835404028352916020019161154c565b820191906000526020600020905b81548152906001019060200180831161152f57829003601f168201915b5050505050815260200160048201805461156590615d02565b80601f016020809104026020016040519081016040528092919081815260200182805461159190615d02565b80156115de5780601f106115b3576101008083540402835291602001916115de565b820191906000526020600020905b8154815290600101906020018083116115c157829003601f168201915b505050505081526020016005820180546115f790615d02565b80601f016020809104026020016040519081016040528092919081815260200182805461162390615d02565b80156116705780601f1061164557610100808354040283529160200191611670565b820191906000526020600020905b81548152906001019060200180831161165357829003601f168201915b5050505050815260200160068201805461168990615d02565b80601f01602080910402602001604051908101604052809291908181526020018280546116b590615d02565b80156117025780601f106116d757610100808354040283529160200191611702565b820191906000526020600020905b8154815290600101906020018083116116e557829003601f168201915b505050505081525050815260200190600101906113ee565b60606002805480602002602001604051908101604052809291908181526020016000905b8282101561189e57838290600052602060002090600302016040518060600160405290816000820154815260200160018201805461177b90615d02565b80601f01602080910402602001604051908101604052809291908181526020018280546117a790615d02565b80156117f45780601f106117c9576101008083540402835291602001916117f4565b820191906000526020600020905b8154815290600101906020018083116117d757829003601f168201915b5050505050815260200160028201805461180d90615d02565b80601f016020809104026020016040519081016040528092919081815260200182805461183990615d02565b80156118865780601f1061185b57610100808354040283529160200191611886565b820191906000526020600020905b81548152906001019060200180831161186957829003601f168201915b5050505050815250508152602001906001019061173e565b50505050905090565b6000828152600360205260408120905b8154811015611ba957828282815481106118d3576118d3615c7d565b90600052602060002090600802016001015403611b9757336001600160a01b031682828154811061190657611906615c7d565b60009182526020909120600890910201546001600160a01b0316146119665760405162461bcd60e51b81526020600482015260116024820152703737ba1031b7b6b6b2b73a1037bbb732b960791b60448201526064015b60405180910390fd5b81546001036119ff578180548061197f5761197f615cbc565b60008281526020812060086000199093019283020180546001600160a01b03191681556001810182905560028101829055906119be6003830182614c00565b6119cc600483016000614c00565b6119da600583016000614c00565b6119e8600683016000614c00565b6119f6600783016000614c00565b50509055611b97565b805b8254611a0f90600190615ca9565b811015611b0a5782611a22826001615e52565b81548110611a3257611a32615c7d565b9060005260206000209060080201838281548110611a5257611a52615c7d565b60009182526020909120825460089092020180546001600160a01b0319166001600160a01b039092169190911781556001808301549082015560028083015490820155600380820190611aa790840182615e65565b50600481810190611aba90840182615e65565b50600581810190611acd90840182615e65565b50600681810190611ae090840182615e65565b50600781810190611af390840182615e65565b509050508080611b0290615ce9565b915050611a01565b5081805480611b1b57611b1b615cbc565b60008281526020812060086000199093019283020180546001600160a01b0319168155600181018290556002810182905590611b5a6003830182614c00565b611b68600483016000614c00565b611b76600583016000614c00565b611b84600683016000614c00565b611b92600783016000614c00565b505090555b80611ba181615ce9565b9150506118b7565b506000838152600360205260409020815461075191908390614c3d565b60008181526004602090815260408220805460018101825581845291832090910180546001600160a01b03191633179055908290528054611c0a9082908190614d1e565b505050565b60076020528160005260406000208181548110611c2b57600080fd5b906000526020600020906003020160009150915050806000015490806001018054611c5590615d02565b80601f0160208091040260200160405190810160405280929190818152602001828054611c8190615d02565b8015611cce5780601f10611ca357610100808354040283529160200191611cce565b820191906000526020600020905b815481529060010190602001808311611cb157829003601f168201915b505050505090806002018054611ce390615d02565b80601f0160208091040260200160405190810160405280929190818152602001828054611d0f90615d02565b8015611d5c5780601f10611d3157610100808354040283529160200191611d5c565b820191906000526020600020905b815481529060010190602001808311611d3f57829003601f168201915b5050505050905083565b600654606090600060058211611d7c5781611d7f565b60055b90506000826001600160401b03811115611d9b57611d9b614f26565b604051908082528060200260200182016040528015611dc4578160200160208202803683370190505b50905060005b83811015611e3f5760068181548110611de557611de5615c7d565b9060005260206000200160009054906101000a90046001600160a01b0316828281518110611e1557611e15615c7d565b6001600160a01b039092166020928302919091019091015280611e3781615ce9565b915050611dca565b506000611e4d600185615ca9565b90505b8015611f42576000611e63826001615e52565b604080514260208201526bffffffffffffffffffffffff193360601b1691810191909152605481018490526074016040516020818303038152906040528051906020012060001c611eb49190615f31565b9050828181518110611ec857611ec8615c7d565b6020026020010151838381518110611ee257611ee2615c7d565b6020026020010151848481518110611efc57611efc615c7d565b60200260200101858481518110611f1557611f15615c7d565b6001600160a01b039384166020918202929092010152911690525080611f3a81615cd2565b915050611e50565b506000826001600160401b03811115611f5d57611f5d614f26565b604051908082528060200260200182016040528015611f9657816020015b611f83614d5e565b815260200190600190039081611f7b5790505b50905060005b838110156126c8576000838281518110611fb857611fb8615c7d565b6020908102919091018101516001600160a01b0380821660009081526005845260409081902081516101008082018452825490941681528251938401909252600181018054949650919490939085019291908290829061201790615d02565b80601f016020809104026020016040519081016040528092919081815260200182805461204390615d02565b80156120905780601f1061206557610100808354040283529160200191612090565b820191906000526020600020905b81548152906001019060200180831161207357829003601f168201915b505050505081526020016001820180546120a990615d02565b80601f01602080910402602001604051908101604052809291908181526020018280546120d590615d02565b80156121225780601f106120f757610100808354040283529160200191612122565b820191906000526020600020905b81548152906001019060200180831161210557829003601f168201915b5050505050815260200160028201805461213b90615d02565b80601f016020809104026020016040519081016040528092919081815260200182805461216790615d02565b80156121b45780601f10612189576101008083540402835291602001916121b4565b820191906000526020600020905b81548152906001019060200180831161219757829003601f168201915b505050505081526020016003820180546121cd90615d02565b80601f01602080910402602001604051908101604052809291908181526020018280546121f990615d02565b80156122465780601f1061221b57610100808354040283529160200191612246565b820191906000526020600020905b81548152906001019060200180831161222957829003601f168201915b5050505050815260200160048201805461225f90615d02565b80601f016020809104026020016040519081016040528092919081815260200182805461228b90615d02565b80156122d85780601f106122ad576101008083540402835291602001916122d8565b820191906000526020600020905b8154815290600101906020018083116122bb57829003601f168201915b505050505081526020016005820180546122f190615d02565b80601f016020809104026020016040519081016040528092919081815260200182805461231d90615d02565b801561236a5780601f1061233f5761010080835404028352916020019161236a565b820191906000526020600020905b81548152906001019060200180831161234d57829003601f168201915b5050505050815260200160068201805461238390615d02565b80601f01602080910402602001604051908101604052809291908181526020018280546123af90615d02565b80156123fc5780601f106123d1576101008083540402835291602001916123fc565b820191906000526020600020905b8154815290600101906020018083116123df57829003601f168201915b5050505050815260200160078201805461241590615d02565b80601f016020809104026020016040519081016040528092919081815260200182805461244190615d02565b801561248e5780601f106124635761010080835404028352916020019161248e565b820191906000526020600020905b81548152906001019060200180831161247157829003601f168201915b50505050508152505081526020016009820180546124ab90615d02565b80601f01602080910402602001604051908101604052809291908181526020018280546124d790615d02565b80156125245780601f106124f957610100808354040283529160200191612524565b820191906000526020600020905b81548152906001019060200180831161250757829003601f168201915b50505050508152602001600a8201805461253d90615d02565b80601f016020809104026020016040519081016040528092919081815260200182805461256990615d02565b80156125b65780601f1061258b576101008083540402835291602001916125b6565b820191906000526020600020905b81548152906001019060200180831161259957829003601f168201915b50505050508152602001600b8201548152602001600c8201548152602001600d820180548060200260200160405190810160405280929190818152602001828054801561262c57602002820191906000526020600020905b81546001600160a01b0316815260019091019060200180831161260e575b50505050508152602001600e820180548060200260200160405190810160405280929190818152602001828054801561268e57602002820191906000526020600020905b81546001600160a01b03168152600190910190602001808311612670575b5050505050815250508383815181106126a9576126a9615c7d565b60200260200101819052505080806126c090615ce9565b915050611f9c565b50949350505050565b3360008181526005602090815260408220600d8101805460018101825590845291832090910180546001600160a01b0319166001600160a01b038616179055918152600c90910180549161272483615ce9565b90915550506001600160a01b03811660008181526005602090815260408220600e8101805460018101825590845291832090910180546001600160a01b03191633179055918152600b90910180549161277c83615ce9565b919050555050565b60606009805480602002602001604051908101604052809291908181526020016000905b8282101561189e5760008481526020908190206040805160e0810182526007860290920180546001600160a01b03168352600181015493830193909352600283018054929392918401916127fb90615d02565b80601f016020809104026020016040519081016040528092919081815260200182805461282790615d02565b80156128745780601f1061284957610100808354040283529160200191612874565b820191906000526020600020905b81548152906001019060200180831161285757829003601f168201915b5050505050815260200160038201805461288d90615d02565b80601f01602080910402602001604051908101604052809291908181526020018280546128b990615d02565b80156129065780601f106128db57610100808354040283529160200191612906565b820191906000526020600020905b8154815290600101906020018083116128e957829003601f168201915b5050505050815260200160048201805461291f90615d02565b80601f016020809104026020016040519081016040528092919081815260200182805461294b90615d02565b80156129985780601f1061296d57610100808354040283529160200191612998565b820191906000526020600020905b81548152906001019060200180831161297b57829003601f168201915b505050505081526020016005820180546129b190615d02565b80601f01602080910402602001604051908101604052809291908181526020018280546129dd90615d02565b8015612a2a5780601f106129ff57610100808354040283529160200191612a2a565b820191906000526020600020905b815481529060010190602001808311612a0d57829003601f168201915b50505050508152602001600682018054612a4390615d02565b80601f0160208091040260200160405190810160405280929190818152602001828054612a6f90615d02565b8015612abc5780601f10612a9157610100808354040283529160200191612abc565b820191906000526020600020905b815481529060010190602001808311612a9f57829003601f168201915b505050505081525050815260200190600101906127a8565b6001600160a01b0383166000908152600760209081526040808320805482516060810184528181528085018881529381018790526001808301845583875294909520855160038302909101908155925191949093909283929091820190612b3b9082615d99565b5060408201516002820190612b509082615d99565b505050505050505050565b336000908152600a60205260408120905b600954811015612e26578260098281548110612b8a57612b8a615c7d565b90600052602060002090600702016001015403612e1457336001600160a01b031660098281548110612bbe57612bbe615c7d565b60009182526020909120600790910201546001600160a01b031614612bf55760405162461bcd60e51b815260040161195d90615f53565b600954600103612c89576009805480612c1057612c10615cbc565b60008281526020812060076000199093019283020180546001600160a01b03191681556001810182905590612c486002830182614c00565b612c56600383016000614c00565b612c64600483016000614c00565b612c72600583016000614c00565b612c80600683016000614c00565b50509055612e14565b805b600954612c9a90600190615ca9565b811015612d8d576009612cae826001615e52565b81548110612cbe57612cbe615c7d565b906000526020600020906007020160098281548110612cdf57612cdf615c7d565b60009182526020909120825460079092020180546001600160a01b0319166001600160a01b0390921691909117815560018083015490820155600280820190612d2a90840182615e65565b50600381810190612d3d90840182615e65565b50600481810190612d5090840182615e65565b50600581810190612d6390840182615e65565b50600681810190612d7690840182615e65565b509050508080612d8590615ce9565b915050612c8b565b506009805480612d9f57612d9f615cbc565b60008281526020812060076000199093019283020180546001600160a01b03191681556001810182905590612dd76002830182614c00565b612de5600383016000614c00565b612df3600483016000614c00565b612e01600583016000614c00565b612e0f600683016000614c00565b505090555b80612e1e81615ce9565b915050612b6c565b5060005b8154811015611c0a5782828281548110612e4657612e46615c7d565b9060005260206000209060070201600101540361310557336001600160a01b0316828281548110612e7957612e79615c7d565b60009182526020909120600790910201546001600160a01b031614612eb05760405162461bcd60e51b815260040161195d90615f53565b8154600103612f605781805480612ec957612ec9615cbc565b60008281526020812060076000199093019283020180546001600160a01b03191681556001810182905590612f016002830182614c00565b612f0f600383016000614c00565b612f1d600483016000614c00565b612f2b600583016000614c00565b612f39600683016000614c00565b50509055336000908152600a602052604090208254612f5a91908490614ac4565b50613105565b805b8254612f7090600190615ca9565b8110156130615782612f83826001615e52565b81548110612f9357612f93615c7d565b9060005260206000209060070201838281548110612fb357612fb3615c7d565b60009182526020909120825460079092020180546001600160a01b0319166001600160a01b0390921691909117815560018083015490820155600280820190612ffe90840182615e65565b5060038181019061301190840182615e65565b5060048181019061302490840182615e65565b5060058181019061303790840182615e65565b5060068181019061304a90840182615e65565b50905050808061305990615ce9565b915050612f62565b508180548061307257613072615cbc565b60008281526020812060076000199093019283020180546001600160a01b031916815560018101829055906130aa6002830182614c00565b6130b8600383016000614c00565b6130c6600483016000614c00565b6130d4600583016000614c00565b6130e2600683016000614c00565b50509055336000908152600a60205260409020825461310391908490614ac4565b505b8061310f81615ce9565b915050612e2a565b6001600160a01b0381166000908152600760209081526040808320805482518185028101850190935280835260609492939192909184015b8282101561109d57838290600052602060002090600302016040518060600160405290816000820154815260200160018201805461318c90615d02565b80601f01602080910402602001604051908101604052809291908181526020018280546131b890615d02565b80156132055780601f106131da57610100808354040283529160200191613205565b820191906000526020600020905b8154815290600101906020018083116131e857829003601f168201915b5050505050815260200160028201805461321e90615d02565b80601f016020809104026020016040519081016040528092919081815260200182805461324a90615d02565b80156132975780601f1061326c57610100808354040283529160200191613297565b820191906000526020600020905b81548152906001019060200180831161327a57829003601f168201915b5050505050815250508152602001906001019061314f565b6132b7614d5e565b6001600160a01b038083166000908152600560209081526040918290208251610100808201855282549095168152835194850190935260018101805493949193928501928290829061330890615d02565b80601f016020809104026020016040519081016040528092919081815260200182805461333490615d02565b80156133815780601f1061335657610100808354040283529160200191613381565b820191906000526020600020905b81548152906001019060200180831161336457829003601f168201915b5050505050815260200160018201805461339a90615d02565b80601f01602080910402602001604051908101604052809291908181526020018280546133c690615d02565b80156134135780601f106133e857610100808354040283529160200191613413565b820191906000526020600020905b8154815290600101906020018083116133f657829003601f168201915b5050505050815260200160028201805461342c90615d02565b80601f016020809104026020016040519081016040528092919081815260200182805461345890615d02565b80156134a55780601f1061347a576101008083540402835291602001916134a5565b820191906000526020600020905b81548152906001019060200180831161348857829003601f168201915b505050505081526020016003820180546134be90615d02565b80601f01602080910402602001604051908101604052809291908181526020018280546134ea90615d02565b80156135375780601f1061350c57610100808354040283529160200191613537565b820191906000526020600020905b81548152906001019060200180831161351a57829003601f168201915b5050505050815260200160048201805461355090615d02565b80601f016020809104026020016040519081016040528092919081815260200182805461357c90615d02565b80156135c95780601f1061359e576101008083540402835291602001916135c9565b820191906000526020600020905b8154815290600101906020018083116135ac57829003601f168201915b505050505081526020016005820180546135e290615d02565b80601f016020809104026020016040519081016040528092919081815260200182805461360e90615d02565b801561365b5780601f106136305761010080835404028352916020019161365b565b820191906000526020600020905b81548152906001019060200180831161363e57829003601f168201915b5050505050815260200160068201805461367490615d02565b80601f01602080910402602001604051908101604052809291908181526020018280546136a090615d02565b80156136ed5780601f106136c2576101008083540402835291602001916136ed565b820191906000526020600020905b8154815290600101906020018083116136d057829003601f168201915b5050505050815260200160078201805461370690615d02565b80601f016020809104026020016040519081016040528092919081815260200182805461373290615d02565b801561377f5780601f106137545761010080835404028352916020019161377f565b820191906000526020600020905b81548152906001019060200180831161376257829003601f168201915b505050505081525050815260200160098201805461379c90615d02565b80601f01602080910402602001604051908101604052809291908181526020018280546137c890615d02565b80156138155780601f106137ea57610100808354040283529160200191613815565b820191906000526020600020905b8154815290600101906020018083116137f857829003601f168201915b50505050508152602001600a8201805461382e90615d02565b80601f016020809104026020016040519081016040528092919081815260200182805461385a90615d02565b80156138a75780601f1061387c576101008083540402835291602001916138a7565b820191906000526020600020905b81548152906001019060200180831161388a57829003601f168201915b50505050508152602001600b8201548152602001600c8201548152602001600d820180548060200260200160405190810160405280929190818152602001828054801561391d57602002820191906000526020600020905b81546001600160a01b031681526001909101906020018083116138ff575b50505050508152602001600e820180548060200260200160405190810160405280929190818152602001828054801561397f57602002820191906000526020600020905b81546001600160a01b03168152600190910190602001808311613961575b5050505050815250509050919050565b336000908152600560209081526040909120825181546001600160a01b0319166001600160a01b0390911617815590820151805183929190600183019081906139d89082615d99565b50602082015160018201906139ed9082615d99565b5060408201516002820190613a029082615d99565b5060608201516003820190613a179082615d99565b5060808201516004820190613a2c9082615d99565b5060a08201516005820190613a419082615d99565b5060c08201516006820190613a569082615d99565b5060e08201516007820190613a6b9082615d99565b50505060408201516009820190613a829082615d99565b506060820151600a820190613a979082615d99565b506080820151600b82015560a0820151600c82015560c08201518051613ac791600d840191602090910190614b9f565b5060e08201518051613ae391600e840191602090910190614b9f565b5050600680546001810182556000919091527ff652222313e28459528d920b65115c16c04f3efc82aaedc97be59f3f377c0d3f0180546001600160a01b031916331790555050565b60606006805480602002602001604051908101604052809291908181526020018280548015613b8357602002820191906000526020600020905b81546001600160a01b03168152600190910190602001808311613b65575b5050505050905090565b6000818152600460205260408120905b8154811015613d0057336001600160a01b0316828281548110613bc257613bc2615c7d565b6000918252602090912001546001600160a01b031603613cee578154600103613c1c5781805480613bf557613bf5615cbc565b600082815260209020810160001990810180546001600160a01b0319169055019055613cee565b805b8254613c2c90600190615ca9565b811015613cba5782613c3f826001615e52565b81548110613c4f57613c4f615c7d565b9060005260206000200160009054906101000a90046001600160a01b0316838281548110613c7f57613c7f615c7d565b600091825260209091200180546001600160a01b0319166001600160a01b039290921691909117905580613cb281615ce9565b915050613c1e565b5081805480613ccb57613ccb615cbc565b600082815260209020810160001990810180546001600160a01b03191690550190555b80613cf881615ce9565b915050613b9d565b5060008281526004602052604090208154611c0a91908390614d1e565b600081815260046020908152604091829020805483518184028101840190945280845260609392830182828015613d7d57602002820191906000526020600020905b81546001600160a01b03168152600190910190602001808311613d5f575b50505050509050919050565b6006546060906000906001600160401b03811115613da957613da9614f26565b604051908082528060200260200182016040528015613de257816020015b613dcf614d5e565b815260200190600190039081613dc75790505b50905060005b600654811015614517576005600060068381548110613e0957613e09615c7d565b60009182526020808320909101546001600160a01b03908116845283820194909452604092830190912082516101008181018552825490951681528351948501909352600181018054939491939285019282908290613e6790615d02565b80601f0160208091040260200160405190810160405280929190818152602001828054613e9390615d02565b8015613ee05780601f10613eb557610100808354040283529160200191613ee0565b820191906000526020600020905b815481529060010190602001808311613ec357829003601f168201915b50505050508152602001600182018054613ef990615d02565b80601f0160208091040260200160405190810160405280929190818152602001828054613f2590615d02565b8015613f725780601f10613f4757610100808354040283529160200191613f72565b820191906000526020600020905b815481529060010190602001808311613f5557829003601f168201915b50505050508152602001600282018054613f8b90615d02565b80601f0160208091040260200160405190810160405280929190818152602001828054613fb790615d02565b80156140045780601f10613fd957610100808354040283529160200191614004565b820191906000526020600020905b815481529060010190602001808311613fe757829003601f168201915b5050505050815260200160038201805461401d90615d02565b80601f016020809104026020016040519081016040528092919081815260200182805461404990615d02565b80156140965780601f1061406b57610100808354040283529160200191614096565b820191906000526020600020905b81548152906001019060200180831161407957829003601f168201915b505050505081526020016004820180546140af90615d02565b80601f01602080910402602001604051908101604052809291908181526020018280546140db90615d02565b80156141285780601f106140fd57610100808354040283529160200191614128565b820191906000526020600020905b81548152906001019060200180831161410b57829003601f168201915b5050505050815260200160058201805461414190615d02565b80601f016020809104026020016040519081016040528092919081815260200182805461416d90615d02565b80156141ba5780601f1061418f576101008083540402835291602001916141ba565b820191906000526020600020905b81548152906001019060200180831161419d57829003601f168201915b505050505081526020016006820180546141d390615d02565b80601f01602080910402602001604051908101604052809291908181526020018280546141ff90615d02565b801561424c5780601f106142215761010080835404028352916020019161424c565b820191906000526020600020905b81548152906001019060200180831161422f57829003601f168201915b5050505050815260200160078201805461426590615d02565b80601f016020809104026020016040519081016040528092919081815260200182805461429190615d02565b80156142de5780601f106142b3576101008083540402835291602001916142de565b820191906000526020600020905b8154815290600101906020018083116142c157829003601f168201915b50505050508152505081526020016009820180546142fb90615d02565b80601f016020809104026020016040519081016040528092919081815260200182805461432790615d02565b80156143745780601f1061434957610100808354040283529160200191614374565b820191906000526020600020905b81548152906001019060200180831161435757829003601f168201915b50505050508152602001600a8201805461438d90615d02565b80601f01602080910402602001604051908101604052809291908181526020018280546143b990615d02565b80156144065780601f106143db57610100808354040283529160200191614406565b820191906000526020600020905b8154815290600101906020018083116143e957829003601f168201915b50505050508152602001600b8201548152602001600c8201548152602001600d820180548060200260200160405190810160405280929190818152602001828054801561447c57602002820191906000526020600020905b81546001600160a01b0316815260019091019060200180831161445e575b50505050508152602001600e82018054806020026020016040519081016040528092919081815260200182805480156144de57602002820191906000526020600020905b81546001600160a01b031681526001909101906020018083116144c0575b5050505050815250508282815181106144f9576144f9615c7d565b6020026020010181905250808061450f90615ce9565b915050613de8565b50919050565b60088054908190600061452f83615ce9565b9091555050604080516101008101825233815260208082018481528284018b8152606084018b8152608085018b905260a085018a905260c0850189905260e0850188905260008d8152600380865296812080546001808201835582845296909220875160089093020180546001600160a01b0319166001600160a01b039093169290921782559351948101949094559051600284015551929390928492918201906145da9082615d99565b50608082015160048201906145ef9082615d99565b5060a082015160058201906146049082615d99565b5060c082015160068201906146199082615d99565b5060e0820151600782019061462e9082615d99565b5050506000898152600360205260409020815461464d91908390614c3d565b50505050505050505050565b6009818154811061466957600080fd5b60009182526020909120600790910201805460018201546002830180546001600160a01b0390931694509092916110fb90615d02565b600281815481106146af57600080fd5b60009182526020909120600390910201805460018201805491935090611c5590615d02565b600460205281600052604060002081815481106146f057600080fd5b6000918252602090912001546001600160a01b03169150829050565b6003602052816000526040600020818154811061472857600080fd5b600091825260209091206008909102018054600182015460028301546003840180546001600160a01b039094169650919450929161476590615d02565b80601f016020809104026020016040519081016040528092919081815260200182805461479190615d02565b80156147de5780601f106147b3576101008083540402835291602001916147de565b820191906000526020600020905b8154815290600101906020018083116147c157829003601f168201915b5050505050908060040180546147f390615d02565b80601f016020809104026020016040519081016040528092919081815260200182805461481f90615d02565b801561486c5780601f106148415761010080835404028352916020019161486c565b820191906000526020600020905b81548152906001019060200180831161484f57829003601f168201915b50505050509080600501805461488190615d02565b80601f01602080910402602001604051908101604052809291908181526020018280546148ad90615d02565b80156148fa5780601f106148cf576101008083540402835291602001916148fa565b820191906000526020600020905b8154815290600101906020018083116148dd57829003601f168201915b50505050509080600601805461490f90615d02565b80601f016020809104026020016040519081016040528092919081815260200182805461493b90615d02565b80156149885780601f1061495d57610100808354040283529160200191614988565b820191906000526020600020905b81548152906001019060200180831161496b57829003601f168201915b50505050509080600701805461499d90615d02565b80601f01602080910402602001604051908101604052809291908181526020018280546149c990615d02565b8015614a165780601f106149eb57610100808354040283529160200191614a16565b820191906000526020600020905b8154815290600101906020018083116149f957829003601f168201915b5050505050905088565b8151815160009184918491908114614a3e5760009350505050614abe565b60005b81811015614ab557828181518110614a5b57614a5b615c7d565b602001015160f81c60f81b6001600160f81b031916848281518110614a8257614a82615c7d565b01602001516001600160f81b03191614614aa3576000945050505050614abe565b80614aad81615ce9565b915050614a41565b50600193505050505b92915050565b828054828255906000526020600020906007028101928215614b8f5760005260206000209160070282015b82811115614b8f57825482546001600160a01b0319166001600160a01b03909116178255600180840154908301558282600280820190614b3190840182615e65565b50600381810190614b4490840182615e65565b50600481810190614b5790840182615e65565b50600581810190614b6a90840182615e65565b50600681810190614b7d90840182615e65565b50505091600701919060070190614aef565b50614b9b929150614df2565b5090565b828054828255906000526020600020908101928215614bf4579160200282015b82811115614bf457825182546001600160a01b0319166001600160a01b03909116178255602090920191600190910190614bbf565b50614b9b929150614e5f565b508054614c0c90615d02565b6000825580601f10614c1c575050565b601f016020900490600052602060002090810190614c3a9190614e5f565b50565b828054828255906000526020600020906008028101928215614d125760005260206000209160080282015b82811115614d1257825482546001600160a01b0319166001600160a01b0390911617825560018084015490830155600280840154908301558282600380820190614cb490840182615e65565b50600481810190614cc790840182615e65565b50600581810190614cda90840182615e65565b50600681810190614ced90840182615e65565b50600781810190614d0090840182615e65565b50505091600801919060080190614c68565b50614b9b929150614e74565b828054828255906000526020600020908101928215614bf45760005260206000209182015b82811115614bf4578254825591600101919060010190614d43565b60405180610100016040528060006001600160a01b03168152602001614dc260405180610100016040528060608152602001606081526020016060815260200160608152602001606081526020016060815260200160608152602001606081525090565b81526020016060815260200160608152602001600081526020016000815260200160608152602001606081525090565b80821115614b9b5780546001600160a01b0319168155600060018201819055614e1e6002830182614c00565b614e2c600383016000614c00565b614e3a600483016000614c00565b614e48600583016000614c00565b614e56600683016000614c00565b50600701614df2565b5b80821115614b9b5760008155600101614e60565b80821115614b9b5780546001600160a01b031916815560006001820181905560028201819055614ea76003830182614c00565b614eb5600483016000614c00565b614ec3600583016000614c00565b614ed1600683016000614c00565b614edf600783016000614c00565b50600801614e74565b80356001600160a01b0381168114614eff57600080fd5b919050565b600060208284031215614f1657600080fd5b614f1f82614ee8565b9392505050565b634e487b7160e01b600052604160045260246000fd5b60405161010081016001600160401b0381118282101715614f5f57614f5f614f26565b60405290565b604051601f8201601f191681016001600160401b0381118282101715614f8d57614f8d614f26565b604052919050565b600082601f830112614fa657600080fd5b81356001600160401b03811115614fbf57614fbf614f26565b614fd2601f8201601f1916602001614f65565b818152846020838601011115614fe757600080fd5b816020850160208301376000918101602001919091529392505050565b6000806040838503121561501757600080fd5b82356001600160401b038082111561502e57600080fd5b61503a86838701614f95565b9350602085013591508082111561505057600080fd5b5061505d85828601614f95565b9150509250929050565b600080600080600060a0868803121561507f57600080fd5b85356001600160401b038082111561509657600080fd5b6150a289838a01614f95565b965060208801359150808211156150b857600080fd5b6150c489838a01614f95565b955060408801359150808211156150da57600080fd5b6150e689838a01614f95565b945060608801359150808211156150fc57600080fd5b61510889838a01614f95565b9350608088013591508082111561511e57600080fd5b5061512b88828901614f95565b9150509295509295909350565b6000610100828403121561514b57600080fd5b615153614f3c565b905081356001600160401b038082111561516c57600080fd5b61517885838601614f95565b8352602084013591508082111561518e57600080fd5b61519a85838601614f95565b602084015260408401359150808211156151b357600080fd5b6151bf85838601614f95565b604084015260608401359150808211156151d857600080fd5b6151e485838601614f95565b606084015260808401359150808211156151fd57600080fd5b61520985838601614f95565b608084015260a084013591508082111561522257600080fd5b61522e85838601614f95565b60a084015260c084013591508082111561524757600080fd5b61525385838601614f95565b60c084015260e084013591508082111561526c57600080fd5b5061527984828501614f95565b60e08301525092915050565b600082601f83011261529657600080fd5b813560206001600160401b038211156152b1576152b1614f26565b8160051b6152c0828201614f65565b92835284810182019282810190878511156152da57600080fd5b83870192505b84831015615300576152f183614ee8565b825291830191908301906152e0565b979650505050505050565b60006020828403121561531d57600080fd5b81356001600160401b038082111561533457600080fd5b90830190610100828603121561534957600080fd5b615351614f3c565b61535a83614ee8565b815260208301358281111561536e57600080fd5b61537a87828601615138565b60208301525060408301358281111561539257600080fd5b61539e87828601614f95565b6040830152506060830135828111156153b657600080fd5b6153c287828601614f95565b6060830152506080830135608082015260a083013560a082015260c0830135828111156153ee57600080fd5b6153fa87828601615285565b60c08301525060e08301358281111561541257600080fd5b61541e87828601615285565b60e08301525095945050505050565b60006020828403121561543f57600080fd5b5035919050565b6000815180845260005b8181101561546c57602081850181015186830182015201615450565b506000602082860101526020601f19601f83011685010191505092915050565b60006020808301818452808551808352604092508286019150828160051b87010184880160005b8381101561558057888303603f19018552815180516001600160a01b031684526101008882015189860152878201518886015260608083015182828801526154fd83880182615446565b92505050608080830151868303828801526155188382615446565b9250505060a080830151868303828801526155338382615446565b9250505060c0808301518683038288015261554e8382615446565b9250505060e0808301519250858203818701525061556c8183615446565b9689019694505050908601906001016154b3565b509098975050505050505050565b600080604083850312156155a157600080fd5b6155aa83614ee8565b946020939093013593505050565b60018060a01b038816815286602082015260e0604082015260006155df60e0830188615446565b82810360608401526155f18188615446565b905082810360808401526156058187615446565b905082810360a08401526156198186615446565b905082810360c084015261562d8185615446565b9a9950505050505050505050565b60006020808301818452808551808352604092508286019150828160051b87010184880160005b8381101561558057888303603f19018552815180516001600160a01b0316845287810151888501528681015160e0888601819052906156a382870182615446565b915050606080830151868303828801526156bd8382615446565b92505050608080830151868303828801526156d88382615446565b9250505060a080830151868303828801526156f38382615446565b9250505060c080830151925085820381870152506157118183615446565b968901969450505090860190600101615662565b8051825260006020820151606060208501526157446060850182615446565b90506040830151848203604086015261575d8282615446565b95945050505050565b6000602080830181845280855180835260408601915060408160051b870101925083870160005b828110156157bb57603f198886030184526157a9858351615725565b9450928501929085019060010161578d565b5092979650505050505050565b600080604083850312156157db57600080fd5b50508035926020909101359150565b8381526060602082015260006158036060830185615446565b82810360408401526158158185615446565b9695505050505050565b6000610100825181855261583582860182615446565b9150506020830151848203602086015261584f8282615446565b915050604083015184820360408601526158698282615446565b915050606083015184820360608601526158838282615446565b9150506080830151848203608086015261589d8282615446565b91505060a083015184820360a08601526158b78282615446565b91505060c083015184820360c08601526158d18282615446565b91505060e083015184820360e086015261575d8282615446565b600081518084526020808501945080840160005b838110156159245781516001600160a01b0316875295820195908201906001016158ff565b509495945050505050565b80516001600160a01b03168252600061010060208301518160208601526159588286018261581f565b915050604083015184820360408601526159728282615446565b9150506060830151848203606086015261598c8282615446565b9150506080830151608085015260a083015160a085015260c083015184820360c08601526159ba82826158eb565b91505060e083015184820360e086015261575d82826158eb565b6000602080830181845280855180835260408601915060408160051b870101925083870160005b828110156157bb57603f19888603018452615a1785835161592f565b945092850192908501906001016159fb565b600080600060608486031215615a3e57600080fd5b615a4784614ee8565b925060208401356001600160401b0380821115615a6357600080fd5b615a6f87838801614f95565b93506040860135915080821115615a8557600080fd5b50615a9286828701614f95565b9150509250925092565b6000602080830181845280855180835260408601915060408160051b870101925083870160005b828110156157bb57603f19888603018452615adf858351615725565b94509285019290850190600101615ac3565b602081526000614f1f602083018461592f565b602081526000614f1f60208301846158eb565b60008060008060008060c08789031215615b3057600080fd5b8635955060208701356001600160401b0380821115615b4e57600080fd5b615b5a8a838b01614f95565b96506040890135915080821115615b7057600080fd5b615b7c8a838b01614f95565b95506060890135915080821115615b9257600080fd5b615b9e8a838b01614f95565b94506080890135915080821115615bb457600080fd5b615bc08a838b01614f95565b935060a0890135915080821115615bd657600080fd5b50615be389828a01614f95565b9150509295509295509295565b600061010060018060a01b038b168352896020840152886040840152806060840152615c1e81840189615446565b90508281036080840152615c328188615446565b905082810360a0840152615c468187615446565b905082810360c0840152615c5a8186615446565b905082810360e0840152615c6e8185615446565b9b9a5050505050505050505050565b634e487b7160e01b600052603260045260246000fd5b634e487b7160e01b600052601160045260246000fd5b81810381811115614abe57614abe615c93565b634e487b7160e01b600052603160045260246000fd5b600081615ce157615ce1615c93565b506000190190565b600060018201615cfb57615cfb615c93565b5060010190565b600181811c90821680615d1657607f821691505b60208210810361451757634e487b7160e01b600052602260045260246000fd5b601f821115611c0a57600081815260208120601f850160051c81016020861015615d5d5750805b601f850160051c820191505b81811015615d7c57828155600101615d69565b505050505050565b600019600383901b1c191660019190911b1790565b81516001600160401b03811115615db257615db2614f26565b615dc681615dc08454615d02565b84615d36565b602080601f831160018114615df55760008415615de35750858301515b615ded8582615d84565b865550615d7c565b600085815260208120601f198616915b82811015615e2457888601518255948401946001909101908401615e05565b5085821015615e425787850151600019600388901b60f8161c191681555b5050505050600190811b01905550565b80820180821115614abe57614abe615c93565b818103615e70575050565b615e7a8254615d02565b6001600160401b03811115615e9157615e91614f26565b615e9f81615dc08454615d02565b6000601f821160018114615ecd5760008315615ebb5750848201545b615ec58482615d84565b85555061096d565b600085815260209020601f19841690600086815260209020845b83811015615f075782860154825560019586019590910190602001615ee7565b5085831015615e425793015460001960f8600387901b161c19169092555050600190811b01905550565b600082615f4e57634e487b7160e01b600052601260045260246000fd5b500690565b6020808252600f908201526e3737ba103a3bb2b2ba1037bbb732b960891b60408201526060019056fea264697066735822122083b4504240103963d2aae7c3bf662edf1a7413804cea694d77cdd01e3bfd1d0f64736f6c63430008130033",
  "immutableReferences": {},
  "source": "// SPDX-License-Identifier: UNLICENSED\r\npragma solidity ^0.8.17;\r\n\r\ncontract Decentra {\r\n    address public owner;\r\n   \r\n\r\n    constructor() {\r\n        owner = msg.sender;\r\n    }\r\n\r\n    struct Profile {\r\n        string name;    \r\n        string avatar;\r\n        string banner;\r\n        string age;\r\n        string gender;\r\n        string status;\r\n        string country;\r\n        string city;\r\n    }\r\n    struct user {\r\n        address userAddress;\r\n        Profile profile;\r\n        string occupation;\r\n        string date_joined;\r\n        uint256 followers;\r\n        uint256 following;\r\n        address[] user_following;\r\n        address[] user_followed;\r\n    }\r\n\r\n    struct Tweet{\r\n        address tweetOwner;\r\n        uint256 t_id;     \r\n        string username;\r\n        string userAt;\r\n        string date;\r\n        string text;\r\n        string cId;\r\n        \r\n\r\n    }\r\n\r\n    struct Comment{\r\n        address commentOwner;\r\n        uint256 c_id;\r\n        uint256 p_id;\r\n        string username;\r\n        string userAt;\r\n        string date;\r\n        string text;\r\n        string cId;\r\n        \r\n        \r\n    }\r\n\r\n    struct Trend{\r\n        uint256 t_id;\r\n        string t_name;\r\n        string t_location;\r\n        \r\n    }\r\n    \r\n    struct Notification {\r\n        uint256 id;\r\n        string text;\r\n        string image;\r\n    }\r\n\r\n    mapping (uint => uint) public mentions;\r\n    Trend[] public trends;\r\n    mapping (uint => Comment[]) public comments; \r\n    mapping (uint => address[]) public liked;\r\n    \r\n\r\n    mapping (address => user) Users;\r\n    address[] private userAddresses;\r\n    mapping(address => Notification[]) public userNotifications;\r\n\r\n     uint256 tweetId=1000;\r\n    Tweet[] public tweets;\r\n    mapping (address => Tweet[]) public userTweets;\r\n\r\n\r\n    function stringsEquals(string memory s1, string memory s2) private pure returns (bool) {\r\n        bytes memory b1 = bytes(s1);\r\n        bytes memory b2 = bytes(s2);\r\n        uint256 l1 = b1.length;\r\n        if (l1 != b2.length) return false;\r\n        for (uint256 i=0; i<l1; i++) {\r\n            if (b1[i] != b2[i]) return false;\r\n        }\r\n        return true;\r\n}\r\n\r\n    function addLike(uint _id) public {\r\n        address[] storage temp = liked[_id];\r\n        temp.push(msg.sender);\r\n        liked[_id]=temp;\r\n    }\r\n    function removeLike(uint _id) public{\r\n        address[] storage temp =liked[_id];\r\n            for(uint i=0; i<temp.length; i++)\r\n            {\r\n                if(temp[i] == msg.sender){\r\n                    \r\n                    if(temp.length==1){\r\n                        temp.pop();\r\n                    }\r\n                    else{\r\n                        for(uint j=i; j<temp.length-1;j++){\r\n                            temp[j]=temp[j+1];\r\n                        }\r\n                        temp.pop();\r\n                    }\r\n                }\r\n            }\r\n        liked[_id]=temp;\r\n\r\n    }\r\n    function getlikes(uint _id) public view returns(address[] memory){\r\n        return liked[_id];\r\n    }\r\n    \r\n\r\n    function createUser(user memory _user) public {\r\n        Users[msg.sender] = _user;\r\n        userAddresses.push(msg.sender);\r\n    }\r\n\r\n    function updateUser(user memory _user) public {\r\n     Users[msg.sender] = _user;\r\n    }\r\n\r\n    function getUser(address userAddress) public view returns (user memory) {\r\n        return Users[userAddress];\r\n    }\r\n\r\n    function getAllUsers() public view returns (user[] memory) {\r\n        user[] memory allUsers = new user[](userAddresses.length);\r\n        for (uint256 i = 0; i < userAddresses.length; i++) {\r\n            allUsers[i] = Users[userAddresses[i]];\r\n        }\r\n        return allUsers;\r\n    }\r\n    \r\n    function getRandomUsers() public view returns (user[] memory) {\r\n    uint totalUsers = userAddresses.length;\r\n    uint count = totalUsers > 5 ? 5 : totalUsers;\r\n\r\n    address[] memory shuffledUserAddresses = new address[](totalUsers);\r\n    for (uint i = 0; i < totalUsers; i++) {\r\n        shuffledUserAddresses[i] = userAddresses[i];\r\n    }\r\n\r\n    // Shuffle the user addresses using Fisher-Yates algorithm\r\n    for (uint i = totalUsers - 1; i > 0; i--) {\r\n        uint j = uint(keccak256(abi.encodePacked(block.timestamp, msg.sender, i))) % (i + 1);\r\n        (shuffledUserAddresses[i], shuffledUserAddresses[j]) = (shuffledUserAddresses[j], shuffledUserAddresses[i]);\r\n    }\r\n\r\n    user[] memory randomUsers = new user[](count);\r\n    for (uint i = 0; i < count; i++) {\r\n        address userAddress = shuffledUserAddresses[i];\r\n        randomUsers[i] = Users[userAddress];\r\n    }\r\n\r\n    return randomUsers;\r\n}\r\n\r\n\r\n\r\n    function getUserAddresses() public view returns (address[] memory) {\r\n        return userAddresses;\r\n    }\r\n\r\n    // Follow Logic\r\n    function follow(address userAddress) public {\r\n        Users[msg.sender].user_following.push(userAddress);\r\n        Users[msg.sender].following++;\r\n        Users[userAddress].user_followed.push(msg.sender);\r\n        Users[userAddress].followers++;\r\n    }\r\n\r\n    function unfollow(address userAddress) public {\r\n        address[] storage following = Users[msg.sender].user_following;\r\n        address[] storage followed = Users[userAddress].user_followed;\r\n        for (uint256 i = 0; i < following.length; i++) {\r\n            if (following[i] == userAddress) {\r\n                if (i != following.length - 1) {\r\n                    // Replace the element to be removed with the last element\r\n                    following[i] = following[following.length - 1];\r\n                }\r\n                // Remove the last element\r\n                following.pop();\r\n                Users[msg.sender].following--;\r\n                break; // Exit the loop once the user is found and removed\r\n            }\r\n        }\r\n\r\n        for (uint256 i = 0; i < followed.length; i++) {\r\n            if (followed[i] == msg.sender) {\r\n                if (i != followed.length - 1) {\r\n                    // Replace the element to be removed with the last element\r\n                    followed[i] = followed[followed.length - 1];\r\n                }\r\n                // Remove the last element\r\n                followed.pop();\r\n                Users[userAddress].followers--;\r\n                break; // Exit the loop once the follower is found and removed\r\n            }\r\n        }\r\n    }\r\n\r\n    //Functions for Tweets\r\n    function addTweet(string memory _username, string memory _userAt, string memory _date, string memory _text, string memory _cId) public {\r\n        uint id =tweetId;\r\n        tweetId++;\r\n        tweets.push(Tweet(msg.sender ,id, _username, _userAt, _date, _text, _cId));\r\n        \r\n        Tweet[] storage userSpecificTweets= userTweets[msg.sender];\r\n        userSpecificTweets.push(Tweet(msg.sender ,id, _username, _userAt, _date, _text, _cId));\r\n        \r\n        userTweets[msg.sender]=userSpecificTweets;\r\n    }\r\n\r\n    function getAllTweets() public view returns(Tweet[] memory){\r\n        return tweets;\r\n    }\r\n\r\n    function getUserTweets(address _user) public view returns(Tweet[] memory){\r\n        return userTweets[_user];\r\n    }\r\n\r\n    function deleteTweet(uint id) public {\r\n        Tweet[] storage userSpecificTweets = userTweets[msg.sender];\r\n        for(uint i=0; i<tweets.length; i++)\r\n        {\r\n            if(tweets[i].t_id == id){\r\n                require(tweets[i].tweetOwner == msg.sender, \"not tweet owner\");\r\n                if(tweets.length==1){\r\n                    tweets.pop();\r\n                }\r\n                else{\r\n                    for(uint j=i; j<tweets.length-1;j++){\r\n                        tweets[j]=tweets[j+1];\r\n                    }\r\n                    tweets.pop();\r\n                }\r\n            }\r\n        }\r\n        for (uint i=0;i<userSpecificTweets.length;i++){\r\n            if(userSpecificTweets[i].t_id==id){\r\n                require(userSpecificTweets[i].tweetOwner == msg.sender, \"not tweet owner\");\r\n                if(userSpecificTweets.length==1){\r\n                    userSpecificTweets.pop();\r\n                    userTweets[msg.sender]=userSpecificTweets;\r\n                }\r\n                else{\r\n                    for(uint j=i; j<userSpecificTweets.length-1;j++){\r\n                    userSpecificTweets[j]=userSpecificTweets[j+1];\r\n                    }\r\n                    userSpecificTweets.pop();\r\n                    userTweets[msg.sender]=userSpecificTweets;\r\n                }\r\n                \r\n            }\r\n        }\r\n    }\r\n    //Functions for Comments\r\n    function addComment(uint p_id, string memory _username, string memory _userAt, string memory _date, string memory _text, string memory _cId) public {\r\n        uint id=tweetId;\r\n        tweetId++;\r\n        Comment memory cmt= Comment(msg.sender, id, p_id, _username, _userAt, _date, _text, _cId);\r\n        Comment[] storage new_cmts =comments[p_id];\r\n        new_cmts.push(cmt); \r\n        comments[p_id] = new_cmts;\r\n    }\r\n    function getComments(uint p_id) public view returns(Comment[] memory){\r\n        return comments[p_id];\r\n    }\r\n    function deleteComment(uint p_id, uint id) public {\r\n        Comment[] storage temp = comments[p_id];\r\n\r\n            for(uint i=0; i<temp.length; i++)\r\n            {\r\n                if(temp[i].c_id == id){\r\n                    require(temp[i].commentOwner == msg.sender, \"not comment owner\");\r\n                    if(temp.length==1){\r\n                        temp.pop();\r\n                    }\r\n                    else{\r\n                        for(uint j=i; j<temp.length-1;j++){\r\n                            temp[j]=temp[j+1];\r\n                        }\r\n                        temp.pop();\r\n                    }\r\n                }\r\n            }\r\n        comments[p_id]=temp;\r\n    }\r\n    //Functions for Trends\r\n    function addTrend(string memory _name, string memory _location) public  {\r\n        uint id = tweetId;\r\n        bool exists =false;\r\n        uint tempMentions;\r\n       \r\n        for(uint i=0;i<trends.length;i++){\r\n            if(stringsEquals(trends[i].t_name, _name)){\r\n                exists = true;\r\n                id=trends[i].t_id;\r\n                break;\r\n            }\r\n        }\r\n       \r\n       if(exists){\r\n            tempMentions=mentions[id];\r\n            tempMentions++;\r\n            mentions[id]=tempMentions;\r\n        }else{\r\n            tweetId++;\r\n            trends.push(Trend(id,_name,_location));\r\n            mentions[id]=1;\r\n        }\r\n        \r\n    }\r\n   \r\n    function getTrends() public view returns(Trend[] memory){\r\n        return trends;\r\n    }\r\n    function getMentions(uint _id) public view returns(uint){\r\n        return mentions[_id];\r\n    }\r\n    // Function to add a new notification\r\n    function addNotification(address _userAddress, string memory _text, string memory _image) public {\r\n        Notification[] storage noti = userNotifications[_userAddress];\r\n        uint256 notiId = noti.length;\r\n        Notification memory newNoti = Notification(notiId, _text, _image);\r\n        noti.push(newNoti);\r\n    }\r\n\r\n    // Function to retrieve a user's notifications\r\n    function getUserNotifications(address _userAddress) public view returns (Notification[] memory) {\r\n        return userNotifications[_userAddress];\r\n    }\r\n}   ",
  "sourcePath": "D:\\Docs\\Engineering\\Src\\Web\\FYP\\Code\\decentra\\contracts\\Decentra.sol",
  "compiler": {
    "name": "solc",
    "version": "0.8.19+commit.7dd6d404.Emscripten.clang"
  },
  "schemaVersion": "3.4.13",
  "updatedAt": "2023-08-15T04:49:48.832Z",
  "networkType": "ethereum",
  "devdoc": {
    "kind": "dev",
    "methods": {},
    "version": 1
  },
  "userdoc": {
    "kind": "user",
    "methods": {},
    "version": 1
  }
}