{
  "contractName": "Decentra",
  "abi": [
    {
      "inputs": [],
      "stateMutability": "nonpayable",
      "type": "constructor"
    },
    {
      "inputs": [
        {
          "internalType": "uint256",
          "name": "",
          "type": "uint256"
        },
        {
          "internalType": "uint256",
          "name": "",
          "type": "uint256"
        }
      ],
      "name": "comments",
      "outputs": [
        {
          "internalType": "address",
          "name": "commentOwner",
          "type": "address"
        },
        {
          "internalType": "uint256",
          "name": "c_id",
          "type": "uint256"
        },
        {
          "internalType": "uint256",
          "name": "p_id",
          "type": "uint256"
        },
        {
          "internalType": "string",
          "name": "username",
          "type": "string"
        },
        {
          "internalType": "string",
          "name": "userAt",
          "type": "string"
        },
        {
          "internalType": "string",
          "name": "date",
          "type": "string"
        },
        {
          "internalType": "string",
          "name": "text",
          "type": "string"
        },
        {
          "internalType": "string",
          "name": "cId",
          "type": "string"
        }
      ],
      "stateMutability": "view",
      "type": "function",
      "constant": true
    },
    {
      "inputs": [
        {
          "internalType": "uint256",
          "name": "",
          "type": "uint256"
        },
        {
          "internalType": "uint256",
          "name": "",
          "type": "uint256"
        }
      ],
      "name": "liked",
      "outputs": [
        {
          "internalType": "address",
          "name": "",
          "type": "address"
        }
      ],
      "stateMutability": "view",
      "type": "function",
      "constant": true
    },
    {
      "inputs": [
        {
          "internalType": "uint256",
          "name": "",
          "type": "uint256"
        }
      ],
      "name": "mentions",
      "outputs": [
        {
          "internalType": "uint256",
          "name": "",
          "type": "uint256"
        }
      ],
      "stateMutability": "view",
      "type": "function",
      "constant": true
    },
    {
      "inputs": [],
      "name": "owner",
      "outputs": [
        {
          "internalType": "address",
          "name": "",
          "type": "address"
        }
      ],
      "stateMutability": "view",
      "type": "function",
      "constant": true
    },
    {
      "inputs": [
        {
          "internalType": "uint256",
          "name": "",
          "type": "uint256"
        }
      ],
      "name": "trends",
      "outputs": [
        {
          "internalType": "uint256",
          "name": "t_id",
          "type": "uint256"
        },
        {
          "internalType": "string",
          "name": "t_name",
          "type": "string"
        },
        {
          "internalType": "string",
          "name": "t_location",
          "type": "string"
        }
      ],
      "stateMutability": "view",
      "type": "function",
      "constant": true
    },
    {
      "inputs": [
        {
          "internalType": "uint256",
          "name": "",
          "type": "uint256"
        }
      ],
      "name": "tweets",
      "outputs": [
        {
          "internalType": "address",
          "name": "tweetOwner",
          "type": "address"
        },
        {
          "internalType": "uint256",
          "name": "t_id",
          "type": "uint256"
        },
        {
          "internalType": "string",
          "name": "username",
          "type": "string"
        },
        {
          "internalType": "string",
          "name": "userAt",
          "type": "string"
        },
        {
          "internalType": "string",
          "name": "date",
          "type": "string"
        },
        {
          "internalType": "string",
          "name": "text",
          "type": "string"
        },
        {
          "internalType": "string",
          "name": "cId",
          "type": "string"
        }
      ],
      "stateMutability": "view",
      "type": "function",
      "constant": true
    },
    {
      "inputs": [
        {
          "internalType": "address",
          "name": "",
          "type": "address"
        },
        {
          "internalType": "uint256",
          "name": "",
          "type": "uint256"
        }
      ],
      "name": "userNotifications",
      "outputs": [
        {
          "internalType": "uint256",
          "name": "id",
          "type": "uint256"
        },
        {
          "internalType": "string",
          "name": "text",
          "type": "string"
        },
        {
          "internalType": "string",
          "name": "image",
          "type": "string"
        }
      ],
      "stateMutability": "view",
      "type": "function",
      "constant": true
    },
    {
      "inputs": [
        {
          "internalType": "address",
          "name": "",
          "type": "address"
        },
        {
          "internalType": "uint256",
          "name": "",
          "type": "uint256"
        }
      ],
      "name": "userTweets",
      "outputs": [
        {
          "internalType": "address",
          "name": "tweetOwner",
          "type": "address"
        },
        {
          "internalType": "uint256",
          "name": "t_id",
          "type": "uint256"
        },
        {
          "internalType": "string",
          "name": "username",
          "type": "string"
        },
        {
          "internalType": "string",
          "name": "userAt",
          "type": "string"
        },
        {
          "internalType": "string",
          "name": "date",
          "type": "string"
        },
        {
          "internalType": "string",
          "name": "text",
          "type": "string"
        },
        {
          "internalType": "string",
          "name": "cId",
          "type": "string"
        }
      ],
      "stateMutability": "view",
      "type": "function",
      "constant": true
    },
    {
      "inputs": [
        {
          "internalType": "uint256",
          "name": "_id",
          "type": "uint256"
        }
      ],
      "name": "addLike",
      "outputs": [],
      "stateMutability": "nonpayable",
      "type": "function"
    },
    {
      "inputs": [
        {
          "internalType": "uint256",
          "name": "_id",
          "type": "uint256"
        }
      ],
      "name": "removeLike",
      "outputs": [],
      "stateMutability": "nonpayable",
      "type": "function"
    },
    {
      "inputs": [
        {
          "internalType": "uint256",
          "name": "_id",
          "type": "uint256"
        }
      ],
      "name": "getlikes",
      "outputs": [
        {
          "internalType": "address[]",
          "name": "",
          "type": "address[]"
        }
      ],
      "stateMutability": "view",
      "type": "function",
      "constant": true
    },
    {
      "inputs": [
        {
          "components": [
            {
              "internalType": "address",
              "name": "userAddress",
              "type": "address"
            },
            {
              "components": [
                {
                  "internalType": "string",
                  "name": "name",
                  "type": "string"
                },
                {
                  "internalType": "string",
                  "name": "avatar",
                  "type": "string"
                },
                {
                  "internalType": "string",
                  "name": "banner",
                  "type": "string"
                },
                {
                  "internalType": "uint256",
                  "name": "age",
                  "type": "uint256"
                },
                {
                  "internalType": "string",
                  "name": "gender",
                  "type": "string"
                },
                {
                  "internalType": "string",
                  "name": "status",
                  "type": "string"
                },
                {
                  "internalType": "string",
                  "name": "country",
                  "type": "string"
                },
                {
                  "internalType": "string",
                  "name": "city",
                  "type": "string"
                }
              ],
              "internalType": "struct Decentra.Profile",
              "name": "profile",
              "type": "tuple"
            },
            {
              "internalType": "string",
              "name": "occupation",
              "type": "string"
            },
            {
              "internalType": "string",
              "name": "date_joined",
              "type": "string"
            },
            {
              "internalType": "uint256",
              "name": "followers",
              "type": "uint256"
            },
            {
              "internalType": "uint256",
              "name": "following",
              "type": "uint256"
            },
            {
              "internalType": "address[]",
              "name": "user_following",
              "type": "address[]"
            },
            {
              "internalType": "address[]",
              "name": "user_followed",
              "type": "address[]"
            }
          ],
          "internalType": "struct Decentra.user",
          "name": "_user",
          "type": "tuple"
        }
      ],
      "name": "createUser",
      "outputs": [],
      "stateMutability": "nonpayable",
      "type": "function"
    },
    {
      "inputs": [
        {
          "components": [
            {
              "internalType": "address",
              "name": "userAddress",
              "type": "address"
            },
            {
              "components": [
                {
                  "internalType": "string",
                  "name": "name",
                  "type": "string"
                },
                {
                  "internalType": "string",
                  "name": "avatar",
                  "type": "string"
                },
                {
                  "internalType": "string",
                  "name": "banner",
                  "type": "string"
                },
                {
                  "internalType": "uint256",
                  "name": "age",
                  "type": "uint256"
                },
                {
                  "internalType": "string",
                  "name": "gender",
                  "type": "string"
                },
                {
                  "internalType": "string",
                  "name": "status",
                  "type": "string"
                },
                {
                  "internalType": "string",
                  "name": "country",
                  "type": "string"
                },
                {
                  "internalType": "string",
                  "name": "city",
                  "type": "string"
                }
              ],
              "internalType": "struct Decentra.Profile",
              "name": "profile",
              "type": "tuple"
            },
            {
              "internalType": "string",
              "name": "occupation",
              "type": "string"
            },
            {
              "internalType": "string",
              "name": "date_joined",
              "type": "string"
            },
            {
              "internalType": "uint256",
              "name": "followers",
              "type": "uint256"
            },
            {
              "internalType": "uint256",
              "name": "following",
              "type": "uint256"
            },
            {
              "internalType": "address[]",
              "name": "user_following",
              "type": "address[]"
            },
            {
              "internalType": "address[]",
              "name": "user_followed",
              "type": "address[]"
            }
          ],
          "internalType": "struct Decentra.user",
          "name": "_user",
          "type": "tuple"
        }
      ],
      "name": "updateUser",
      "outputs": [],
      "stateMutability": "nonpayable",
      "type": "function"
    },
    {
      "inputs": [
        {
          "internalType": "address",
          "name": "userAddress",
          "type": "address"
        }
      ],
      "name": "getUser",
      "outputs": [
        {
          "components": [
            {
              "internalType": "address",
              "name": "userAddress",
              "type": "address"
            },
            {
              "components": [
                {
                  "internalType": "string",
                  "name": "name",
                  "type": "string"
                },
                {
                  "internalType": "string",
                  "name": "avatar",
                  "type": "string"
                },
                {
                  "internalType": "string",
                  "name": "banner",
                  "type": "string"
                },
                {
                  "internalType": "uint256",
                  "name": "age",
                  "type": "uint256"
                },
                {
                  "internalType": "string",
                  "name": "gender",
                  "type": "string"
                },
                {
                  "internalType": "string",
                  "name": "status",
                  "type": "string"
                },
                {
                  "internalType": "string",
                  "name": "country",
                  "type": "string"
                },
                {
                  "internalType": "string",
                  "name": "city",
                  "type": "string"
                }
              ],
              "internalType": "struct Decentra.Profile",
              "name": "profile",
              "type": "tuple"
            },
            {
              "internalType": "string",
              "name": "occupation",
              "type": "string"
            },
            {
              "internalType": "string",
              "name": "date_joined",
              "type": "string"
            },
            {
              "internalType": "uint256",
              "name": "followers",
              "type": "uint256"
            },
            {
              "internalType": "uint256",
              "name": "following",
              "type": "uint256"
            },
            {
              "internalType": "address[]",
              "name": "user_following",
              "type": "address[]"
            },
            {
              "internalType": "address[]",
              "name": "user_followed",
              "type": "address[]"
            }
          ],
          "internalType": "struct Decentra.user",
          "name": "",
          "type": "tuple"
        }
      ],
      "stateMutability": "view",
      "type": "function",
      "constant": true
    },
    {
      "inputs": [],
      "name": "getAllUsers",
      "outputs": [
        {
          "components": [
            {
              "internalType": "address",
              "name": "userAddress",
              "type": "address"
            },
            {
              "components": [
                {
                  "internalType": "string",
                  "name": "name",
                  "type": "string"
                },
                {
                  "internalType": "string",
                  "name": "avatar",
                  "type": "string"
                },
                {
                  "internalType": "string",
                  "name": "banner",
                  "type": "string"
                },
                {
                  "internalType": "uint256",
                  "name": "age",
                  "type": "uint256"
                },
                {
                  "internalType": "string",
                  "name": "gender",
                  "type": "string"
                },
                {
                  "internalType": "string",
                  "name": "status",
                  "type": "string"
                },
                {
                  "internalType": "string",
                  "name": "country",
                  "type": "string"
                },
                {
                  "internalType": "string",
                  "name": "city",
                  "type": "string"
                }
              ],
              "internalType": "struct Decentra.Profile",
              "name": "profile",
              "type": "tuple"
            },
            {
              "internalType": "string",
              "name": "occupation",
              "type": "string"
            },
            {
              "internalType": "string",
              "name": "date_joined",
              "type": "string"
            },
            {
              "internalType": "uint256",
              "name": "followers",
              "type": "uint256"
            },
            {
              "internalType": "uint256",
              "name": "following",
              "type": "uint256"
            },
            {
              "internalType": "address[]",
              "name": "user_following",
              "type": "address[]"
            },
            {
              "internalType": "address[]",
              "name": "user_followed",
              "type": "address[]"
            }
          ],
          "internalType": "struct Decentra.user[]",
          "name": "",
          "type": "tuple[]"
        }
      ],
      "stateMutability": "view",
      "type": "function",
      "constant": true
    },
    {
      "inputs": [
        {
          "internalType": "address",
          "name": "userAddress",
          "type": "address"
        }
      ],
      "name": "follow",
      "outputs": [],
      "stateMutability": "nonpayable",
      "type": "function"
    },
    {
      "inputs": [
        {
          "internalType": "address",
          "name": "userAddress",
          "type": "address"
        }
      ],
      "name": "unfollow",
      "outputs": [],
      "stateMutability": "nonpayable",
      "type": "function"
    },
    {
      "inputs": [
        {
          "internalType": "string",
          "name": "_username",
          "type": "string"
        },
        {
          "internalType": "string",
          "name": "_userAt",
          "type": "string"
        },
        {
          "internalType": "string",
          "name": "_date",
          "type": "string"
        },
        {
          "internalType": "string",
          "name": "_text",
          "type": "string"
        },
        {
          "internalType": "string",
          "name": "_cId",
          "type": "string"
        }
      ],
      "name": "addTweet",
      "outputs": [],
      "stateMutability": "nonpayable",
      "type": "function"
    },
    {
      "inputs": [],
      "name": "getAllTweets",
      "outputs": [
        {
          "components": [
            {
              "internalType": "address",
              "name": "tweetOwner",
              "type": "address"
            },
            {
              "internalType": "uint256",
              "name": "t_id",
              "type": "uint256"
            },
            {
              "internalType": "string",
              "name": "username",
              "type": "string"
            },
            {
              "internalType": "string",
              "name": "userAt",
              "type": "string"
            },
            {
              "internalType": "string",
              "name": "date",
              "type": "string"
            },
            {
              "internalType": "string",
              "name": "text",
              "type": "string"
            },
            {
              "internalType": "string",
              "name": "cId",
              "type": "string"
            }
          ],
          "internalType": "struct Decentra.Tweet[]",
          "name": "",
          "type": "tuple[]"
        }
      ],
      "stateMutability": "view",
      "type": "function",
      "constant": true
    },
    {
      "inputs": [
        {
          "internalType": "address",
          "name": "_user",
          "type": "address"
        }
      ],
      "name": "getUserTweets",
      "outputs": [
        {
          "components": [
            {
              "internalType": "address",
              "name": "tweetOwner",
              "type": "address"
            },
            {
              "internalType": "uint256",
              "name": "t_id",
              "type": "uint256"
            },
            {
              "internalType": "string",
              "name": "username",
              "type": "string"
            },
            {
              "internalType": "string",
              "name": "userAt",
              "type": "string"
            },
            {
              "internalType": "string",
              "name": "date",
              "type": "string"
            },
            {
              "internalType": "string",
              "name": "text",
              "type": "string"
            },
            {
              "internalType": "string",
              "name": "cId",
              "type": "string"
            }
          ],
          "internalType": "struct Decentra.Tweet[]",
          "name": "",
          "type": "tuple[]"
        }
      ],
      "stateMutability": "view",
      "type": "function",
      "constant": true
    },
    {
      "inputs": [
        {
          "internalType": "uint256",
          "name": "id",
          "type": "uint256"
        }
      ],
      "name": "deleteTweet",
      "outputs": [],
      "stateMutability": "nonpayable",
      "type": "function"
    },
    {
      "inputs": [
        {
          "internalType": "uint256",
          "name": "p_id",
          "type": "uint256"
        },
        {
          "internalType": "string",
          "name": "_username",
          "type": "string"
        },
        {
          "internalType": "string",
          "name": "_userAt",
          "type": "string"
        },
        {
          "internalType": "string",
          "name": "_date",
          "type": "string"
        },
        {
          "internalType": "string",
          "name": "_text",
          "type": "string"
        },
        {
          "internalType": "string",
          "name": "_cId",
          "type": "string"
        }
      ],
      "name": "addComment",
      "outputs": [],
      "stateMutability": "nonpayable",
      "type": "function"
    },
    {
      "inputs": [
        {
          "internalType": "uint256",
          "name": "p_id",
          "type": "uint256"
        }
      ],
      "name": "getComments",
      "outputs": [
        {
          "components": [
            {
              "internalType": "address",
              "name": "commentOwner",
              "type": "address"
            },
            {
              "internalType": "uint256",
              "name": "c_id",
              "type": "uint256"
            },
            {
              "internalType": "uint256",
              "name": "p_id",
              "type": "uint256"
            },
            {
              "internalType": "string",
              "name": "username",
              "type": "string"
            },
            {
              "internalType": "string",
              "name": "userAt",
              "type": "string"
            },
            {
              "internalType": "string",
              "name": "date",
              "type": "string"
            },
            {
              "internalType": "string",
              "name": "text",
              "type": "string"
            },
            {
              "internalType": "string",
              "name": "cId",
              "type": "string"
            }
          ],
          "internalType": "struct Decentra.Comment[]",
          "name": "",
          "type": "tuple[]"
        }
      ],
      "stateMutability": "view",
      "type": "function",
      "constant": true
    },
    {
      "inputs": [
        {
          "internalType": "uint256",
          "name": "p_id",
          "type": "uint256"
        },
        {
          "internalType": "uint256",
          "name": "id",
          "type": "uint256"
        }
      ],
      "name": "deleteComment",
      "outputs": [],
      "stateMutability": "nonpayable",
      "type": "function"
    },
    {
      "inputs": [
        {
          "internalType": "string",
          "name": "_name",
          "type": "string"
        },
        {
          "internalType": "string",
          "name": "_location",
          "type": "string"
        }
      ],
      "name": "addTrend",
      "outputs": [],
      "stateMutability": "nonpayable",
      "type": "function"
    },
    {
      "inputs": [],
      "name": "getTrends",
      "outputs": [
        {
          "components": [
            {
              "internalType": "uint256",
              "name": "t_id",
              "type": "uint256"
            },
            {
              "internalType": "string",
              "name": "t_name",
              "type": "string"
            },
            {
              "internalType": "string",
              "name": "t_location",
              "type": "string"
            }
          ],
          "internalType": "struct Decentra.Trend[]",
          "name": "",
          "type": "tuple[]"
        }
      ],
      "stateMutability": "view",
      "type": "function",
      "constant": true
    },
    {
      "inputs": [
        {
          "internalType": "uint256",
          "name": "_id",
          "type": "uint256"
        }
      ],
      "name": "getMentions",
      "outputs": [
        {
          "internalType": "uint256",
          "name": "",
          "type": "uint256"
        }
      ],
      "stateMutability": "view",
      "type": "function",
      "constant": true
    },
    {
      "inputs": [
        {
          "internalType": "address",
          "name": "_userAddress",
          "type": "address"
        },
        {
          "internalType": "string",
          "name": "_text",
          "type": "string"
        },
        {
          "internalType": "string",
          "name": "_image",
          "type": "string"
        }
      ],
      "name": "addNotification",
      "outputs": [],
      "stateMutability": "nonpayable",
      "type": "function"
    },
    {
      "inputs": [
        {
          "internalType": "address",
          "name": "_userAddress",
          "type": "address"
        }
      ],
      "name": "getUserNotifications",
      "outputs": [
        {
          "components": [
            {
              "internalType": "uint256",
              "name": "id",
              "type": "uint256"
            },
            {
              "internalType": "string",
              "name": "text",
              "type": "string"
            },
            {
              "internalType": "string",
              "name": "image",
              "type": "string"
            }
          ],
          "internalType": "struct Decentra.Notification[]",
          "name": "",
          "type": "tuple[]"
        }
      ],
      "stateMutability": "view",
      "type": "function",
      "constant": true
    }
  ],
  "bytecode": "0x60806040526103e860025534801561001657600080fd5b50600080546001600160a01b0319163317905561549f806100386000396000f3fe608060405234801561001057600080fd5b50600436106101cf5760003560e01c80635775912a11610104578063d3a0108a116100a2578063e8d857b011610071578063e8d857b014610456578063ec5ec59b14610469578063f99483ea1461047c578063fc6c776f1461048f57600080fd5b8063d3a0108a146103fb578063dc77fe501461041b578063e2842d791461042e578063e402e6a51461044357600080fd5b80638da5cb5b116100de5780638da5cb5b1461038a578063a7656e33146103b5578063adab264d146103c8578063b4dd1bfd146103e857600080fd5b80635775912a1461033757806357f313581461034a5780636f77926b1461036a57600080fd5b80632f8242631161017157806338c919101161014b57806338c91910146102e75780634dbf27cc14610309578063532561351461031c57806355abc23b1461032457600080fd5b80632f8242631461029357806331a4bcb5146102c1578063378a35cd146102d457600080fd5b806323edf697116101ad57806323edf6971461020f5780632e06f347146102385780632f5899d71461025e5780632f692f3f1461027e57600080fd5b8063015a4ead146101d457806314604738146101e95780631dc0d344146101fc575b600080fd5b6101e76101e2366004614470565b6104b6565b005b6101e76101f7366004614570565b610771565b6101e761020a3660046145d3565b61098e565b61022261021d3660046146a4565b610bf6565b60405161022f9190614703565b60405180910390f35b61024b610246366004614805565b610f6e565b60405161022f979695949392919061482f565b61027161026c366004614470565b61127c565b60405161022f91906148b2565b6102866115e0565b60405161022f91906149dd565b6102b36102a13660046146a4565b60009081526001602052604090205490565b60405190815260200161022f565b6101e76102cf366004614a3f565b61176d565b6101e76102e23660046146a4565b611a8c565b6102fa6102f5366004614805565b611ad5565b60405161022f93929190614a61565b6101e7610317366004614470565b611c2c565b610271611cdf565b6101e7610332366004614a96565b61202f565b6101e76103453660046146a4565b6120b6565b61035d610358366004614470565b6126b6565b60405161022f9190614b09565b61037d610378366004614470565b61284e565b60405161022f9190614d03565b60005461039d906001600160a01b031681565b6040516001600160a01b03909116815260200161022f565b6101e76103c33660046146a4565b612ea6565b6103db6103d63660046146a4565b613036565b60405161022f9190614d16565b6101e76103f6366004614ee1565b6130a2565b6102b36104093660046146a4565b60016020526000908152604090205481565b6101e7610429366004614ee1565b613233565b61043661337c565b60405161022f9190615003565b6101e7610451366004615058565b613a88565b61024b6104643660046146a4565b613bc5565b6102fa6104773660046146a4565b613c0b565b61039d61048a366004614a3f565b613c40565b6104a261049d366004614a3f565b613c78565b60405161022f989796959493929190615131565b336000908152600860205260408082206001600160a01b0384168352908220600d90910191600e909101905b825481101561062057836001600160a01b0316838281548110610507576105076151be565b6000918252602090912001546001600160a01b03160361060e57825461052f906001906151ea565b81146105b45782548390610545906001906151ea565b81548110610555576105556151be565b9060005260206000200160009054906101000a90046001600160a01b0316838281548110610585576105856151be565b9060005260206000200160006101000a8154816001600160a01b0302191690836001600160a01b031602179055505b828054806105c4576105c46151fd565b60008281526020808220830160001990810180546001600160a01b03191690559092019092553382526008905260408120600c0180549161060483615213565b9190505550610620565b806106188161522a565b9150506104e2565b5060005b815481101561076b57336001600160a01b0316828281548110610649576106496151be565b6000918252602090912001546001600160a01b031603610759578154610671906001906151ea565b81146106f65781548290610687906001906151ea565b81548110610697576106976151be565b9060005260206000200160009054906101000a90046001600160a01b03168282815481106106c7576106c76151be565b9060005260206000200160006101000a8154816001600160a01b0302191690836001600160a01b031602179055505b81805480610706576107066151fd565b60008281526020808220830160001990810180546001600160a01b03191690559092019092556001600160a01b03861682526008905260408120600b0180549161074f83615213565b919050555061076b565b806107638161522a565b915050610624565b50505050565b600254600080805b6004548110156108805761083960048281548110610799576107996151be565b906000526020600020906003020160010180546107b590615243565b80601f01602080910402602001604051908101604052809291908181526020018280546107e190615243565b801561082e5780601f106108035761010080835404028352916020019161082e565b820191906000526020600020905b81548152906001019060200180831161081157829003601f168201915b505050505087613f8c565b1561086e576001925060048181548110610855576108556151be565b9060005260206000209060030201600001549350610880565b806108788161522a565b915050610779565b5081156108bb5750600082815260016020526040902054806108a18161522a565b600085815260016020526040902081905591506109879050565b600280549060006108cb8361522a565b9091555050604080516060810182528481526020810187815291810186905260048054600181018255600091909152815160039091027f8a35acfbc15ff81a39ae7d344fd709f28e8600b4aa8c65c6b64bfe7fe36bd19b81019182559251919290917f8a35acfbc15ff81a39ae7d344fd709f28e8600b4aa8c65c6b64bfe7fe36bd19c9091019061095c90826152c5565b506040820151600282019061097190826152c5565b5050506000838152600160208190526040909120555b5050505050565b6002805490819060006109a08361522a565b90915550506040805160e08101825233815260208101838152918101888152606082018890526080820187905260a0820186905260c082018590526003805460018101825560009190915282517fc2575a0e9e593c00f959f8c92f12db2869c3395a3b0502d05e2516446f71f85b600790920291820180546001600160a01b0319166001600160a01b0390921691909117815593517fc2575a0e9e593c00f959f8c92f12db2869c3395a3b0502d05e2516446f71f85c82015590519192917fc2575a0e9e593c00f959f8c92f12db2869c3395a3b0502d05e2516446f71f85d90910190610a8d90826152c5565b5060608201516003820190610aa290826152c5565b5060808201516004820190610ab790826152c5565b5060a08201516005820190610acc90826152c5565b5060c08201516006820190610ae190826152c5565b5050336000818152600560209081526040808320815160e0810183529485528483018781529185018c8152606086018c9052608086018b905260a086018a905260c0860189905281546001808201845583875294909520865160079096020180546001600160a01b0319166001600160a01b03909616959095178555915192840192909255519093506002820190610b7990826152c5565b5060608201516003820190610b8e90826152c5565b5060808201516004820190610ba390826152c5565b5060a08201516005820190610bb890826152c5565b5060c08201516006820190610bcd90826152c5565b50503360009081526005602052604090208254610bec92508390614030565b5050505050505050565b606060066000838152602001908152602001600020805480602002602001604051908101604052809291908181526020016000905b82821015610f6357600084815260209081902060408051610100810182526008860290920180546001600160a01b03168352600181015493830193909352600283015490820152600382018054919291606084019190610c8a90615243565b80601f0160208091040260200160405190810160405280929190818152602001828054610cb690615243565b8015610d035780601f10610cd857610100808354040283529160200191610d03565b820191906000526020600020905b815481529060010190602001808311610ce657829003601f168201915b50505050508152602001600482018054610d1c90615243565b80601f0160208091040260200160405190810160405280929190818152602001828054610d4890615243565b8015610d955780601f10610d6a57610100808354040283529160200191610d95565b820191906000526020600020905b815481529060010190602001808311610d7857829003601f168201915b50505050508152602001600582018054610dae90615243565b80601f0160208091040260200160405190810160405280929190818152602001828054610dda90615243565b8015610e275780601f10610dfc57610100808354040283529160200191610e27565b820191906000526020600020905b815481529060010190602001808311610e0a57829003601f168201915b50505050508152602001600682018054610e4090615243565b80601f0160208091040260200160405190810160405280929190818152602001828054610e6c90615243565b8015610eb95780601f10610e8e57610100808354040283529160200191610eb9565b820191906000526020600020905b815481529060010190602001808311610e9c57829003601f168201915b50505050508152602001600782018054610ed290615243565b80601f0160208091040260200160405190810160405280929190818152602001828054610efe90615243565b8015610f4b5780601f10610f2057610100808354040283529160200191610f4b565b820191906000526020600020905b815481529060010190602001808311610f2e57829003601f168201915b50505050508152505081526020019060010190610c2b565b505050509050919050565b60056020528160005260406000208181548110610f8a57600080fd5b60009182526020909120600790910201805460018201546002830180546001600160a01b03909316955090935090610fc190615243565b80601f0160208091040260200160405190810160405280929190818152602001828054610fed90615243565b801561103a5780601f1061100f5761010080835404028352916020019161103a565b820191906000526020600020905b81548152906001019060200180831161101d57829003601f168201915b50505050509080600301805461104f90615243565b80601f016020809104026020016040519081016040528092919081815260200182805461107b90615243565b80156110c85780601f1061109d576101008083540402835291602001916110c8565b820191906000526020600020905b8154815290600101906020018083116110ab57829003601f168201915b5050505050908060040180546110dd90615243565b80601f016020809104026020016040519081016040528092919081815260200182805461110990615243565b80156111565780601f1061112b57610100808354040283529160200191611156565b820191906000526020600020905b81548152906001019060200180831161113957829003601f168201915b50505050509080600501805461116b90615243565b80601f016020809104026020016040519081016040528092919081815260200182805461119790615243565b80156111e45780601f106111b9576101008083540402835291602001916111e4565b820191906000526020600020905b8154815290600101906020018083116111c757829003601f168201915b5050505050908060060180546111f990615243565b80601f016020809104026020016040519081016040528092919081815260200182805461122590615243565b80156112725780601f1061124757610100808354040283529160200191611272565b820191906000526020600020905b81548152906001019060200180831161125557829003601f168201915b5050505050905087565b6001600160a01b0381166000908152600560209081526040808320805482518185028101850190935280835260609492939192909184015b82821015610f635760008481526020908190206040805160e0810182526007860290920180546001600160a01b031683526001810154938301939093526002830180549293929184019161130790615243565b80601f016020809104026020016040519081016040528092919081815260200182805461133390615243565b80156113805780601f1061135557610100808354040283529160200191611380565b820191906000526020600020905b81548152906001019060200180831161136357829003601f168201915b5050505050815260200160038201805461139990615243565b80601f01602080910402602001604051908101604052809291908181526020018280546113c590615243565b80156114125780601f106113e757610100808354040283529160200191611412565b820191906000526020600020905b8154815290600101906020018083116113f557829003601f168201915b5050505050815260200160048201805461142b90615243565b80601f016020809104026020016040519081016040528092919081815260200182805461145790615243565b80156114a45780601f10611479576101008083540402835291602001916114a4565b820191906000526020600020905b81548152906001019060200180831161148757829003601f168201915b505050505081526020016005820180546114bd90615243565b80601f01602080910402602001604051908101604052809291908181526020018280546114e990615243565b80156115365780601f1061150b57610100808354040283529160200191611536565b820191906000526020600020905b81548152906001019060200180831161151957829003601f168201915b5050505050815260200160068201805461154f90615243565b80601f016020809104026020016040519081016040528092919081815260200182805461157b90615243565b80156115c85780601f1061159d576101008083540402835291602001916115c8565b820191906000526020600020905b8154815290600101906020018083116115ab57829003601f168201915b505050505081525050815260200190600101906112b4565b60606004805480602002602001604051908101604052809291908181526020016000905b8282101561176457838290600052602060002090600302016040518060600160405290816000820154815260200160018201805461164190615243565b80601f016020809104026020016040519081016040528092919081815260200182805461166d90615243565b80156116ba5780601f1061168f576101008083540402835291602001916116ba565b820191906000526020600020905b81548152906001019060200180831161169d57829003601f168201915b505050505081526020016002820180546116d390615243565b80601f01602080910402602001604051908101604052809291908181526020018280546116ff90615243565b801561174c5780601f106117215761010080835404028352916020019161174c565b820191906000526020600020905b81548152906001019060200180831161172f57829003601f168201915b50505050508152505081526020019060010190611604565b50505050905090565b6000828152600660205260408120905b8154811015611a6f5782828281548110611799576117996151be565b90600052602060002090600802016001015403611a5d57336001600160a01b03168282815481106117cc576117cc6151be565b60009182526020909120600890910201546001600160a01b03161461182c5760405162461bcd60e51b81526020600482015260116024820152703737ba1031b7b6b6b2b73a1037bbb732b960791b60448201526064015b60405180910390fd5b81546001036118c55781805480611845576118456151fd565b60008281526020812060086000199093019283020180546001600160a01b0319168155600181018290556002810182905590611884600383018261410b565b61189260048301600061410b565b6118a060058301600061410b565b6118ae60068301600061410b565b6118bc60078301600061410b565b50509055611a5d565b805b82546118d5906001906151ea565b8110156119d057826118e8826001615384565b815481106118f8576118f86151be565b9060005260206000209060080201838281548110611918576119186151be565b60009182526020909120825460089092020180546001600160a01b0319166001600160a01b03909216919091178155600180830154908201556002808301549082015560038082019061196d90840182615397565b5060048181019061198090840182615397565b5060058181019061199390840182615397565b506006818101906119a690840182615397565b506007818101906119b990840182615397565b5090505080806119c89061522a565b9150506118c7565b50818054806119e1576119e16151fd565b60008281526020812060086000199093019283020180546001600160a01b0319168155600181018290556002810182905590611a20600383018261410b565b611a2e60048301600061410b565b611a3c60058301600061410b565b611a4a60068301600061410b565b611a5860078301600061410b565b505090555b80611a678161522a565b91505061177d565b506000838152600660205260409020815461076b91908390614148565b60008181526007602090815260408220805460018101825581845291832090910180546001600160a01b03191633179055908290528054611ad09082908190614229565b505050565b600a6020528160005260406000208181548110611af157600080fd5b906000526020600020906003020160009150915050806000015490806001018054611b1b90615243565b80601f0160208091040260200160405190810160405280929190818152602001828054611b4790615243565b8015611b945780601f10611b6957610100808354040283529160200191611b94565b820191906000526020600020905b815481529060010190602001808311611b7757829003601f168201915b505050505090806002018054611ba990615243565b80601f0160208091040260200160405190810160405280929190818152602001828054611bd590615243565b8015611c225780601f10611bf757610100808354040283529160200191611c22565b820191906000526020600020905b815481529060010190602001808311611c0557829003601f168201915b5050505050905083565b3360008181526008602090815260408220600d8101805460018101825590845291832090910180546001600160a01b0319166001600160a01b038616179055918152600c909101805491611c7f8361522a565b90915550506001600160a01b03811660008181526008602090815260408220600e8101805460018101825590845291832090910180546001600160a01b03191633179055918152600b909101805491611cd78361522a565b919050555050565b60606003805480602002602001604051908101604052809291908181526020016000905b828210156117645760008481526020908190206040805160e0810182526007860290920180546001600160a01b0316835260018101549383019390935260028301805492939291840191611d5690615243565b80601f0160208091040260200160405190810160405280929190818152602001828054611d8290615243565b8015611dcf5780601f10611da457610100808354040283529160200191611dcf565b820191906000526020600020905b815481529060010190602001808311611db257829003601f168201915b50505050508152602001600382018054611de890615243565b80601f0160208091040260200160405190810160405280929190818152602001828054611e1490615243565b8015611e615780601f10611e3657610100808354040283529160200191611e61565b820191906000526020600020905b815481529060010190602001808311611e4457829003601f168201915b50505050508152602001600482018054611e7a90615243565b80601f0160208091040260200160405190810160405280929190818152602001828054611ea690615243565b8015611ef35780601f10611ec857610100808354040283529160200191611ef3565b820191906000526020600020905b815481529060010190602001808311611ed657829003601f168201915b50505050508152602001600582018054611f0c90615243565b80601f0160208091040260200160405190810160405280929190818152602001828054611f3890615243565b8015611f855780601f10611f5a57610100808354040283529160200191611f85565b820191906000526020600020905b815481529060010190602001808311611f6857829003601f168201915b50505050508152602001600682018054611f9e90615243565b80601f0160208091040260200160405190810160405280929190818152602001828054611fca90615243565b80156120175780601f10611fec57610100808354040283529160200191612017565b820191906000526020600020905b815481529060010190602001808311611ffa57829003601f168201915b50505050508152505081526020019060010190611d03565b6001600160a01b0383166000908152600a6020908152604080832080548251606081018452818152808501888152938101879052600180830184558387529490952085516003830290910190815592519194909390928392909182019061209690826152c5565b50604082015160028201906120ab90826152c5565b505050505050505050565b336000908152600560205260408120905b6003548110156123a35782600382815481106120e5576120e56151be565b9060005260206000209060070201600101540361239157336001600160a01b031660038281548110612119576121196151be565b60009182526020909120600790910201546001600160a01b0316146121725760405162461bcd60e51b815260206004820152600f60248201526e3737ba103a3bb2b2ba1037bbb732b960891b6044820152606401611823565b60035460010361220657600380548061218d5761218d6151fd565b60008281526020812060076000199093019283020180546001600160a01b031916815560018101829055906121c5600283018261410b565b6121d360038301600061410b565b6121e160048301600061410b565b6121ef60058301600061410b565b6121fd60068301600061410b565b50509055612391565b805b600354612217906001906151ea565b81101561230a57600361222b826001615384565b8154811061223b5761223b6151be565b90600052602060002090600702016003828154811061225c5761225c6151be565b60009182526020909120825460079092020180546001600160a01b0319166001600160a01b03909216919091178155600180830154908201556002808201906122a790840182615397565b506003818101906122ba90840182615397565b506004818101906122cd90840182615397565b506005818101906122e090840182615397565b506006818101906122f390840182615397565b5090505080806123029061522a565b915050612208565b50600380548061231c5761231c6151fd565b60008281526020812060076000199093019283020180546001600160a01b03191681556001810182905590612354600283018261410b565b61236260038301600061410b565b61237060048301600061410b565b61237e60058301600061410b565b61238c60068301600061410b565b505090555b8061239b8161522a565b9150506120c7565b5060005b8154811015611ad057828282815481106123c3576123c36151be565b906000526020600020906007020160010154036126a457336001600160a01b03168282815481106123f6576123f66151be565b60009182526020909120600790910201546001600160a01b03161461244f5760405162461bcd60e51b815260206004820152600f60248201526e3737ba103a3bb2b2ba1037bbb732b960891b6044820152606401611823565b81546001036124ff5781805480612468576124686151fd565b60008281526020812060076000199093019283020180546001600160a01b031916815560018101829055906124a0600283018261410b565b6124ae60038301600061410b565b6124bc60048301600061410b565b6124ca60058301600061410b565b6124d860068301600061410b565b5050905533600090815260056020526040902082546124f991908490614030565b506126a4565b805b825461250f906001906151ea565b8110156126005782612522826001615384565b81548110612532576125326151be565b9060005260206000209060070201838281548110612552576125526151be565b60009182526020909120825460079092020180546001600160a01b0319166001600160a01b039092169190911781556001808301549082015560028082019061259d90840182615397565b506003818101906125b090840182615397565b506004818101906125c390840182615397565b506005818101906125d690840182615397565b506006818101906125e990840182615397565b5090505080806125f89061522a565b915050612501565b5081805480612611576126116151fd565b60008281526020812060076000199093019283020180546001600160a01b03191681556001810182905590612649600283018261410b565b61265760038301600061410b565b61266560048301600061410b565b61267360058301600061410b565b61268160068301600061410b565b5050905533600090815260056020526040902082546126a291908490614030565b505b806126ae8161522a565b9150506123a7565b6001600160a01b0381166000908152600a60209081526040808320805482518185028101850190935280835260609492939192909184015b82821015610f6357838290600052602060002090600302016040518060600160405290816000820154815260200160018201805461272b90615243565b80601f016020809104026020016040519081016040528092919081815260200182805461275790615243565b80156127a45780601f10612779576101008083540402835291602001916127a4565b820191906000526020600020905b81548152906001019060200180831161278757829003601f168201915b505050505081526020016002820180546127bd90615243565b80601f01602080910402602001604051908101604052809291908181526020018280546127e990615243565b80156128365780601f1061280b57610100808354040283529160200191612836565b820191906000526020600020905b81548152906001019060200180831161281957829003601f168201915b505050505081525050815260200190600101906126ee565b612856614275565b6001600160a01b03808316600090815260086020908152604091829020825161010080820185528254909516815283519485019093526001810180549394919392850192829082906128a790615243565b80601f01602080910402602001604051908101604052809291908181526020018280546128d390615243565b80156129205780601f106128f557610100808354040283529160200191612920565b820191906000526020600020905b81548152906001019060200180831161290357829003601f168201915b5050505050815260200160018201805461293990615243565b80601f016020809104026020016040519081016040528092919081815260200182805461296590615243565b80156129b25780601f10612987576101008083540402835291602001916129b2565b820191906000526020600020905b81548152906001019060200180831161299557829003601f168201915b505050505081526020016002820180546129cb90615243565b80601f01602080910402602001604051908101604052809291908181526020018280546129f790615243565b8015612a445780601f10612a1957610100808354040283529160200191612a44565b820191906000526020600020905b815481529060010190602001808311612a2757829003601f168201915b5050505050815260200160038201548152602001600482018054612a6790615243565b80601f0160208091040260200160405190810160405280929190818152602001828054612a9390615243565b8015612ae05780601f10612ab557610100808354040283529160200191612ae0565b820191906000526020600020905b815481529060010190602001808311612ac357829003601f168201915b50505050508152602001600582018054612af990615243565b80601f0160208091040260200160405190810160405280929190818152602001828054612b2590615243565b8015612b725780601f10612b4757610100808354040283529160200191612b72565b820191906000526020600020905b815481529060010190602001808311612b5557829003601f168201915b50505050508152602001600682018054612b8b90615243565b80601f0160208091040260200160405190810160405280929190818152602001828054612bb790615243565b8015612c045780601f10612bd957610100808354040283529160200191612c04565b820191906000526020600020905b815481529060010190602001808311612be757829003601f168201915b50505050508152602001600782018054612c1d90615243565b80601f0160208091040260200160405190810160405280929190818152602001828054612c4990615243565b8015612c965780601f10612c6b57610100808354040283529160200191612c96565b820191906000526020600020905b815481529060010190602001808311612c7957829003601f168201915b5050505050815250508152602001600982018054612cb390615243565b80601f0160208091040260200160405190810160405280929190818152602001828054612cdf90615243565b8015612d2c5780601f10612d0157610100808354040283529160200191612d2c565b820191906000526020600020905b815481529060010190602001808311612d0f57829003601f168201915b50505050508152602001600a82018054612d4590615243565b80601f0160208091040260200160405190810160405280929190818152602001828054612d7190615243565b8015612dbe5780601f10612d9357610100808354040283529160200191612dbe565b820191906000526020600020905b815481529060010190602001808311612da157829003601f168201915b50505050508152602001600b8201548152602001600c8201548152602001600d8201805480602002602001604051908101604052809291908181526020018280548015612e3457602002820191906000526020600020905b81546001600160a01b03168152600190910190602001808311612e16575b50505050508152602001600e8201805480602002602001604051908101604052809291908181526020018280548015612e9657602002820191906000526020600020905b81546001600160a01b03168152600190910190602001808311612e78575b5050505050815250509050919050565b6000818152600760205260408120905b815481101561301957336001600160a01b0316828281548110612edb57612edb6151be565b6000918252602090912001546001600160a01b031603613007578154600103612f355781805480612f0e57612f0e6151fd565b600082815260209020810160001990810180546001600160a01b0319169055019055613007565b805b8254612f45906001906151ea565b811015612fd35782612f58826001615384565b81548110612f6857612f686151be565b9060005260206000200160009054906101000a90046001600160a01b0316838281548110612f9857612f986151be565b600091825260209091200180546001600160a01b0319166001600160a01b039290921691909117905580612fcb8161522a565b915050612f37565b5081805480612fe457612fe46151fd565b600082815260209020810160001990810180546001600160a01b03191690550190555b806130118161522a565b915050612eb6565b5060008281526007602052604090208154611ad091908390614229565b60008181526007602090815260409182902080548351818402810184019094528084526060939283018282801561309657602002820191906000526020600020905b81546001600160a01b03168152600190910190602001808311613078575b50505050509050919050565b336000908152600860209081526040909120825181546001600160a01b0319166001600160a01b0390911617815590820151805183929190600183019081906130eb90826152c5565b506020820151600182019061310090826152c5565b506040820151600282019061311590826152c5565b50606082015160038201556080820151600482019061313490826152c5565b5060a0820151600582019061314990826152c5565b5060c0820151600682019061315e90826152c5565b5060e0820151600782019061317390826152c5565b5050506040820151600982019061318a90826152c5565b506060820151600a82019061319f90826152c5565b506080820151600b82015560a0820151600c82015560c082015180516131cf91600d840191602090910190614309565b5060e082015180516131eb91600e840191602090910190614309565b5050600980546001810182556000919091527f6e1540171b6c0c960b71a7020d9f60077f6af931a8bbf590da0223dacf75c7af0180546001600160a01b031916331790555050565b336000908152600860209081526040909120825181546001600160a01b0319166001600160a01b03909116178155908201518051839291906001830190819061327c90826152c5565b506020820151600182019061329190826152c5565b50604082015160028201906132a690826152c5565b5060608201516003820155608082015160048201906132c590826152c5565b5060a082015160058201906132da90826152c5565b5060c082015160068201906132ef90826152c5565b5060e0820151600782019061330490826152c5565b5050506040820151600982019061331b90826152c5565b506060820151600a82019061333090826152c5565b506080820151600b82015560a0820151600c82015560c0820151805161336091600d840191602090910190614309565b5060e0820151805161076b91600e840191602090910190614309565b6009546060906000906001600160401b0381111561339c5761339c614492565b6040519080825280602002602001820160405280156133d557816020015b6133c2614275565b8152602001906001900390816133ba5790505b50905060005b600954811015613a825760086000600983815481106133fc576133fc6151be565b60009182526020808320909101546001600160a01b0390811684528382019490945260409283019091208251610100818101855282549095168152835194850190935260018101805493949193928501928290829061345a90615243565b80601f016020809104026020016040519081016040528092919081815260200182805461348690615243565b80156134d35780601f106134a8576101008083540402835291602001916134d3565b820191906000526020600020905b8154815290600101906020018083116134b657829003601f168201915b505050505081526020016001820180546134ec90615243565b80601f016020809104026020016040519081016040528092919081815260200182805461351890615243565b80156135655780601f1061353a57610100808354040283529160200191613565565b820191906000526020600020905b81548152906001019060200180831161354857829003601f168201915b5050505050815260200160028201805461357e90615243565b80601f01602080910402602001604051908101604052809291908181526020018280546135aa90615243565b80156135f75780601f106135cc576101008083540402835291602001916135f7565b820191906000526020600020905b8154815290600101906020018083116135da57829003601f168201915b505050505081526020016003820154815260200160048201805461361a90615243565b80601f016020809104026020016040519081016040528092919081815260200182805461364690615243565b80156136935780601f1061366857610100808354040283529160200191613693565b820191906000526020600020905b81548152906001019060200180831161367657829003601f168201915b505050505081526020016005820180546136ac90615243565b80601f01602080910402602001604051908101604052809291908181526020018280546136d890615243565b80156137255780601f106136fa57610100808354040283529160200191613725565b820191906000526020600020905b81548152906001019060200180831161370857829003601f168201915b5050505050815260200160068201805461373e90615243565b80601f016020809104026020016040519081016040528092919081815260200182805461376a90615243565b80156137b75780601f1061378c576101008083540402835291602001916137b7565b820191906000526020600020905b81548152906001019060200180831161379a57829003601f168201915b505050505081526020016007820180546137d090615243565b80601f01602080910402602001604051908101604052809291908181526020018280546137fc90615243565b80156138495780601f1061381e57610100808354040283529160200191613849565b820191906000526020600020905b81548152906001019060200180831161382c57829003601f168201915b505050505081525050815260200160098201805461386690615243565b80601f016020809104026020016040519081016040528092919081815260200182805461389290615243565b80156138df5780601f106138b4576101008083540402835291602001916138df565b820191906000526020600020905b8154815290600101906020018083116138c257829003601f168201915b50505050508152602001600a820180546138f890615243565b80601f016020809104026020016040519081016040528092919081815260200182805461392490615243565b80156139715780601f1061394657610100808354040283529160200191613971565b820191906000526020600020905b81548152906001019060200180831161395457829003601f168201915b50505050508152602001600b8201548152602001600c8201548152602001600d82018054806020026020016040519081016040528092919081815260200182805480156139e757602002820191906000526020600020905b81546001600160a01b031681526001909101906020018083116139c9575b50505050508152602001600e8201805480602002602001604051908101604052809291908181526020018280548015613a4957602002820191906000526020600020905b81546001600160a01b03168152600190910190602001808311613a2b575b505050505081525050828281518110613a6457613a646151be565b60200260200101819052508080613a7a9061522a565b9150506133db565b50919050565b600280549081906000613a9a8361522a565b9091555050604080516101008101825233815260208082018481528284018b8152606084018b8152608085018b905260a085018a905260c0850189905260e0850188905260008d81526006855295862080546001808201835582895295909720865160089098020180546001600160a01b0319166001600160a01b039098169790971787559251938601939093555160028501559051919290918391906003820190613b4690826152c5565b5060808201516004820190613b5b90826152c5565b5060a08201516005820190613b7090826152c5565b5060c08201516006820190613b8590826152c5565b5060e08201516007820190613b9a90826152c5565b50505060008981526006602052604090208154613bb991908390614148565b50505050505050505050565b60038181548110613bd557600080fd5b60009182526020909120600790910201805460018201546002830180546001600160a01b039093169450909291610fc190615243565b60048181548110613c1b57600080fd5b60009182526020909120600390910201805460018201805491935090611b1b90615243565b60076020528160005260406000208181548110613c5c57600080fd5b6000918252602090912001546001600160a01b03169150829050565b60066020528160005260406000208181548110613c9457600080fd5b600091825260209091206008909102018054600182015460028301546003840180546001600160a01b0390941696509194509291613cd190615243565b80601f0160208091040260200160405190810160405280929190818152602001828054613cfd90615243565b8015613d4a5780601f10613d1f57610100808354040283529160200191613d4a565b820191906000526020600020905b815481529060010190602001808311613d2d57829003601f168201915b505050505090806004018054613d5f90615243565b80601f0160208091040260200160405190810160405280929190818152602001828054613d8b90615243565b8015613dd85780601f10613dad57610100808354040283529160200191613dd8565b820191906000526020600020905b815481529060010190602001808311613dbb57829003601f168201915b505050505090806005018054613ded90615243565b80601f0160208091040260200160405190810160405280929190818152602001828054613e1990615243565b8015613e665780601f10613e3b57610100808354040283529160200191613e66565b820191906000526020600020905b815481529060010190602001808311613e4957829003601f168201915b505050505090806006018054613e7b90615243565b80601f0160208091040260200160405190810160405280929190818152602001828054613ea790615243565b8015613ef45780601f10613ec957610100808354040283529160200191613ef4565b820191906000526020600020905b815481529060010190602001808311613ed757829003601f168201915b505050505090806007018054613f0990615243565b80601f0160208091040260200160405190810160405280929190818152602001828054613f3590615243565b8015613f825780601f10613f5757610100808354040283529160200191613f82565b820191906000526020600020905b815481529060010190602001808311613f6557829003601f168201915b5050505050905088565b8151815160009184918491908114613faa576000935050505061402a565b60005b8181101561402157828181518110613fc757613fc76151be565b602001015160f81c60f81b6001600160f81b031916848281518110613fee57613fee6151be565b01602001516001600160f81b0319161461400f57600094505050505061402a565b806140198161522a565b915050613fad565b50600193505050505b92915050565b8280548282559060005260206000209060070281019282156140fb5760005260206000209160070282015b828111156140fb57825482546001600160a01b0319166001600160a01b0390911617825560018084015490830155828260028082019061409d90840182615397565b506003818101906140b090840182615397565b506004818101906140c390840182615397565b506005818101906140d690840182615397565b506006818101906140e990840182615397565b5050509160070191906007019061405b565b5061410792915061435e565b5090565b50805461411790615243565b6000825580601f10614127575050565b601f01602090049060005260206000209081019061414591906143cb565b50565b82805482825590600052602060002090600802810192821561421d5760005260206000209160080282015b8281111561421d57825482546001600160a01b0319166001600160a01b03909116178255600180840154908301556002808401549083015582826003808201906141bf90840182615397565b506004818101906141d290840182615397565b506005818101906141e590840182615397565b506006818101906141f890840182615397565b5060078181019061420b90840182615397565b50505091600801919060080190614173565b506141079291506143e0565b8280548282559060005260206000209081019282156142695760005260206000209182015b8281111561426957825482559160010191906001019061424e565b506141079291506143cb565b60405180610100016040528060006001600160a01b031681526020016142d960405180610100016040528060608152602001606081526020016060815260200160008152602001606081526020016060815260200160608152602001606081525090565b81526020016060815260200160608152602001600081526020016000815260200160608152602001606081525090565b828054828255906000526020600020908101928215614269579160200282015b8281111561426957825182546001600160a01b0319166001600160a01b03909116178255602090920191600190910190614329565b808211156141075780546001600160a01b031916815560006001820181905561438a600283018261410b565b61439860038301600061410b565b6143a660048301600061410b565b6143b460058301600061410b565b6143c260068301600061410b565b5060070161435e565b5b8082111561410757600081556001016143cc565b808211156141075780546001600160a01b031916815560006001820181905560028201819055614413600383018261410b565b61442160048301600061410b565b61442f60058301600061410b565b61443d60068301600061410b565b61444b60078301600061410b565b506008016143e0565b80356001600160a01b038116811461446b57600080fd5b919050565b60006020828403121561448257600080fd5b61448b82614454565b9392505050565b634e487b7160e01b600052604160045260246000fd5b60405161010081016001600160401b03811182821017156144cb576144cb614492565b60405290565b604051601f8201601f191681016001600160401b03811182821017156144f9576144f9614492565b604052919050565b600082601f83011261451257600080fd5b81356001600160401b0381111561452b5761452b614492565b61453e601f8201601f19166020016144d1565b81815284602083860101111561455357600080fd5b816020850160208301376000918101602001919091529392505050565b6000806040838503121561458357600080fd5b82356001600160401b038082111561459a57600080fd5b6145a686838701614501565b935060208501359150808211156145bc57600080fd5b506145c985828601614501565b9150509250929050565b600080600080600060a086880312156145eb57600080fd5b85356001600160401b038082111561460257600080fd5b61460e89838a01614501565b9650602088013591508082111561462457600080fd5b61463089838a01614501565b9550604088013591508082111561464657600080fd5b61465289838a01614501565b9450606088013591508082111561466857600080fd5b61467489838a01614501565b9350608088013591508082111561468a57600080fd5b5061469788828901614501565b9150509295509295909350565b6000602082840312156146b657600080fd5b5035919050565b6000815180845260005b818110156146e3576020818501810151868301820152016146c7565b506000602082860101526020601f19601f83011685010191505092915050565b60006020808301818452808551808352604092508286019150828160051b87010184880160005b838110156147f757888303603f19018552815180516001600160a01b03168452610100888201518986015287820151888601526060808301518282880152614774838801826146bd565b925050506080808301518683038288015261478f83826146bd565b9250505060a080830151868303828801526147aa83826146bd565b9250505060c080830151868303828801526147c583826146bd565b9250505060e080830151925085820381870152506147e381836146bd565b96890196945050509086019060010161472a565b509098975050505050505050565b6000806040838503121561481857600080fd5b61482183614454565b946020939093013593505050565b60018060a01b038816815286602082015260e06040820152600061485660e08301886146bd565b828103606084015261486881886146bd565b9050828103608084015261487c81876146bd565b905082810360a084015261489081866146bd565b905082810360c08401526148a481856146bd565b9a9950505050505050505050565b60006020808301818452808551808352604092508286019150828160051b87010184880160005b838110156147f757888303603f19018552815180516001600160a01b0316845287810151888501528681015160e08886018190529061491a828701826146bd565b9150506060808301518683038288015261493483826146bd565b925050506080808301518683038288015261494f83826146bd565b9250505060a0808301518683038288015261496a83826146bd565b9250505060c0808301519250858203818701525061498881836146bd565b9689019694505050908601906001016148d9565b8051825260006020820151606060208501526149bb60608501826146bd565b9050604083015184820360408601526149d482826146bd565b95945050505050565b6000602080830181845280855180835260408601915060408160051b870101925083870160005b82811015614a3257603f19888603018452614a2085835161499c565b94509285019290850190600101614a04565b5092979650505050505050565b60008060408385031215614a5257600080fd5b50508035926020909101359150565b838152606060208201526000614a7a60608301856146bd565b8281036040840152614a8c81856146bd565b9695505050505050565b600080600060608486031215614aab57600080fd5b614ab484614454565b925060208401356001600160401b0380821115614ad057600080fd5b614adc87838801614501565b93506040860135915080821115614af257600080fd5b50614aff86828701614501565b9150509250925092565b6000602080830181845280855180835260408601915060408160051b870101925083870160005b82811015614a3257603f19888603018452614b4c85835161499c565b94509285019290850190600101614b30565b60006101008251818552614b74828601826146bd565b91505060208301518482036020860152614b8e82826146bd565b91505060408301518482036040860152614ba882826146bd565b9150506060830151606085015260808301518482036080860152614bcc82826146bd565b91505060a083015184820360a0860152614be682826146bd565b91505060c083015184820360c0860152614c0082826146bd565b91505060e083015184820360e08601526149d482826146bd565b600081518084526020808501945080840160005b83811015614c535781516001600160a01b031687529582019590820190600101614c2e565b509495945050505050565b80516001600160a01b0316825260006101006020830151816020860152614c8782860182614b5e565b91505060408301518482036040860152614ca182826146bd565b91505060608301518482036060860152614cbb82826146bd565b9150506080830151608085015260a083015160a085015260c083015184820360c0860152614ce98282614c1a565b91505060e083015184820360e08601526149d48282614c1a565b60208152600061448b6020830184614c5e565b60208152600061448b6020830184614c1a565b60006101008284031215614d3c57600080fd5b614d446144a8565b905081356001600160401b0380821115614d5d57600080fd5b614d6985838601614501565b83526020840135915080821115614d7f57600080fd5b614d8b85838601614501565b60208401526040840135915080821115614da457600080fd5b614db085838601614501565b6040840152606084013560608401526080840135915080821115614dd357600080fd5b614ddf85838601614501565b608084015260a0840135915080821115614df857600080fd5b614e0485838601614501565b60a084015260c0840135915080821115614e1d57600080fd5b614e2985838601614501565b60c084015260e0840135915080821115614e4257600080fd5b50614e4f84828501614501565b60e08301525092915050565b600082601f830112614e6c57600080fd5b813560206001600160401b03821115614e8757614e87614492565b8160051b614e968282016144d1565b9283528481018201928281019087851115614eb057600080fd5b83870192505b84831015614ed657614ec783614454565b82529183019190830190614eb6565b979650505050505050565b600060208284031215614ef357600080fd5b81356001600160401b0380821115614f0a57600080fd5b908301906101008286031215614f1f57600080fd5b614f276144a8565b614f3083614454565b8152602083013582811115614f4457600080fd5b614f5087828601614d29565b602083015250604083013582811115614f6857600080fd5b614f7487828601614501565b604083015250606083013582811115614f8c57600080fd5b614f9887828601614501565b6060830152506080830135608082015260a083013560a082015260c083013582811115614fc457600080fd5b614fd087828601614e5b565b60c08301525060e083013582811115614fe857600080fd5b614ff487828601614e5b565b60e08301525095945050505050565b6000602080830181845280855180835260408601915060408160051b870101925083870160005b82811015614a3257603f19888603018452615046858351614c5e565b9450928501929085019060010161502a565b60008060008060008060c0878903121561507157600080fd5b8635955060208701356001600160401b038082111561508f57600080fd5b61509b8a838b01614501565b965060408901359150808211156150b157600080fd5b6150bd8a838b01614501565b955060608901359150808211156150d357600080fd5b6150df8a838b01614501565b945060808901359150808211156150f557600080fd5b6151018a838b01614501565b935060a089013591508082111561511757600080fd5b5061512489828a01614501565b9150509295509295509295565b600061010060018060a01b038b16835289602084015288604084015280606084015261515f818401896146bd565b9050828103608084015261517381886146bd565b905082810360a084015261518781876146bd565b905082810360c084015261519b81866146bd565b905082810360e08401526151af81856146bd565b9b9a5050505050505050505050565b634e487b7160e01b600052603260045260246000fd5b634e487b7160e01b600052601160045260246000fd5b8181038181111561402a5761402a6151d4565b634e487b7160e01b600052603160045260246000fd5b600081615222576152226151d4565b506000190190565b60006001820161523c5761523c6151d4565b5060010190565b600181811c9082168061525757607f821691505b602082108103613a8257634e487b7160e01b600052602260045260246000fd5b601f821115611ad057600081815260208120601f850160051c8101602086101561529e5750805b601f850160051c820191505b818110156152bd578281556001016152aa565b505050505050565b81516001600160401b038111156152de576152de614492565b6152f2816152ec8454615243565b84615277565b602080601f831160018114615327576000841561530f5750858301515b600019600386901b1c1916600185901b1785556152bd565b600085815260208120601f198616915b8281101561535657888601518255948401946001909101908401615337565b50858210156153745787850151600019600388901b60f8161c191681555b5050505050600190811b01905550565b8082018082111561402a5761402a6151d4565b8181036153a2575050565b6153ac8254615243565b6001600160401b038111156153c3576153c3614492565b6153d1816152ec8454615243565b6000601f82116001811461540557600083156153ed5750848201545b600019600385901b1c1916600184901b178455610987565b600085815260209020601f19841690600086815260209020845b8381101561543f578286015482556001958601959091019060200161541f565b50858310156153745793015460001960f8600387901b161c19169092555050600190811b0190555056fea2646970667358221220dafa39cdf6695617ba3033320779fb6b51dad6617bbb792d93134e21a9d2b88d64736f6c63430008130033",
  "immutableReferences": {},
  "source": "// SPDX-License-Identifier: UNLICENSED\r\npragma solidity ^0.8.17;\r\n\r\ncontract Decentra {\r\n    address public owner;\r\n   \r\n\r\n    constructor() {\r\n        owner = msg.sender;\r\n    }\r\n\r\n    struct Profile {\r\n        string name;\r\n        string avatar;\r\n        string banner;\r\n        uint256 age;\r\n        string gender;\r\n        string status;\r\n        string country;\r\n        string city;\r\n    }\r\n    struct user {\r\n        address userAddress;\r\n        Profile profile;\r\n        string occupation;\r\n        string date_joined;\r\n        uint256 followers;\r\n        uint256 following;\r\n        address[] user_following;\r\n        address[] user_followed;\r\n    }\r\n\r\n    struct Tweet{\r\n        address tweetOwner;\r\n        uint256 t_id;     \r\n        string username;\r\n        string userAt;\r\n        string date;\r\n        string text;\r\n        string cId;\r\n        \r\n\r\n    }\r\n\r\n    struct Comment{\r\n        address commentOwner;\r\n        uint256 c_id;\r\n        uint256 p_id;\r\n        string username;\r\n        string userAt;\r\n        string date;\r\n        string text;\r\n        string cId;\r\n        \r\n        \r\n    }\r\n\r\n    struct Trend{\r\n        uint256 t_id;\r\n        string t_name;\r\n        string t_location;\r\n        \r\n    }\r\n    \r\n    struct Notification {\r\n        uint256 id;\r\n        string text;\r\n        string image;\r\n    }\r\n\r\n    mapping (uint => uint) public mentions;\r\n    uint256 tweetId=1000;\r\n    Tweet[] public tweets;\r\n    Trend[] public trends;\r\n    mapping (address => Tweet[]) public userTweets;\r\n    mapping (uint => Comment[]) public comments; \r\n    mapping (uint => address[]) public liked;\r\n    \r\n\r\n    mapping (address => user) Users;\r\n    address[] private userAddresses;\r\n    mapping(address => Notification[]) public userNotifications;\r\n\r\n    // function addUser (\r\n    //     Profile memory _profile,\r\n    //     string memory _occupation,\r\n    //     string memory _date_joined,\r\n    //     uint256 _followers,\r\n    //     uint256 _following,\r\n    //     uint256[] memory _user_following,\r\n    //     uint256[] memory _user_followed\r\n    // ) public {\r\n    //     user memory newUser = user(\r\n    //     _profile,\r\n    //     _occupation,\r\n    //     _date_joined,\r\n    //     _followers,\r\n    //     _following,\r\n    //     _user_following,\r\n    //     _user_followed\r\n    // );\r\n\r\n    // Users[msg.sender] = newUser;\r\n    // }\r\n\r\n    // function updateUser (\r\n    //     Profile memory _profile,\r\n    //     string memory _occupation\r\n    // ) public {\r\n    //     user storage userData = Users[msg.sender];\r\n    //     userData.profile = _profile;\r\n    //     userData.occupation = _occupation;\r\n    // }\r\n\r\n    function stringsEquals(string memory s1, string memory s2) private pure returns (bool) {\r\n        bytes memory b1 = bytes(s1);\r\n        bytes memory b2 = bytes(s2);\r\n        uint256 l1 = b1.length;\r\n        if (l1 != b2.length) return false;\r\n        for (uint256 i=0; i<l1; i++) {\r\n            if (b1[i] != b2[i]) return false;\r\n        }\r\n        return true;\r\n}\r\n\r\n    function addLike(uint _id) public {\r\n        address[] storage temp = liked[_id];\r\n        temp.push(msg.sender);\r\n        liked[_id]=temp;\r\n    }\r\n    function removeLike(uint _id) public{\r\n        address[] storage temp =liked[_id];\r\n            for(uint i=0; i<temp.length; i++)\r\n            {\r\n                if(temp[i] == msg.sender){\r\n                    \r\n                    if(temp.length==1){\r\n                        temp.pop();\r\n                    }\r\n                    else{\r\n                        for(uint j=i; j<temp.length-1;j++){\r\n                            temp[j]=temp[j+1];\r\n                        }\r\n                        temp.pop();\r\n                    }\r\n                }\r\n            }\r\n        liked[_id]=temp;\r\n\r\n    }\r\n    function getlikes(uint _id) public view returns(address[] memory){\r\n        return liked[_id];\r\n    }\r\n    \r\n\r\n    function createUser(user memory _user) public {\r\n        Users[msg.sender] = _user;\r\n        userAddresses.push(msg.sender);\r\n    }\r\n\r\n    function updateUser(user memory _user) public {\r\n     Users[msg.sender] = _user;\r\n    }\r\n\r\n    function getUser(address userAddress) public view returns (user memory) {\r\n        return Users[userAddress];\r\n    }\r\n\r\n    function getAllUsers() public view returns (user[] memory) {\r\n        user[] memory allUsers = new user[](userAddresses.length);\r\n        for (uint256 i = 0; i < userAddresses.length; i++) {\r\n            allUsers[i] = Users[userAddresses[i]];\r\n        }\r\n        return allUsers;\r\n    }\r\n\r\n    // Follow Logic\r\n    function follow(address userAddress) public {\r\n        Users[msg.sender].user_following.push(userAddress);\r\n        Users[msg.sender].following++;\r\n        Users[userAddress].user_followed.push(msg.sender);\r\n        Users[userAddress].followers++;\r\n    }\r\n\r\n    function unfollow(address userAddress) public {\r\n        address[] storage following = Users[msg.sender].user_following;\r\n        address[] storage followed = Users[userAddress].user_followed;\r\n        for (uint256 i = 0; i < following.length; i++) {\r\n            if (following[i] == userAddress) {\r\n                if (i != following.length - 1) {\r\n                    // Replace the element to be removed with the last element\r\n                    following[i] = following[following.length - 1];\r\n                }\r\n                // Remove the last element\r\n                following.pop();\r\n                Users[msg.sender].following--;\r\n                break; // Exit the loop once the user is found and removed\r\n            }\r\n        }\r\n\r\n        for (uint256 i = 0; i < followed.length; i++) {\r\n            if (followed[i] == msg.sender) {\r\n                if (i != followed.length - 1) {\r\n                    // Replace the element to be removed with the last element\r\n                    followed[i] = followed[followed.length - 1];\r\n                }\r\n                // Remove the last element\r\n                followed.pop();\r\n                Users[userAddress].followers--;\r\n                break; // Exit the loop once the follower is found and removed\r\n            }\r\n        }\r\n    }\r\n\r\n    //Functions for Tweets\r\n    function addTweet(string memory _username, string memory _userAt, string memory _date, string memory _text, string memory _cId) public {\r\n        uint id =tweetId;\r\n        tweetId++;\r\n        tweets.push(Tweet(msg.sender ,id, _username, _userAt, _date, _text, _cId));\r\n        \r\n        Tweet[] storage userSpecificTweets= userTweets[msg.sender];\r\n        userSpecificTweets.push(Tweet(msg.sender ,id, _username, _userAt, _date, _text, _cId));\r\n        \r\n        userTweets[msg.sender]=userSpecificTweets;\r\n    }\r\n\r\n    function getAllTweets() public view returns(Tweet[] memory){\r\n        return tweets;\r\n    }\r\n\r\n    function getUserTweets(address _user) public view returns(Tweet[] memory){\r\n        return userTweets[_user];\r\n    }\r\n\r\n    function deleteTweet(uint id) public {\r\n        Tweet[] storage userSpecificTweets = userTweets[msg.sender];\r\n        for(uint i=0; i<tweets.length; i++)\r\n        {\r\n            if(tweets[i].t_id == id){\r\n                require(tweets[i].tweetOwner == msg.sender, \"not tweet owner\");\r\n                if(tweets.length==1){\r\n                    tweets.pop();\r\n                }\r\n                else{\r\n                    for(uint j=i; j<tweets.length-1;j++){\r\n                        tweets[j]=tweets[j+1];\r\n                    }\r\n                    tweets.pop();\r\n                }\r\n            }\r\n        }\r\n        for (uint i=0;i<userSpecificTweets.length;i++){\r\n            if(userSpecificTweets[i].t_id==id){\r\n                require(userSpecificTweets[i].tweetOwner == msg.sender, \"not tweet owner\");\r\n                if(userSpecificTweets.length==1){\r\n                    userSpecificTweets.pop();\r\n                    userTweets[msg.sender]=userSpecificTweets;\r\n                }\r\n                else{\r\n                    for(uint j=i; j<userSpecificTweets.length-1;j++){\r\n                    userSpecificTweets[j]=userSpecificTweets[j+1];\r\n                    }\r\n                    userSpecificTweets.pop();\r\n                    userTweets[msg.sender]=userSpecificTweets;\r\n                }\r\n                \r\n            }\r\n        }\r\n    }\r\n    //Functions for Comments\r\n    function addComment(uint p_id, string memory _username, string memory _userAt, string memory _date, string memory _text, string memory _cId) public {\r\n        uint id=tweetId;\r\n        tweetId++;\r\n        Comment memory cmt= Comment(msg.sender, id, p_id, _username, _userAt, _date, _text, _cId);\r\n        Comment[] storage new_cmts =comments[p_id];\r\n        new_cmts.push(cmt); \r\n        comments[p_id] = new_cmts;\r\n    }\r\n    function getComments(uint p_id) public view returns(Comment[] memory){\r\n        return comments[p_id];\r\n    }\r\n    function deleteComment(uint p_id, uint id) public {\r\n        Comment[] storage temp = comments[p_id];\r\n\r\n            for(uint i=0; i<temp.length; i++)\r\n            {\r\n                if(temp[i].c_id == id){\r\n                    require(temp[i].commentOwner == msg.sender, \"not comment owner\");\r\n                    if(temp.length==1){\r\n                        temp.pop();\r\n                    }\r\n                    else{\r\n                        for(uint j=i; j<temp.length-1;j++){\r\n                            temp[j]=temp[j+1];\r\n                        }\r\n                        temp.pop();\r\n                    }\r\n                }\r\n            }\r\n        comments[p_id]=temp;\r\n    }\r\n    //Functions for Trends\r\n    function addTrend(string memory _name, string memory _location) public  {\r\n        uint id = tweetId;\r\n        bool exists =false;\r\n        uint tempMentions;\r\n       \r\n        for(uint i=0;i<trends.length;i++){\r\n            if(stringsEquals(trends[i].t_name, _name)){\r\n                exists = true;\r\n                id=trends[i].t_id;\r\n                break;\r\n            }\r\n        }\r\n       \r\n       if(exists){\r\n            tempMentions=mentions[id];\r\n            tempMentions++;\r\n            mentions[id]=tempMentions;\r\n        }else{\r\n            tweetId++;\r\n            trends.push(Trend(id,_name,_location));\r\n            mentions[id]=1;\r\n        }\r\n        \r\n    }\r\n   \r\n    function getTrends() public view returns(Trend[] memory){\r\n        return trends;\r\n    }\r\n    function getMentions(uint _id) public view returns(uint){\r\n        return mentions[_id];\r\n    }\r\n    // Function to add a new notification\r\n    function addNotification(address _userAddress, string memory _text, string memory _image) public {\r\n        Notification[] storage notifications = userNotifications[_userAddress];\r\n        uint256 notificationId = notifications.length;\r\n        Notification memory newNotification = Notification(notificationId, _text, _image);\r\n        notifications.push(newNotification);\r\n    }\r\n\r\n    // Function to retrieve a user's notifications\r\n    function getUserNotifications(address _userAddress) public view returns (Notification[] memory) {\r\n        return userNotifications[_userAddress];\r\n    }\r\n\r\n    \r\n}   ",
  "sourcePath": "C:\\Users\\hamza\\OneDrive\\Desktop\\8th Semester\\FYP\\fyp the return\\decentra\\contracts\\Decentra.sol",
  "compiler": {
    "name": "solc",
    "version": "0.8.19+commit.7dd6d404.Emscripten.clang"
  },
  "schemaVersion": "3.4.14",
  "updatedAt": "2023-08-01T06:14:50.306Z",
  "networkType": "ethereum",
  "devdoc": {
    "kind": "dev",
    "methods": {},
    "version": 1
  },
  "userdoc": {
    "kind": "user",
    "methods": {},
    "version": 1
  }
}