{
  "contractName": "Decentra",
  "abi": [
    {
      "inputs": [],
      "stateMutability": "nonpayable",
      "type": "constructor"
    },
    {
      "inputs": [],
      "name": "owner",
      "outputs": [
        {
          "internalType": "address",
          "name": "",
          "type": "address"
        }
      ],
      "stateMutability": "view",
      "type": "function",
      "constant": true
    },
    {
      "inputs": [
        {
          "internalType": "address",
          "name": "",
          "type": "address"
        },
        {
          "internalType": "uint256",
          "name": "",
          "type": "uint256"
        }
      ],
      "name": "userNotifications",
      "outputs": [
        {
          "internalType": "uint256",
          "name": "id",
          "type": "uint256"
        },
        {
          "internalType": "string",
          "name": "text",
          "type": "string"
        },
        {
          "internalType": "string",
          "name": "image",
          "type": "string"
        }
      ],
      "stateMutability": "view",
      "type": "function",
      "constant": true
    },
    {
      "inputs": [
        {
          "components": [
            {
              "internalType": "address",
              "name": "userAddress",
              "type": "address"
            },
            {
              "components": [
                {
                  "internalType": "string",
                  "name": "name",
                  "type": "string"
                },
                {
                  "internalType": "string",
                  "name": "avatar",
                  "type": "string"
                },
                {
                  "internalType": "string",
                  "name": "banner",
                  "type": "string"
                },
                {
                  "internalType": "uint256",
                  "name": "age",
                  "type": "uint256"
                },
                {
                  "internalType": "string",
                  "name": "gender",
                  "type": "string"
                },
                {
                  "internalType": "string",
                  "name": "status",
                  "type": "string"
                },
                {
                  "internalType": "string",
                  "name": "country",
                  "type": "string"
                },
                {
                  "internalType": "string",
                  "name": "city",
                  "type": "string"
                }
              ],
              "internalType": "struct Decentra.Profile",
              "name": "profile",
              "type": "tuple"
            },
            {
              "internalType": "string",
              "name": "occupation",
              "type": "string"
            },
            {
              "internalType": "string",
              "name": "date_joined",
              "type": "string"
            },
            {
              "internalType": "uint256",
              "name": "followers",
              "type": "uint256"
            },
            {
              "internalType": "uint256",
              "name": "following",
              "type": "uint256"
            },
            {
              "internalType": "address[]",
              "name": "user_following",
              "type": "address[]"
            },
            {
              "internalType": "address[]",
              "name": "user_followed",
              "type": "address[]"
            }
          ],
          "internalType": "struct Decentra.user",
          "name": "_user",
          "type": "tuple"
        }
      ],
      "name": "createUser",
      "outputs": [],
      "stateMutability": "nonpayable",
      "type": "function"
    },
    {
      "inputs": [
        {
          "components": [
            {
              "internalType": "address",
              "name": "userAddress",
              "type": "address"
            },
            {
              "components": [
                {
                  "internalType": "string",
                  "name": "name",
                  "type": "string"
                },
                {
                  "internalType": "string",
                  "name": "avatar",
                  "type": "string"
                },
                {
                  "internalType": "string",
                  "name": "banner",
                  "type": "string"
                },
                {
                  "internalType": "uint256",
                  "name": "age",
                  "type": "uint256"
                },
                {
                  "internalType": "string",
                  "name": "gender",
                  "type": "string"
                },
                {
                  "internalType": "string",
                  "name": "status",
                  "type": "string"
                },
                {
                  "internalType": "string",
                  "name": "country",
                  "type": "string"
                },
                {
                  "internalType": "string",
                  "name": "city",
                  "type": "string"
                }
              ],
              "internalType": "struct Decentra.Profile",
              "name": "profile",
              "type": "tuple"
            },
            {
              "internalType": "string",
              "name": "occupation",
              "type": "string"
            },
            {
              "internalType": "string",
              "name": "date_joined",
              "type": "string"
            },
            {
              "internalType": "uint256",
              "name": "followers",
              "type": "uint256"
            },
            {
              "internalType": "uint256",
              "name": "following",
              "type": "uint256"
            },
            {
              "internalType": "address[]",
              "name": "user_following",
              "type": "address[]"
            },
            {
              "internalType": "address[]",
              "name": "user_followed",
              "type": "address[]"
            }
          ],
          "internalType": "struct Decentra.user",
          "name": "_user",
          "type": "tuple"
        }
      ],
      "name": "updateUser",
      "outputs": [],
      "stateMutability": "nonpayable",
      "type": "function"
    },
    {
      "inputs": [
        {
          "internalType": "address",
          "name": "userAddress",
          "type": "address"
        }
      ],
      "name": "getUser",
      "outputs": [
        {
          "components": [
            {
              "internalType": "address",
              "name": "userAddress",
              "type": "address"
            },
            {
              "components": [
                {
                  "internalType": "string",
                  "name": "name",
                  "type": "string"
                },
                {
                  "internalType": "string",
                  "name": "avatar",
                  "type": "string"
                },
                {
                  "internalType": "string",
                  "name": "banner",
                  "type": "string"
                },
                {
                  "internalType": "uint256",
                  "name": "age",
                  "type": "uint256"
                },
                {
                  "internalType": "string",
                  "name": "gender",
                  "type": "string"
                },
                {
                  "internalType": "string",
                  "name": "status",
                  "type": "string"
                },
                {
                  "internalType": "string",
                  "name": "country",
                  "type": "string"
                },
                {
                  "internalType": "string",
                  "name": "city",
                  "type": "string"
                }
              ],
              "internalType": "struct Decentra.Profile",
              "name": "profile",
              "type": "tuple"
            },
            {
              "internalType": "string",
              "name": "occupation",
              "type": "string"
            },
            {
              "internalType": "string",
              "name": "date_joined",
              "type": "string"
            },
            {
              "internalType": "uint256",
              "name": "followers",
              "type": "uint256"
            },
            {
              "internalType": "uint256",
              "name": "following",
              "type": "uint256"
            },
            {
              "internalType": "address[]",
              "name": "user_following",
              "type": "address[]"
            },
            {
              "internalType": "address[]",
              "name": "user_followed",
              "type": "address[]"
            }
          ],
          "internalType": "struct Decentra.user",
          "name": "",
          "type": "tuple"
        }
      ],
      "stateMutability": "view",
      "type": "function",
      "constant": true
    },
    {
      "inputs": [],
      "name": "getAllUsers",
      "outputs": [
        {
          "components": [
            {
              "internalType": "address",
              "name": "userAddress",
              "type": "address"
            },
            {
              "components": [
                {
                  "internalType": "string",
                  "name": "name",
                  "type": "string"
                },
                {
                  "internalType": "string",
                  "name": "avatar",
                  "type": "string"
                },
                {
                  "internalType": "string",
                  "name": "banner",
                  "type": "string"
                },
                {
                  "internalType": "uint256",
                  "name": "age",
                  "type": "uint256"
                },
                {
                  "internalType": "string",
                  "name": "gender",
                  "type": "string"
                },
                {
                  "internalType": "string",
                  "name": "status",
                  "type": "string"
                },
                {
                  "internalType": "string",
                  "name": "country",
                  "type": "string"
                },
                {
                  "internalType": "string",
                  "name": "city",
                  "type": "string"
                }
              ],
              "internalType": "struct Decentra.Profile",
              "name": "profile",
              "type": "tuple"
            },
            {
              "internalType": "string",
              "name": "occupation",
              "type": "string"
            },
            {
              "internalType": "string",
              "name": "date_joined",
              "type": "string"
            },
            {
              "internalType": "uint256",
              "name": "followers",
              "type": "uint256"
            },
            {
              "internalType": "uint256",
              "name": "following",
              "type": "uint256"
            },
            {
              "internalType": "address[]",
              "name": "user_following",
              "type": "address[]"
            },
            {
              "internalType": "address[]",
              "name": "user_followed",
              "type": "address[]"
            }
          ],
          "internalType": "struct Decentra.user[]",
          "name": "",
          "type": "tuple[]"
        }
      ],
      "stateMutability": "view",
      "type": "function",
      "constant": true
    },
    {
      "inputs": [
        {
          "internalType": "address",
          "name": "userAddress",
          "type": "address"
        }
      ],
      "name": "follow",
      "outputs": [],
      "stateMutability": "nonpayable",
      "type": "function"
    },
    {
      "inputs": [
        {
          "internalType": "address",
          "name": "userAddress",
          "type": "address"
        }
      ],
      "name": "unfollow",
      "outputs": [],
      "stateMutability": "nonpayable",
      "type": "function"
    },
    {
      "inputs": [
        {
          "internalType": "address",
          "name": "_userAddress",
          "type": "address"
        },
        {
          "internalType": "string",
          "name": "_text",
          "type": "string"
        },
        {
          "internalType": "string",
          "name": "_image",
          "type": "string"
        }
      ],
      "name": "addNotification",
      "outputs": [],
      "stateMutability": "nonpayable",
      "type": "function"
    },
    {
      "inputs": [
        {
          "internalType": "address",
          "name": "_userAddress",
          "type": "address"
        }
      ],
      "name": "getUserNotifications",
      "outputs": [
        {
          "components": [
            {
              "internalType": "uint256",
              "name": "id",
              "type": "uint256"
            },
            {
              "internalType": "string",
              "name": "text",
              "type": "string"
            },
            {
              "internalType": "string",
              "name": "image",
              "type": "string"
            }
          ],
          "internalType": "struct Decentra.Notification[]",
          "name": "",
          "type": "tuple[]"
        }
      ],
      "stateMutability": "view",
      "type": "function",
      "constant": true
    }
  ],
  "bytecode": "0x608060405234801561001057600080fd5b50336000806101000a81548173ffffffffffffffffffffffffffffffffffffffff021916908373ffffffffffffffffffffffffffffffffffffffff160217905550613130806100606000396000f3fe608060405234801561001057600080fd5b506004361061009e5760003560e01c80636f77926b116100665780636f77926b146101595780638da5cb5b14610189578063b4dd1bfd146101a7578063dc77fe50146101c3578063e2842d79146101df5761009e565b8063015a4ead146100a357806338c91910146100bf5780634dbf27cc146100f157806355abc23b1461010d57806357f3135814610129575b600080fd5b6100bd60048036038101906100b89190611fd9565b6101fd565b005b6100d960048036038101906100d4919061203c565b6105cc565b6040516100e89392919061211b565b60405180910390f35b61010b60048036038101906101069190611fd9565b610723565b005b61012760048036038101906101229190612295565b61086c565b005b610143600480360381019061013e9190611fd9565b610942565b6040516101509190612492565b60405180910390f35b610173600480360381019061016e9190611fd9565b610b0e565b6040516101809190612718565b60405180910390f35b61019161122f565b60405161019e9190612749565b60405180910390f35b6101c160048036038101906101bc9190612b1a565b611253565b005b6101dd60048036038101906101d89190612b1a565b61146c565b005b6101e7611622565b6040516101f49190612cf1565b60405180910390f35b6000600160003373ffffffffffffffffffffffffffffffffffffffff1673ffffffffffffffffffffffffffffffffffffffff168152602001908152602001600020600d0190506000600160008473ffffffffffffffffffffffffffffffffffffffff1673ffffffffffffffffffffffffffffffffffffffff168152602001908152602001600020600e01905060005b8280549050811015610427578373ffffffffffffffffffffffffffffffffffffffff168382815481106102c2576102c1612d13565b5b9060005260206000200160009054906101000a900473ffffffffffffffffffffffffffffffffffffffff1673ffffffffffffffffffffffffffffffffffffffff160361041457600183805490506103199190612d71565b81146103c95782600184805490506103319190612d71565b8154811061034257610341612d13565b5b9060005260206000200160009054906101000a900473ffffffffffffffffffffffffffffffffffffffff168382815481106103805761037f612d13565b5b9060005260206000200160006101000a81548173ffffffffffffffffffffffffffffffffffffffff021916908373ffffffffffffffffffffffffffffffffffffffff1602179055505b828054806103da576103d9612da5565b5b6001900381819060005260206000200160006101000a81549073ffffffffffffffffffffffffffffffffffffffff02191690559055610427565b808061041f90612dd4565b91505061028c565b5060005b81805490508110156105c6573373ffffffffffffffffffffffffffffffffffffffff1682828154811061046157610460612d13565b5b9060005260206000200160009054906101000a900473ffffffffffffffffffffffffffffffffffffffff1673ffffffffffffffffffffffffffffffffffffffff16036105b357600182805490506104b89190612d71565b81146105685781600183805490506104d09190612d71565b815481106104e1576104e0612d13565b5b9060005260206000200160009054906101000a900473ffffffffffffffffffffffffffffffffffffffff1682828154811061051f5761051e612d13565b5b9060005260206000200160006101000a81548173ffffffffffffffffffffffffffffffffffffffff021916908373ffffffffffffffffffffffffffffffffffffffff1602179055505b8180548061057957610578612da5565b5b6001900381819060005260206000200160006101000a81549073ffffffffffffffffffffffffffffffffffffffff021916905590556105c6565b80806105be90612dd4565b91505061042b565b50505050565b600360205281600052604060002081815481106105e857600080fd5b90600052602060002090600302016000915091505080600001549080600101805461061290612e4b565b80601f016020809104026020016040519081016040528092919081815260200182805461063e90612e4b565b801561068b5780601f106106605761010080835404028352916020019161068b565b820191906000526020600020905b81548152906001019060200180831161066e57829003601f168201915b5050505050908060020180546106a090612e4b565b80601f01602080910402602001604051908101604052809291908181526020018280546106cc90612e4b565b80156107195780601f106106ee57610100808354040283529160200191610719565b820191906000526020600020905b8154815290600101906020018083116106fc57829003601f168201915b5050505050905083565b600160003373ffffffffffffffffffffffffffffffffffffffff1673ffffffffffffffffffffffffffffffffffffffff168152602001908152602001600020600d01819080600181540180825580915050600190039060005260206000200160009091909190916101000a81548173ffffffffffffffffffffffffffffffffffffffff021916908373ffffffffffffffffffffffffffffffffffffffff160217905550600160008273ffffffffffffffffffffffffffffffffffffffff1673ffffffffffffffffffffffffffffffffffffffff168152602001908152602001600020600e01339080600181540180825580915050600190039060005260206000200160009091909190916101000a81548173ffffffffffffffffffffffffffffffffffffffff021916908373ffffffffffffffffffffffffffffffffffffffff16021790555050565b6000600360008573ffffffffffffffffffffffffffffffffffffffff1673ffffffffffffffffffffffffffffffffffffffff168152602001908152602001600020905060008180549050905060006040518060600160405280838152602001868152602001858152509050828190806001815401808255809150506001900390600052602060002090600302016000909190919091506000820151816000015560208201518160010190816109219190613028565b5060408201518160020190816109379190613028565b505050505050505050565b6060600360008373ffffffffffffffffffffffffffffffffffffffff1673ffffffffffffffffffffffffffffffffffffffff168152602001908152602001600020805480602002602001604051908101604052809291908181526020016000905b82821015610b035783829060005260206000209060030201604051806060016040529081600082015481526020016001820180546109e090612e4b565b80601f0160208091040260200160405190810160405280929190818152602001828054610a0c90612e4b565b8015610a595780601f10610a2e57610100808354040283529160200191610a59565b820191906000526020600020905b815481529060010190602001808311610a3c57829003601f168201915b50505050508152602001600282018054610a7290612e4b565b80601f0160208091040260200160405190810160405280929190818152602001828054610a9e90612e4b565b8015610aeb5780601f10610ac057610100808354040283529160200191610aeb565b820191906000526020600020905b815481529060010190602001808311610ace57829003601f168201915b505050505081525050815260200190600101906109a3565b505050509050919050565b610b16611e1a565b600160008373ffffffffffffffffffffffffffffffffffffffff1673ffffffffffffffffffffffffffffffffffffffff168152602001908152602001600020604051806101000160405290816000820160009054906101000a900473ffffffffffffffffffffffffffffffffffffffff1673ffffffffffffffffffffffffffffffffffffffff1673ffffffffffffffffffffffffffffffffffffffff1681526020016001820160405180610100016040529081600082018054610bd890612e4b565b80601f0160208091040260200160405190810160405280929190818152602001828054610c0490612e4b565b8015610c515780601f10610c2657610100808354040283529160200191610c51565b820191906000526020600020905b815481529060010190602001808311610c3457829003601f168201915b50505050508152602001600182018054610c6a90612e4b565b80601f0160208091040260200160405190810160405280929190818152602001828054610c9690612e4b565b8015610ce35780601f10610cb857610100808354040283529160200191610ce3565b820191906000526020600020905b815481529060010190602001808311610cc657829003601f168201915b50505050508152602001600282018054610cfc90612e4b565b80601f0160208091040260200160405190810160405280929190818152602001828054610d2890612e4b565b8015610d755780601f10610d4a57610100808354040283529160200191610d75565b820191906000526020600020905b815481529060010190602001808311610d5857829003601f168201915b5050505050815260200160038201548152602001600482018054610d9890612e4b565b80601f0160208091040260200160405190810160405280929190818152602001828054610dc490612e4b565b8015610e115780601f10610de657610100808354040283529160200191610e11565b820191906000526020600020905b815481529060010190602001808311610df457829003601f168201915b50505050508152602001600582018054610e2a90612e4b565b80601f0160208091040260200160405190810160405280929190818152602001828054610e5690612e4b565b8015610ea35780601f10610e7857610100808354040283529160200191610ea3565b820191906000526020600020905b815481529060010190602001808311610e8657829003601f168201915b50505050508152602001600682018054610ebc90612e4b565b80601f0160208091040260200160405190810160405280929190818152602001828054610ee890612e4b565b8015610f355780601f10610f0a57610100808354040283529160200191610f35565b820191906000526020600020905b815481529060010190602001808311610f1857829003601f168201915b50505050508152602001600782018054610f4e90612e4b565b80601f0160208091040260200160405190810160405280929190818152602001828054610f7a90612e4b565b8015610fc75780601f10610f9c57610100808354040283529160200191610fc7565b820191906000526020600020905b815481529060010190602001808311610faa57829003601f168201915b5050505050815250508152602001600982018054610fe490612e4b565b80601f016020809104026020016040519081016040528092919081815260200182805461101090612e4b565b801561105d5780601f106110325761010080835404028352916020019161105d565b820191906000526020600020905b81548152906001019060200180831161104057829003601f168201915b50505050508152602001600a8201805461107690612e4b565b80601f01602080910402602001604051908101604052809291908181526020018280546110a290612e4b565b80156110ef5780601f106110c4576101008083540402835291602001916110ef565b820191906000526020600020905b8154815290600101906020018083116110d257829003601f168201915b50505050508152602001600b8201548152602001600c8201548152602001600d820180548060200260200160405190810160405280929190818152602001828054801561119157602002820191906000526020600020905b8160009054906101000a900473ffffffffffffffffffffffffffffffffffffffff1673ffffffffffffffffffffffffffffffffffffffff1681526020019060010190808311611147575b50505050508152602001600e820180548060200260200160405190810160405280929190818152602001828054801561121f57602002820191906000526020600020905b8160009054906101000a900473ffffffffffffffffffffffffffffffffffffffff1673ffffffffffffffffffffffffffffffffffffffff16815260200190600101908083116111d5575b5050505050815250509050919050565b60008054906101000a900473ffffffffffffffffffffffffffffffffffffffff1681565b80600160003373ffffffffffffffffffffffffffffffffffffffff1673ffffffffffffffffffffffffffffffffffffffff16815260200190815260200160002060008201518160000160006101000a81548173ffffffffffffffffffffffffffffffffffffffff021916908373ffffffffffffffffffffffffffffffffffffffff16021790555060208201518160010160008201518160000190816112f89190613028565b50602082015181600101908161130e9190613028565b5060408201518160020190816113249190613028565b506060820151816003015560808201518160040190816113449190613028565b5060a082015181600501908161135a9190613028565b5060c08201518160060190816113709190613028565b5060e08201518160070190816113869190613028565b505050604082015181600901908161139e9190613028565b50606082015181600a0190816113b49190613028565b50608082015181600b015560a082015181600c015560c082015181600d0190805190602001906113e5929190611e7b565b5060e082015181600e019080519060200190611402929190611e7b565b509050506002339080600181540180825580915050600190039060005260206000200160009091909190916101000a81548173ffffffffffffffffffffffffffffffffffffffff021916908373ffffffffffffffffffffffffffffffffffffffff16021790555050565b80600160003373ffffffffffffffffffffffffffffffffffffffff1673ffffffffffffffffffffffffffffffffffffffff16815260200190815260200160002060008201518160000160006101000a81548173ffffffffffffffffffffffffffffffffffffffff021916908373ffffffffffffffffffffffffffffffffffffffff16021790555060208201518160010160008201518160000190816115119190613028565b5060208201518160010190816115279190613028565b50604082015181600201908161153d9190613028565b5060608201518160030155608082015181600401908161155d9190613028565b5060a08201518160050190816115739190613028565b5060c08201518160060190816115899190613028565b5060e082015181600701908161159f9190613028565b50505060408201518160090190816115b79190613028565b50606082015181600a0190816115cd9190613028565b50608082015181600b015560a082015181600c015560c082015181600d0190805190602001906115fe929190611e7b565b5060e082015181600e01908051906020019061161b929190611e7b565b5090505050565b6060600060028054905067ffffffffffffffff8111156116455761164461216a565b5b60405190808252806020026020018201604052801561167e57816020015b61166b611e1a565b8152602001906001900390816116635790505b50905060005b600280549050811015611e125760016000600283815481106116a9576116a8612d13565b5b9060005260206000200160009054906101000a900473ffffffffffffffffffffffffffffffffffffffff1673ffffffffffffffffffffffffffffffffffffffff1673ffffffffffffffffffffffffffffffffffffffff168152602001908152602001600020604051806101000160405290816000820160009054906101000a900473ffffffffffffffffffffffffffffffffffffffff1673ffffffffffffffffffffffffffffffffffffffff1673ffffffffffffffffffffffffffffffffffffffff168152602001600182016040518061010001604052908160008201805461179190612e4b565b80601f01602080910402602001604051908101604052809291908181526020018280546117bd90612e4b565b801561180a5780601f106117df5761010080835404028352916020019161180a565b820191906000526020600020905b8154815290600101906020018083116117ed57829003601f168201915b5050505050815260200160018201805461182390612e4b565b80601f016020809104026020016040519081016040528092919081815260200182805461184f90612e4b565b801561189c5780601f106118715761010080835404028352916020019161189c565b820191906000526020600020905b81548152906001019060200180831161187f57829003601f168201915b505050505081526020016002820180546118b590612e4b565b80601f01602080910402602001604051908101604052809291908181526020018280546118e190612e4b565b801561192e5780601f106119035761010080835404028352916020019161192e565b820191906000526020600020905b81548152906001019060200180831161191157829003601f168201915b505050505081526020016003820154815260200160048201805461195190612e4b565b80601f016020809104026020016040519081016040528092919081815260200182805461197d90612e4b565b80156119ca5780601f1061199f576101008083540402835291602001916119ca565b820191906000526020600020905b8154815290600101906020018083116119ad57829003601f168201915b505050505081526020016005820180546119e390612e4b565b80601f0160208091040260200160405190810160405280929190818152602001828054611a0f90612e4b565b8015611a5c5780601f10611a3157610100808354040283529160200191611a5c565b820191906000526020600020905b815481529060010190602001808311611a3f57829003601f168201915b50505050508152602001600682018054611a7590612e4b565b80601f0160208091040260200160405190810160405280929190818152602001828054611aa190612e4b565b8015611aee5780601f10611ac357610100808354040283529160200191611aee565b820191906000526020600020905b815481529060010190602001808311611ad157829003601f168201915b50505050508152602001600782018054611b0790612e4b565b80601f0160208091040260200160405190810160405280929190818152602001828054611b3390612e4b565b8015611b805780601f10611b5557610100808354040283529160200191611b80565b820191906000526020600020905b815481529060010190602001808311611b6357829003601f168201915b5050505050815250508152602001600982018054611b9d90612e4b565b80601f0160208091040260200160405190810160405280929190818152602001828054611bc990612e4b565b8015611c165780601f10611beb57610100808354040283529160200191611c16565b820191906000526020600020905b815481529060010190602001808311611bf957829003601f168201915b50505050508152602001600a82018054611c2f90612e4b565b80601f0160208091040260200160405190810160405280929190818152602001828054611c5b90612e4b565b8015611ca85780601f10611c7d57610100808354040283529160200191611ca8565b820191906000526020600020905b815481529060010190602001808311611c8b57829003601f168201915b50505050508152602001600b8201548152602001600c8201548152602001600d8201805480602002602001604051908101604052809291908181526020018280548015611d4a57602002820191906000526020600020905b8160009054906101000a900473ffffffffffffffffffffffffffffffffffffffff1673ffffffffffffffffffffffffffffffffffffffff1681526020019060010190808311611d00575b50505050508152602001600e8201805480602002602001604051908101604052809291908181526020018280548015611dd857602002820191906000526020600020905b8160009054906101000a900473ffffffffffffffffffffffffffffffffffffffff1673ffffffffffffffffffffffffffffffffffffffff1681526020019060010190808311611d8e575b505050505081525050828281518110611df457611df3612d13565b5b60200260200101819052508080611e0a90612dd4565b915050611684565b508091505090565b604051806101000160405280600073ffffffffffffffffffffffffffffffffffffffff168152602001611e4b611f05565b81526020016060815260200160608152602001600081526020016000815260200160608152602001606081525090565b828054828255906000526020600020908101928215611ef4579160200282015b82811115611ef35782518260006101000a81548173ffffffffffffffffffffffffffffffffffffffff021916908373ffffffffffffffffffffffffffffffffffffffff16021790555091602001919060010190611e9b565b5b509050611f019190611f4a565b5090565b60405180610100016040528060608152602001606081526020016060815260200160008152602001606081526020016060815260200160608152602001606081525090565b5b80821115611f63576000816000905550600101611f4b565b5090565b6000604051905090565b600080fd5b600080fd5b600073ffffffffffffffffffffffffffffffffffffffff82169050919050565b6000611fa682611f7b565b9050919050565b611fb681611f9b565b8114611fc157600080fd5b50565b600081359050611fd381611fad565b92915050565b600060208284031215611fef57611fee611f71565b5b6000611ffd84828501611fc4565b91505092915050565b6000819050919050565b61201981612006565b811461202457600080fd5b50565b60008135905061203681612010565b92915050565b6000806040838503121561205357612052611f71565b5b600061206185828601611fc4565b925050602061207285828601612027565b9150509250929050565b61208581612006565b82525050565b600081519050919050565b600082825260208201905092915050565b60005b838110156120c55780820151818401526020810190506120aa565b60008484015250505050565b6000601f19601f8301169050919050565b60006120ed8261208b565b6120f78185612096565b93506121078185602086016120a7565b612110816120d1565b840191505092915050565b6000606082019050612130600083018661207c565b818103602083015261214281856120e2565b9050818103604083015261215681846120e2565b9050949350505050565b600080fd5b600080fd5b7f4e487b7100000000000000000000000000000000000000000000000000000000600052604160045260246000fd5b6121a2826120d1565b810181811067ffffffffffffffff821117156121c1576121c061216a565b5b80604052505050565b60006121d4611f67565b90506121e08282612199565b919050565b600067ffffffffffffffff821115612200576121ff61216a565b5b612209826120d1565b9050602081019050919050565b82818337600083830152505050565b6000612238612233846121e5565b6121ca565b90508281526020810184848401111561225457612253612165565b5b61225f848285612216565b509392505050565b600082601f83011261227c5761227b612160565b5b813561228c848260208601612225565b91505092915050565b6000806000606084860312156122ae576122ad611f71565b5b60006122bc86828701611fc4565b935050602084013567ffffffffffffffff8111156122dd576122dc611f76565b5b6122e986828701612267565b925050604084013567ffffffffffffffff81111561230a57612309611f76565b5b61231686828701612267565b9150509250925092565b600081519050919050565b600082825260208201905092915050565b6000819050602082019050919050565b61235581612006565b82525050565b600082825260208201905092915050565b60006123778261208b565b612381818561235b565b93506123918185602086016120a7565b61239a816120d1565b840191505092915050565b60006060830160008301516123bd600086018261234c565b50602083015184820360208601526123d5828261236c565b915050604083015184820360408601526123ef828261236c565b9150508091505092915050565b600061240883836123a5565b905092915050565b6000602082019050919050565b600061242882612320565b612432818561232b565b9350836020820285016124448561233c565b8060005b85811015612480578484038952815161246185826123fc565b945061246c83612410565b925060208a01995050600181019050612448565b50829750879550505050505092915050565b600060208201905081810360008301526124ac818461241d565b905092915050565b6124bd81611f9b565b82525050565b60006101008301600083015184820360008601526124e1828261236c565b915050602083015184820360208601526124fb828261236c565b91505060408301518482036040860152612515828261236c565b915050606083015161252a606086018261234c565b5060808301518482036080860152612542828261236c565b91505060a083015184820360a086015261255c828261236c565b91505060c083015184820360c0860152612576828261236c565b91505060e083015184820360e0860152612590828261236c565b9150508091505092915050565b600081519050919050565b600082825260208201905092915050565b6000819050602082019050919050565b60006125d583836124b4565b60208301905092915050565b6000602082019050919050565b60006125f98261259d565b61260381856125a8565b935061260e836125b9565b8060005b8381101561263f57815161262688826125c9565b9750612631836125e1565b925050600181019050612612565b5085935050505092915050565b60006101008301600083015161266560008601826124b4565b506020830151848203602086015261267d82826124c3565b91505060408301518482036040860152612697828261236c565b915050606083015184820360608601526126b1828261236c565b91505060808301516126c6608086018261234c565b5060a08301516126d960a086018261234c565b5060c083015184820360c08601526126f182826125ee565b91505060e083015184820360e086015261270b82826125ee565b9150508091505092915050565b60006020820190508181036000830152612732818461264c565b905092915050565b61274381611f9b565b82525050565b600060208201905061275e600083018461273a565b92915050565b600080fd5b600080fd5b6000610100828403121561278557612784612764565b5b6127906101006121ca565b9050600082013567ffffffffffffffff8111156127b0576127af612769565b5b6127bc84828501612267565b600083015250602082013567ffffffffffffffff8111156127e0576127df612769565b5b6127ec84828501612267565b602083015250604082013567ffffffffffffffff8111156128105761280f612769565b5b61281c84828501612267565b604083015250606061283084828501612027565b606083015250608082013567ffffffffffffffff81111561285457612853612769565b5b61286084828501612267565b60808301525060a082013567ffffffffffffffff81111561288457612883612769565b5b61289084828501612267565b60a08301525060c082013567ffffffffffffffff8111156128b4576128b3612769565b5b6128c084828501612267565b60c08301525060e082013567ffffffffffffffff8111156128e4576128e3612769565b5b6128f084828501612267565b60e08301525092915050565b600067ffffffffffffffff8211156129175761291661216a565b5b602082029050602081019050919050565b600080fd5b600061294061293b846128fc565b6121ca565b9050808382526020820190506020840283018581111561296357612962612928565b5b835b8181101561298c57806129788882611fc4565b845260208401935050602081019050612965565b5050509392505050565b600082601f8301126129ab576129aa612160565b5b81356129bb84826020860161292d565b91505092915050565b600061010082840312156129db576129da612764565b5b6129e66101006121ca565b905060006129f684828501611fc4565b600083015250602082013567ffffffffffffffff811115612a1a57612a19612769565b5b612a268482850161276e565b602083015250604082013567ffffffffffffffff811115612a4a57612a49612769565b5b612a5684828501612267565b604083015250606082013567ffffffffffffffff811115612a7a57612a79612769565b5b612a8684828501612267565b6060830152506080612a9a84828501612027565b60808301525060a0612aae84828501612027565b60a08301525060c082013567ffffffffffffffff811115612ad257612ad1612769565b5b612ade84828501612996565b60c08301525060e082013567ffffffffffffffff811115612b0257612b01612769565b5b612b0e84828501612996565b60e08301525092915050565b600060208284031215612b3057612b2f611f71565b5b600082013567ffffffffffffffff811115612b4e57612b4d611f76565b5b612b5a848285016129c4565b91505092915050565b600081519050919050565b600082825260208201905092915050565b6000819050602082019050919050565b600061010083016000830151612ba860008601826124b4565b5060208301518482036020860152612bc082826124c3565b91505060408301518482036040860152612bda828261236c565b91505060608301518482036060860152612bf4828261236c565b9150506080830151612c09608086018261234c565b5060a0830151612c1c60a086018261234c565b5060c083015184820360c0860152612c3482826125ee565b91505060e083015184820360e0860152612c4e82826125ee565b9150508091505092915050565b6000612c678383612b8f565b905092915050565b6000602082019050919050565b6000612c8782612b63565b612c918185612b6e565b935083602082028501612ca385612b7f565b8060005b85811015612cdf5784840389528151612cc08582612c5b565b9450612ccb83612c6f565b925060208a01995050600181019050612ca7565b50829750879550505050505092915050565b60006020820190508181036000830152612d0b8184612c7c565b905092915050565b7f4e487b7100000000000000000000000000000000000000000000000000000000600052603260045260246000fd5b7f4e487b7100000000000000000000000000000000000000000000000000000000600052601160045260246000fd5b6000612d7c82612006565b9150612d8783612006565b9250828203905081811115612d9f57612d9e612d42565b5b92915050565b7f4e487b7100000000000000000000000000000000000000000000000000000000600052603160045260246000fd5b6000612ddf82612006565b91507fffffffffffffffffffffffffffffffffffffffffffffffffffffffffffffffff8203612e1157612e10612d42565b5b600182019050919050565b7f4e487b7100000000000000000000000000000000000000000000000000000000600052602260045260246000fd5b60006002820490506001821680612e6357607f821691505b602082108103612e7657612e75612e1c565b5b50919050565b60008190508160005260206000209050919050565b60006020601f8301049050919050565b600082821b905092915050565b600060088302612ede7fffffffffffffffffffffffffffffffffffffffffffffffffffffffffffffffff82612ea1565b612ee88683612ea1565b95508019841693508086168417925050509392505050565b6000819050919050565b6000612f25612f20612f1b84612006565b612f00565b612006565b9050919050565b6000819050919050565b612f3f83612f0a565b612f53612f4b82612f2c565b848454612eae565b825550505050565b600090565b612f68612f5b565b612f73818484612f36565b505050565b5b81811015612f9757612f8c600082612f60565b600181019050612f79565b5050565b601f821115612fdc57612fad81612e7c565b612fb684612e91565b81016020851015612fc5578190505b612fd9612fd185612e91565b830182612f78565b50505b505050565b600082821c905092915050565b6000612fff60001984600802612fe1565b1980831691505092915050565b60006130188383612fee565b9150826002028217905092915050565b6130318261208b565b67ffffffffffffffff81111561304a5761304961216a565b5b6130548254612e4b565b61305f828285612f9b565b600060209050601f8311600181146130925760008415613080578287015190505b61308a858261300c565b8655506130f2565b601f1984166130a086612e7c565b60005b828110156130c8578489015182556001820191506020850194506020810190506130a3565b868310156130e557848901516130e1601f891682612fee565b8355505b6001600288020188555050505b50505050505056fea2646970667358221220636c7810fdf45ef5909b333e80cb951bc8f78124b648f8496ed1ecf7d719a3d464736f6c63430008130033",
  "immutableReferences": {},
  "source": "// SPDX-License-Identifier: UNLICENSED\r\npragma solidity ^0.8.17;\r\n\r\ncontract Decentra {\r\n    address public owner;\r\n\r\n    constructor() {\r\n        owner = msg.sender;\r\n    }\r\n\r\n    struct Profile {\r\n        string name;\r\n        string avatar;\r\n        string banner;\r\n        uint256 age;\r\n        string gender;\r\n        string status;\r\n        string country;\r\n        string city;\r\n    }\r\n    struct user {\r\n        address userAddress;\r\n        Profile profile;\r\n        string occupation;\r\n        string date_joined;\r\n        uint256 followers;\r\n        uint256 following;\r\n        address[] user_following;\r\n        address[] user_followed;\r\n    }\r\n\r\n    \r\n    struct Notification {\r\n        uint256 id;\r\n        string text;\r\n        string image;\r\n    }\r\n\r\n     \r\n    mapping (address => user) Users;\r\n    address[] private userAddresses;\r\n    mapping(address => Notification[]) public userNotifications;\r\n\r\n    // function addUser (\r\n    //     Profile memory _profile,\r\n    //     string memory _occupation,\r\n    //     string memory _date_joined,\r\n    //     uint256 _followers,\r\n    //     uint256 _following,\r\n    //     uint256[] memory _user_following,\r\n    //     uint256[] memory _user_followed\r\n    // ) public {\r\n    //     user memory newUser = user(\r\n    //     _profile,\r\n    //     _occupation,\r\n    //     _date_joined,\r\n    //     _followers,\r\n    //     _following,\r\n    //     _user_following,\r\n    //     _user_followed\r\n    // );\r\n\r\n    // Users[msg.sender] = newUser;\r\n    // }\r\n\r\n    // function updateUser (\r\n    //     Profile memory _profile,\r\n    //     string memory _occupation\r\n    // ) public {\r\n    //     user storage userData = Users[msg.sender];\r\n    //     userData.profile = _profile;\r\n    //     userData.occupation = _occupation;\r\n    // }\r\n\r\n    function createUser(user memory _user) public {\r\n        Users[msg.sender] = _user;\r\n        userAddresses.push(msg.sender);\r\n    }\r\n\r\n    function updateUser(user memory _user) public {\r\n    Users[msg.sender] = _user;\r\n    }\r\n\r\n    function getUser(address userAddress) public view returns (user memory) {\r\n        return Users[userAddress];\r\n    }\r\n\r\n    function getAllUsers() public view returns (user[] memory) {\r\n        user[] memory allUsers = new user[](userAddresses.length);\r\n        for (uint256 i = 0; i < userAddresses.length; i++) {\r\n            allUsers[i] = Users[userAddresses[i]];\r\n        }\r\n        return allUsers;\r\n    }\r\n\r\n    // Follow Logic\r\n    function follow(address userAddress) public {\r\n        Users[msg.sender].user_following.push(userAddress);\r\n        Users[userAddress].user_followed.push(msg.sender);\r\n    }\r\n\r\n    function unfollow(address userAddress) public {\r\n        address[] storage following = Users[msg.sender].user_following;\r\n        address[] storage followed = Users[userAddress].user_followed;\r\n        for (uint256 i = 0; i < following.length; i++) {\r\n            if (following[i] == userAddress) {\r\n                if (i != following.length - 1) {\r\n                    // Replace the element to be removed with the last element\r\n                    following[i] = following[following.length - 1];\r\n                }\r\n                // Remove the last element\r\n                following.pop();\r\n                break; // Exit the loop once the user is found and removed\r\n            }\r\n        }\r\n\r\n        for (uint256 i = 0; i < followed.length; i++) {\r\n            if (followed[i] == msg.sender) {\r\n                if (i != followed.length - 1) {\r\n                    // Replace the element to be removed with the last element\r\n                    followed[i] = followed[followed.length - 1];\r\n                }\r\n                // Remove the last element\r\n                followed.pop();\r\n                break; // Exit the loop once the follower is found and removed\r\n            }\r\n        }\r\n    }\r\n\r\n    // Function to add a new notification\r\n    function addNotification(address _userAddress, string memory _text, string memory _image) public {\r\n        Notification[] storage notifications = userNotifications[_userAddress];\r\n        uint256 notificationId = notifications.length;\r\n        Notification memory newNotification = Notification(notificationId, _text, _image);\r\n        notifications.push(newNotification);\r\n    }\r\n\r\n    // Function to retrieve a user's notifications\r\n    function getUserNotifications(address _userAddress) public view returns (Notification[] memory) {\r\n        return userNotifications[_userAddress];\r\n    }\r\n}   ",
  "sourcePath": "D:\\Docs\\Engineering\\Src\\Web\\FYP\\Code\\decentra\\contracts\\Decentra.sol",
  "compiler": {
    "name": "solc",
    "version": "0.8.19+commit.7dd6d404.Emscripten.clang"
  },
  "schemaVersion": "3.4.13",
  "updatedAt": "2023-06-24T09:44:12.775Z",
  "networkType": "ethereum",
  "devdoc": {
    "kind": "dev",
    "methods": {},
    "version": 1
  },
  "userdoc": {
    "kind": "user",
    "methods": {},
    "version": 1
  }
}