{
  "contractName": "Decentra",
  "abi": [
    {
      "inputs": [],
      "stateMutability": "nonpayable",
      "type": "constructor"
    },
    {
      "inputs": [],
      "name": "owner",
      "outputs": [
        {
          "internalType": "address",
          "name": "",
          "type": "address"
        }
      ],
      "stateMutability": "view",
      "type": "function",
      "constant": true
    },
    {
      "inputs": [
        {
          "components": [
            {
              "internalType": "address",
              "name": "userAddress",
              "type": "address"
            },
            {
              "components": [
                {
                  "internalType": "string",
                  "name": "name",
                  "type": "string"
                },
                {
                  "internalType": "string",
                  "name": "avatar",
                  "type": "string"
                },
                {
                  "internalType": "string",
                  "name": "banner",
                  "type": "string"
                },
                {
                  "internalType": "uint256",
                  "name": "age",
                  "type": "uint256"
                },
                {
                  "internalType": "string",
                  "name": "gender",
                  "type": "string"
                },
                {
                  "internalType": "string",
                  "name": "status",
                  "type": "string"
                },
                {
                  "internalType": "string",
                  "name": "country",
                  "type": "string"
                },
                {
                  "internalType": "string",
                  "name": "city",
                  "type": "string"
                }
              ],
              "internalType": "struct Decentra.Profile",
              "name": "profile",
              "type": "tuple"
            },
            {
              "internalType": "string",
              "name": "occupation",
              "type": "string"
            },
            {
              "internalType": "string",
              "name": "date_joined",
              "type": "string"
            },
            {
              "internalType": "uint256",
              "name": "followers",
              "type": "uint256"
            },
            {
              "internalType": "uint256",
              "name": "following",
              "type": "uint256"
            },
            {
              "internalType": "uint256[]",
              "name": "user_following",
              "type": "uint256[]"
            },
            {
              "internalType": "uint256[]",
              "name": "user_followed",
              "type": "uint256[]"
            }
          ],
          "internalType": "struct Decentra.user",
          "name": "_user",
          "type": "tuple"
        }
      ],
      "name": "createUser",
      "outputs": [],
      "stateMutability": "nonpayable",
      "type": "function"
    },
    {
      "inputs": [
        {
          "components": [
            {
              "internalType": "address",
              "name": "userAddress",
              "type": "address"
            },
            {
              "components": [
                {
                  "internalType": "string",
                  "name": "name",
                  "type": "string"
                },
                {
                  "internalType": "string",
                  "name": "avatar",
                  "type": "string"
                },
                {
                  "internalType": "string",
                  "name": "banner",
                  "type": "string"
                },
                {
                  "internalType": "uint256",
                  "name": "age",
                  "type": "uint256"
                },
                {
                  "internalType": "string",
                  "name": "gender",
                  "type": "string"
                },
                {
                  "internalType": "string",
                  "name": "status",
                  "type": "string"
                },
                {
                  "internalType": "string",
                  "name": "country",
                  "type": "string"
                },
                {
                  "internalType": "string",
                  "name": "city",
                  "type": "string"
                }
              ],
              "internalType": "struct Decentra.Profile",
              "name": "profile",
              "type": "tuple"
            },
            {
              "internalType": "string",
              "name": "occupation",
              "type": "string"
            },
            {
              "internalType": "string",
              "name": "date_joined",
              "type": "string"
            },
            {
              "internalType": "uint256",
              "name": "followers",
              "type": "uint256"
            },
            {
              "internalType": "uint256",
              "name": "following",
              "type": "uint256"
            },
            {
              "internalType": "uint256[]",
              "name": "user_following",
              "type": "uint256[]"
            },
            {
              "internalType": "uint256[]",
              "name": "user_followed",
              "type": "uint256[]"
            }
          ],
          "internalType": "struct Decentra.user",
          "name": "_user",
          "type": "tuple"
        }
      ],
      "name": "updateUser",
      "outputs": [],
      "stateMutability": "nonpayable",
      "type": "function"
    },
    {
      "inputs": [
        {
          "internalType": "address",
          "name": "userAddress",
          "type": "address"
        }
      ],
      "name": "getUser",
      "outputs": [
        {
          "components": [
            {
              "internalType": "address",
              "name": "userAddress",
              "type": "address"
            },
            {
              "components": [
                {
                  "internalType": "string",
                  "name": "name",
                  "type": "string"
                },
                {
                  "internalType": "string",
                  "name": "avatar",
                  "type": "string"
                },
                {
                  "internalType": "string",
                  "name": "banner",
                  "type": "string"
                },
                {
                  "internalType": "uint256",
                  "name": "age",
                  "type": "uint256"
                },
                {
                  "internalType": "string",
                  "name": "gender",
                  "type": "string"
                },
                {
                  "internalType": "string",
                  "name": "status",
                  "type": "string"
                },
                {
                  "internalType": "string",
                  "name": "country",
                  "type": "string"
                },
                {
                  "internalType": "string",
                  "name": "city",
                  "type": "string"
                }
              ],
              "internalType": "struct Decentra.Profile",
              "name": "profile",
              "type": "tuple"
            },
            {
              "internalType": "string",
              "name": "occupation",
              "type": "string"
            },
            {
              "internalType": "string",
              "name": "date_joined",
              "type": "string"
            },
            {
              "internalType": "uint256",
              "name": "followers",
              "type": "uint256"
            },
            {
              "internalType": "uint256",
              "name": "following",
              "type": "uint256"
            },
            {
              "internalType": "uint256[]",
              "name": "user_following",
              "type": "uint256[]"
            },
            {
              "internalType": "uint256[]",
              "name": "user_followed",
              "type": "uint256[]"
            }
          ],
          "internalType": "struct Decentra.user",
          "name": "",
          "type": "tuple"
        }
      ],
      "stateMutability": "view",
      "type": "function",
      "constant": true
    },
    {
      "inputs": [],
      "name": "getAllUsers",
      "outputs": [
        {
          "components": [
            {
              "internalType": "address",
              "name": "userAddress",
              "type": "address"
            },
            {
              "components": [
                {
                  "internalType": "string",
                  "name": "name",
                  "type": "string"
                },
                {
                  "internalType": "string",
                  "name": "avatar",
                  "type": "string"
                },
                {
                  "internalType": "string",
                  "name": "banner",
                  "type": "string"
                },
                {
                  "internalType": "uint256",
                  "name": "age",
                  "type": "uint256"
                },
                {
                  "internalType": "string",
                  "name": "gender",
                  "type": "string"
                },
                {
                  "internalType": "string",
                  "name": "status",
                  "type": "string"
                },
                {
                  "internalType": "string",
                  "name": "country",
                  "type": "string"
                },
                {
                  "internalType": "string",
                  "name": "city",
                  "type": "string"
                }
              ],
              "internalType": "struct Decentra.Profile",
              "name": "profile",
              "type": "tuple"
            },
            {
              "internalType": "string",
              "name": "occupation",
              "type": "string"
            },
            {
              "internalType": "string",
              "name": "date_joined",
              "type": "string"
            },
            {
              "internalType": "uint256",
              "name": "followers",
              "type": "uint256"
            },
            {
              "internalType": "uint256",
              "name": "following",
              "type": "uint256"
            },
            {
              "internalType": "uint256[]",
              "name": "user_following",
              "type": "uint256[]"
            },
            {
              "internalType": "uint256[]",
              "name": "user_followed",
              "type": "uint256[]"
            }
          ],
          "internalType": "struct Decentra.user[]",
          "name": "",
          "type": "tuple[]"
        }
      ],
      "stateMutability": "view",
      "type": "function",
      "constant": true
    }
  ],
  "bytecode": "0x608060405234801561001057600080fd5b50336000806101000a81548173ffffffffffffffffffffffffffffffffffffffff021916908373ffffffffffffffffffffffffffffffffffffffff160217905550612306806100606000396000f3fe608060405234801561001057600080fd5b50600436106100575760003560e01c80634dcf554a1461005c5780636f77926b146100785780638da5cb5b146100a8578063c6784d44146100c6578063e2842d79146100e2575b600080fd5b610076600480360381019061007191906119e8565b610100565b005b610092600480360381019061008d9190611a31565b6102b6565b60405161009f9190611d50565b60405180910390f35b6100b061096b565b6040516100bd9190611d81565b60405180910390f35b6100e060048036038101906100db91906119e8565b61098f565b005b6100ea610ba8565b6040516100f79190611f2a565b60405180910390f35b80600160003373ffffffffffffffffffffffffffffffffffffffff1673ffffffffffffffffffffffffffffffffffffffff16815260200190815260200160002060008201518160000160006101000a81548173ffffffffffffffffffffffffffffffffffffffff021916908373ffffffffffffffffffffffffffffffffffffffff16021790555060208201518160010160008201518160000190816101a59190612158565b5060208201518160010190816101bb9190612158565b5060408201518160020190816101d19190612158565b506060820151816003015560808201518160040190816101f19190612158565b5060a08201518160050190816102079190612158565b5060c082015181600601908161021d9190612158565b5060e08201518160070190816102339190612158565b505050604082015181600901908161024b9190612158565b50606082015181600a0190816102619190612158565b50608082015181600b015560a082015181600c015560c082015181600d019080519060200190610292929190611334565b5060e082015181600e0190805190602001906102af929190611334565b5090505050565b6102be611381565b600160008373ffffffffffffffffffffffffffffffffffffffff1673ffffffffffffffffffffffffffffffffffffffff168152602001908152602001600020604051806101000160405290816000820160009054906101000a900473ffffffffffffffffffffffffffffffffffffffff1673ffffffffffffffffffffffffffffffffffffffff1673ffffffffffffffffffffffffffffffffffffffff168152602001600182016040518061010001604052908160008201805461038090611f7b565b80601f01602080910402602001604051908101604052809291908181526020018280546103ac90611f7b565b80156103f95780601f106103ce576101008083540402835291602001916103f9565b820191906000526020600020905b8154815290600101906020018083116103dc57829003601f168201915b5050505050815260200160018201805461041290611f7b565b80601f016020809104026020016040519081016040528092919081815260200182805461043e90611f7b565b801561048b5780601f106104605761010080835404028352916020019161048b565b820191906000526020600020905b81548152906001019060200180831161046e57829003601f168201915b505050505081526020016002820180546104a490611f7b565b80601f01602080910402602001604051908101604052809291908181526020018280546104d090611f7b565b801561051d5780601f106104f25761010080835404028352916020019161051d565b820191906000526020600020905b81548152906001019060200180831161050057829003601f168201915b505050505081526020016003820154815260200160048201805461054090611f7b565b80601f016020809104026020016040519081016040528092919081815260200182805461056c90611f7b565b80156105b95780601f1061058e576101008083540402835291602001916105b9565b820191906000526020600020905b81548152906001019060200180831161059c57829003601f168201915b505050505081526020016005820180546105d290611f7b565b80601f01602080910402602001604051908101604052809291908181526020018280546105fe90611f7b565b801561064b5780601f106106205761010080835404028352916020019161064b565b820191906000526020600020905b81548152906001019060200180831161062e57829003601f168201915b5050505050815260200160068201805461066490611f7b565b80601f016020809104026020016040519081016040528092919081815260200182805461069090611f7b565b80156106dd5780601f106106b2576101008083540402835291602001916106dd565b820191906000526020600020905b8154815290600101906020018083116106c057829003601f168201915b505050505081526020016007820180546106f690611f7b565b80601f016020809104026020016040519081016040528092919081815260200182805461072290611f7b565b801561076f5780601f106107445761010080835404028352916020019161076f565b820191906000526020600020905b81548152906001019060200180831161075257829003601f168201915b505050505081525050815260200160098201805461078c90611f7b565b80601f01602080910402602001604051908101604052809291908181526020018280546107b890611f7b565b80156108055780601f106107da57610100808354040283529160200191610805565b820191906000526020600020905b8154815290600101906020018083116107e857829003601f168201915b50505050508152602001600a8201805461081e90611f7b565b80601f016020809104026020016040519081016040528092919081815260200182805461084a90611f7b565b80156108975780601f1061086c57610100808354040283529160200191610897565b820191906000526020600020905b81548152906001019060200180831161087a57829003601f168201915b50505050508152602001600b8201548152602001600c8201548152602001600d820180548060200260200160405190810160405280929190818152602001828054801561090357602002820191906000526020600020905b8154815260200190600101908083116108ef575b50505050508152602001600e820180548060200260200160405190810160405280929190818152602001828054801561095b57602002820191906000526020600020905b815481526020019060010190808311610947575b5050505050815250509050919050565b60008054906101000a900473ffffffffffffffffffffffffffffffffffffffff1681565b80600160003373ffffffffffffffffffffffffffffffffffffffff1673ffffffffffffffffffffffffffffffffffffffff16815260200190815260200160002060008201518160000160006101000a81548173ffffffffffffffffffffffffffffffffffffffff021916908373ffffffffffffffffffffffffffffffffffffffff1602179055506020820151816001016000820151816000019081610a349190612158565b506020820151816001019081610a4a9190612158565b506040820151816002019081610a609190612158565b50606082015181600301556080820151816004019081610a809190612158565b5060a0820151816005019081610a969190612158565b5060c0820151816006019081610aac9190612158565b5060e0820151816007019081610ac29190612158565b5050506040820151816009019081610ada9190612158565b50606082015181600a019081610af09190612158565b50608082015181600b015560a082015181600c015560c082015181600d019080519060200190610b21929190611334565b5060e082015181600e019080519060200190610b3e929190611334565b509050506002339080600181540180825580915050600190039060005260206000200160009091909190916101000a81548173ffffffffffffffffffffffffffffffffffffffff021916908373ffffffffffffffffffffffffffffffffffffffff16021790555050565b6060600060028054905067ffffffffffffffff811115610bcb57610bca61146e565b5b604051908082528060200260200182016040528015610c0457816020015b610bf1611381565b815260200190600190039081610be95790505b50905060005b60028054905081101561132c576001600060028381548110610c2f57610c2e61222a565b5b9060005260206000200160009054906101000a900473ffffffffffffffffffffffffffffffffffffffff1673ffffffffffffffffffffffffffffffffffffffff1673ffffffffffffffffffffffffffffffffffffffff168152602001908152602001600020604051806101000160405290816000820160009054906101000a900473ffffffffffffffffffffffffffffffffffffffff1673ffffffffffffffffffffffffffffffffffffffff1673ffffffffffffffffffffffffffffffffffffffff1681526020016001820160405180610100016040529081600082018054610d1790611f7b565b80601f0160208091040260200160405190810160405280929190818152602001828054610d4390611f7b565b8015610d905780601f10610d6557610100808354040283529160200191610d90565b820191906000526020600020905b815481529060010190602001808311610d7357829003601f168201915b50505050508152602001600182018054610da990611f7b565b80601f0160208091040260200160405190810160405280929190818152602001828054610dd590611f7b565b8015610e225780601f10610df757610100808354040283529160200191610e22565b820191906000526020600020905b815481529060010190602001808311610e0557829003601f168201915b50505050508152602001600282018054610e3b90611f7b565b80601f0160208091040260200160405190810160405280929190818152602001828054610e6790611f7b565b8015610eb45780601f10610e8957610100808354040283529160200191610eb4565b820191906000526020600020905b815481529060010190602001808311610e9757829003601f168201915b5050505050815260200160038201548152602001600482018054610ed790611f7b565b80601f0160208091040260200160405190810160405280929190818152602001828054610f0390611f7b565b8015610f505780601f10610f2557610100808354040283529160200191610f50565b820191906000526020600020905b815481529060010190602001808311610f3357829003601f168201915b50505050508152602001600582018054610f6990611f7b565b80601f0160208091040260200160405190810160405280929190818152602001828054610f9590611f7b565b8015610fe25780601f10610fb757610100808354040283529160200191610fe2565b820191906000526020600020905b815481529060010190602001808311610fc557829003601f168201915b50505050508152602001600682018054610ffb90611f7b565b80601f016020809104026020016040519081016040528092919081815260200182805461102790611f7b565b80156110745780601f1061104957610100808354040283529160200191611074565b820191906000526020600020905b81548152906001019060200180831161105757829003601f168201915b5050505050815260200160078201805461108d90611f7b565b80601f01602080910402602001604051908101604052809291908181526020018280546110b990611f7b565b80156111065780601f106110db57610100808354040283529160200191611106565b820191906000526020600020905b8154815290600101906020018083116110e957829003601f168201915b505050505081525050815260200160098201805461112390611f7b565b80601f016020809104026020016040519081016040528092919081815260200182805461114f90611f7b565b801561119c5780601f106111715761010080835404028352916020019161119c565b820191906000526020600020905b81548152906001019060200180831161117f57829003601f168201915b50505050508152602001600a820180546111b590611f7b565b80601f01602080910402602001604051908101604052809291908181526020018280546111e190611f7b565b801561122e5780601f106112035761010080835404028352916020019161122e565b820191906000526020600020905b81548152906001019060200180831161121157829003601f168201915b50505050508152602001600b8201548152602001600c8201548152602001600d820180548060200260200160405190810160405280929190818152602001828054801561129a57602002820191906000526020600020905b815481526020019060010190808311611286575b50505050508152602001600e82018054806020026020016040519081016040528092919081815260200182805480156112f257602002820191906000526020600020905b8154815260200190600101908083116112de575b50505050508152505082828151811061130e5761130d61222a565b5b6020026020010181905250808061132490612288565b915050610c0a565b508091505090565b828054828255906000526020600020908101928215611370579160200282015b8281111561136f578251825591602001919060010190611354565b5b50905061137d91906113e2565b5090565b604051806101000160405280600073ffffffffffffffffffffffffffffffffffffffff1681526020016113b26113ff565b81526020016060815260200160608152602001600081526020016000815260200160608152602001606081525090565b5b808211156113fb5760008160009055506001016113e3565b5090565b60405180610100016040528060608152602001606081526020016060815260200160008152602001606081526020016060815260200160608152602001606081525090565b6000604051905090565b600080fd5b600080fd5b600080fd5b6000601f19601f8301169050919050565b7f4e487b7100000000000000000000000000000000000000000000000000000000600052604160045260246000fd5b6114a68261145d565b810181811067ffffffffffffffff821117156114c5576114c461146e565b5b80604052505050565b60006114d8611444565b90506114e4828261149d565b919050565b600080fd5b600073ffffffffffffffffffffffffffffffffffffffff82169050919050565b6000611519826114ee565b9050919050565b6115298161150e565b811461153457600080fd5b50565b60008135905061154681611520565b92915050565b600080fd5b600080fd5b600067ffffffffffffffff8211156115715761157061146e565b5b61157a8261145d565b9050602081019050919050565b82818337600083830152505050565b60006115a96115a484611556565b6114ce565b9050828152602081018484840111156115c5576115c4611551565b5b6115d0848285611587565b509392505050565b600082601f8301126115ed576115ec61154c565b5b81356115fd848260208601611596565b91505092915050565b6000819050919050565b61161981611606565b811461162457600080fd5b50565b60008135905061163681611610565b92915050565b6000610100828403121561165357611652611458565b5b61165e6101006114ce565b9050600082013567ffffffffffffffff81111561167e5761167d6114e9565b5b61168a848285016115d8565b600083015250602082013567ffffffffffffffff8111156116ae576116ad6114e9565b5b6116ba848285016115d8565b602083015250604082013567ffffffffffffffff8111156116de576116dd6114e9565b5b6116ea848285016115d8565b60408301525060606116fe84828501611627565b606083015250608082013567ffffffffffffffff811115611722576117216114e9565b5b61172e848285016115d8565b60808301525060a082013567ffffffffffffffff811115611752576117516114e9565b5b61175e848285016115d8565b60a08301525060c082013567ffffffffffffffff811115611782576117816114e9565b5b61178e848285016115d8565b60c08301525060e082013567ffffffffffffffff8111156117b2576117b16114e9565b5b6117be848285016115d8565b60e08301525092915050565b600067ffffffffffffffff8211156117e5576117e461146e565b5b602082029050602081019050919050565b600080fd5b600061180e611809846117ca565b6114ce565b90508083825260208201905060208402830185811115611831576118306117f6565b5b835b8181101561185a57806118468882611627565b845260208401935050602081019050611833565b5050509392505050565b600082601f8301126118795761187861154c565b5b81356118898482602086016117fb565b91505092915050565b600061010082840312156118a9576118a8611458565b5b6118b46101006114ce565b905060006118c484828501611537565b600083015250602082013567ffffffffffffffff8111156118e8576118e76114e9565b5b6118f48482850161163c565b602083015250604082013567ffffffffffffffff811115611918576119176114e9565b5b611924848285016115d8565b604083015250606082013567ffffffffffffffff811115611948576119476114e9565b5b611954848285016115d8565b606083015250608061196884828501611627565b60808301525060a061197c84828501611627565b60a08301525060c082013567ffffffffffffffff8111156119a05761199f6114e9565b5b6119ac84828501611864565b60c08301525060e082013567ffffffffffffffff8111156119d0576119cf6114e9565b5b6119dc84828501611864565b60e08301525092915050565b6000602082840312156119fe576119fd61144e565b5b600082013567ffffffffffffffff811115611a1c57611a1b611453565b5b611a2884828501611892565b91505092915050565b600060208284031215611a4757611a4661144e565b5b6000611a5584828501611537565b91505092915050565b611a678161150e565b82525050565b600081519050919050565b600082825260208201905092915050565b60005b83811015611aa7578082015181840152602081019050611a8c565b60008484015250505050565b6000611abe82611a6d565b611ac88185611a78565b9350611ad8818560208601611a89565b611ae18161145d565b840191505092915050565b611af581611606565b82525050565b6000610100830160008301518482036000860152611b198282611ab3565b91505060208301518482036020860152611b338282611ab3565b91505060408301518482036040860152611b4d8282611ab3565b9150506060830151611b626060860182611aec565b5060808301518482036080860152611b7a8282611ab3565b91505060a083015184820360a0860152611b948282611ab3565b91505060c083015184820360c0860152611bae8282611ab3565b91505060e083015184820360e0860152611bc88282611ab3565b9150508091505092915050565b600081519050919050565b600082825260208201905092915050565b6000819050602082019050919050565b6000611c0d8383611aec565b60208301905092915050565b6000602082019050919050565b6000611c3182611bd5565b611c3b8185611be0565b9350611c4683611bf1565b8060005b83811015611c77578151611c5e8882611c01565b9750611c6983611c19565b925050600181019050611c4a565b5085935050505092915050565b600061010083016000830151611c9d6000860182611a5e565b5060208301518482036020860152611cb58282611afb565b91505060408301518482036040860152611ccf8282611ab3565b91505060608301518482036060860152611ce98282611ab3565b9150506080830151611cfe6080860182611aec565b5060a0830151611d1160a0860182611aec565b5060c083015184820360c0860152611d298282611c26565b91505060e083015184820360e0860152611d438282611c26565b9150508091505092915050565b60006020820190508181036000830152611d6a8184611c84565b905092915050565b611d7b8161150e565b82525050565b6000602082019050611d966000830184611d72565b92915050565b600081519050919050565b600082825260208201905092915050565b6000819050602082019050919050565b600061010083016000830151611de16000860182611a5e565b5060208301518482036020860152611df98282611afb565b91505060408301518482036040860152611e138282611ab3565b91505060608301518482036060860152611e2d8282611ab3565b9150506080830151611e426080860182611aec565b5060a0830151611e5560a0860182611aec565b5060c083015184820360c0860152611e6d8282611c26565b91505060e083015184820360e0860152611e878282611c26565b9150508091505092915050565b6000611ea08383611dc8565b905092915050565b6000602082019050919050565b6000611ec082611d9c565b611eca8185611da7565b935083602082028501611edc85611db8565b8060005b85811015611f185784840389528151611ef98582611e94565b9450611f0483611ea8565b925060208a01995050600181019050611ee0565b50829750879550505050505092915050565b60006020820190508181036000830152611f448184611eb5565b905092915050565b7f4e487b7100000000000000000000000000000000000000000000000000000000600052602260045260246000fd5b60006002820490506001821680611f9357607f821691505b602082108103611fa657611fa5611f4c565b5b50919050565b60008190508160005260206000209050919050565b60006020601f8301049050919050565b600082821b905092915050565b60006008830261200e7fffffffffffffffffffffffffffffffffffffffffffffffffffffffffffffffff82611fd1565b6120188683611fd1565b95508019841693508086168417925050509392505050565b6000819050919050565b600061205561205061204b84611606565b612030565b611606565b9050919050565b6000819050919050565b61206f8361203a565b61208361207b8261205c565b848454611fde565b825550505050565b600090565b61209861208b565b6120a3818484612066565b505050565b5b818110156120c7576120bc600082612090565b6001810190506120a9565b5050565b601f82111561210c576120dd81611fac565b6120e684611fc1565b810160208510156120f5578190505b61210961210185611fc1565b8301826120a8565b50505b505050565b600082821c905092915050565b600061212f60001984600802612111565b1980831691505092915050565b6000612148838361211e565b9150826002028217905092915050565b61216182611a6d565b67ffffffffffffffff81111561217a5761217961146e565b5b6121848254611f7b565b61218f8282856120cb565b600060209050601f8311600181146121c257600084156121b0578287015190505b6121ba858261213c565b865550612222565b601f1984166121d086611fac565b60005b828110156121f8578489015182556001820191506020850194506020810190506121d3565b868310156122155784890151612211601f89168261211e565b8355505b6001600288020188555050505b505050505050565b7f4e487b7100000000000000000000000000000000000000000000000000000000600052603260045260246000fd5b7f4e487b7100000000000000000000000000000000000000000000000000000000600052601160045260246000fd5b600061229382611606565b91507fffffffffffffffffffffffffffffffffffffffffffffffffffffffffffffffff82036122c5576122c4612259565b5b60018201905091905056fea2646970667358221220dddda6cf733e43468322bd5c35bb5914e770f569d8609eba882e38ee5cdb779864736f6c63430008130033",
  "immutableReferences": {},
  "source": "// SPDX-License-Identifier: UNLICENSED\r\npragma solidity ^0.8.17;\r\n\r\ncontract Decentra {\r\n    address public owner;\r\n\r\n    constructor() {\r\n        owner = msg.sender;\r\n    }\r\n\r\n    struct Profile {\r\n        string name;\r\n        string avatar;\r\n        string banner;\r\n        uint256 age;\r\n        string gender;\r\n        string status;\r\n        string country;\r\n        string city;\r\n    }\r\n    struct user {\r\n        address userAddress;\r\n        Profile profile;\r\n        string occupation;\r\n        string date_joined;\r\n        uint256 followers;\r\n        uint256 following;\r\n        uint256[] user_following;\r\n        uint256[] user_followed;\r\n    }\r\n\r\n    mapping (address => user) Users;\r\n    address[] private userAddresses;\r\n\r\n    // function addUser (\r\n    //     Profile memory _profile,\r\n    //     string memory _occupation,\r\n    //     string memory _date_joined,\r\n    //     uint256 _followers,\r\n    //     uint256 _following,\r\n    //     uint256[] memory _user_following,\r\n    //     uint256[] memory _user_followed\r\n    // ) public {\r\n    //     user memory newUser = user(\r\n    //     _profile,\r\n    //     _occupation,\r\n    //     _date_joined,\r\n    //     _followers,\r\n    //     _following,\r\n    //     _user_following,\r\n    //     _user_followed\r\n    // );\r\n\r\n    // Users[msg.sender] = newUser;\r\n    // }\r\n\r\n    // function updateUser (\r\n    //     Profile memory _profile,\r\n    //     string memory _occupation\r\n    // ) public {\r\n    //     user storage userData = Users[msg.sender];\r\n    //     userData.profile = _profile;\r\n    //     userData.occupation = _occupation;\r\n    // }\r\n\r\n    function createUser(user memory _user) public {\r\n        Users[msg.sender] = _user;\r\n        userAddresses.push(msg.sender);\r\n    }\r\n\r\n    function updateUser(user memory _user) public {\r\n    Users[msg.sender] = _user;\r\n    }\r\n\r\n    function getUser(address userAddress) public view returns (user memory) {\r\n        return Users[userAddress];\r\n    }\r\n\r\n    function getAllUsers() public view returns (user[] memory) {\r\n        user[] memory allUsers = new user[](userAddresses.length);\r\n        for (uint256 i = 0; i < userAddresses.length; i++) {\r\n            allUsers[i] = Users[userAddresses[i]];\r\n        }\r\n        return allUsers;\r\n    }\r\n\r\n    // Follow Logic\r\n    // function follow(address userAddress) public {\r\n    //     Users[msg.sender].user_following.push(userAddress);\r\n    //     Users[userAddress].user_followed.push(msg.sender);\r\n    // }\r\n\r\n    // function unfollow(address userAddress) public {\r\n    //     address[] storage following = Users[msg.sender].user_following;\r\n    //     address[] storage followed = Users[userAddress].user_followed;\r\n\r\n    //     for (uint256 i = 0; i < following.length; i++) {\r\n    //     if (following[i] == userAddress) {\r\n    //             // Move the last element to the position of the element to be removed\r\n    //             following[i] = following[following.length - 1];\r\n    //             // Remove the last element\r\n    //             following.pop();\r\n    //             break; // Exit the loop once the user is found and removed\r\n    //         }\r\n    //     }\r\n    //     for (uint256 i = 0; i < followed.length; i++) {\r\n    //         if (followed[i] == msg.sender) {\r\n    //             // Move the last element to the position of the element to be removed\r\n    //             followed[i] = followed[followed.length - 1];\r\n    //             // Remove the last element\r\n    //             followed.pop();\r\n    //             break; // Exit the loop once the follower is found and removed\r\n    //         }\r\n    //     }\r\n    // }\r\n}   ",
  "sourcePath": "D:\\Docs\\Engineering\\Src\\Web\\FYP\\Code\\decentra\\contracts\\Decentra.sol",
  "compiler": {
    "name": "solc",
    "version": "0.8.19+commit.7dd6d404.Emscripten.clang"
  },
  "schemaVersion": "3.4.13",
  "updatedAt": "2023-06-20T13:02:36.584Z",
  "networkType": "ethereum",
  "devdoc": {
    "kind": "dev",
    "methods": {},
    "version": 1
  },
  "userdoc": {
    "kind": "user",
    "methods": {},
    "version": 1
  }
}