{
  "contractName": "Decentra",
  "abi": [
    {
      "inputs": [],
      "stateMutability": "nonpayable",
      "type": "constructor"
    },
    {
      "inputs": [],
      "name": "owner",
      "outputs": [
        {
          "internalType": "address",
          "name": "",
          "type": "address"
        }
      ],
      "stateMutability": "view",
      "type": "function",
      "constant": true
    },
    {
      "inputs": [
        {
          "internalType": "address",
          "name": "",
          "type": "address"
        },
        {
          "internalType": "uint256",
          "name": "",
          "type": "uint256"
        }
      ],
      "name": "userNotifications",
      "outputs": [
        {
          "internalType": "uint256",
          "name": "id",
          "type": "uint256"
        },
        {
          "internalType": "string",
          "name": "text",
          "type": "string"
        },
        {
          "internalType": "string",
          "name": "image",
          "type": "string"
        }
      ],
      "stateMutability": "view",
      "type": "function",
      "constant": true
    },
    {
      "inputs": [
        {
          "components": [
            {
              "internalType": "address",
              "name": "userAddress",
              "type": "address"
            },
            {
              "components": [
                {
                  "internalType": "string",
                  "name": "name",
                  "type": "string"
                },
                {
                  "internalType": "string",
                  "name": "avatar",
                  "type": "string"
                },
                {
                  "internalType": "string",
                  "name": "banner",
                  "type": "string"
                },
                {
                  "internalType": "string",
                  "name": "age",
                  "type": "string"
                },
                {
                  "internalType": "string",
                  "name": "gender",
                  "type": "string"
                },
                {
                  "internalType": "string",
                  "name": "status",
                  "type": "string"
                },
                {
                  "internalType": "string",
                  "name": "country",
                  "type": "string"
                },
                {
                  "internalType": "string",
                  "name": "city",
                  "type": "string"
                }
              ],
              "internalType": "struct Decentra.Profile",
              "name": "profile",
              "type": "tuple"
            },
            {
              "internalType": "string",
              "name": "occupation",
              "type": "string"
            },
            {
              "internalType": "string",
              "name": "date_joined",
              "type": "string"
            },
            {
              "internalType": "uint256",
              "name": "followers",
              "type": "uint256"
            },
            {
              "internalType": "uint256",
              "name": "following",
              "type": "uint256"
            },
            {
              "internalType": "address[]",
              "name": "user_following",
              "type": "address[]"
            },
            {
              "internalType": "address[]",
              "name": "user_followed",
              "type": "address[]"
            }
          ],
          "internalType": "struct Decentra.user",
          "name": "_user",
          "type": "tuple"
        }
      ],
      "name": "createUser",
      "outputs": [],
      "stateMutability": "nonpayable",
      "type": "function"
    },
    {
      "inputs": [
        {
          "components": [
            {
              "internalType": "address",
              "name": "userAddress",
              "type": "address"
            },
            {
              "components": [
                {
                  "internalType": "string",
                  "name": "name",
                  "type": "string"
                },
                {
                  "internalType": "string",
                  "name": "avatar",
                  "type": "string"
                },
                {
                  "internalType": "string",
                  "name": "banner",
                  "type": "string"
                },
                {
                  "internalType": "string",
                  "name": "age",
                  "type": "string"
                },
                {
                  "internalType": "string",
                  "name": "gender",
                  "type": "string"
                },
                {
                  "internalType": "string",
                  "name": "status",
                  "type": "string"
                },
                {
                  "internalType": "string",
                  "name": "country",
                  "type": "string"
                },
                {
                  "internalType": "string",
                  "name": "city",
                  "type": "string"
                }
              ],
              "internalType": "struct Decentra.Profile",
              "name": "profile",
              "type": "tuple"
            },
            {
              "internalType": "string",
              "name": "occupation",
              "type": "string"
            },
            {
              "internalType": "string",
              "name": "date_joined",
              "type": "string"
            },
            {
              "internalType": "uint256",
              "name": "followers",
              "type": "uint256"
            },
            {
              "internalType": "uint256",
              "name": "following",
              "type": "uint256"
            },
            {
              "internalType": "address[]",
              "name": "user_following",
              "type": "address[]"
            },
            {
              "internalType": "address[]",
              "name": "user_followed",
              "type": "address[]"
            }
          ],
          "internalType": "struct Decentra.user",
          "name": "_user",
          "type": "tuple"
        }
      ],
      "name": "updateUser",
      "outputs": [],
      "stateMutability": "nonpayable",
      "type": "function"
    },
    {
      "inputs": [
        {
          "internalType": "address",
          "name": "userAddress",
          "type": "address"
        }
      ],
      "name": "getUser",
      "outputs": [
        {
          "components": [
            {
              "internalType": "address",
              "name": "userAddress",
              "type": "address"
            },
            {
              "components": [
                {
                  "internalType": "string",
                  "name": "name",
                  "type": "string"
                },
                {
                  "internalType": "string",
                  "name": "avatar",
                  "type": "string"
                },
                {
                  "internalType": "string",
                  "name": "banner",
                  "type": "string"
                },
                {
                  "internalType": "string",
                  "name": "age",
                  "type": "string"
                },
                {
                  "internalType": "string",
                  "name": "gender",
                  "type": "string"
                },
                {
                  "internalType": "string",
                  "name": "status",
                  "type": "string"
                },
                {
                  "internalType": "string",
                  "name": "country",
                  "type": "string"
                },
                {
                  "internalType": "string",
                  "name": "city",
                  "type": "string"
                }
              ],
              "internalType": "struct Decentra.Profile",
              "name": "profile",
              "type": "tuple"
            },
            {
              "internalType": "string",
              "name": "occupation",
              "type": "string"
            },
            {
              "internalType": "string",
              "name": "date_joined",
              "type": "string"
            },
            {
              "internalType": "uint256",
              "name": "followers",
              "type": "uint256"
            },
            {
              "internalType": "uint256",
              "name": "following",
              "type": "uint256"
            },
            {
              "internalType": "address[]",
              "name": "user_following",
              "type": "address[]"
            },
            {
              "internalType": "address[]",
              "name": "user_followed",
              "type": "address[]"
            }
          ],
          "internalType": "struct Decentra.user",
          "name": "",
          "type": "tuple"
        }
      ],
      "stateMutability": "view",
      "type": "function",
      "constant": true
    },
    {
      "inputs": [],
      "name": "getAllUsers",
      "outputs": [
        {
          "components": [
            {
              "internalType": "address",
              "name": "userAddress",
              "type": "address"
            },
            {
              "components": [
                {
                  "internalType": "string",
                  "name": "name",
                  "type": "string"
                },
                {
                  "internalType": "string",
                  "name": "avatar",
                  "type": "string"
                },
                {
                  "internalType": "string",
                  "name": "banner",
                  "type": "string"
                },
                {
                  "internalType": "string",
                  "name": "age",
                  "type": "string"
                },
                {
                  "internalType": "string",
                  "name": "gender",
                  "type": "string"
                },
                {
                  "internalType": "string",
                  "name": "status",
                  "type": "string"
                },
                {
                  "internalType": "string",
                  "name": "country",
                  "type": "string"
                },
                {
                  "internalType": "string",
                  "name": "city",
                  "type": "string"
                }
              ],
              "internalType": "struct Decentra.Profile",
              "name": "profile",
              "type": "tuple"
            },
            {
              "internalType": "string",
              "name": "occupation",
              "type": "string"
            },
            {
              "internalType": "string",
              "name": "date_joined",
              "type": "string"
            },
            {
              "internalType": "uint256",
              "name": "followers",
              "type": "uint256"
            },
            {
              "internalType": "uint256",
              "name": "following",
              "type": "uint256"
            },
            {
              "internalType": "address[]",
              "name": "user_following",
              "type": "address[]"
            },
            {
              "internalType": "address[]",
              "name": "user_followed",
              "type": "address[]"
            }
          ],
          "internalType": "struct Decentra.user[]",
          "name": "",
          "type": "tuple[]"
        }
      ],
      "stateMutability": "view",
      "type": "function",
      "constant": true
    },
    {
      "inputs": [],
      "name": "getRandomUsers",
      "outputs": [
        {
          "components": [
            {
              "internalType": "address",
              "name": "userAddress",
              "type": "address"
            },
            {
              "components": [
                {
                  "internalType": "string",
                  "name": "name",
                  "type": "string"
                },
                {
                  "internalType": "string",
                  "name": "avatar",
                  "type": "string"
                },
                {
                  "internalType": "string",
                  "name": "banner",
                  "type": "string"
                },
                {
                  "internalType": "string",
                  "name": "age",
                  "type": "string"
                },
                {
                  "internalType": "string",
                  "name": "gender",
                  "type": "string"
                },
                {
                  "internalType": "string",
                  "name": "status",
                  "type": "string"
                },
                {
                  "internalType": "string",
                  "name": "country",
                  "type": "string"
                },
                {
                  "internalType": "string",
                  "name": "city",
                  "type": "string"
                }
              ],
              "internalType": "struct Decentra.Profile",
              "name": "profile",
              "type": "tuple"
            },
            {
              "internalType": "string",
              "name": "occupation",
              "type": "string"
            },
            {
              "internalType": "string",
              "name": "date_joined",
              "type": "string"
            },
            {
              "internalType": "uint256",
              "name": "followers",
              "type": "uint256"
            },
            {
              "internalType": "uint256",
              "name": "following",
              "type": "uint256"
            },
            {
              "internalType": "address[]",
              "name": "user_following",
              "type": "address[]"
            },
            {
              "internalType": "address[]",
              "name": "user_followed",
              "type": "address[]"
            }
          ],
          "internalType": "struct Decentra.user[]",
          "name": "",
          "type": "tuple[]"
        }
      ],
      "stateMutability": "view",
      "type": "function",
      "constant": true
    },
    {
      "inputs": [],
      "name": "getUserAddresses",
      "outputs": [
        {
          "internalType": "address[]",
          "name": "",
          "type": "address[]"
        }
      ],
      "stateMutability": "view",
      "type": "function",
      "constant": true
    },
    {
      "inputs": [
        {
          "internalType": "address",
          "name": "userAddress",
          "type": "address"
        }
      ],
      "name": "follow",
      "outputs": [],
      "stateMutability": "nonpayable",
      "type": "function"
    },
    {
      "inputs": [
        {
          "internalType": "address",
          "name": "userAddress",
          "type": "address"
        }
      ],
      "name": "unfollow",
      "outputs": [],
      "stateMutability": "nonpayable",
      "type": "function"
    },
    {
      "inputs": [
        {
          "internalType": "address",
          "name": "_userAddress",
          "type": "address"
        },
        {
          "internalType": "string",
          "name": "_text",
          "type": "string"
        },
        {
          "internalType": "string",
          "name": "_image",
          "type": "string"
        }
      ],
      "name": "addNotification",
      "outputs": [],
      "stateMutability": "nonpayable",
      "type": "function"
    },
    {
      "inputs": [
        {
          "internalType": "address",
          "name": "_userAddress",
          "type": "address"
        }
      ],
      "name": "getUserNotifications",
      "outputs": [
        {
          "components": [
            {
              "internalType": "uint256",
              "name": "id",
              "type": "uint256"
            },
            {
              "internalType": "string",
              "name": "text",
              "type": "string"
            },
            {
              "internalType": "string",
              "name": "image",
              "type": "string"
            }
          ],
          "internalType": "struct Decentra.Notification[]",
          "name": "",
          "type": "tuple[]"
        }
      ],
      "stateMutability": "view",
      "type": "function",
      "constant": true
    }
  ],
  "bytecode": "0x608060405234801561001057600080fd5b50600080546001600160a01b03191633179055612f52806100326000396000f3fe608060405234801561001057600080fd5b50600436106100a45760003560e01c8063015a4ead146100a9578063208aa59b146100be57806338c91910146100d15780634c184cb9146100fc5780634dbf27cc1461011157806355abc23b1461012457806357f31358146101375780636f77926b146101575780638aef1dd4146101775780638da5cb5b1461018a578063a591efde146101b5578063e2842d79146101ca575b600080fd5b6100bc6100b7366004612536565b6101d2565b005b6100bc6100cc366004612809565b61048d565b6100e46100df36600461292b565b6105de565b6040516100f39392919061299b565b60405180910390f35b610104610735565b6040516100f39190612b8e565b6100bc61011f366004612536565b6110c7565b6100bc610132366004612bf0565b611176565b61014a610145366004612536565b6111fa565b6040516100f39190612c63565b61016a610165366004612536565b61139d565b6040516100f39190612cf4565b6100bc610185366004612809565b611a7d565b60005461019d906001600160a01b031681565b6040516001600160a01b0390911681526020016100f3565b6101bd611c16565b6040516100f39190612d07565b610104611c78565b336000908152600160205260408082206001600160a01b0384168352908220600d90910191600e909101905b825481101561033c57836001600160a01b031683828154811061022357610223612d1a565b6000918252602090912001546001600160a01b03160361032a57825461024b90600190612d46565b81146102d0578254839061026190600190612d46565b8154811061027157610271612d1a565b9060005260206000200160009054906101000a90046001600160a01b03168382815481106102a1576102a1612d1a565b9060005260206000200160006101000a8154816001600160a01b0302191690836001600160a01b031602179055505b828054806102e0576102e0612d5f565b60008281526020808220830160001990810180546001600160a01b03191690559092019092553382526001905260408120600c0180549161032083612d75565b919050555061033c565b8061033481612d8c565b9150506101fe565b5060005b815481101561048757336001600160a01b031682828154811061036557610365612d1a565b6000918252602090912001546001600160a01b03160361047557815461038d90600190612d46565b811461041257815482906103a390600190612d46565b815481106103b3576103b3612d1a565b9060005260206000200160009054906101000a90046001600160a01b03168282815481106103e3576103e3612d1a565b9060005260206000200160006101000a8154816001600160a01b0302191690836001600160a01b031602179055505b8180548061042257610422612d5f565b60008281526020808220830160001990810180546001600160a01b03191690559092019092556001600160a01b03861682526001905260408120600b0180549161046b83612d75565b9190505550610487565b8061047f81612d8c565b915050610340565b50505050565b336000908152600160208181526040909220835181546001600160a01b0319166001600160a01b0390911617815591830151805184939283019081906104d39082612e28565b50602082015160018201906104e89082612e28565b50604082015160028201906104fd9082612e28565b50606082015160038201906105129082612e28565b50608082015160048201906105279082612e28565b5060a0820151600582019061053c9082612e28565b5060c082015160068201906105519082612e28565b5060e082015160078201906105669082612e28565b5050506040820151600982019061057d9082612e28565b506060820151600a8201906105929082612e28565b506080820151600b82015560a0820151600c82015560c082015180516105c291600d84019160209091019061240c565b5060e0820151805161048791600e84019160209091019061240c565b600360205281600052604060002081815481106105fa57600080fd5b90600052602060002090600302016000915091505080600001549080600101805461062490612da5565b80601f016020809104026020016040519081016040528092919081815260200182805461065090612da5565b801561069d5780601f106106725761010080835404028352916020019161069d565b820191906000526020600020905b81548152906001019060200180831161068057829003601f168201915b5050505050908060020180546106b290612da5565b80601f01602080910402602001604051908101604052809291908181526020018280546106de90612da5565b801561072b5780601f106107005761010080835404028352916020019161072b565b820191906000526020600020905b81548152906001019060200180831161070e57829003601f168201915b5050505050905083565b60025460609060006005821161074b578161074e565b60055b90506000826001600160401b0381111561076a5761076a612558565b604051908082528060200260200182016040528015610793578160200160208202803683370190505b50905060005b8381101561080e57600281815481106107b4576107b4612d1a565b9060005260206000200160009054906101000a90046001600160a01b03168282815181106107e4576107e4612d1a565b6001600160a01b03909216602092830291909101909101528061080681612d8c565b915050610799565b50600061081c600185612d46565b90505b801561090c576000610832826001612ee7565b604080514260208201526001600160601b03193360601b1691810191909152605481018490526074016040516020818303038152906040528051906020012060001c61087e9190612efa565b905082818151811061089257610892612d1a565b60200260200101518383815181106108ac576108ac612d1a565b60200260200101518484815181106108c6576108c6612d1a565b602002602001018584815181106108df576108df612d1a565b6001600160a01b03938416602091820292909201015291169052508061090481612d75565b91505061081f565b506000826001600160401b0381111561092757610927612558565b60405190808252806020026020018201604052801561096057816020015b61094d612471565b8152602001906001900390816109455790505b50905060005b838110156110be57600083828151811061098257610982612d1a565b6020026020010151905060016000826001600160a01b03166001600160a01b03168152602001908152602001600020604051806101000160405290816000820160009054906101000a90046001600160a01b03166001600160a01b03166001600160a01b031681526020016001820160405180610100016040529081600082018054610a0d90612da5565b80601f0160208091040260200160405190810160405280929190818152602001828054610a3990612da5565b8015610a865780601f10610a5b57610100808354040283529160200191610a86565b820191906000526020600020905b815481529060010190602001808311610a6957829003601f168201915b50505050508152602001600182018054610a9f90612da5565b80601f0160208091040260200160405190810160405280929190818152602001828054610acb90612da5565b8015610b185780601f10610aed57610100808354040283529160200191610b18565b820191906000526020600020905b815481529060010190602001808311610afb57829003601f168201915b50505050508152602001600282018054610b3190612da5565b80601f0160208091040260200160405190810160405280929190818152602001828054610b5d90612da5565b8015610baa5780601f10610b7f57610100808354040283529160200191610baa565b820191906000526020600020905b815481529060010190602001808311610b8d57829003601f168201915b50505050508152602001600382018054610bc390612da5565b80601f0160208091040260200160405190810160405280929190818152602001828054610bef90612da5565b8015610c3c5780601f10610c1157610100808354040283529160200191610c3c565b820191906000526020600020905b815481529060010190602001808311610c1f57829003601f168201915b50505050508152602001600482018054610c5590612da5565b80601f0160208091040260200160405190810160405280929190818152602001828054610c8190612da5565b8015610cce5780601f10610ca357610100808354040283529160200191610cce565b820191906000526020600020905b815481529060010190602001808311610cb157829003601f168201915b50505050508152602001600582018054610ce790612da5565b80601f0160208091040260200160405190810160405280929190818152602001828054610d1390612da5565b8015610d605780601f10610d3557610100808354040283529160200191610d60565b820191906000526020600020905b815481529060010190602001808311610d4357829003601f168201915b50505050508152602001600682018054610d7990612da5565b80601f0160208091040260200160405190810160405280929190818152602001828054610da590612da5565b8015610df25780601f10610dc757610100808354040283529160200191610df2565b820191906000526020600020905b815481529060010190602001808311610dd557829003601f168201915b50505050508152602001600782018054610e0b90612da5565b80601f0160208091040260200160405190810160405280929190818152602001828054610e3790612da5565b8015610e845780601f10610e5957610100808354040283529160200191610e84565b820191906000526020600020905b815481529060010190602001808311610e6757829003601f168201915b5050505050815250508152602001600982018054610ea190612da5565b80601f0160208091040260200160405190810160405280929190818152602001828054610ecd90612da5565b8015610f1a5780601f10610eef57610100808354040283529160200191610f1a565b820191906000526020600020905b815481529060010190602001808311610efd57829003601f168201915b50505050508152602001600a82018054610f3390612da5565b80601f0160208091040260200160405190810160405280929190818152602001828054610f5f90612da5565b8015610fac5780601f10610f8157610100808354040283529160200191610fac565b820191906000526020600020905b815481529060010190602001808311610f8f57829003601f168201915b50505050508152602001600b8201548152602001600c8201548152602001600d820180548060200260200160405190810160405280929190818152602001828054801561102257602002820191906000526020600020905b81546001600160a01b03168152600190910190602001808311611004575b50505050508152602001600e820180548060200260200160405190810160405280929190818152602001828054801561108457602002820191906000526020600020905b81546001600160a01b03168152600190910190602001808311611066575b50505050508152505083838151811061109f5761109f612d1a565b60200260200101819052505080806110b690612d8c565b915050610966565b50949350505050565b3360008181526001602081815260408320600d810180549384018155845290832090910180546001600160a01b0319166001600160a01b038616179055918152600c90910180549161111883612d8c565b90915550506001600160a01b03811660008181526001602081815260408320600e810180549384018155845290832090910180546001600160a01b03191633179055918152600b90910180549161116e83612d8c565b919050555050565b6001600160a01b03831660009081526003602081815260408084208054825160608101845281815280850189815293810188905260018083018455838852949096208651958202019485559151909491939192839291908201906111da9082612e28565b50604082015160028201906111ef9082612e28565b505050505050505050565b6001600160a01b0381166000908152600360209081526040808320805482518185028101850190935280835260609492939192909184015b8282101561139257838290600052602060002090600302016040518060600160405290816000820154815260200160018201805461126f90612da5565b80601f016020809104026020016040519081016040528092919081815260200182805461129b90612da5565b80156112e85780601f106112bd576101008083540402835291602001916112e8565b820191906000526020600020905b8154815290600101906020018083116112cb57829003601f168201915b5050505050815260200160028201805461130190612da5565b80601f016020809104026020016040519081016040528092919081815260200182805461132d90612da5565b801561137a5780601f1061134f5761010080835404028352916020019161137a565b820191906000526020600020905b81548152906001019060200180831161135d57829003601f168201915b50505050508152505081526020019060010190611232565b505050509050919050565b6113a5612471565b6001600160a01b03808316600090815260016020818152604092839020835161010080820186528254909616815284519586019094529182018054939492939185019291829082906113f690612da5565b80601f016020809104026020016040519081016040528092919081815260200182805461142290612da5565b801561146f5780601f106114445761010080835404028352916020019161146f565b820191906000526020600020905b81548152906001019060200180831161145257829003601f168201915b5050505050815260200160018201805461148890612da5565b80601f01602080910402602001604051908101604052809291908181526020018280546114b490612da5565b80156115015780601f106114d657610100808354040283529160200191611501565b820191906000526020600020905b8154815290600101906020018083116114e457829003601f168201915b5050505050815260200160028201805461151a90612da5565b80601f016020809104026020016040519081016040528092919081815260200182805461154690612da5565b80156115935780601f1061156857610100808354040283529160200191611593565b820191906000526020600020905b81548152906001019060200180831161157657829003601f168201915b505050505081526020016003820180546115ac90612da5565b80601f01602080910402602001604051908101604052809291908181526020018280546115d890612da5565b80156116255780601f106115fa57610100808354040283529160200191611625565b820191906000526020600020905b81548152906001019060200180831161160857829003601f168201915b5050505050815260200160048201805461163e90612da5565b80601f016020809104026020016040519081016040528092919081815260200182805461166a90612da5565b80156116b75780601f1061168c576101008083540402835291602001916116b7565b820191906000526020600020905b81548152906001019060200180831161169a57829003601f168201915b505050505081526020016005820180546116d090612da5565b80601f01602080910402602001604051908101604052809291908181526020018280546116fc90612da5565b80156117495780601f1061171e57610100808354040283529160200191611749565b820191906000526020600020905b81548152906001019060200180831161172c57829003601f168201915b5050505050815260200160068201805461176290612da5565b80601f016020809104026020016040519081016040528092919081815260200182805461178e90612da5565b80156117db5780601f106117b0576101008083540402835291602001916117db565b820191906000526020600020905b8154815290600101906020018083116117be57829003601f168201915b505050505081526020016007820180546117f490612da5565b80601f016020809104026020016040519081016040528092919081815260200182805461182090612da5565b801561186d5780601f106118425761010080835404028352916020019161186d565b820191906000526020600020905b81548152906001019060200180831161185057829003601f168201915b505050505081525050815260200160098201805461188a90612da5565b80601f01602080910402602001604051908101604052809291908181526020018280546118b690612da5565b80156119035780601f106118d857610100808354040283529160200191611903565b820191906000526020600020905b8154815290600101906020018083116118e657829003601f168201915b50505050508152602001600a8201805461191c90612da5565b80601f016020809104026020016040519081016040528092919081815260200182805461194890612da5565b80156119955780601f1061196a57610100808354040283529160200191611995565b820191906000526020600020905b81548152906001019060200180831161197857829003601f168201915b50505050508152602001600b8201548152602001600c8201548152602001600d8201805480602002602001604051908101604052809291908181526020018280548015611a0b57602002820191906000526020600020905b81546001600160a01b031681526001909101906020018083116119ed575b50505050508152602001600e8201805480602002602001604051908101604052809291908181526020018280548015611a6d57602002820191906000526020600020905b81546001600160a01b03168152600190910190602001808311611a4f575b5050505050815250509050919050565b336000908152600160208181526040909220835181546001600160a01b0319166001600160a01b039091161781559183015180518493928301908190611ac39082612e28565b5060208201516001820190611ad89082612e28565b5060408201516002820190611aed9082612e28565b5060608201516003820190611b029082612e28565b5060808201516004820190611b179082612e28565b5060a08201516005820190611b2c9082612e28565b5060c08201516006820190611b419082612e28565b5060e08201516007820190611b569082612e28565b50505060408201516009820190611b6d9082612e28565b506060820151600a820190611b829082612e28565b506080820151600b82015560a0820151600c82015560c08201518051611bb291600d84019160209091019061240c565b5060e08201518051611bce91600e84019160209091019061240c565b5050600280546001810182556000919091527f405787fa12a823e0f2b7631cc41b3ba8828b3321ca811111fa75cd3aa3bb5ace0180546001600160a01b031916331790555050565b60606002805480602002602001604051908101604052809291908181526020018280548015611c6e57602002820191906000526020600020905b81546001600160a01b03168152600190910190602001808311611c50575b5050505050905090565b6002546060906000906001600160401b03811115611c9857611c98612558565b604051908082528060200260200182016040528015611cd157816020015b611cbe612471565b815260200190600190039081611cb65790505b50905060005b600254811015612406576001600060028381548110611cf857611cf8612d1a565b60009182526020808320909101546001600160a01b03908116845283820194909452604092830190912082516101008181018552825490951681528351948501909352600181018054939491939285019282908290611d5690612da5565b80601f0160208091040260200160405190810160405280929190818152602001828054611d8290612da5565b8015611dcf5780601f10611da457610100808354040283529160200191611dcf565b820191906000526020600020905b815481529060010190602001808311611db257829003601f168201915b50505050508152602001600182018054611de890612da5565b80601f0160208091040260200160405190810160405280929190818152602001828054611e1490612da5565b8015611e615780601f10611e3657610100808354040283529160200191611e61565b820191906000526020600020905b815481529060010190602001808311611e4457829003601f168201915b50505050508152602001600282018054611e7a90612da5565b80601f0160208091040260200160405190810160405280929190818152602001828054611ea690612da5565b8015611ef35780601f10611ec857610100808354040283529160200191611ef3565b820191906000526020600020905b815481529060010190602001808311611ed657829003601f168201915b50505050508152602001600382018054611f0c90612da5565b80601f0160208091040260200160405190810160405280929190818152602001828054611f3890612da5565b8015611f855780601f10611f5a57610100808354040283529160200191611f85565b820191906000526020600020905b815481529060010190602001808311611f6857829003601f168201915b50505050508152602001600482018054611f9e90612da5565b80601f0160208091040260200160405190810160405280929190818152602001828054611fca90612da5565b80156120175780601f10611fec57610100808354040283529160200191612017565b820191906000526020600020905b815481529060010190602001808311611ffa57829003601f168201915b5050505050815260200160058201805461203090612da5565b80601f016020809104026020016040519081016040528092919081815260200182805461205c90612da5565b80156120a95780601f1061207e576101008083540402835291602001916120a9565b820191906000526020600020905b81548152906001019060200180831161208c57829003601f168201915b505050505081526020016006820180546120c290612da5565b80601f01602080910402602001604051908101604052809291908181526020018280546120ee90612da5565b801561213b5780601f106121105761010080835404028352916020019161213b565b820191906000526020600020905b81548152906001019060200180831161211e57829003601f168201915b5050505050815260200160078201805461215490612da5565b80601f016020809104026020016040519081016040528092919081815260200182805461218090612da5565b80156121cd5780601f106121a2576101008083540402835291602001916121cd565b820191906000526020600020905b8154815290600101906020018083116121b057829003601f168201915b50505050508152505081526020016009820180546121ea90612da5565b80601f016020809104026020016040519081016040528092919081815260200182805461221690612da5565b80156122635780601f1061223857610100808354040283529160200191612263565b820191906000526020600020905b81548152906001019060200180831161224657829003601f168201915b50505050508152602001600a8201805461227c90612da5565b80601f01602080910402602001604051908101604052809291908181526020018280546122a890612da5565b80156122f55780601f106122ca576101008083540402835291602001916122f5565b820191906000526020600020905b8154815290600101906020018083116122d857829003601f168201915b50505050508152602001600b8201548152602001600c8201548152602001600d820180548060200260200160405190810160405280929190818152602001828054801561236b57602002820191906000526020600020905b81546001600160a01b0316815260019091019060200180831161234d575b50505050508152602001600e82018054806020026020016040519081016040528092919081815260200182805480156123cd57602002820191906000526020600020905b81546001600160a01b031681526001909101906020018083116123af575b5050505050815250508282815181106123e8576123e8612d1a565b602002602001018190525080806123fe90612d8c565b915050611cd7565b50919050565b828054828255906000526020600020908101928215612461579160200282015b8281111561246157825182546001600160a01b0319166001600160a01b0390911617825560209092019160019091019061242c565b5061246d929150612505565b5090565b60405180610100016040528060006001600160a01b031681526020016124d560405180610100016040528060608152602001606081526020016060815260200160608152602001606081526020016060815260200160608152602001606081525090565b81526020016060815260200160608152602001600081526020016000815260200160608152602001606081525090565b5b8082111561246d5760008155600101612506565b80356001600160a01b038116811461253157600080fd5b919050565b60006020828403121561254857600080fd5b6125518261251a565b9392505050565b634e487b7160e01b600052604160045260246000fd5b60405161010081016001600160401b038111828210171561259157612591612558565b60405290565b604051601f8201601f191681016001600160401b03811182821017156125bf576125bf612558565b604052919050565b600082601f8301126125d857600080fd5b81356001600160401b038111156125f1576125f1612558565b612604601f8201601f1916602001612597565b81815284602083860101111561261957600080fd5b816020850160208301376000918101602001919091529392505050565b6000610100828403121561264957600080fd5b61265161256e565b905081356001600160401b038082111561266a57600080fd5b612676858386016125c7565b8352602084013591508082111561268c57600080fd5b612698858386016125c7565b602084015260408401359150808211156126b157600080fd5b6126bd858386016125c7565b604084015260608401359150808211156126d657600080fd5b6126e2858386016125c7565b606084015260808401359150808211156126fb57600080fd5b612707858386016125c7565b608084015260a084013591508082111561272057600080fd5b61272c858386016125c7565b60a084015260c084013591508082111561274557600080fd5b612751858386016125c7565b60c084015260e084013591508082111561276a57600080fd5b50612777848285016125c7565b60e08301525092915050565b600082601f83011261279457600080fd5b813560206001600160401b038211156127af576127af612558565b8160051b6127be828201612597565b92835284810182019282810190878511156127d857600080fd5b83870192505b848310156127fe576127ef8361251a565b825291830191908301906127de565b979650505050505050565b60006020828403121561281b57600080fd5b81356001600160401b038082111561283257600080fd5b90830190610100828603121561284757600080fd5b61284f61256e565b6128588361251a565b815260208301358281111561286c57600080fd5b61287887828601612636565b60208301525060408301358281111561289057600080fd5b61289c878286016125c7565b6040830152506060830135828111156128b457600080fd5b6128c0878286016125c7565b6060830152506080830135608082015260a083013560a082015260c0830135828111156128ec57600080fd5b6128f887828601612783565b60c08301525060e08301358281111561291057600080fd5b61291c87828601612783565b60e08301525095945050505050565b6000806040838503121561293e57600080fd5b6129478361251a565b946020939093013593505050565b6000815180845260005b8181101561297b5760208185018101518683018201520161295f565b506000602082860101526020601f19601f83011685010191505092915050565b8381526060602082015260006129b46060830185612955565b82810360408401526129c68185612955565b9695505050505050565b600061010082518185526129e682860182612955565b91505060208301518482036020860152612a008282612955565b91505060408301518482036040860152612a1a8282612955565b91505060608301518482036060860152612a348282612955565b91505060808301518482036080860152612a4e8282612955565b91505060a083015184820360a0860152612a688282612955565b91505060c083015184820360c0860152612a828282612955565b91505060e083015184820360e0860152612a9c8282612955565b95945050505050565b600081518084526020808501945080840160005b83811015612ade5781516001600160a01b031687529582019590820190600101612ab9565b509495945050505050565b80516001600160a01b0316825260006101006020830151816020860152612b12828601826129d0565b91505060408301518482036040860152612b2c8282612955565b91505060608301518482036060860152612b468282612955565b9150506080830151608085015260a083015160a085015260c083015184820360c0860152612b748282612aa5565b91505060e083015184820360e0860152612a9c8282612aa5565b6000602080830181845280855180835260408601915060408160051b870101925083870160005b82811015612be357603f19888603018452612bd1858351612ae9565b94509285019290850190600101612bb5565b5092979650505050505050565b600080600060608486031215612c0557600080fd5b612c0e8461251a565b925060208401356001600160401b0380821115612c2a57600080fd5b612c36878388016125c7565b93506040860135915080821115612c4c57600080fd5b50612c59868287016125c7565b9150509250925092565b60006020808301818452808551808352604092508286019150828160051b87010184880160005b83811015612ce657603f19898403018552815160608151855288820151818a870152612cb882870182612955565b91505087820151915084810388860152612cd28183612955565b968901969450505090860190600101612c8a565b509098975050505050505050565b6020815260006125516020830184612ae9565b6020815260006125516020830184612aa5565b634e487b7160e01b600052603260045260246000fd5b634e487b7160e01b600052601160045260246000fd5b81810381811115612d5957612d59612d30565b92915050565b634e487b7160e01b600052603160045260246000fd5b600081612d8457612d84612d30565b506000190190565b600060018201612d9e57612d9e612d30565b5060010190565b600181811c90821680612db957607f821691505b60208210810361240657634e487b7160e01b600052602260045260246000fd5b601f821115612e2357600081815260208120601f850160051c81016020861015612e005750805b601f850160051c820191505b81811015612e1f57828155600101612e0c565b5050505b505050565b81516001600160401b03811115612e4157612e41612558565b612e5581612e4f8454612da5565b84612dd9565b602080601f831160018114612e8a5760008415612e725750858301515b600019600386901b1c1916600185901b178555612e1f565b600085815260208120601f198616915b82811015612eb957888601518255948401946001909101908401612e9a565b5085821015612ed75787850151600019600388901b60f8161c191681555b5050505050600190811b01905550565b80820180821115612d5957612d59612d30565b600082612f1757634e487b7160e01b600052601260045260246000fd5b50069056fea264697066735822122095b4dc980b1f03542d0a7f09698f2ec71972bb06181aa9b7c362ff86d724711764736f6c63430008130033",
  "immutableReferences": {},
  "source": "// SPDX-License-Identifier: UNLICENSED\r\npragma solidity ^0.8.17;\r\n\r\ncontract Decentra {\r\n    address public owner;\r\n    \r\n    constructor() {\r\n        owner = msg.sender;\r\n    }\r\n\r\n    struct Profile {\r\n        string name;    \r\n        string avatar;\r\n        string banner;\r\n        string age;\r\n        string gender;\r\n        string status;\r\n        string country;\r\n        string city;\r\n    }\r\n    struct user {\r\n        address userAddress;\r\n        Profile profile;\r\n        string occupation;\r\n        string date_joined;\r\n        uint256 followers;\r\n        uint256 following;\r\n        address[] user_following;\r\n        address[] user_followed;\r\n    }\r\n\r\n    \r\n    \r\n    struct Notification {\r\n        uint256 id;\r\n        string text;\r\n        string image;\r\n    }\r\n\r\n   \r\n\r\n    mapping (address => user) Users;\r\n    address[] private userAddresses;\r\n    mapping(address => Notification[]) public userNotifications;\r\n\r\n    \r\n    \r\n   \r\n\r\n    \r\n\r\n    function createUser(user memory _user) public {\r\n        Users[msg.sender] = _user;\r\n        userAddresses.push(msg.sender);\r\n    }\r\n\r\n    function updateUser(user memory _user) public {\r\n     Users[msg.sender] = _user;\r\n    }\r\n\r\n    function getUser(address userAddress) public view returns (user memory) {\r\n        return Users[userAddress];\r\n    }\r\n\r\n    function getAllUsers() public view returns (user[] memory) {\r\n        user[] memory allUsers = new user[](userAddresses.length);\r\n        for (uint256 i = 0; i < userAddresses.length; i++) {\r\n            allUsers[i] = Users[userAddresses[i]];\r\n        }\r\n        return allUsers;\r\n    }\r\n//     function getUsers(uint256 numberOfUsers) public view returns (user[] memory) {\r\n//         if (numberOfUsers >= userAddresses.length) {\r\n//             numberOfUsers = userAddresses.length;\r\n//         }\r\n//         user[] memory usersToRetrieve = new user[](numberOfUsers);\r\n//         for (uint256 i = 0; i < numberOfUsers; i++) {\r\n//             usersToRetrieve[i] = Users[userAddresses[i]];\r\n//         }\r\n//         return usersToRetrieve;\r\n//    }\r\n    function getRandomUsers() public view returns (user[] memory) {\r\n    uint totalUsers = userAddresses.length;\r\n    uint count = totalUsers > 5 ? 5 : totalUsers;\r\n\r\n    address[] memory shuffledUserAddresses = new address[](totalUsers);\r\n    for (uint i = 0; i < totalUsers; i++) {\r\n        shuffledUserAddresses[i] = userAddresses[i];\r\n    }\r\n\r\n    // Shuffle the user addresses using Fisher-Yates algorithm\r\n    for (uint i = totalUsers - 1; i > 0; i--) {\r\n        uint j = uint(keccak256(abi.encodePacked(block.timestamp, msg.sender, i))) % (i + 1);\r\n        (shuffledUserAddresses[i], shuffledUserAddresses[j]) = (shuffledUserAddresses[j], shuffledUserAddresses[i]);\r\n    }\r\n\r\n    user[] memory randomUsers = new user[](count);\r\n    for (uint i = 0; i < count; i++) {\r\n        address userAddress = shuffledUserAddresses[i];\r\n        randomUsers[i] = Users[userAddress];\r\n    }\r\n\r\n    return randomUsers;\r\n}\r\n\r\n\r\n\r\n    function getUserAddresses() public view returns (address[] memory) {\r\n        return userAddresses;\r\n    }\r\n\r\n    // Follow Logic\r\n    function follow(address userAddress) public {\r\n        Users[msg.sender].user_following.push(userAddress);\r\n        Users[msg.sender].following++;\r\n        Users[userAddress].user_followed.push(msg.sender);\r\n        Users[userAddress].followers++;\r\n    }\r\n\r\n    function unfollow(address userAddress) public {\r\n        address[] storage following = Users[msg.sender].user_following;\r\n        address[] storage followed = Users[userAddress].user_followed;\r\n        for (uint256 i = 0; i < following.length; i++) {\r\n            if (following[i] == userAddress) {\r\n                if (i != following.length - 1) {\r\n                    // Replace the element to be removed with the last element\r\n                    following[i] = following[following.length - 1];\r\n                }\r\n                // Remove the last element\r\n                following.pop();\r\n                Users[msg.sender].following--;\r\n                break; // Exit the loop once the user is found and removed\r\n            }\r\n        }\r\n\r\n        for (uint256 i = 0; i < followed.length; i++) {\r\n            if (followed[i] == msg.sender) {\r\n                if (i != followed.length - 1) {\r\n                    // Replace the element to be removed with the last element\r\n                    followed[i] = followed[followed.length - 1];\r\n                }\r\n                // Remove the last element\r\n                followed.pop();\r\n                Users[userAddress].followers--;\r\n                break; // Exit the loop once the follower is found and removed\r\n            }\r\n        }\r\n    }\r\n\r\n   \r\n    \r\n   \r\n    // Function to add a new notification\r\n    function addNotification(address _userAddress, string memory _text, string memory _image) public {\r\n        Notification[] storage noti = userNotifications[_userAddress];\r\n        uint256 notiId = noti.length;\r\n        Notification memory newNoti = Notification(notiId, _text, _image);\r\n        noti.push(newNoti);\r\n    }\r\n\r\n    // Function to retrieve a user's notifications\r\n    function getUserNotifications(address _userAddress) public view returns (Notification[] memory) {\r\n        return userNotifications[_userAddress];\r\n    }\r\n}   ",
  "sourcePath": "D:\\Docs\\Engineering\\Src\\Web\\FYP\\Code\\decentra\\contracts\\Decentra.sol",
  "compiler": {
    "name": "solc",
    "version": "0.8.19+commit.7dd6d404.Emscripten.clang"
  },
  "schemaVersion": "3.4.13",
  "updatedAt": "2023-09-07T07:11:30.210Z",
  "networkType": "ethereum",
  "devdoc": {
    "kind": "dev",
    "methods": {},
    "version": 1
  },
  "userdoc": {
    "kind": "user",
    "methods": {},
    "version": 1
  }
}